{"src/contracts/McFunFactory.sol":{"McFunFactory":{"abi":[{"inputs":[],"name":"AMMCreationFailed","type":"error"},{"inputs":[],"name":"InvalidETHAmount","type":"error"},{"inputs":[],"name":"InvalidLiquidityPercent","type":"error"},{"inputs":[],"name":"InvalidNameOrSymbol","type":"error"},{"inputs":[],"name":"ReentrancyGuard","type":"error"},{"inputs":[],"name":"TokenCreationFailed","type":"error"},{"anonymous":false,"inputs":[{"indexed":true,"internalType":"address","name":"tokenAddress","type":"address"},{"indexed":true,"internalType":"address","name":"ammAddress","type":"address"},{"indexed":false,"internalType":"string","name":"name","type":"string"},{"indexed":false,"internalType":"string","name":"symbol","type":"string"},{"indexed":true,"internalType":"address","name":"creator","type":"address"},{"indexed":false,"internalType":"uint256","name":"liquidityPercent","type":"uint256"},{"indexed":false,"internalType":"uint256","name":"initialLiquidityETH","type":"uint256"}],"name":"TokenLaunched","type":"event"},{"inputs":[],"name":"DEAD_ADDRESS","outputs":[{"internalType":"address","name":"","type":"address"}],"stateMutability":"view","type":"function"},{"inputs":[],"name":"MAX_NAME_LENGTH","outputs":[{"internalType":"uint256","name":"","type":"uint256"}],"stateMutability":"view","type":"function"},{"inputs":[],"name":"MAX_SYMBOL_LENGTH","outputs":[{"internalType":"uint256","name":"","type":"uint256"}],"stateMutability":"view","type":"function"},{"inputs":[],"name":"MIN_LIQUIDITY_ETH","outputs":[{"internalType":"uint256","name":"","type":"uint256"}],"stateMutability":"view","type":"function"},{"inputs":[],"name":"MIN_LIQUIDITY_PERCENT","outputs":[{"internalType":"uint256","name":"","type":"uint256"}],"stateMutability":"view","type":"function"},{"inputs":[],"name":"TOTAL_SUPPLY","outputs":[{"internalType":"uint256","name":"","type":"uint256"}],"stateMutability":"view","type":"function"},{"inputs":[{"internalType":"string","name":"name","type":"string"},{"internalType":"string","name":"symbol","type":"string"},{"internalType":"uint256","name":"liquidityPercent","type":"uint256"}],"name":"createToken","outputs":[{"internalType":"address","name":"tokenAddress","type":"address"},{"internalType":"address","name":"ammAddress","type":"address"}],"stateMutability":"payable","type":"function"},{"inputs":[{"internalType":"uint256","name":"index","type":"uint256"}],"name":"getToken","outputs":[{"components":[{"internalType":"address","name":"tokenAddress","type":"address"},{"internalType":"address","name":"ammAddress","type":"address"},{"internalType":"string","name":"name","type":"string"},{"internalType":"string","name":"symbol","type":"string"},{"internalType":"address","name":"creator","type":"address"},{"internalType":"uint256","name":"timestamp","type":"uint256"},{"internalType":"uint256","name":"initialLiquidityETH","type":"uint256"},{"internalType":"uint256","name":"liquidityPercent","type":"uint256"}],"internalType":"struct McFunFactory.TokenInfo","name":"","type":"tuple"}],"stateMutability":"view","type":"function"},{"inputs":[],"name":"getTokenCount","outputs":[{"internalType":"uint256","name":"","type":"uint256"}],"stateMutability":"view","type":"function"},{"inputs":[{"internalType":"address","name":"","type":"address"}],"name":"tokenToAMM","outputs":[{"internalType":"address","name":"","type":"address"}],"stateMutability":"view","type":"function"},{"inputs":[{"internalType":"uint256","name":"","type":"uint256"}],"name":"tokens","outputs":[{"internalType":"address","name":"tokenAddress","type":"address"},{"internalType":"address","name":"ammAddress","type":"address"},{"internalType":"string","name":"name","type":"string"},{"internalType":"string","name":"symbol","type":"string"},{"internalType":"address","name":"creator","type":"address"},{"internalType":"uint256","name":"timestamp","type":"uint256"},{"internalType":"uint256","name":"initialLiquidityETH","type":"uint256"},{"internalType":"uint256","name":"liquidityPercent","type":"uint256"}],"stateMutability":"view","type":"function"}],"evm":{"bytecode":{"linkReferences":{},"object":"6080604052600160025534801561001557600080fd5b50612f8b806100256000396000f3fe608060405260043610620000a95760003560e01c806378a89567116200006c57806378a8956714620001bd5780638607498514620001d4578063902d55a514620001eb578063c342381e146200020b578063e3d891711462000222578063e4b50cb8146200023957600080fd5b80632610942c14620000ae5780634e6fd6c414620001055780634f64b2be146200011d5780635b06053014620001585780635d2301101462000190575b600080fd5b348015620000bb57600080fd5b50620000e8620000cd36600462000cd7565b6001602052600090815260409020546001600160a01b031681565b6040516001600160a01b0390911681526020015b60405180910390f35b3480156200011257600080fd5b50620000e861dead81565b3480156200012a57600080fd5b50620001426200013c36600462000d09565b6200026d565b604051620000fc98979695949392919062000d77565b6200016f6200016936600462000e8f565b620003fb565b604080516001600160a01b03938416815292909116602083015201620000fc565b3480156200019d57600080fd5b50620001ae67016345785d8a000081565b604051908152602001620000fc565b348015620001ca57600080fd5b50600054620001ae565b348015620001e157600080fd5b50620001ae601481565b348015620001f857600080fd5b50620001ae69d3c21bcecceda100000081565b3480156200021857600080fd5b50620001ae603281565b3480156200022f57600080fd5b50620001ae600581565b3480156200024657600080fd5b506200025e6200025836600462000d09565b62000a4c565b604051620000fc919062000f03565b600081815481106200027e57600080fd5b60009182526020909120600890910201805460018201546002830180546001600160a01b039384169550929091169291620002b99062000fb8565b80601f0160208091040260200160405190810160405280929190818152602001828054620002e79062000fb8565b8015620003385780601f106200030c5761010080835404028352916020019162000338565b820191906000526020600020905b8154815290600101906020018083116200031a57829003601f168201915b5050505050908060030180546200034f9062000fb8565b80601f01602080910402602001604051908101604052809291908181526020018280546200037d9062000fb8565b8015620003ce5780601f10620003a257610100808354040283529160200191620003ce565b820191906000526020600020905b815481529060010190602001808311620003b057829003601f168201915b5050505060048301546005840154600685015460079095015493946001600160a01b039092169390925088565b60008060025460011462000422576040516345f5ce8b60e11b815260040160405180910390fd5b6002805567016345785d8a0000341015620004505760405163090ac0d760e21b815260040160405180910390fd5b6032831080620004605750606483115b156200047f576040516351424f0b60e11b815260040160405180910390fd5b845115806200048d57508351155b15620004ac57604051632d903dc960e21b815260040160405180910390fd5b601485511180620004be575060058451115b15620004dd57604051632d903dc960e21b815260040160405180910390fd5b600060405180602001620004f19062000cbb565b601f1982820381018352601f90910116604081905262000518908890889060200162000ff4565b60408051601f198184030181529082905262000538929160200162001026565b60405160208183030381529060405290508051602082016000f092506001600160a01b0383166200057c57604051633291986160e11b815260040160405180910390fd5b600060405180602001620005909062000cc9565b601f1982820381018352601f9091011660408181526001600160a01b03871660208301520160408051601f1981840301815290829052620005d5929160200162001026565b60405160208183030381529060405290508051602082016000f092506001600160a01b0383166200061957604051639d63651f60e01b815260040160405180910390fd5b60006064620006338769d3c21bcecceda10000006200106f565b6200063f91906200108f565b90506000620006598269d3c21bcecceda1000000620010b2565b90508460016000886001600160a01b03166001600160a01b0316815260200190815260200160002060006101000a8154816001600160a01b0302191690836001600160a01b031602179055506000604051806101000160405280886001600160a01b03168152602001876001600160a01b031681526020018b81526020018a8152602001336001600160a01b0316815260200142815260200134815260200189815250908060018154018082558091505060019003906000526020600020906008020160009091909190915060008201518160000160006101000a8154816001600160a01b0302191690836001600160a01b0316021790555060208201518160010160006101000a8154816001600160a01b0302191690836001600160a01b0316021790555060408201518160020190816200079691906200111b565b5060608201516003820190620007ad90826200111b565b506080820151600482810180546001600160a01b0319166001600160a01b0393841617905560a0840151600584015560c0840151600684015560e09093015160079092019190915560405163a9059cbb60e01b815233928101929092526024820183905287169063a9059cbb906044016020604051808303816000875af11580156200083d573d6000803e3d6000fd5b505050506040513d601f19601f82011682018060405250810190620008639190620011e8565b620008b55760405162461bcd60e51b815260206004820152601760248201527f43726561746f72207472616e73666572206661696c656400000000000000000060448201526064015b60405180910390fd5b60405163095ea7b360e01b81526001600160a01b0386811660048301526024820184905287169063095ea7b3906044016020604051808303816000875af115801562000905573d6000803e3d6000fd5b505050506040513d601f19601f820116820180604052508101906200092b9190620011e8565b6200096b5760405162461bcd60e51b815260206004820152600f60248201526e105c1c1c9bdd985b0819985a5b1959608a1b6044820152606401620008ac565b6040516328e32c8560e11b8152600481018390526001600160a01b038616906351c6590a90349060240160206040518083038185885af1158015620009b4573d6000803e3d6000fd5b50505050506040513d601f19601f82011682018060405250810190620009db91906200120c565b50336001600160a01b0316856001600160a01b0316876001600160a01b03167fd5056a4f9a1b7dcdc3883feaba86e2c813a1b60814ab674f4f2c53120731b39f8c8c8c3460405162000a31949392919062001226565b60405180910390a45050505060016002559094909350915050565b62000ab060405180610100016040528060006001600160a01b0316815260200160006001600160a01b03168152602001606081526020016060815260200160006001600160a01b031681526020016000815260200160008152602001600081525090565b600054821062000af95760405162461bcd60e51b8152602060048201526013602482015272496e646578206f7574206f6620626f756e647360681b6044820152606401620008ac565b6000828154811062000b0f5762000b0f62001263565b60009182526020918290206040805161010081018252600890930290910180546001600160a01b039081168452600182015416938301939093526002830180549293929184019162000b619062000fb8565b80601f016020809104026020016040519081016040528092919081815260200182805462000b8f9062000fb8565b801562000be05780601f1062000bb45761010080835404028352916020019162000be0565b820191906000526020600020905b81548152906001019060200180831162000bc257829003601f168201915b5050505050815260200160038201805462000bfb9062000fb8565b80601f016020809104026020016040519081016040528092919081815260200182805462000c299062000fb8565b801562000c7a5780601f1062000c4e5761010080835404028352916020019162000c7a565b820191906000526020600020905b81548152906001019060200180831162000c5c57829003601f168201915b505050918352505060048201546001600160a01b03166020820152600582015460408201526006820154606082015260079091015460809091015292915050565b610b9b806200127a83390190565b6111418062001e1583390190565b60006020828403121562000cea57600080fd5b81356001600160a01b038116811462000d0257600080fd5b9392505050565b60006020828403121562000d1c57600080fd5b5035919050565b60005b8381101562000d4057818101518382015260200162000d26565b50506000910152565b6000815180845262000d6381602086016020860162000d23565b601f01601f19169290920160200192915050565b6001600160a01b03898116825288811660208301526101006040830181905260009162000da78483018b62000d49565b9150838203606085015262000dbd828a62000d49565b97166080840152505060a081019390935260c083019190915260e090910152949350505050565b634e487b7160e01b600052604160045260246000fd5b600082601f83011262000e0c57600080fd5b813567ffffffffffffffff8082111562000e2a5762000e2a62000de4565b604051601f8301601f19908116603f0116810190828211818310171562000e555762000e5562000de4565b8160405283815286602085880101111562000e6f57600080fd5b836020870160208301376000602085830101528094505050505092915050565b60008060006060848603121562000ea557600080fd5b833567ffffffffffffffff8082111562000ebe57600080fd5b62000ecc8783880162000dfa565b9450602086013591508082111562000ee357600080fd5b5062000ef28682870162000dfa565b925050604084013590509250925092565b602080825282516001600160a01b03168282015282015160009062000f3360408401826001600160a01b03169052565b50604083015161010080606085015262000f5261012085018362000d49565b91506060850151601f1985840301608086015262000f71838262000d49565b925050608085015162000f8f60a08601826001600160a01b03169052565b5060a085015160c085015260c085015160e085015260e085015181850152508091505092915050565b600181811c9082168062000fcd57607f821691505b60208210810362000fee57634e487b7160e01b600052602260045260246000fd5b50919050565b60408152600062001009604083018562000d49565b82810360208401526200101d818562000d49565b95945050505050565b600083516200103a81846020880162000d23565b8351908301906200105081836020880162000d23565b01949350505050565b634e487b7160e01b600052601160045260246000fd5b808202811582820484141762001089576200108962001059565b92915050565b600082620010ad57634e487b7160e01b600052601260045260246000fd5b500490565b8181038181111562001089576200108962001059565b601f8211156200111657600081815260208120601f850160051c81016020861015620010f15750805b601f850160051c820191505b818110156200111257828155600101620010fd565b5050505b505050565b815167ffffffffffffffff81111562001138576200113862000de4565b620011508162001149845462000fb8565b84620010c8565b602080601f8311600181146200118857600084156200116f5750858301515b600019600386901b1c1916600185901b17855562001112565b600085815260208120601f198616915b82811015620011b95788860151825594840194600190910190840162001198565b5085821015620011d85787850151600019600388901b60f8161c191681555b5050505050600190811b01905550565b600060208284031215620011fb57600080fd5b8151801515811462000d0257600080fd5b6000602082840312156200121f57600080fd5b5051919050565b6080815260006200123b608083018762000d49565b82810360208401526200124f818762000d49565b604084019590955250506060015292915050565b634e487b7160e01b600052603260045260246000fdfe60806040523480156200001157600080fd5b5060405162000b9b38038062000b9b833981016040819052620000349162000189565b600062000042838262000282565b50600162000051828262000282565b50620000606012600a62000463565b6200006f90620f42406200047b565b600281905533600081815260036020908152604080832085905551938452919290917fddf252ad1be2c89b69c2b068fc378daa952ba7f163c4a11628f55a4df523b3ef910160405180910390a3505062000495565b634e487b7160e01b600052604160045260246000fd5b600082601f830112620000ec57600080fd5b81516001600160401b0380821115620001095762000109620000c4565b604051601f8301601f19908116603f01168101908282118183101715620001345762000134620000c4565b816040528381526020925086838588010111156200015157600080fd5b600091505b8382101562000175578582018301518183018401529082019062000156565b600093810190920192909252949350505050565b600080604083850312156200019d57600080fd5b82516001600160401b0380821115620001b557600080fd5b620001c386838701620000da565b93506020850151915080821115620001da57600080fd5b50620001e985828601620000da565b9150509250929050565b600181811c908216806200020857607f821691505b6020821081036200022957634e487b7160e01b600052602260045260246000fd5b50919050565b601f8211156200027d57600081815260208120601f850160051c81016020861015620002585750805b601f850160051c820191505b81811015620002795782815560010162000264565b5050505b505050565b81516001600160401b038111156200029e576200029e620000c4565b620002b681620002af8454620001f3565b846200022f565b602080601f831160018114620002ee5760008415620002d55750858301515b600019600386901b1c1916600185901b17855562000279565b600085815260208120601f198616915b828110156200031f57888601518255948401946001909101908401620002fe565b50858210156200033e5787850151600019600388901b60f8161c191681555b5050505050600190811b01905550565b634e487b7160e01b600052601160045260246000fd5b600181815b80851115620003a55781600019048211156200038957620003896200034e565b808516156200039757918102915b93841c939080029062000369565b509250929050565b600082620003be575060016200045d565b81620003cd575060006200045d565b8160018114620003e65760028114620003f15762000411565b60019150506200045d565b60ff8411156200040557620004056200034e565b50506001821b6200045d565b5060208310610133831016604e8410600b841016171562000436575081810a6200045d565b62000442838362000364565b80600019048211156200045957620004596200034e565b0290505b92915050565b60006200047460ff841683620003ad565b9392505050565b80820281158282048414176200045d576200045d6200034e565b6106f680620004a56000396000f3fe608060405234801561001057600080fd5b50600436106100935760003560e01c8063313ce56711610066578063313ce5671461010357806370a082311461011d57806395d89b411461013d578063a9059cbb14610145578063dd62ed3e1461015857600080fd5b806306fdde0314610098578063095ea7b3146100b657806318160ddd146100d957806323b872dd146100f0575b600080fd5b6100a0610183565b6040516100ad9190610525565b60405180910390f35b6100c96100c436600461058f565b610211565b60405190151581526020016100ad565b6100e260025481565b6040519081526020016100ad565b6100c96100fe3660046105b9565b6102a0565b61010b601281565b60405160ff90911681526020016100ad565b6100e261012b3660046105f5565b60036020526000908152604090205481565b6100a0610431565b6100c961015336600461058f565b61043e565b6100e2610166366004610617565b600460209081526000928352604080842090915290825290205481565b600080546101909061064a565b80601f01602080910402602001604051908101604052809291908181526020018280546101bc9061064a565b80156102095780601f106101de57610100808354040283529160200191610209565b820191906000526020600020905b8154815290600101906020018083116101ec57829003601f168201915b505050505081565b60006001600160a01b03831661023a5760405163d92e233d60e01b815260040160405180910390fd5b3360008181526004602090815260408083206001600160a01b03881680855290835292819020869055518581529192917f8c5be1e5ebec7d5bd14f71427d1e84f3dd0314c0f7b2291e5b200ac8c7c3b92591015b60405180910390a35060015b92915050565b60006001600160a01b0383166102c95760405163d92e233d60e01b815260040160405180910390fd5b6001600160a01b03841660009081526003602052604090205482111561030257604051631e9acf1760e31b815260040160405180910390fd5b6001600160a01b0384166000908152600460209081526040808320338452909152902054821115610346576040516313be252b60e01b815260040160405180910390fd5b6001600160a01b0384166000908152600360205260408120805484929061036e90849061069a565b90915550506001600160a01b0383166000908152600360205260408120805484929061039b9084906106ad565b90915550506001600160a01b0384166000908152600460209081526040808320338452909152812080548492906103d390849061069a565b92505081905550826001600160a01b0316846001600160a01b03167fddf252ad1be2c89b69c2b068fc378daa952ba7f163c4a11628f55a4df523b3ef8460405161041f91815260200190565b60405180910390a35060019392505050565b600180546101909061064a565b60006001600160a01b0383166104675760405163d92e233d60e01b815260040160405180910390fd5b3360009081526003602052604090205482111561049757604051631e9acf1760e31b815260040160405180910390fd5b33600090815260036020526040812080548492906104b690849061069a565b90915550506001600160a01b038316600090815260036020526040812080548492906104e39084906106ad565b90915550506040518281526001600160a01b0384169033907fddf252ad1be2c89b69c2b068fc378daa952ba7f163c4a11628f55a4df523b3ef9060200161028e565b600060208083528351808285015260005b8181101561055257858101830151858201604001528201610536565b506000604082860101526040601f19601f8301168501019250505092915050565b80356001600160a01b038116811461058a57600080fd5b919050565b600080604083850312156105a257600080fd5b6105ab83610573565b946020939093013593505050565b6000806000606084860312156105ce57600080fd5b6105d784610573565b92506105e560208501610573565b9150604084013590509250925092565b60006020828403121561060757600080fd5b61061082610573565b9392505050565b6000806040838503121561062a57600080fd5b61063383610573565b915061064160208401610573565b90509250929050565b600181811c9082168061065e57607f821691505b60208210810361067e57634e487b7160e01b600052602260045260246000fd5b50919050565b634e487b7160e01b600052601160045260246000fd5b8181038181111561029a5761029a610684565b8082018082111561029a5761029a61068456fea2646970667358221220fbbd8bbda5012ca1234ef92452d457174c7da5cd657d4320ad7220d0b9b4ab1a64736f6c6343000814003360a0604052600160065534801561001557600080fd5b5060405161114138038061114183398101604081905261003491610084565b6001600160a01b03811661005b5760405163d92e233d60e01b815260040160405180910390fd5b33608052600080546001600160a01b0319166001600160a01b03929092169190911790556100b4565b60006020828403121561009657600080fd5b81516001600160a01b03811681146100ad57600080fd5b9392505050565b60805161106b6100d6600039600081816102c80152610990015261106b6000f3fe6080604052600436106101095760003560e01c806398d5fdca11610095578063c45a015511610064578063c45a0155146102b6578063d73792a9146102a0578063eaf98d23146102ea578063f4325d67146102ff578063fc0c546a1461031557600080fd5b806398d5fdca146102295780639c8f9f231461023e578063b8c876b114610273578063ba9a7a56146102a057600080fd5b80631b3d2cb3116100dc5780631b3d2cb31461018d57806346904840146101a05780634e6fd6c4146101e057806351c6590a146101f657806380cb1a6e1461020957600080fd5b8063100af2031461010e57806315770f921461013757806315d6dae91461014d5780631618e1301461016d575b600080fd5b34801561011a57600080fd5b5061012460025481565b6040519081526020015b60405180910390f35b34801561014357600080fd5b5061012460035481565b34801561015957600080fd5b50610124610168366004610f34565b610335565b34801561017957600080fd5b50610124610188366004610f4d565b6103a3565b61012461019b366004610f34565b6106b8565b3480156101ac57600080fd5b506101c873227d5f29bab4cec30f511169886b86faef61c6bc81565b6040516001600160a01b03909116815260200161012e565b3480156101ec57600080fd5b506101c861dead81565b610124610204366004610f34565b61095b565b34801561021557600080fd5b50610124610224366004610f34565b610bd8565b34801561023557600080fd5b50610124610c3f565b34801561024a57600080fd5b5061025e610259366004610f34565b610c78565b6040805192835260208301919091520161012e565b34801561027f57600080fd5b5061012461028e366004610f6f565b60056020526000908152604090205481565b3480156102ac57600080fd5b506101246103e881565b3480156102c257600080fd5b506101c87f000000000000000000000000000000000000000000000000000000000000000081565b3480156102f657600080fd5b50610124600481565b34801561030b57600080fd5b5061012460015481565b34801561032157600080fd5b506000546101c8906001600160a01b031681565b60008115806103445750600254155b1561035157506000919050565b60006103e8610361600485610fae565b61036b9190610fcb565b6103759084610fed565b9050806002546103859190611000565b6001546103929083610fae565b61039c9190610fcb565b9392505050565b60006006546001146103c85760405163c5f2be5160e01b815260040160405180910390fd5b600260065560008390036103ef57604051631f2a200560e01b815260040160405180910390fd5b60015415806103fe5750600254155b1561041c5760405163bb55fd2760e01b815260040160405180910390fd5b60008360015461042c9190611000565b6002546104399086610fae565b6104439190610fcb565b905060006103e8610455600484610fae565b61045f9190610fcb565b905061046b8183610fed565b92508383101561048e57604051638199f5f360e01b815260040160405180910390fd5b6002548311156104b15760405163bb55fd2760e01b815260040160405180910390fd5b84600160008282546104c39190611000565b9250508190555081600260008282546104dc9190610fed565b90915550506000546040516323b872dd60e01b8152336004820152306024820152604481018790526001600160a01b03909116906323b872dd906064016020604051808303816000875af1158015610538573d6000803e3d6000fd5b505050506040513d601f19601f8201168201806040525081019061055c9190611013565b610579576040516312171d8360e31b815260040160405180910390fd5b60405160009073227d5f29bab4cec30f511169886b86faef61c6bc9083908381818185875af1925050503d80600081146105cf576040519150601f19603f3d011682016040523d82523d6000602084013e6105d4565b606091505b50509050806105f6576040516312171d8360e31b815260040160405180910390fd5b604051600090339086908381818185875af1925050503d8060008114610638576040519150601f19603f3d011682016040523d82523d6000602084013e61063d565b606091505b505090508061065f576040516312171d8360e31b815260040160405180910390fd5b604080516000808252602082018a90528183018890526060820152905133917f49926bbebe8474393f434dfa4f78694c0923efa07d19f2284518bfabd06eb737919081900360800190a250505050600160065592915050565b60006006546001146106dd5760405163c5f2be5160e01b815260040160405180910390fd5b60026006553460000361070357604051631f2a200560e01b815260040160405180910390fd5b60015415806107125750600254155b156107305760405163bb55fd2760e01b815260040160405180910390fd5b60006103e8610740600434610fae565b61074a9190610fcb565b905060006107588234610fed565b9050806002546107689190611000565b6001546107759083610fae565b61077f9190610fcb565b9250838310156107a257604051638199f5f360e01b815260040160405180910390fd5b6001548311156107c55760405163bb55fd2760e01b815260040160405180910390fd5b80600260008282546107d79190611000565b9250508190555082600160008282546107f09190610fed565b909155505060405160009073227d5f29bab4cec30f511169886b86faef61c6bc9084908381818185875af1925050503d806000811461084b576040519150601f19603f3d011682016040523d82523d6000602084013e610850565b606091505b5050905080610872576040516312171d8360e31b815260040160405180910390fd5b60005460405163a9059cbb60e01b8152336004820152602481018690526001600160a01b039091169063a9059cbb906044016020604051808303816000875af11580156108c3573d6000803e3d6000fd5b505050506040513d601f19601f820116820180604052508101906108e79190611013565b610904576040516312171d8360e31b815260040160405180910390fd5b604080513481526000602082018190528183015260608101869052905133917f49926bbebe8474393f434dfa4f78694c0923efa07d19f2284518bfabd06eb737919081900360800190a25050506001600655919050565b60006006546001146109805760405163c5f2be5160e01b815260040160405180910390fd5b6002600655336001600160a01b037f000000000000000000000000000000000000000000000000000000000000000016146109ce57604051630636a15760e11b815260040160405180910390fd5b60045460ff16156109f2576040516319f4db0f60e31b815260040160405180910390fd5b3415806109fd575081155b15610a1b57604051631f2a200560e01b815260040160405180910390fd5b506004805460ff19166001179055346103e88111610a4c57604051631f2c4df760e11b815260040160405180910390fd5b3460025560018290556000805260056020526103e87f05b8ccbb9d4d8fb16ea74ce3c29a41f1b461fbdaff4714a0d9a8eb05499746bc8190556003819055610a949082610fed565b6000546040516323b872dd60e01b8152336004820152306024820152604481018590529192506001600160a01b0316906323b872dd906064016020604051808303816000875af1158015610aec573d6000803e3d6000fd5b505050506040513d601f19601f82011682018060405250810190610b109190611013565b610b2d576040516312171d8360e31b815260040160405180910390fd5b61dead600090815260056020527f7d509c07f0d4edcc2dd1b53aae68677132eb562dcba78e36381b63ccaf66e6ba8054839290610b6b908490611000565b925050819055508060036000828254610b849190611000565b9091555050604080513481526020810184905290810182905261dead907f64b83944e79c3ce8d4c297411de637c3e102d064677aac0c163976ebdcd6f50e9060600160405180910390a26001600655919050565b6000811580610be75750600154155b15610bf457506000919050565b600082600154610c049190611000565b600254610c119085610fae565b610c1b9190610fcb565b90506103e8610c2b600483610fae565b610c359190610fcb565b61039c9082610fed565b6000600154600003610c515750600090565b600154600254610c6990670de0b6b3a7640000610fae565b610c739190610fcb565b905090565b600080600654600114610c9e5760405163c5f2be5160e01b815260040160405180910390fd5b60026006556000839003610cc557604051631f2a200560e01b815260040160405180910390fd5b33600090815260056020526040902054831115610cf55760405163bb55fd2760e01b815260040160405180910390fd5b600354600003610d185760405163bb55fd2760e01b815260040160405180910390fd5b600354600254610d289085610fae565b610d329190610fcb565b915060035460015484610d459190610fae565b610d4f9190610fcb565b9050811580610d5c575080155b15610d7a57604051631f2c4df760e11b815260040160405180910390fd5b3360009081526005602052604081208054859290610d99908490610fed565b925050819055508260036000828254610db29190610fed565b925050819055508160026000828254610dcb9190610fed565b925050819055508060016000828254610de49190610fed565b909155505060005460405163a9059cbb60e01b8152336004820152602481018390526001600160a01b039091169063a9059cbb906044016020604051808303816000875af1158015610e3a573d6000803e3d6000fd5b505050506040513d601f19601f82011682018060405250810190610e5e9190611013565b610e7b576040516312171d8360e31b815260040160405180910390fd5b604051600090339084908381818185875af1925050503d8060008114610ebd576040519150601f19603f3d011682016040523d82523d6000602084013e610ec2565b606091505b5050905080610ee4576040516312171d8360e31b815260040160405180910390fd5b604080518481526020810184905290810185905233907f1dc8bb69df2b8e91fbdcbfcf93d951b3f0000f085a95fe3f7946d6161439245d9060600160405180910390a25060016006559092909150565b600060208284031215610f4657600080fd5b5035919050565b60008060408385031215610f6057600080fd5b50508035926020909101359150565b600060208284031215610f8157600080fd5b81356001600160a01b038116811461039c57600080fd5b634e487b7160e01b600052601160045260246000fd5b8082028115828204841417610fc557610fc5610f98565b92915050565b600082610fe857634e487b7160e01b600052601260045260246000fd5b500490565b81810381811115610fc557610fc5610f98565b80820180821115610fc557610fc5610f98565b60006020828403121561102557600080fd5b8151801515811461039c57600080fdfea26469706673582212208e49a24238746d80882ed52aa229d3f1c807452328042a9c2b1957081e9eec4064736f6c63430008140033a26469706673582212201f1da97d26654848afcbe0c37a9cfbf4fca8d374da56647277286be56c73e70764736f6c63430008140033","opcodes":"PUSH1 0x80 PUSH1 0x40 MSTORE PUSH1 0x1 PUSH1 0x2 SSTORE CALLVALUE DUP1 ISZERO PUSH2 0x15 JUMPI PUSH1 0x0 DUP1 REVERT JUMPDEST POP PUSH2 0x2F8B DUP1 PUSH2 0x25 PUSH1 0x0 CODECOPY PUSH1 0x0 RETURN INVALID PUSH1 0x80 PUSH1 0x40 MSTORE PUSH1 0x4 CALLDATASIZE LT PUSH3 0xA9 JUMPI PUSH1 0x0 CALLDATALOAD PUSH1 0xE0 SHR DUP1 PUSH4 0x78A89567 GT PUSH3 0x6C JUMPI DUP1 PUSH4 0x78A89567 EQ PUSH3 0x1BD JUMPI DUP1 PUSH4 0x86074985 EQ PUSH3 0x1D4 JUMPI DUP1 PUSH4 0x902D55A5 EQ PUSH3 0x1EB JUMPI DUP1 PUSH4 0xC342381E EQ PUSH3 0x20B JUMPI DUP1 PUSH4 0xE3D89171 EQ PUSH3 0x222 JUMPI DUP1 PUSH4 0xE4B50CB8 EQ PUSH3 0x239 JUMPI PUSH1 0x0 DUP1 REVERT JUMPDEST DUP1 PUSH4 0x2610942C EQ PUSH3 0xAE JUMPI DUP1 PUSH4 0x4E6FD6C4 EQ PUSH3 0x105 JUMPI DUP1 PUSH4 0x4F64B2BE EQ PUSH3 0x11D JUMPI DUP1 PUSH4 0x5B060530 EQ PUSH3 0x158 JUMPI DUP1 PUSH4 0x5D230110 EQ PUSH3 0x190 JUMPI JUMPDEST PUSH1 0x0 DUP1 REVERT JUMPDEST CALLVALUE DUP1 ISZERO PUSH3 0xBB JUMPI PUSH1 0x0 DUP1 REVERT JUMPDEST POP PUSH3 0xE8 PUSH3 0xCD CALLDATASIZE PUSH1 0x4 PUSH3 0xCD7 JUMP JUMPDEST PUSH1 0x1 PUSH1 0x20 MSTORE PUSH1 0x0 SWAP1 DUP2 MSTORE PUSH1 0x40 SWAP1 KECCAK256 SLOAD PUSH1 0x1 PUSH1 0x1 PUSH1 0xA0 SHL SUB AND DUP2 JUMP JUMPDEST PUSH1 0x40 MLOAD PUSH1 0x1 PUSH1 0x1 PUSH1 0xA0 SHL SUB SWAP1 SWAP2 AND DUP2 MSTORE PUSH1 0x20 ADD JUMPDEST PUSH1 0x40 MLOAD DUP1 SWAP2 SUB SWAP1 RETURN JUMPDEST CALLVALUE DUP1 ISZERO PUSH3 0x112 JUMPI PUSH1 0x0 DUP1 REVERT JUMPDEST POP PUSH3 0xE8 PUSH2 0xDEAD DUP2 JUMP JUMPDEST CALLVALUE DUP1 ISZERO PUSH3 0x12A JUMPI PUSH1 0x0 DUP1 REVERT JUMPDEST POP PUSH3 0x142 PUSH3 0x13C CALLDATASIZE PUSH1 0x4 PUSH3 0xD09 JUMP JUMPDEST PUSH3 0x26D JUMP JUMPDEST PUSH1 0x40 MLOAD PUSH3 0xFC SWAP9 SWAP8 SWAP7 SWAP6 SWAP5 SWAP4 SWAP3 SWAP2 SWAP1 PUSH3 0xD77 JUMP JUMPDEST PUSH3 0x16F PUSH3 0x169 CALLDATASIZE PUSH1 0x4 PUSH3 0xE8F JUMP JUMPDEST PUSH3 0x3FB JUMP JUMPDEST PUSH1 0x40 DUP1 MLOAD PUSH1 0x1 PUSH1 0x1 PUSH1 0xA0 SHL SUB SWAP4 DUP5 AND DUP2 MSTORE SWAP3 SWAP1 SWAP2 AND PUSH1 0x20 DUP4 ADD MSTORE ADD PUSH3 0xFC JUMP JUMPDEST CALLVALUE DUP1 ISZERO PUSH3 0x19D JUMPI PUSH1 0x0 DUP1 REVERT JUMPDEST POP PUSH3 0x1AE PUSH8 0x16345785D8A0000 DUP2 JUMP JUMPDEST PUSH1 0x40 MLOAD SWAP1 DUP2 MSTORE PUSH1 0x20 ADD PUSH3 0xFC JUMP JUMPDEST CALLVALUE DUP1 ISZERO PUSH3 0x1CA JUMPI PUSH1 0x0 DUP1 REVERT JUMPDEST POP PUSH1 0x0 SLOAD PUSH3 0x1AE JUMP JUMPDEST CALLVALUE DUP1 ISZERO PUSH3 0x1E1 JUMPI PUSH1 0x0 DUP1 REVERT JUMPDEST POP PUSH3 0x1AE PUSH1 0x14 DUP2 JUMP JUMPDEST CALLVALUE DUP1 ISZERO PUSH3 0x1F8 JUMPI PUSH1 0x0 DUP1 REVERT JUMPDEST POP PUSH3 0x1AE PUSH10 0xD3C21BCECCEDA1000000 DUP2 JUMP JUMPDEST CALLVALUE DUP1 ISZERO PUSH3 0x218 JUMPI PUSH1 0x0 DUP1 REVERT JUMPDEST POP PUSH3 0x1AE PUSH1 0x32 DUP2 JUMP JUMPDEST CALLVALUE DUP1 ISZERO PUSH3 0x22F JUMPI PUSH1 0x0 DUP1 REVERT JUMPDEST POP PUSH3 0x1AE PUSH1 0x5 DUP2 JUMP JUMPDEST CALLVALUE DUP1 ISZERO PUSH3 0x246 JUMPI PUSH1 0x0 DUP1 REVERT JUMPDEST POP PUSH3 0x25E PUSH3 0x258 CALLDATASIZE PUSH1 0x4 PUSH3 0xD09 JUMP JUMPDEST PUSH3 0xA4C JUMP JUMPDEST PUSH1 0x40 MLOAD PUSH3 0xFC SWAP2 SWAP1 PUSH3 0xF03 JUMP JUMPDEST PUSH1 0x0 DUP2 DUP2 SLOAD DUP2 LT PUSH3 0x27E JUMPI PUSH1 0x0 DUP1 REVERT JUMPDEST PUSH1 0x0 SWAP2 DUP3 MSTORE PUSH1 0x20 SWAP1 SWAP2 KECCAK256 PUSH1 0x8 SWAP1 SWAP2 MUL ADD DUP1 SLOAD PUSH1 0x1 DUP3 ADD SLOAD PUSH1 0x2 DUP4 ADD DUP1 SLOAD PUSH1 0x1 PUSH1 0x1 PUSH1 0xA0 SHL SUB SWAP4 DUP5 AND SWAP6 POP SWAP3 SWAP1 SWAP2 AND SWAP3 SWAP2 PUSH3 0x2B9 SWAP1 PUSH3 0xFB8 JUMP JUMPDEST DUP1 PUSH1 0x1F ADD PUSH1 0x20 DUP1 SWAP2 DIV MUL PUSH1 0x20 ADD PUSH1 0x40 MLOAD SWAP1 DUP2 ADD PUSH1 0x40 MSTORE DUP1 SWAP3 SWAP2 SWAP1 DUP2 DUP2 MSTORE PUSH1 0x20 ADD DUP3 DUP1 SLOAD PUSH3 0x2E7 SWAP1 PUSH3 0xFB8 JUMP JUMPDEST DUP1 ISZERO PUSH3 0x338 JUMPI DUP1 PUSH1 0x1F LT PUSH3 0x30C JUMPI PUSH2 0x100 DUP1 DUP4 SLOAD DIV MUL DUP4 MSTORE SWAP2 PUSH1 0x20 ADD SWAP2 PUSH3 0x338 JUMP JUMPDEST DUP3 ADD SWAP2 SWAP1 PUSH1 0x0 MSTORE PUSH1 0x20 PUSH1 0x0 KECCAK256 SWAP1 JUMPDEST DUP2 SLOAD DUP2 MSTORE SWAP1 PUSH1 0x1 ADD SWAP1 PUSH1 0x20 ADD DUP1 DUP4 GT PUSH3 0x31A JUMPI DUP3 SWAP1 SUB PUSH1 0x1F AND DUP3 ADD SWAP2 JUMPDEST POP POP POP POP POP SWAP1 DUP1 PUSH1 0x3 ADD DUP1 SLOAD PUSH3 0x34F SWAP1 PUSH3 0xFB8 JUMP JUMPDEST DUP1 PUSH1 0x1F ADD PUSH1 0x20 DUP1 SWAP2 DIV MUL PUSH1 0x20 ADD PUSH1 0x40 MLOAD SWAP1 DUP2 ADD PUSH1 0x40 MSTORE DUP1 SWAP3 SWAP2 SWAP1 DUP2 DUP2 MSTORE PUSH1 0x20 ADD DUP3 DUP1 SLOAD PUSH3 0x37D SWAP1 PUSH3 0xFB8 JUMP JUMPDEST DUP1 ISZERO PUSH3 0x3CE JUMPI DUP1 PUSH1 0x1F LT PUSH3 0x3A2 JUMPI PUSH2 0x100 DUP1 DUP4 SLOAD DIV MUL DUP4 MSTORE SWAP2 PUSH1 0x20 ADD SWAP2 PUSH3 0x3CE JUMP JUMPDEST DUP3 ADD SWAP2 SWAP1 PUSH1 0x0 MSTORE PUSH1 0x20 PUSH1 0x0 KECCAK256 SWAP1 JUMPDEST DUP2 SLOAD DUP2 MSTORE SWAP1 PUSH1 0x1 ADD SWAP1 PUSH1 0x20 ADD DUP1 DUP4 GT PUSH3 0x3B0 JUMPI DUP3 SWAP1 SUB PUSH1 0x1F AND DUP3 ADD SWAP2 JUMPDEST POP POP POP POP PUSH1 0x4 DUP4 ADD SLOAD PUSH1 0x5 DUP5 ADD SLOAD PUSH1 0x6 DUP6 ADD SLOAD PUSH1 0x7 SWAP1 SWAP6 ADD SLOAD SWAP4 SWAP5 PUSH1 0x1 PUSH1 0x1 PUSH1 0xA0 SHL SUB SWAP1 SWAP3 AND SWAP4 SWAP1 SWAP3 POP DUP9 JUMP JUMPDEST PUSH1 0x0 DUP1 PUSH1 0x2 SLOAD PUSH1 0x1 EQ PUSH3 0x422 JUMPI PUSH1 0x40 MLOAD PUSH4 0x45F5CE8B PUSH1 0xE1 SHL DUP2 MSTORE PUSH1 0x4 ADD PUSH1 0x40 MLOAD DUP1 SWAP2 SUB SWAP1 REVERT JUMPDEST PUSH1 0x2 DUP1 SSTORE PUSH8 0x16345785D8A0000 CALLVALUE LT ISZERO PUSH3 0x450 JUMPI PUSH1 0x40 MLOAD PUSH4 0x90AC0D7 PUSH1 0xE2 SHL DUP2 MSTORE PUSH1 0x4 ADD PUSH1 0x40 MLOAD DUP1 SWAP2 SUB SWAP1 REVERT JUMPDEST PUSH1 0x32 DUP4 LT DUP1 PUSH3 0x460 JUMPI POP PUSH1 0x64 DUP4 GT JUMPDEST ISZERO PUSH3 0x47F JUMPI PUSH1 0x40 MLOAD PUSH4 0x51424F0B PUSH1 0xE1 SHL DUP2 MSTORE PUSH1 0x4 ADD PUSH1 0x40 MLOAD DUP1 SWAP2 SUB SWAP1 REVERT JUMPDEST DUP5 MLOAD ISZERO DUP1 PUSH3 0x48D JUMPI POP DUP4 MLOAD ISZERO JUMPDEST ISZERO PUSH3 0x4AC JUMPI PUSH1 0x40 MLOAD PUSH4 0x2D903DC9 PUSH1 0xE2 SHL DUP2 MSTORE PUSH1 0x4 ADD PUSH1 0x40 MLOAD DUP1 SWAP2 SUB SWAP1 REVERT JUMPDEST PUSH1 0x14 DUP6 MLOAD GT DUP1 PUSH3 0x4BE JUMPI POP PUSH1 0x5 DUP5 MLOAD GT JUMPDEST ISZERO PUSH3 0x4DD JUMPI PUSH1 0x40 MLOAD PUSH4 0x2D903DC9 PUSH1 0xE2 SHL DUP2 MSTORE PUSH1 0x4 ADD PUSH1 0x40 MLOAD DUP1 SWAP2 SUB SWAP1 REVERT JUMPDEST PUSH1 0x0 PUSH1 0x40 MLOAD DUP1 PUSH1 0x20 ADD PUSH3 0x4F1 SWAP1 PUSH3 0xCBB JUMP JUMPDEST PUSH1 0x1F NOT DUP3 DUP3 SUB DUP2 ADD DUP4 MSTORE PUSH1 0x1F SWAP1 SWAP2 ADD AND PUSH1 0x40 DUP2 SWAP1 MSTORE PUSH3 0x518 SWAP1 DUP9 SWAP1 DUP9 SWAP1 PUSH1 0x20 ADD PUSH3 0xFF4 JUMP JUMPDEST PUSH1 0x40 DUP1 MLOAD PUSH1 0x1F NOT DUP2 DUP5 SUB ADD DUP2 MSTORE SWAP1 DUP3 SWAP1 MSTORE PUSH3 0x538 SWAP3 SWAP2 PUSH1 0x20 ADD PUSH3 0x1026 JUMP JUMPDEST PUSH1 0x40 MLOAD PUSH1 0x20 DUP2 DUP4 SUB SUB DUP2 MSTORE SWAP1 PUSH1 0x40 MSTORE SWAP1 POP DUP1 MLOAD PUSH1 0x20 DUP3 ADD PUSH1 0x0 CREATE SWAP3 POP PUSH1 0x1 PUSH1 0x1 PUSH1 0xA0 SHL SUB DUP4 AND PUSH3 0x57C JUMPI PUSH1 0x40 MLOAD PUSH4 0x32919861 PUSH1 0xE1 SHL DUP2 MSTORE PUSH1 0x4 ADD PUSH1 0x40 MLOAD DUP1 SWAP2 SUB SWAP1 REVERT JUMPDEST PUSH1 0x0 PUSH1 0x40 MLOAD DUP1 PUSH1 0x20 ADD PUSH3 0x590 SWAP1 PUSH3 0xCC9 JUMP JUMPDEST PUSH1 0x1F NOT DUP3 DUP3 SUB DUP2 ADD DUP4 MSTORE PUSH1 0x1F SWAP1 SWAP2 ADD AND PUSH1 0x40 DUP2 DUP2 MSTORE PUSH1 0x1 PUSH1 0x1 PUSH1 0xA0 SHL SUB DUP8 AND PUSH1 0x20 DUP4 ADD MSTORE ADD PUSH1 0x40 DUP1 MLOAD PUSH1 0x1F NOT DUP2 DUP5 SUB ADD DUP2 MSTORE SWAP1 DUP3 SWAP1 MSTORE PUSH3 0x5D5 SWAP3 SWAP2 PUSH1 0x20 ADD PUSH3 0x1026 JUMP JUMPDEST PUSH1 0x40 MLOAD PUSH1 0x20 DUP2 DUP4 SUB SUB DUP2 MSTORE SWAP1 PUSH1 0x40 MSTORE SWAP1 POP DUP1 MLOAD PUSH1 0x20 DUP3 ADD PUSH1 0x0 CREATE SWAP3 POP PUSH1 0x1 PUSH1 0x1 PUSH1 0xA0 SHL SUB DUP4 AND PUSH3 0x619 JUMPI PUSH1 0x40 MLOAD PUSH4 0x9D63651F PUSH1 0xE0 SHL DUP2 MSTORE PUSH1 0x4 ADD PUSH1 0x40 MLOAD DUP1 SWAP2 SUB SWAP1 REVERT JUMPDEST PUSH1 0x0 PUSH1 0x64 PUSH3 0x633 DUP8 PUSH10 0xD3C21BCECCEDA1000000 PUSH3 0x106F JUMP JUMPDEST PUSH3 0x63F SWAP2 SWAP1 PUSH3 0x108F JUMP JUMPDEST SWAP1 POP PUSH1 0x0 PUSH3 0x659 DUP3 PUSH10 0xD3C21BCECCEDA1000000 PUSH3 0x10B2 JUMP JUMPDEST SWAP1 POP DUP5 PUSH1 0x1 PUSH1 0x0 DUP9 PUSH1 0x1 PUSH1 0x1 PUSH1 0xA0 SHL SUB AND PUSH1 0x1 PUSH1 0x1 PUSH1 0xA0 SHL SUB AND DUP2 MSTORE PUSH1 0x20 ADD SWAP1 DUP2 MSTORE PUSH1 0x20 ADD PUSH1 0x0 KECCAK256 PUSH1 0x0 PUSH2 0x100 EXP DUP2 SLOAD DUP2 PUSH1 0x1 PUSH1 0x1 PUSH1 0xA0 SHL SUB MUL NOT AND SWAP1 DUP4 PUSH1 0x1 PUSH1 0x1 PUSH1 0xA0 SHL SUB AND MUL OR SWAP1 SSTORE POP PUSH1 0x0 PUSH1 0x40 MLOAD DUP1 PUSH2 0x100 ADD PUSH1 0x40 MSTORE DUP1 DUP9 PUSH1 0x1 PUSH1 0x1 PUSH1 0xA0 SHL SUB AND DUP2 MSTORE PUSH1 0x20 ADD DUP8 PUSH1 0x1 PUSH1 0x1 PUSH1 0xA0 SHL SUB AND DUP2 MSTORE PUSH1 0x20 ADD DUP12 DUP2 MSTORE PUSH1 0x20 ADD DUP11 DUP2 MSTORE PUSH1 0x20 ADD CALLER PUSH1 0x1 PUSH1 0x1 PUSH1 0xA0 SHL SUB AND DUP2 MSTORE PUSH1 0x20 ADD TIMESTAMP DUP2 MSTORE PUSH1 0x20 ADD CALLVALUE DUP2 MSTORE PUSH1 0x20 ADD DUP10 DUP2 MSTORE POP SWAP1 DUP1 PUSH1 0x1 DUP2 SLOAD ADD DUP1 DUP3 SSTORE DUP1 SWAP2 POP POP PUSH1 0x1 SWAP1 SUB SWAP1 PUSH1 0x0 MSTORE PUSH1 0x20 PUSH1 0x0 KECCAK256 SWAP1 PUSH1 0x8 MUL ADD PUSH1 0x0 SWAP1 SWAP2 SWAP1 SWAP2 SWAP1 SWAP2 POP PUSH1 0x0 DUP3 ADD MLOAD DUP2 PUSH1 0x0 ADD PUSH1 0x0 PUSH2 0x100 EXP DUP2 SLOAD DUP2 PUSH1 0x1 PUSH1 0x1 PUSH1 0xA0 SHL SUB MUL NOT AND SWAP1 DUP4 PUSH1 0x1 PUSH1 0x1 PUSH1 0xA0 SHL SUB AND MUL OR SWAP1 SSTORE POP PUSH1 0x20 DUP3 ADD MLOAD DUP2 PUSH1 0x1 ADD PUSH1 0x0 PUSH2 0x100 EXP DUP2 SLOAD DUP2 PUSH1 0x1 PUSH1 0x1 PUSH1 0xA0 SHL SUB MUL NOT AND SWAP1 DUP4 PUSH1 0x1 PUSH1 0x1 PUSH1 0xA0 SHL SUB AND MUL OR SWAP1 SSTORE POP PUSH1 0x40 DUP3 ADD MLOAD DUP2 PUSH1 0x2 ADD SWAP1 DUP2 PUSH3 0x796 SWAP2 SWAP1 PUSH3 0x111B JUMP JUMPDEST POP PUSH1 0x60 DUP3 ADD MLOAD PUSH1 0x3 DUP3 ADD SWAP1 PUSH3 0x7AD SWAP1 DUP3 PUSH3 0x111B JUMP JUMPDEST POP PUSH1 0x80 DUP3 ADD MLOAD PUSH1 0x4 DUP3 DUP2 ADD DUP1 SLOAD PUSH1 0x1 PUSH1 0x1 PUSH1 0xA0 SHL SUB NOT AND PUSH1 0x1 PUSH1 0x1 PUSH1 0xA0 SHL SUB SWAP4 DUP5 AND OR SWAP1 SSTORE PUSH1 0xA0 DUP5 ADD MLOAD PUSH1 0x5 DUP5 ADD SSTORE PUSH1 0xC0 DUP5 ADD MLOAD PUSH1 0x6 DUP5 ADD SSTORE PUSH1 0xE0 SWAP1 SWAP4 ADD MLOAD PUSH1 0x7 SWAP1 SWAP3 ADD SWAP2 SWAP1 SWAP2 SSTORE PUSH1 0x40 MLOAD PUSH4 0xA9059CBB PUSH1 0xE0 SHL DUP2 MSTORE CALLER SWAP3 DUP2 ADD SWAP3 SWAP1 SWAP3 MSTORE PUSH1 0x24 DUP3 ADD DUP4 SWAP1 MSTORE DUP8 AND SWAP1 PUSH4 0xA9059CBB SWAP1 PUSH1 0x44 ADD PUSH1 0x20 PUSH1 0x40 MLOAD DUP1 DUP4 SUB DUP2 PUSH1 0x0 DUP8 GAS CALL ISZERO DUP1 ISZERO PUSH3 0x83D JUMPI RETURNDATASIZE PUSH1 0x0 DUP1 RETURNDATACOPY RETURNDATASIZE PUSH1 0x0 REVERT JUMPDEST POP POP POP POP PUSH1 0x40 MLOAD RETURNDATASIZE PUSH1 0x1F NOT PUSH1 0x1F DUP3 ADD AND DUP3 ADD DUP1 PUSH1 0x40 MSTORE POP DUP2 ADD SWAP1 PUSH3 0x863 SWAP2 SWAP1 PUSH3 0x11E8 JUMP JUMPDEST PUSH3 0x8B5 JUMPI PUSH1 0x40 MLOAD PUSH3 0x461BCD PUSH1 0xE5 SHL DUP2 MSTORE PUSH1 0x20 PUSH1 0x4 DUP3 ADD MSTORE PUSH1 0x17 PUSH1 0x24 DUP3 ADD MSTORE PUSH32 0x43726561746F72207472616E73666572206661696C6564000000000000000000 PUSH1 0x44 DUP3 ADD MSTORE PUSH1 0x64 ADD JUMPDEST PUSH1 0x40 MLOAD DUP1 SWAP2 SUB SWAP1 REVERT JUMPDEST PUSH1 0x40 MLOAD PUSH4 0x95EA7B3 PUSH1 0xE0 SHL DUP2 MSTORE PUSH1 0x1 PUSH1 0x1 PUSH1 0xA0 SHL SUB DUP7 DUP2 AND PUSH1 0x4 DUP4 ADD MSTORE PUSH1 0x24 DUP3 ADD DUP5 SWAP1 MSTORE DUP8 AND SWAP1 PUSH4 0x95EA7B3 SWAP1 PUSH1 0x44 ADD PUSH1 0x20 PUSH1 0x40 MLOAD DUP1 DUP4 SUB DUP2 PUSH1 0x0 DUP8 GAS CALL ISZERO DUP1 ISZERO PUSH3 0x905 JUMPI RETURNDATASIZE PUSH1 0x0 DUP1 RETURNDATACOPY RETURNDATASIZE PUSH1 0x0 REVERT JUMPDEST POP POP POP POP PUSH1 0x40 MLOAD RETURNDATASIZE PUSH1 0x1F NOT PUSH1 0x1F DUP3 ADD AND DUP3 ADD DUP1 PUSH1 0x40 MSTORE POP DUP2 ADD SWAP1 PUSH3 0x92B SWAP2 SWAP1 PUSH3 0x11E8 JUMP JUMPDEST PUSH3 0x96B JUMPI PUSH1 0x40 MLOAD PUSH3 0x461BCD PUSH1 0xE5 SHL DUP2 MSTORE PUSH1 0x20 PUSH1 0x4 DUP3 ADD MSTORE PUSH1 0xF PUSH1 0x24 DUP3 ADD MSTORE PUSH15 0x105C1C1C9BDD985B0819985A5B1959 PUSH1 0x8A SHL PUSH1 0x44 DUP3 ADD MSTORE PUSH1 0x64 ADD PUSH3 0x8AC JUMP JUMPDEST PUSH1 0x40 MLOAD PUSH4 0x28E32C85 PUSH1 0xE1 SHL DUP2 MSTORE PUSH1 0x4 DUP2 ADD DUP4 SWAP1 MSTORE PUSH1 0x1 PUSH1 0x1 PUSH1 0xA0 SHL SUB DUP7 AND SWAP1 PUSH4 0x51C6590A SWAP1 CALLVALUE SWAP1 PUSH1 0x24 ADD PUSH1 0x20 PUSH1 0x40 MLOAD DUP1 DUP4 SUB DUP2 DUP6 DUP9 GAS CALL ISZERO DUP1 ISZERO PUSH3 0x9B4 JUMPI RETURNDATASIZE PUSH1 0x0 DUP1 RETURNDATACOPY RETURNDATASIZE PUSH1 0x0 REVERT JUMPDEST POP POP POP POP POP PUSH1 0x40 MLOAD RETURNDATASIZE PUSH1 0x1F NOT PUSH1 0x1F DUP3 ADD AND DUP3 ADD DUP1 PUSH1 0x40 MSTORE POP DUP2 ADD SWAP1 PUSH3 0x9DB SWAP2 SWAP1 PUSH3 0x120C JUMP JUMPDEST POP CALLER PUSH1 0x1 PUSH1 0x1 PUSH1 0xA0 SHL SUB AND DUP6 PUSH1 0x1 PUSH1 0x1 PUSH1 0xA0 SHL SUB AND DUP8 PUSH1 0x1 PUSH1 0x1 PUSH1 0xA0 SHL SUB AND PUSH32 0xD5056A4F9A1B7DCDC3883FEABA86E2C813A1B60814AB674F4F2C53120731B39F DUP13 DUP13 DUP13 CALLVALUE PUSH1 0x40 MLOAD PUSH3 0xA31 SWAP5 SWAP4 SWAP3 SWAP2 SWAP1 PUSH3 0x1226 JUMP JUMPDEST PUSH1 0x40 MLOAD DUP1 SWAP2 SUB SWAP1 LOG4 POP POP POP POP PUSH1 0x1 PUSH1 0x2 SSTORE SWAP1 SWAP5 SWAP1 SWAP4 POP SWAP2 POP POP JUMP JUMPDEST PUSH3 0xAB0 PUSH1 0x40 MLOAD DUP1 PUSH2 0x100 ADD PUSH1 0x40 MSTORE DUP1 PUSH1 0x0 PUSH1 0x1 PUSH1 0x1 PUSH1 0xA0 SHL SUB AND DUP2 MSTORE PUSH1 0x20 ADD PUSH1 0x0 PUSH1 0x1 PUSH1 0x1 PUSH1 0xA0 SHL SUB AND DUP2 MSTORE PUSH1 0x20 ADD PUSH1 0x60 DUP2 MSTORE PUSH1 0x20 ADD PUSH1 0x60 DUP2 MSTORE PUSH1 0x20 ADD PUSH1 0x0 PUSH1 0x1 PUSH1 0x1 PUSH1 0xA0 SHL SUB AND DUP2 MSTORE PUSH1 0x20 ADD PUSH1 0x0 DUP2 MSTORE PUSH1 0x20 ADD PUSH1 0x0 DUP2 MSTORE PUSH1 0x20 ADD PUSH1 0x0 DUP2 MSTORE POP SWAP1 JUMP JUMPDEST PUSH1 0x0 SLOAD DUP3 LT PUSH3 0xAF9 JUMPI PUSH1 0x40 MLOAD PUSH3 0x461BCD PUSH1 0xE5 SHL DUP2 MSTORE PUSH1 0x20 PUSH1 0x4 DUP3 ADD MSTORE PUSH1 0x13 PUSH1 0x24 DUP3 ADD MSTORE PUSH19 0x496E646578206F7574206F6620626F756E6473 PUSH1 0x68 SHL PUSH1 0x44 DUP3 ADD MSTORE PUSH1 0x64 ADD PUSH3 0x8AC JUMP JUMPDEST PUSH1 0x0 DUP3 DUP2 SLOAD DUP2 LT PUSH3 0xB0F JUMPI PUSH3 0xB0F PUSH3 0x1263 JUMP JUMPDEST PUSH1 0x0 SWAP2 DUP3 MSTORE PUSH1 0x20 SWAP2 DUP3 SWAP1 KECCAK256 PUSH1 0x40 DUP1 MLOAD PUSH2 0x100 DUP2 ADD DUP3 MSTORE PUSH1 0x8 SWAP1 SWAP4 MUL SWAP1 SWAP2 ADD DUP1 SLOAD PUSH1 0x1 PUSH1 0x1 PUSH1 0xA0 SHL SUB SWAP1 DUP2 AND DUP5 MSTORE PUSH1 0x1 DUP3 ADD SLOAD AND SWAP4 DUP4 ADD SWAP4 SWAP1 SWAP4 MSTORE PUSH1 0x2 DUP4 ADD DUP1 SLOAD SWAP3 SWAP4 SWAP3 SWAP2 DUP5 ADD SWAP2 PUSH3 0xB61 SWAP1 PUSH3 0xFB8 JUMP JUMPDEST DUP1 PUSH1 0x1F ADD PUSH1 0x20 DUP1 SWAP2 DIV MUL PUSH1 0x20 ADD PUSH1 0x40 MLOAD SWAP1 DUP2 ADD PUSH1 0x40 MSTORE DUP1 SWAP3 SWAP2 SWAP1 DUP2 DUP2 MSTORE PUSH1 0x20 ADD DUP3 DUP1 SLOAD PUSH3 0xB8F SWAP1 PUSH3 0xFB8 JUMP JUMPDEST DUP1 ISZERO PUSH3 0xBE0 JUMPI DUP1 PUSH1 0x1F LT PUSH3 0xBB4 JUMPI PUSH2 0x100 DUP1 DUP4 SLOAD DIV MUL DUP4 MSTORE SWAP2 PUSH1 0x20 ADD SWAP2 PUSH3 0xBE0 JUMP JUMPDEST DUP3 ADD SWAP2 SWAP1 PUSH1 0x0 MSTORE PUSH1 0x20 PUSH1 0x0 KECCAK256 SWAP1 JUMPDEST DUP2 SLOAD DUP2 MSTORE SWAP1 PUSH1 0x1 ADD SWAP1 PUSH1 0x20 ADD DUP1 DUP4 GT PUSH3 0xBC2 JUMPI DUP3 SWAP1 SUB PUSH1 0x1F AND DUP3 ADD SWAP2 JUMPDEST POP POP POP POP POP DUP2 MSTORE PUSH1 0x20 ADD PUSH1 0x3 DUP3 ADD DUP1 SLOAD PUSH3 0xBFB SWAP1 PUSH3 0xFB8 JUMP JUMPDEST DUP1 PUSH1 0x1F ADD PUSH1 0x20 DUP1 SWAP2 DIV MUL PUSH1 0x20 ADD PUSH1 0x40 MLOAD SWAP1 DUP2 ADD PUSH1 0x40 MSTORE DUP1 SWAP3 SWAP2 SWAP1 DUP2 DUP2 MSTORE PUSH1 0x20 ADD DUP3 DUP1 SLOAD PUSH3 0xC29 SWAP1 PUSH3 0xFB8 JUMP JUMPDEST DUP1 ISZERO PUSH3 0xC7A JUMPI DUP1 PUSH1 0x1F LT PUSH3 0xC4E JUMPI PUSH2 0x100 DUP1 DUP4 SLOAD DIV MUL DUP4 MSTORE SWAP2 PUSH1 0x20 ADD SWAP2 PUSH3 0xC7A JUMP JUMPDEST DUP3 ADD SWAP2 SWAP1 PUSH1 0x0 MSTORE PUSH1 0x20 PUSH1 0x0 KECCAK256 SWAP1 JUMPDEST DUP2 SLOAD DUP2 MSTORE SWAP1 PUSH1 0x1 ADD SWAP1 PUSH1 0x20 ADD DUP1 DUP4 GT PUSH3 0xC5C JUMPI DUP3 SWAP1 SUB PUSH1 0x1F AND DUP3 ADD SWAP2 JUMPDEST POP POP POP SWAP2 DUP4 MSTORE POP POP PUSH1 0x4 DUP3 ADD SLOAD PUSH1 0x1 PUSH1 0x1 PUSH1 0xA0 SHL SUB AND PUSH1 0x20 DUP3 ADD MSTORE PUSH1 0x5 DUP3 ADD SLOAD PUSH1 0x40 DUP3 ADD MSTORE PUSH1 0x6 DUP3 ADD SLOAD PUSH1 0x60 DUP3 ADD MSTORE PUSH1 0x7 SWAP1 SWAP2 ADD SLOAD PUSH1 0x80 SWAP1 SWAP2 ADD MSTORE SWAP3 SWAP2 POP POP JUMP JUMPDEST PUSH2 0xB9B DUP1 PUSH3 0x127A DUP4 CODECOPY ADD SWAP1 JUMP JUMPDEST PUSH2 0x1141 DUP1 PUSH3 0x1E15 DUP4 CODECOPY ADD SWAP1 JUMP JUMPDEST PUSH1 0x0 PUSH1 0x20 DUP3 DUP5 SUB SLT ISZERO PUSH3 0xCEA JUMPI PUSH1 0x0 DUP1 REVERT JUMPDEST DUP2 CALLDATALOAD PUSH1 0x1 PUSH1 0x1 PUSH1 0xA0 SHL SUB DUP2 AND DUP2 EQ PUSH3 0xD02 JUMPI PUSH1 0x0 DUP1 REVERT JUMPDEST SWAP4 SWAP3 POP POP POP JUMP JUMPDEST PUSH1 0x0 PUSH1 0x20 DUP3 DUP5 SUB SLT ISZERO PUSH3 0xD1C JUMPI PUSH1 0x0 DUP1 REVERT JUMPDEST POP CALLDATALOAD SWAP2 SWAP1 POP JUMP JUMPDEST PUSH1 0x0 JUMPDEST DUP4 DUP2 LT ISZERO PUSH3 0xD40 JUMPI DUP2 DUP2 ADD MLOAD DUP4 DUP3 ADD MSTORE PUSH1 0x20 ADD PUSH3 0xD26 JUMP JUMPDEST POP POP PUSH1 0x0 SWAP2 ADD MSTORE JUMP JUMPDEST PUSH1 0x0 DUP2 MLOAD DUP1 DUP5 MSTORE PUSH3 0xD63 DUP2 PUSH1 0x20 DUP7 ADD PUSH1 0x20 DUP7 ADD PUSH3 0xD23 JUMP JUMPDEST PUSH1 0x1F ADD PUSH1 0x1F NOT AND SWAP3 SWAP1 SWAP3 ADD PUSH1 0x20 ADD SWAP3 SWAP2 POP POP JUMP JUMPDEST PUSH1 0x1 PUSH1 0x1 PUSH1 0xA0 SHL SUB DUP10 DUP2 AND DUP3 MSTORE DUP9 DUP2 AND PUSH1 0x20 DUP4 ADD MSTORE PUSH2 0x100 PUSH1 0x40 DUP4 ADD DUP2 SWAP1 MSTORE PUSH1 0x0 SWAP2 PUSH3 0xDA7 DUP5 DUP4 ADD DUP12 PUSH3 0xD49 JUMP JUMPDEST SWAP2 POP DUP4 DUP3 SUB PUSH1 0x60 DUP6 ADD MSTORE PUSH3 0xDBD DUP3 DUP11 PUSH3 0xD49 JUMP JUMPDEST SWAP8 AND PUSH1 0x80 DUP5 ADD MSTORE POP POP PUSH1 0xA0 DUP2 ADD SWAP4 SWAP1 SWAP4 MSTORE PUSH1 0xC0 DUP4 ADD SWAP2 SWAP1 SWAP2 MSTORE PUSH1 0xE0 SWAP1 SWAP2 ADD MSTORE SWAP5 SWAP4 POP POP POP POP JUMP JUMPDEST PUSH4 0x4E487B71 PUSH1 0xE0 SHL PUSH1 0x0 MSTORE PUSH1 0x41 PUSH1 0x4 MSTORE PUSH1 0x24 PUSH1 0x0 REVERT JUMPDEST PUSH1 0x0 DUP3 PUSH1 0x1F DUP4 ADD SLT PUSH3 0xE0C JUMPI PUSH1 0x0 DUP1 REVERT JUMPDEST DUP2 CALLDATALOAD PUSH8 0xFFFFFFFFFFFFFFFF DUP1 DUP3 GT ISZERO PUSH3 0xE2A JUMPI PUSH3 0xE2A PUSH3 0xDE4 JUMP JUMPDEST PUSH1 0x40 MLOAD PUSH1 0x1F DUP4 ADD PUSH1 0x1F NOT SWAP1 DUP2 AND PUSH1 0x3F ADD AND DUP2 ADD SWAP1 DUP3 DUP3 GT DUP2 DUP4 LT OR ISZERO PUSH3 0xE55 JUMPI PUSH3 0xE55 PUSH3 0xDE4 JUMP JUMPDEST DUP2 PUSH1 0x40 MSTORE DUP4 DUP2 MSTORE DUP7 PUSH1 0x20 DUP6 DUP9 ADD ADD GT ISZERO PUSH3 0xE6F JUMPI PUSH1 0x0 DUP1 REVERT JUMPDEST DUP4 PUSH1 0x20 DUP8 ADD PUSH1 0x20 DUP4 ADD CALLDATACOPY PUSH1 0x0 PUSH1 0x20 DUP6 DUP4 ADD ADD MSTORE DUP1 SWAP5 POP POP POP POP POP SWAP3 SWAP2 POP POP JUMP JUMPDEST PUSH1 0x0 DUP1 PUSH1 0x0 PUSH1 0x60 DUP5 DUP7 SUB SLT ISZERO PUSH3 0xEA5 JUMPI PUSH1 0x0 DUP1 REVERT JUMPDEST DUP4 CALLDATALOAD PUSH8 0xFFFFFFFFFFFFFFFF DUP1 DUP3 GT ISZERO PUSH3 0xEBE JUMPI PUSH1 0x0 DUP1 REVERT JUMPDEST PUSH3 0xECC DUP8 DUP4 DUP9 ADD PUSH3 0xDFA JUMP JUMPDEST SWAP5 POP PUSH1 0x20 DUP7 ADD CALLDATALOAD SWAP2 POP DUP1 DUP3 GT ISZERO PUSH3 0xEE3 JUMPI PUSH1 0x0 DUP1 REVERT JUMPDEST POP PUSH3 0xEF2 DUP7 DUP3 DUP8 ADD PUSH3 0xDFA JUMP JUMPDEST SWAP3 POP POP PUSH1 0x40 DUP5 ADD CALLDATALOAD SWAP1 POP SWAP3 POP SWAP3 POP SWAP3 JUMP JUMPDEST PUSH1 0x20 DUP1 DUP3 MSTORE DUP3 MLOAD PUSH1 0x1 PUSH1 0x1 PUSH1 0xA0 SHL SUB AND DUP3 DUP3 ADD MSTORE DUP3 ADD MLOAD PUSH1 0x0 SWAP1 PUSH3 0xF33 PUSH1 0x40 DUP5 ADD DUP3 PUSH1 0x1 PUSH1 0x1 PUSH1 0xA0 SHL SUB AND SWAP1 MSTORE JUMP JUMPDEST POP PUSH1 0x40 DUP4 ADD MLOAD PUSH2 0x100 DUP1 PUSH1 0x60 DUP6 ADD MSTORE PUSH3 0xF52 PUSH2 0x120 DUP6 ADD DUP4 PUSH3 0xD49 JUMP JUMPDEST SWAP2 POP PUSH1 0x60 DUP6 ADD MLOAD PUSH1 0x1F NOT DUP6 DUP5 SUB ADD PUSH1 0x80 DUP7 ADD MSTORE PUSH3 0xF71 DUP4 DUP3 PUSH3 0xD49 JUMP JUMPDEST SWAP3 POP POP PUSH1 0x80 DUP6 ADD MLOAD PUSH3 0xF8F PUSH1 0xA0 DUP7 ADD DUP3 PUSH1 0x1 PUSH1 0x1 PUSH1 0xA0 SHL SUB AND SWAP1 MSTORE JUMP JUMPDEST POP PUSH1 0xA0 DUP6 ADD MLOAD PUSH1 0xC0 DUP6 ADD MSTORE PUSH1 0xC0 DUP6 ADD MLOAD PUSH1 0xE0 DUP6 ADD MSTORE PUSH1 0xE0 DUP6 ADD MLOAD DUP2 DUP6 ADD MSTORE POP DUP1 SWAP2 POP POP SWAP3 SWAP2 POP POP JUMP JUMPDEST PUSH1 0x1 DUP2 DUP2 SHR SWAP1 DUP3 AND DUP1 PUSH3 0xFCD JUMPI PUSH1 0x7F DUP3 AND SWAP2 POP JUMPDEST PUSH1 0x20 DUP3 LT DUP2 SUB PUSH3 0xFEE JUMPI PUSH4 0x4E487B71 PUSH1 0xE0 SHL PUSH1 0x0 MSTORE PUSH1 0x22 PUSH1 0x4 MSTORE PUSH1 0x24 PUSH1 0x0 REVERT JUMPDEST POP SWAP2 SWAP1 POP JUMP JUMPDEST PUSH1 0x40 DUP2 MSTORE PUSH1 0x0 PUSH3 0x1009 PUSH1 0x40 DUP4 ADD DUP6 PUSH3 0xD49 JUMP JUMPDEST DUP3 DUP2 SUB PUSH1 0x20 DUP5 ADD MSTORE PUSH3 0x101D DUP2 DUP6 PUSH3 0xD49 JUMP JUMPDEST SWAP6 SWAP5 POP POP POP POP POP JUMP JUMPDEST PUSH1 0x0 DUP4 MLOAD PUSH3 0x103A DUP2 DUP5 PUSH1 0x20 DUP9 ADD PUSH3 0xD23 JUMP JUMPDEST DUP4 MLOAD SWAP1 DUP4 ADD SWAP1 PUSH3 0x1050 DUP2 DUP4 PUSH1 0x20 DUP9 ADD PUSH3 0xD23 JUMP JUMPDEST ADD SWAP5 SWAP4 POP POP POP POP JUMP JUMPDEST PUSH4 0x4E487B71 PUSH1 0xE0 SHL PUSH1 0x0 MSTORE PUSH1 0x11 PUSH1 0x4 MSTORE PUSH1 0x24 PUSH1 0x0 REVERT JUMPDEST DUP1 DUP3 MUL DUP2 ISZERO DUP3 DUP3 DIV DUP5 EQ OR PUSH3 0x1089 JUMPI PUSH3 0x1089 PUSH3 0x1059 JUMP JUMPDEST SWAP3 SWAP2 POP POP JUMP JUMPDEST PUSH1 0x0 DUP3 PUSH3 0x10AD JUMPI PUSH4 0x4E487B71 PUSH1 0xE0 SHL PUSH1 0x0 MSTORE PUSH1 0x12 PUSH1 0x4 MSTORE PUSH1 0x24 PUSH1 0x0 REVERT JUMPDEST POP DIV SWAP1 JUMP JUMPDEST DUP2 DUP2 SUB DUP2 DUP2 GT ISZERO PUSH3 0x1089 JUMPI PUSH3 0x1089 PUSH3 0x1059 JUMP JUMPDEST PUSH1 0x1F DUP3 GT ISZERO PUSH3 0x1116 JUMPI PUSH1 0x0 DUP2 DUP2 MSTORE PUSH1 0x20 DUP2 KECCAK256 PUSH1 0x1F DUP6 ADD PUSH1 0x5 SHR DUP2 ADD PUSH1 0x20 DUP7 LT ISZERO PUSH3 0x10F1 JUMPI POP DUP1 JUMPDEST PUSH1 0x1F DUP6 ADD PUSH1 0x5 SHR DUP3 ADD SWAP2 POP JUMPDEST DUP2 DUP2 LT ISZERO PUSH3 0x1112 JUMPI DUP3 DUP2 SSTORE PUSH1 0x1 ADD PUSH3 0x10FD JUMP JUMPDEST POP POP POP JUMPDEST POP POP POP JUMP JUMPDEST DUP2 MLOAD PUSH8 0xFFFFFFFFFFFFFFFF DUP2 GT ISZERO PUSH3 0x1138 JUMPI PUSH3 0x1138 PUSH3 0xDE4 JUMP JUMPDEST PUSH3 0x1150 DUP2 PUSH3 0x1149 DUP5 SLOAD PUSH3 0xFB8 JUMP JUMPDEST DUP5 PUSH3 0x10C8 JUMP JUMPDEST PUSH1 0x20 DUP1 PUSH1 0x1F DUP4 GT PUSH1 0x1 DUP2 EQ PUSH3 0x1188 JUMPI PUSH1 0x0 DUP5 ISZERO PUSH3 0x116F JUMPI POP DUP6 DUP4 ADD MLOAD JUMPDEST PUSH1 0x0 NOT PUSH1 0x3 DUP7 SWAP1 SHL SHR NOT AND PUSH1 0x1 DUP6 SWAP1 SHL OR DUP6 SSTORE PUSH3 0x1112 JUMP JUMPDEST PUSH1 0x0 DUP6 DUP2 MSTORE PUSH1 0x20 DUP2 KECCAK256 PUSH1 0x1F NOT DUP7 AND SWAP2 JUMPDEST DUP3 DUP2 LT ISZERO PUSH3 0x11B9 JUMPI DUP9 DUP7 ADD MLOAD DUP3 SSTORE SWAP5 DUP5 ADD SWAP5 PUSH1 0x1 SWAP1 SWAP2 ADD SWAP1 DUP5 ADD PUSH3 0x1198 JUMP JUMPDEST POP DUP6 DUP3 LT ISZERO PUSH3 0x11D8 JUMPI DUP8 DUP6 ADD MLOAD PUSH1 0x0 NOT PUSH1 0x3 DUP9 SWAP1 SHL PUSH1 0xF8 AND SHR NOT AND DUP2 SSTORE JUMPDEST POP POP POP POP POP PUSH1 0x1 SWAP1 DUP2 SHL ADD SWAP1 SSTORE POP JUMP JUMPDEST PUSH1 0x0 PUSH1 0x20 DUP3 DUP5 SUB SLT ISZERO PUSH3 0x11FB JUMPI PUSH1 0x0 DUP1 REVERT JUMPDEST DUP2 MLOAD DUP1 ISZERO ISZERO DUP2 EQ PUSH3 0xD02 JUMPI PUSH1 0x0 DUP1 REVERT JUMPDEST PUSH1 0x0 PUSH1 0x20 DUP3 DUP5 SUB SLT ISZERO PUSH3 0x121F JUMPI PUSH1 0x0 DUP1 REVERT JUMPDEST POP MLOAD SWAP2 SWAP1 POP JUMP JUMPDEST PUSH1 0x80 DUP2 MSTORE PUSH1 0x0 PUSH3 0x123B PUSH1 0x80 DUP4 ADD DUP8 PUSH3 0xD49 JUMP JUMPDEST DUP3 DUP2 SUB PUSH1 0x20 DUP5 ADD MSTORE PUSH3 0x124F DUP2 DUP8 PUSH3 0xD49 JUMP JUMPDEST PUSH1 0x40 DUP5 ADD SWAP6 SWAP1 SWAP6 MSTORE POP POP PUSH1 0x60 ADD MSTORE SWAP3 SWAP2 POP POP JUMP JUMPDEST PUSH4 0x4E487B71 PUSH1 0xE0 SHL PUSH1 0x0 MSTORE PUSH1 0x32 PUSH1 0x4 MSTORE PUSH1 0x24 PUSH1 0x0 REVERT INVALID PUSH1 0x80 PUSH1 0x40 MSTORE CALLVALUE DUP1 ISZERO PUSH3 0x11 JUMPI PUSH1 0x0 DUP1 REVERT JUMPDEST POP PUSH1 0x40 MLOAD PUSH3 0xB9B CODESIZE SUB DUP1 PUSH3 0xB9B DUP4 CODECOPY DUP2 ADD PUSH1 0x40 DUP2 SWAP1 MSTORE PUSH3 0x34 SWAP2 PUSH3 0x189 JUMP JUMPDEST PUSH1 0x0 PUSH3 0x42 DUP4 DUP3 PUSH3 0x282 JUMP JUMPDEST POP PUSH1 0x1 PUSH3 0x51 DUP3 DUP3 PUSH3 0x282 JUMP JUMPDEST POP PUSH3 0x60 PUSH1 0x12 PUSH1 0xA PUSH3 0x463 JUMP JUMPDEST PUSH3 0x6F SWAP1 PUSH3 0xF4240 PUSH3 0x47B JUMP JUMPDEST PUSH1 0x2 DUP2 SWAP1 SSTORE CALLER PUSH1 0x0 DUP2 DUP2 MSTORE PUSH1 0x3 PUSH1 0x20 SWAP1 DUP2 MSTORE PUSH1 0x40 DUP1 DUP4 KECCAK256 DUP6 SWAP1 SSTORE MLOAD SWAP4 DUP5 MSTORE SWAP2 SWAP3 SWAP1 SWAP2 PUSH32 0xDDF252AD1BE2C89B69C2B068FC378DAA952BA7F163C4A11628F55A4DF523B3EF SWAP2 ADD PUSH1 0x40 MLOAD DUP1 SWAP2 SUB SWAP1 LOG3 POP POP PUSH3 0x495 JUMP JUMPDEST PUSH4 0x4E487B71 PUSH1 0xE0 SHL PUSH1 0x0 MSTORE PUSH1 0x41 PUSH1 0x4 MSTORE PUSH1 0x24 PUSH1 0x0 REVERT JUMPDEST PUSH1 0x0 DUP3 PUSH1 0x1F DUP4 ADD SLT PUSH3 0xEC JUMPI PUSH1 0x0 DUP1 REVERT JUMPDEST DUP2 MLOAD PUSH1 0x1 PUSH1 0x1 PUSH1 0x40 SHL SUB DUP1 DUP3 GT ISZERO PUSH3 0x109 JUMPI PUSH3 0x109 PUSH3 0xC4 JUMP JUMPDEST PUSH1 0x40 MLOAD PUSH1 0x1F DUP4 ADD PUSH1 0x1F NOT SWAP1 DUP2 AND PUSH1 0x3F ADD AND DUP2 ADD SWAP1 DUP3 DUP3 GT DUP2 DUP4 LT OR ISZERO PUSH3 0x134 JUMPI PUSH3 0x134 PUSH3 0xC4 JUMP JUMPDEST DUP2 PUSH1 0x40 MSTORE DUP4 DUP2 MSTORE PUSH1 0x20 SWAP3 POP DUP7 DUP4 DUP6 DUP9 ADD ADD GT ISZERO PUSH3 0x151 JUMPI PUSH1 0x0 DUP1 REVERT JUMPDEST PUSH1 0x0 SWAP2 POP JUMPDEST DUP4 DUP3 LT ISZERO PUSH3 0x175 JUMPI DUP6 DUP3 ADD DUP4 ADD MLOAD DUP2 DUP4 ADD DUP5 ADD MSTORE SWAP1 DUP3 ADD SWAP1 PUSH3 0x156 JUMP JUMPDEST PUSH1 0x0 SWAP4 DUP2 ADD SWAP1 SWAP3 ADD SWAP3 SWAP1 SWAP3 MSTORE SWAP5 SWAP4 POP POP POP POP JUMP JUMPDEST PUSH1 0x0 DUP1 PUSH1 0x40 DUP4 DUP6 SUB SLT ISZERO PUSH3 0x19D JUMPI PUSH1 0x0 DUP1 REVERT JUMPDEST DUP3 MLOAD PUSH1 0x1 PUSH1 0x1 PUSH1 0x40 SHL SUB DUP1 DUP3 GT ISZERO PUSH3 0x1B5 JUMPI PUSH1 0x0 DUP1 REVERT JUMPDEST PUSH3 0x1C3 DUP7 DUP4 DUP8 ADD PUSH3 0xDA JUMP JUMPDEST SWAP4 POP PUSH1 0x20 DUP6 ADD MLOAD SWAP2 POP DUP1 DUP3 GT ISZERO PUSH3 0x1DA JUMPI PUSH1 0x0 DUP1 REVERT JUMPDEST POP PUSH3 0x1E9 DUP6 DUP3 DUP7 ADD PUSH3 0xDA JUMP JUMPDEST SWAP2 POP POP SWAP3 POP SWAP3 SWAP1 POP JUMP JUMPDEST PUSH1 0x1 DUP2 DUP2 SHR SWAP1 DUP3 AND DUP1 PUSH3 0x208 JUMPI PUSH1 0x7F DUP3 AND SWAP2 POP JUMPDEST PUSH1 0x20 DUP3 LT DUP2 SUB PUSH3 0x229 JUMPI PUSH4 0x4E487B71 PUSH1 0xE0 SHL PUSH1 0x0 MSTORE PUSH1 0x22 PUSH1 0x4 MSTORE PUSH1 0x24 PUSH1 0x0 REVERT JUMPDEST POP SWAP2 SWAP1 POP JUMP JUMPDEST PUSH1 0x1F DUP3 GT ISZERO PUSH3 0x27D JUMPI PUSH1 0x0 DUP2 DUP2 MSTORE PUSH1 0x20 DUP2 KECCAK256 PUSH1 0x1F DUP6 ADD PUSH1 0x5 SHR DUP2 ADD PUSH1 0x20 DUP7 LT ISZERO PUSH3 0x258 JUMPI POP DUP1 JUMPDEST PUSH1 0x1F DUP6 ADD PUSH1 0x5 SHR DUP3 ADD SWAP2 POP JUMPDEST DUP2 DUP2 LT ISZERO PUSH3 0x279 JUMPI DUP3 DUP2 SSTORE PUSH1 0x1 ADD PUSH3 0x264 JUMP JUMPDEST POP POP POP JUMPDEST POP POP POP JUMP JUMPDEST DUP2 MLOAD PUSH1 0x1 PUSH1 0x1 PUSH1 0x40 SHL SUB DUP2 GT ISZERO PUSH3 0x29E JUMPI PUSH3 0x29E PUSH3 0xC4 JUMP JUMPDEST PUSH3 0x2B6 DUP2 PUSH3 0x2AF DUP5 SLOAD PUSH3 0x1F3 JUMP JUMPDEST DUP5 PUSH3 0x22F JUMP JUMPDEST PUSH1 0x20 DUP1 PUSH1 0x1F DUP4 GT PUSH1 0x1 DUP2 EQ PUSH3 0x2EE JUMPI PUSH1 0x0 DUP5 ISZERO PUSH3 0x2D5 JUMPI POP DUP6 DUP4 ADD MLOAD JUMPDEST PUSH1 0x0 NOT PUSH1 0x3 DUP7 SWAP1 SHL SHR NOT AND PUSH1 0x1 DUP6 SWAP1 SHL OR DUP6 SSTORE PUSH3 0x279 JUMP JUMPDEST PUSH1 0x0 DUP6 DUP2 MSTORE PUSH1 0x20 DUP2 KECCAK256 PUSH1 0x1F NOT DUP7 AND SWAP2 JUMPDEST DUP3 DUP2 LT ISZERO PUSH3 0x31F JUMPI DUP9 DUP7 ADD MLOAD DUP3 SSTORE SWAP5 DUP5 ADD SWAP5 PUSH1 0x1 SWAP1 SWAP2 ADD SWAP1 DUP5 ADD PUSH3 0x2FE JUMP JUMPDEST POP DUP6 DUP3 LT ISZERO PUSH3 0x33E JUMPI DUP8 DUP6 ADD MLOAD PUSH1 0x0 NOT PUSH1 0x3 DUP9 SWAP1 SHL PUSH1 0xF8 AND SHR NOT AND DUP2 SSTORE JUMPDEST POP POP POP POP POP PUSH1 0x1 SWAP1 DUP2 SHL ADD SWAP1 SSTORE POP JUMP JUMPDEST PUSH4 0x4E487B71 PUSH1 0xE0 SHL PUSH1 0x0 MSTORE PUSH1 0x11 PUSH1 0x4 MSTORE PUSH1 0x24 PUSH1 0x0 REVERT JUMPDEST PUSH1 0x1 DUP2 DUP2 JUMPDEST DUP1 DUP6 GT ISZERO PUSH3 0x3A5 JUMPI DUP2 PUSH1 0x0 NOT DIV DUP3 GT ISZERO PUSH3 0x389 JUMPI PUSH3 0x389 PUSH3 0x34E JUMP JUMPDEST DUP1 DUP6 AND ISZERO PUSH3 0x397 JUMPI SWAP2 DUP2 MUL SWAP2 JUMPDEST SWAP4 DUP5 SHR SWAP4 SWAP1 DUP1 MUL SWAP1 PUSH3 0x369 JUMP JUMPDEST POP SWAP3 POP SWAP3 SWAP1 POP JUMP JUMPDEST PUSH1 0x0 DUP3 PUSH3 0x3BE JUMPI POP PUSH1 0x1 PUSH3 0x45D JUMP JUMPDEST DUP2 PUSH3 0x3CD JUMPI POP PUSH1 0x0 PUSH3 0x45D JUMP JUMPDEST DUP2 PUSH1 0x1 DUP2 EQ PUSH3 0x3E6 JUMPI PUSH1 0x2 DUP2 EQ PUSH3 0x3F1 JUMPI PUSH3 0x411 JUMP JUMPDEST PUSH1 0x1 SWAP2 POP POP PUSH3 0x45D JUMP JUMPDEST PUSH1 0xFF DUP5 GT ISZERO PUSH3 0x405 JUMPI PUSH3 0x405 PUSH3 0x34E JUMP JUMPDEST POP POP PUSH1 0x1 DUP3 SHL PUSH3 0x45D JUMP JUMPDEST POP PUSH1 0x20 DUP4 LT PUSH2 0x133 DUP4 LT AND PUSH1 0x4E DUP5 LT PUSH1 0xB DUP5 LT AND OR ISZERO PUSH3 0x436 JUMPI POP DUP2 DUP2 EXP PUSH3 0x45D JUMP JUMPDEST PUSH3 0x442 DUP4 DUP4 PUSH3 0x364 JUMP JUMPDEST DUP1 PUSH1 0x0 NOT DIV DUP3 GT ISZERO PUSH3 0x459 JUMPI PUSH3 0x459 PUSH3 0x34E JUMP JUMPDEST MUL SWAP1 POP JUMPDEST SWAP3 SWAP2 POP POP JUMP JUMPDEST PUSH1 0x0 PUSH3 0x474 PUSH1 0xFF DUP5 AND DUP4 PUSH3 0x3AD JUMP JUMPDEST SWAP4 SWAP3 POP POP POP JUMP JUMPDEST DUP1 DUP3 MUL DUP2 ISZERO DUP3 DUP3 DIV DUP5 EQ OR PUSH3 0x45D JUMPI PUSH3 0x45D PUSH3 0x34E JUMP JUMPDEST PUSH2 0x6F6 DUP1 PUSH3 0x4A5 PUSH1 0x0 CODECOPY PUSH1 0x0 RETURN INVALID PUSH1 0x80 PUSH1 0x40 MSTORE CALLVALUE DUP1 ISZERO PUSH2 0x10 JUMPI PUSH1 0x0 DUP1 REVERT JUMPDEST POP PUSH1 0x4 CALLDATASIZE LT PUSH2 0x93 JUMPI PUSH1 0x0 CALLDATALOAD PUSH1 0xE0 SHR DUP1 PUSH4 0x313CE567 GT PUSH2 0x66 JUMPI DUP1 PUSH4 0x313CE567 EQ PUSH2 0x103 JUMPI DUP1 PUSH4 0x70A08231 EQ PUSH2 0x11D JUMPI DUP1 PUSH4 0x95D89B41 EQ PUSH2 0x13D JUMPI DUP1 PUSH4 0xA9059CBB EQ PUSH2 0x145 JUMPI DUP1 PUSH4 0xDD62ED3E EQ PUSH2 0x158 JUMPI PUSH1 0x0 DUP1 REVERT JUMPDEST DUP1 PUSH4 0x6FDDE03 EQ PUSH2 0x98 JUMPI DUP1 PUSH4 0x95EA7B3 EQ PUSH2 0xB6 JUMPI DUP1 PUSH4 0x18160DDD EQ PUSH2 0xD9 JUMPI DUP1 PUSH4 0x23B872DD EQ PUSH2 0xF0 JUMPI JUMPDEST PUSH1 0x0 DUP1 REVERT JUMPDEST PUSH2 0xA0 PUSH2 0x183 JUMP JUMPDEST PUSH1 0x40 MLOAD PUSH2 0xAD SWAP2 SWAP1 PUSH2 0x525 JUMP JUMPDEST PUSH1 0x40 MLOAD DUP1 SWAP2 SUB SWAP1 RETURN JUMPDEST PUSH2 0xC9 PUSH2 0xC4 CALLDATASIZE PUSH1 0x4 PUSH2 0x58F JUMP JUMPDEST PUSH2 0x211 JUMP JUMPDEST PUSH1 0x40 MLOAD SWAP1 ISZERO ISZERO DUP2 MSTORE PUSH1 0x20 ADD PUSH2 0xAD JUMP JUMPDEST PUSH2 0xE2 PUSH1 0x2 SLOAD DUP2 JUMP JUMPDEST PUSH1 0x40 MLOAD SWAP1 DUP2 MSTORE PUSH1 0x20 ADD PUSH2 0xAD JUMP JUMPDEST PUSH2 0xC9 PUSH2 0xFE CALLDATASIZE PUSH1 0x4 PUSH2 0x5B9 JUMP JUMPDEST PUSH2 0x2A0 JUMP JUMPDEST PUSH2 0x10B PUSH1 0x12 DUP2 JUMP JUMPDEST PUSH1 0x40 MLOAD PUSH1 0xFF SWAP1 SWAP2 AND DUP2 MSTORE PUSH1 0x20 ADD PUSH2 0xAD JUMP JUMPDEST PUSH2 0xE2 PUSH2 0x12B CALLDATASIZE PUSH1 0x4 PUSH2 0x5F5 JUMP JUMPDEST PUSH1 0x3 PUSH1 0x20 MSTORE PUSH1 0x0 SWAP1 DUP2 MSTORE PUSH1 0x40 SWAP1 KECCAK256 SLOAD DUP2 JUMP JUMPDEST PUSH2 0xA0 PUSH2 0x431 JUMP JUMPDEST PUSH2 0xC9 PUSH2 0x153 CALLDATASIZE PUSH1 0x4 PUSH2 0x58F JUMP JUMPDEST PUSH2 0x43E JUMP JUMPDEST PUSH2 0xE2 PUSH2 0x166 CALLDATASIZE PUSH1 0x4 PUSH2 0x617 JUMP JUMPDEST PUSH1 0x4 PUSH1 0x20 SWAP1 DUP2 MSTORE PUSH1 0x0 SWAP3 DUP4 MSTORE PUSH1 0x40 DUP1 DUP5 KECCAK256 SWAP1 SWAP2 MSTORE SWAP1 DUP3 MSTORE SWAP1 KECCAK256 SLOAD DUP2 JUMP JUMPDEST PUSH1 0x0 DUP1 SLOAD PUSH2 0x190 SWAP1 PUSH2 0x64A JUMP JUMPDEST DUP1 PUSH1 0x1F ADD PUSH1 0x20 DUP1 SWAP2 DIV MUL PUSH1 0x20 ADD PUSH1 0x40 MLOAD SWAP1 DUP2 ADD PUSH1 0x40 MSTORE DUP1 SWAP3 SWAP2 SWAP1 DUP2 DUP2 MSTORE PUSH1 0x20 ADD DUP3 DUP1 SLOAD PUSH2 0x1BC SWAP1 PUSH2 0x64A JUMP JUMPDEST DUP1 ISZERO PUSH2 0x209 JUMPI DUP1 PUSH1 0x1F LT PUSH2 0x1DE JUMPI PUSH2 0x100 DUP1 DUP4 SLOAD DIV MUL DUP4 MSTORE SWAP2 PUSH1 0x20 ADD SWAP2 PUSH2 0x209 JUMP JUMPDEST DUP3 ADD SWAP2 SWAP1 PUSH1 0x0 MSTORE PUSH1 0x20 PUSH1 0x0 KECCAK256 SWAP1 JUMPDEST DUP2 SLOAD DUP2 MSTORE SWAP1 PUSH1 0x1 ADD SWAP1 PUSH1 0x20 ADD DUP1 DUP4 GT PUSH2 0x1EC JUMPI DUP3 SWAP1 SUB PUSH1 0x1F AND DUP3 ADD SWAP2 JUMPDEST POP POP POP POP POP DUP2 JUMP JUMPDEST PUSH1 0x0 PUSH1 0x1 PUSH1 0x1 PUSH1 0xA0 SHL SUB DUP4 AND PUSH2 0x23A JUMPI PUSH1 0x40 MLOAD PUSH4 0xD92E233D PUSH1 0xE0 SHL DUP2 MSTORE PUSH1 0x4 ADD PUSH1 0x40 MLOAD DUP1 SWAP2 SUB SWAP1 REVERT JUMPDEST CALLER PUSH1 0x0 DUP2 DUP2 MSTORE PUSH1 0x4 PUSH1 0x20 SWAP1 DUP2 MSTORE PUSH1 0x40 DUP1 DUP4 KECCAK256 PUSH1 0x1 PUSH1 0x1 PUSH1 0xA0 SHL SUB DUP9 AND DUP1 DUP6 MSTORE SWAP1 DUP4 MSTORE SWAP3 DUP2 SWAP1 KECCAK256 DUP7 SWAP1 SSTORE MLOAD DUP6 DUP2 MSTORE SWAP2 SWAP3 SWAP2 PUSH32 0x8C5BE1E5EBEC7D5BD14F71427D1E84F3DD0314C0F7B2291E5B200AC8C7C3B925 SWAP2 ADD JUMPDEST PUSH1 0x40 MLOAD DUP1 SWAP2 SUB SWAP1 LOG3 POP PUSH1 0x1 JUMPDEST SWAP3 SWAP2 POP POP JUMP JUMPDEST PUSH1 0x0 PUSH1 0x1 PUSH1 0x1 PUSH1 0xA0 SHL SUB DUP4 AND PUSH2 0x2C9 JUMPI PUSH1 0x40 MLOAD PUSH4 0xD92E233D PUSH1 0xE0 SHL DUP2 MSTORE PUSH1 0x4 ADD PUSH1 0x40 MLOAD DUP1 SWAP2 SUB SWAP1 REVERT JUMPDEST PUSH1 0x1 PUSH1 0x1 PUSH1 0xA0 SHL SUB DUP5 AND PUSH1 0x0 SWAP1 DUP2 MSTORE PUSH1 0x3 PUSH1 0x20 MSTORE PUSH1 0x40 SWAP1 KECCAK256 SLOAD DUP3 GT ISZERO PUSH2 0x302 JUMPI PUSH1 0x40 MLOAD PUSH4 0x1E9ACF17 PUSH1 0xE3 SHL DUP2 MSTORE PUSH1 0x4 ADD PUSH1 0x40 MLOAD DUP1 SWAP2 SUB SWAP1 REVERT JUMPDEST PUSH1 0x1 PUSH1 0x1 PUSH1 0xA0 SHL SUB DUP5 AND PUSH1 0x0 SWAP1 DUP2 MSTORE PUSH1 0x4 PUSH1 0x20 SWAP1 DUP2 MSTORE PUSH1 0x40 DUP1 DUP4 KECCAK256 CALLER DUP5 MSTORE SWAP1 SWAP2 MSTORE SWAP1 KECCAK256 SLOAD DUP3 GT ISZERO PUSH2 0x346 JUMPI PUSH1 0x40 MLOAD PUSH4 0x13BE252B PUSH1 0xE0 SHL DUP2 MSTORE PUSH1 0x4 ADD PUSH1 0x40 MLOAD DUP1 SWAP2 SUB SWAP1 REVERT JUMPDEST PUSH1 0x1 PUSH1 0x1 PUSH1 0xA0 SHL SUB DUP5 AND PUSH1 0x0 SWAP1 DUP2 MSTORE PUSH1 0x3 PUSH1 0x20 MSTORE PUSH1 0x40 DUP2 KECCAK256 DUP1 SLOAD DUP5 SWAP3 SWAP1 PUSH2 0x36E SWAP1 DUP5 SWAP1 PUSH2 0x69A JUMP JUMPDEST SWAP1 SWAP2 SSTORE POP POP PUSH1 0x1 PUSH1 0x1 PUSH1 0xA0 SHL SUB DUP4 AND PUSH1 0x0 SWAP1 DUP2 MSTORE PUSH1 0x3 PUSH1 0x20 MSTORE PUSH1 0x40 DUP2 KECCAK256 DUP1 SLOAD DUP5 SWAP3 SWAP1 PUSH2 0x39B SWAP1 DUP5 SWAP1 PUSH2 0x6AD JUMP JUMPDEST SWAP1 SWAP2 SSTORE POP POP PUSH1 0x1 PUSH1 0x1 PUSH1 0xA0 SHL SUB DUP5 AND PUSH1 0x0 SWAP1 DUP2 MSTORE PUSH1 0x4 PUSH1 0x20 SWAP1 DUP2 MSTORE PUSH1 0x40 DUP1 DUP4 KECCAK256 CALLER DUP5 MSTORE SWAP1 SWAP2 MSTORE DUP2 KECCAK256 DUP1 SLOAD DUP5 SWAP3 SWAP1 PUSH2 0x3D3 SWAP1 DUP5 SWAP1 PUSH2 0x69A JUMP JUMPDEST SWAP3 POP POP DUP2 SWAP1 SSTORE POP DUP3 PUSH1 0x1 PUSH1 0x1 PUSH1 0xA0 SHL SUB AND DUP5 PUSH1 0x1 PUSH1 0x1 PUSH1 0xA0 SHL SUB AND PUSH32 0xDDF252AD1BE2C89B69C2B068FC378DAA952BA7F163C4A11628F55A4DF523B3EF DUP5 PUSH1 0x40 MLOAD PUSH2 0x41F SWAP2 DUP2 MSTORE PUSH1 0x20 ADD SWAP1 JUMP JUMPDEST PUSH1 0x40 MLOAD DUP1 SWAP2 SUB SWAP1 LOG3 POP PUSH1 0x1 SWAP4 SWAP3 POP POP POP JUMP JUMPDEST PUSH1 0x1 DUP1 SLOAD PUSH2 0x190 SWAP1 PUSH2 0x64A JUMP JUMPDEST PUSH1 0x0 PUSH1 0x1 PUSH1 0x1 PUSH1 0xA0 SHL SUB DUP4 AND PUSH2 0x467 JUMPI PUSH1 0x40 MLOAD PUSH4 0xD92E233D PUSH1 0xE0 SHL DUP2 MSTORE PUSH1 0x4 ADD PUSH1 0x40 MLOAD DUP1 SWAP2 SUB SWAP1 REVERT JUMPDEST CALLER PUSH1 0x0 SWAP1 DUP2 MSTORE PUSH1 0x3 PUSH1 0x20 MSTORE PUSH1 0x40 SWAP1 KECCAK256 SLOAD DUP3 GT ISZERO PUSH2 0x497 JUMPI PUSH1 0x40 MLOAD PUSH4 0x1E9ACF17 PUSH1 0xE3 SHL DUP2 MSTORE PUSH1 0x4 ADD PUSH1 0x40 MLOAD DUP1 SWAP2 SUB SWAP1 REVERT JUMPDEST CALLER PUSH1 0x0 SWAP1 DUP2 MSTORE PUSH1 0x3 PUSH1 0x20 MSTORE PUSH1 0x40 DUP2 KECCAK256 DUP1 SLOAD DUP5 SWAP3 SWAP1 PUSH2 0x4B6 SWAP1 DUP5 SWAP1 PUSH2 0x69A JUMP JUMPDEST SWAP1 SWAP2 SSTORE POP POP PUSH1 0x1 PUSH1 0x1 PUSH1 0xA0 SHL SUB DUP4 AND PUSH1 0x0 SWAP1 DUP2 MSTORE PUSH1 0x3 PUSH1 0x20 MSTORE PUSH1 0x40 DUP2 KECCAK256 DUP1 SLOAD DUP5 SWAP3 SWAP1 PUSH2 0x4E3 SWAP1 DUP5 SWAP1 PUSH2 0x6AD JUMP JUMPDEST SWAP1 SWAP2 SSTORE POP POP PUSH1 0x40 MLOAD DUP3 DUP2 MSTORE PUSH1 0x1 PUSH1 0x1 PUSH1 0xA0 SHL SUB DUP5 AND SWAP1 CALLER SWAP1 PUSH32 0xDDF252AD1BE2C89B69C2B068FC378DAA952BA7F163C4A11628F55A4DF523B3EF SWAP1 PUSH1 0x20 ADD PUSH2 0x28E JUMP JUMPDEST PUSH1 0x0 PUSH1 0x20 DUP1 DUP4 MSTORE DUP4 MLOAD DUP1 DUP3 DUP6 ADD MSTORE PUSH1 0x0 JUMPDEST DUP2 DUP2 LT ISZERO PUSH2 0x552 JUMPI DUP6 DUP2 ADD DUP4 ADD MLOAD DUP6 DUP3 ADD PUSH1 0x40 ADD MSTORE DUP3 ADD PUSH2 0x536 JUMP JUMPDEST POP PUSH1 0x0 PUSH1 0x40 DUP3 DUP7 ADD ADD MSTORE PUSH1 0x40 PUSH1 0x1F NOT PUSH1 0x1F DUP4 ADD AND DUP6 ADD ADD SWAP3 POP POP POP SWAP3 SWAP2 POP POP JUMP JUMPDEST DUP1 CALLDATALOAD PUSH1 0x1 PUSH1 0x1 PUSH1 0xA0 SHL SUB DUP2 AND DUP2 EQ PUSH2 0x58A JUMPI PUSH1 0x0 DUP1 REVERT JUMPDEST SWAP2 SWAP1 POP JUMP JUMPDEST PUSH1 0x0 DUP1 PUSH1 0x40 DUP4 DUP6 SUB SLT ISZERO PUSH2 0x5A2 JUMPI PUSH1 0x0 DUP1 REVERT JUMPDEST PUSH2 0x5AB DUP4 PUSH2 0x573 JUMP JUMPDEST SWAP5 PUSH1 0x20 SWAP4 SWAP1 SWAP4 ADD CALLDATALOAD SWAP4 POP POP POP JUMP JUMPDEST PUSH1 0x0 DUP1 PUSH1 0x0 PUSH1 0x60 DUP5 DUP7 SUB SLT ISZERO PUSH2 0x5CE JUMPI PUSH1 0x0 DUP1 REVERT JUMPDEST PUSH2 0x5D7 DUP5 PUSH2 0x573 JUMP JUMPDEST SWAP3 POP PUSH2 0x5E5 PUSH1 0x20 DUP6 ADD PUSH2 0x573 JUMP JUMPDEST SWAP2 POP PUSH1 0x40 DUP5 ADD CALLDATALOAD SWAP1 POP SWAP3 POP SWAP3 POP SWAP3 JUMP JUMPDEST PUSH1 0x0 PUSH1 0x20 DUP3 DUP5 SUB SLT ISZERO PUSH2 0x607 JUMPI PUSH1 0x0 DUP1 REVERT JUMPDEST PUSH2 0x610 DUP3 PUSH2 0x573 JUMP JUMPDEST SWAP4 SWAP3 POP POP POP JUMP JUMPDEST PUSH1 0x0 DUP1 PUSH1 0x40 DUP4 DUP6 SUB SLT ISZERO PUSH2 0x62A JUMPI PUSH1 0x0 DUP1 REVERT JUMPDEST PUSH2 0x633 DUP4 PUSH2 0x573 JUMP JUMPDEST SWAP2 POP PUSH2 0x641 PUSH1 0x20 DUP5 ADD PUSH2 0x573 JUMP JUMPDEST SWAP1 POP SWAP3 POP SWAP3 SWAP1 POP JUMP JUMPDEST PUSH1 0x1 DUP2 DUP2 SHR SWAP1 DUP3 AND DUP1 PUSH2 0x65E JUMPI PUSH1 0x7F DUP3 AND SWAP2 POP JUMPDEST PUSH1 0x20 DUP3 LT DUP2 SUB PUSH2 0x67E JUMPI PUSH4 0x4E487B71 PUSH1 0xE0 SHL PUSH1 0x0 MSTORE PUSH1 0x22 PUSH1 0x4 MSTORE PUSH1 0x24 PUSH1 0x0 REVERT JUMPDEST POP SWAP2 SWAP1 POP JUMP JUMPDEST PUSH4 0x4E487B71 PUSH1 0xE0 SHL PUSH1 0x0 MSTORE PUSH1 0x11 PUSH1 0x4 MSTORE PUSH1 0x24 PUSH1 0x0 REVERT JUMPDEST DUP2 DUP2 SUB DUP2 DUP2 GT ISZERO PUSH2 0x29A JUMPI PUSH2 0x29A PUSH2 0x684 JUMP JUMPDEST DUP1 DUP3 ADD DUP1 DUP3 GT ISZERO PUSH2 0x29A JUMPI PUSH2 0x29A PUSH2 0x684 JUMP INVALID LOG2 PUSH5 0x6970667358 0x22 SLT KECCAK256 0xFB 0xBD DUP12 0xBD 0xA5 ADD 0x2C LOG1 0x23 0x4E 0xF9 0x24 MSTORE 0xD4 JUMPI OR 0x4C PUSH30 0xA5CD657D4320AD7220D0B9B4AB1A64736F6C6343000814003360A0604052 PUSH1 0x1 PUSH1 0x6 SSTORE CALLVALUE DUP1 ISZERO PUSH2 0x15 JUMPI PUSH1 0x0 DUP1 REVERT JUMPDEST POP PUSH1 0x40 MLOAD PUSH2 0x1141 CODESIZE SUB DUP1 PUSH2 0x1141 DUP4 CODECOPY DUP2 ADD PUSH1 0x40 DUP2 SWAP1 MSTORE PUSH2 0x34 SWAP2 PUSH2 0x84 JUMP JUMPDEST PUSH1 0x1 PUSH1 0x1 PUSH1 0xA0 SHL SUB DUP2 AND PUSH2 0x5B JUMPI PUSH1 0x40 MLOAD PUSH4 0xD92E233D PUSH1 0xE0 SHL DUP2 MSTORE PUSH1 0x4 ADD PUSH1 0x40 MLOAD DUP1 SWAP2 SUB SWAP1 REVERT JUMPDEST CALLER PUSH1 0x80 MSTORE PUSH1 0x0 DUP1 SLOAD PUSH1 0x1 PUSH1 0x1 PUSH1 0xA0 SHL SUB NOT AND PUSH1 0x1 PUSH1 0x1 PUSH1 0xA0 SHL SUB SWAP3 SWAP1 SWAP3 AND SWAP2 SWAP1 SWAP2 OR SWAP1 SSTORE PUSH2 0xB4 JUMP JUMPDEST PUSH1 0x0 PUSH1 0x20 DUP3 DUP5 SUB SLT ISZERO PUSH2 0x96 JUMPI PUSH1 0x0 DUP1 REVERT JUMPDEST DUP2 MLOAD PUSH1 0x1 PUSH1 0x1 PUSH1 0xA0 SHL SUB DUP2 AND DUP2 EQ PUSH2 0xAD JUMPI PUSH1 0x0 DUP1 REVERT JUMPDEST SWAP4 SWAP3 POP POP POP JUMP JUMPDEST PUSH1 0x80 MLOAD PUSH2 0x106B PUSH2 0xD6 PUSH1 0x0 CODECOPY PUSH1 0x0 DUP2 DUP2 PUSH2 0x2C8 ADD MSTORE PUSH2 0x990 ADD MSTORE PUSH2 0x106B PUSH1 0x0 RETURN INVALID PUSH1 0x80 PUSH1 0x40 MSTORE PUSH1 0x4 CALLDATASIZE LT PUSH2 0x109 JUMPI PUSH1 0x0 CALLDATALOAD PUSH1 0xE0 SHR DUP1 PUSH4 0x98D5FDCA GT PUSH2 0x95 JUMPI DUP1 PUSH4 0xC45A0155 GT PUSH2 0x64 JUMPI DUP1 PUSH4 0xC45A0155 EQ PUSH2 0x2B6 JUMPI DUP1 PUSH4 0xD73792A9 EQ PUSH2 0x2A0 JUMPI DUP1 PUSH4 0xEAF98D23 EQ PUSH2 0x2EA JUMPI DUP1 PUSH4 0xF4325D67 EQ PUSH2 0x2FF JUMPI DUP1 PUSH4 0xFC0C546A EQ PUSH2 0x315 JUMPI PUSH1 0x0 DUP1 REVERT JUMPDEST DUP1 PUSH4 0x98D5FDCA EQ PUSH2 0x229 JUMPI DUP1 PUSH4 0x9C8F9F23 EQ PUSH2 0x23E JUMPI DUP1 PUSH4 0xB8C876B1 EQ PUSH2 0x273 JUMPI DUP1 PUSH4 0xBA9A7A56 EQ PUSH2 0x2A0 JUMPI PUSH1 0x0 DUP1 REVERT JUMPDEST DUP1 PUSH4 0x1B3D2CB3 GT PUSH2 0xDC JUMPI DUP1 PUSH4 0x1B3D2CB3 EQ PUSH2 0x18D JUMPI DUP1 PUSH4 0x46904840 EQ PUSH2 0x1A0 JUMPI DUP1 PUSH4 0x4E6FD6C4 EQ PUSH2 0x1E0 JUMPI DUP1 PUSH4 0x51C6590A EQ PUSH2 0x1F6 JUMPI DUP1 PUSH4 0x80CB1A6E EQ PUSH2 0x209 JUMPI PUSH1 0x0 DUP1 REVERT JUMPDEST DUP1 PUSH4 0x100AF203 EQ PUSH2 0x10E JUMPI DUP1 PUSH4 0x15770F92 EQ PUSH2 0x137 JUMPI DUP1 PUSH4 0x15D6DAE9 EQ PUSH2 0x14D JUMPI DUP1 PUSH4 0x1618E130 EQ PUSH2 0x16D JUMPI JUMPDEST PUSH1 0x0 DUP1 REVERT JUMPDEST CALLVALUE DUP1 ISZERO PUSH2 0x11A JUMPI PUSH1 0x0 DUP1 REVERT JUMPDEST POP PUSH2 0x124 PUSH1 0x2 SLOAD DUP2 JUMP JUMPDEST PUSH1 0x40 MLOAD SWAP1 DUP2 MSTORE PUSH1 0x20 ADD JUMPDEST PUSH1 0x40 MLOAD DUP1 SWAP2 SUB SWAP1 RETURN JUMPDEST CALLVALUE DUP1 ISZERO PUSH2 0x143 JUMPI PUSH1 0x0 DUP1 REVERT JUMPDEST POP PUSH2 0x124 PUSH1 0x3 SLOAD DUP2 JUMP JUMPDEST CALLVALUE DUP1 ISZERO PUSH2 0x159 JUMPI PUSH1 0x0 DUP1 REVERT JUMPDEST POP PUSH2 0x124 PUSH2 0x168 CALLDATASIZE PUSH1 0x4 PUSH2 0xF34 JUMP JUMPDEST PUSH2 0x335 JUMP JUMPDEST CALLVALUE DUP1 ISZERO PUSH2 0x179 JUMPI PUSH1 0x0 DUP1 REVERT JUMPDEST POP PUSH2 0x124 PUSH2 0x188 CALLDATASIZE PUSH1 0x4 PUSH2 0xF4D JUMP JUMPDEST PUSH2 0x3A3 JUMP JUMPDEST PUSH2 0x124 PUSH2 0x19B CALLDATASIZE PUSH1 0x4 PUSH2 0xF34 JUMP JUMPDEST PUSH2 0x6B8 JUMP JUMPDEST CALLVALUE DUP1 ISZERO PUSH2 0x1AC JUMPI PUSH1 0x0 DUP1 REVERT JUMPDEST POP PUSH2 0x1C8 PUSH20 0x227D5F29BAB4CEC30F511169886B86FAEF61C6BC DUP2 JUMP JUMPDEST PUSH1 0x40 MLOAD PUSH1 0x1 PUSH1 0x1 PUSH1 0xA0 SHL SUB SWAP1 SWAP2 AND DUP2 MSTORE PUSH1 0x20 ADD PUSH2 0x12E JUMP JUMPDEST CALLVALUE DUP1 ISZERO PUSH2 0x1EC JUMPI PUSH1 0x0 DUP1 REVERT JUMPDEST POP PUSH2 0x1C8 PUSH2 0xDEAD DUP2 JUMP JUMPDEST PUSH2 0x124 PUSH2 0x204 CALLDATASIZE PUSH1 0x4 PUSH2 0xF34 JUMP JUMPDEST PUSH2 0x95B JUMP JUMPDEST CALLVALUE DUP1 ISZERO PUSH2 0x215 JUMPI PUSH1 0x0 DUP1 REVERT JUMPDEST POP PUSH2 0x124 PUSH2 0x224 CALLDATASIZE PUSH1 0x4 PUSH2 0xF34 JUMP JUMPDEST PUSH2 0xBD8 JUMP JUMPDEST CALLVALUE DUP1 ISZERO PUSH2 0x235 JUMPI PUSH1 0x0 DUP1 REVERT JUMPDEST POP PUSH2 0x124 PUSH2 0xC3F JUMP JUMPDEST CALLVALUE DUP1 ISZERO PUSH2 0x24A JUMPI PUSH1 0x0 DUP1 REVERT JUMPDEST POP PUSH2 0x25E PUSH2 0x259 CALLDATASIZE PUSH1 0x4 PUSH2 0xF34 JUMP JUMPDEST PUSH2 0xC78 JUMP JUMPDEST PUSH1 0x40 DUP1 MLOAD SWAP3 DUP4 MSTORE PUSH1 0x20 DUP4 ADD SWAP2 SWAP1 SWAP2 MSTORE ADD PUSH2 0x12E JUMP JUMPDEST CALLVALUE DUP1 ISZERO PUSH2 0x27F JUMPI PUSH1 0x0 DUP1 REVERT JUMPDEST POP PUSH2 0x124 PUSH2 0x28E CALLDATASIZE PUSH1 0x4 PUSH2 0xF6F JUMP JUMPDEST PUSH1 0x5 PUSH1 0x20 MSTORE PUSH1 0x0 SWAP1 DUP2 MSTORE PUSH1 0x40 SWAP1 KECCAK256 SLOAD DUP2 JUMP JUMPDEST CALLVALUE DUP1 ISZERO PUSH2 0x2AC JUMPI PUSH1 0x0 DUP1 REVERT JUMPDEST POP PUSH2 0x124 PUSH2 0x3E8 DUP2 JUMP JUMPDEST CALLVALUE DUP1 ISZERO PUSH2 0x2C2 JUMPI PUSH1 0x0 DUP1 REVERT JUMPDEST POP PUSH2 0x1C8 PUSH32 0x0 DUP2 JUMP JUMPDEST CALLVALUE DUP1 ISZERO PUSH2 0x2F6 JUMPI PUSH1 0x0 DUP1 REVERT JUMPDEST POP PUSH2 0x124 PUSH1 0x4 DUP2 JUMP JUMPDEST CALLVALUE DUP1 ISZERO PUSH2 0x30B JUMPI PUSH1 0x0 DUP1 REVERT JUMPDEST POP PUSH2 0x124 PUSH1 0x1 SLOAD DUP2 JUMP JUMPDEST CALLVALUE DUP1 ISZERO PUSH2 0x321 JUMPI PUSH1 0x0 DUP1 REVERT JUMPDEST POP PUSH1 0x0 SLOAD PUSH2 0x1C8 SWAP1 PUSH1 0x1 PUSH1 0x1 PUSH1 0xA0 SHL SUB AND DUP2 JUMP JUMPDEST PUSH1 0x0 DUP2 ISZERO DUP1 PUSH2 0x344 JUMPI POP PUSH1 0x2 SLOAD ISZERO JUMPDEST ISZERO PUSH2 0x351 JUMPI POP PUSH1 0x0 SWAP2 SWAP1 POP JUMP JUMPDEST PUSH1 0x0 PUSH2 0x3E8 PUSH2 0x361 PUSH1 0x4 DUP6 PUSH2 0xFAE JUMP JUMPDEST PUSH2 0x36B SWAP2 SWAP1 PUSH2 0xFCB JUMP JUMPDEST PUSH2 0x375 SWAP1 DUP5 PUSH2 0xFED JUMP JUMPDEST SWAP1 POP DUP1 PUSH1 0x2 SLOAD PUSH2 0x385 SWAP2 SWAP1 PUSH2 0x1000 JUMP JUMPDEST PUSH1 0x1 SLOAD PUSH2 0x392 SWAP1 DUP4 PUSH2 0xFAE JUMP JUMPDEST PUSH2 0x39C SWAP2 SWAP1 PUSH2 0xFCB JUMP JUMPDEST SWAP4 SWAP3 POP POP POP JUMP JUMPDEST PUSH1 0x0 PUSH1 0x6 SLOAD PUSH1 0x1 EQ PUSH2 0x3C8 JUMPI PUSH1 0x40 MLOAD PUSH4 0xC5F2BE51 PUSH1 0xE0 SHL DUP2 MSTORE PUSH1 0x4 ADD PUSH1 0x40 MLOAD DUP1 SWAP2 SUB SWAP1 REVERT JUMPDEST PUSH1 0x2 PUSH1 0x6 SSTORE PUSH1 0x0 DUP4 SWAP1 SUB PUSH2 0x3EF JUMPI PUSH1 0x40 MLOAD PUSH4 0x1F2A2005 PUSH1 0xE0 SHL DUP2 MSTORE PUSH1 0x4 ADD PUSH1 0x40 MLOAD DUP1 SWAP2 SUB SWAP1 REVERT JUMPDEST PUSH1 0x1 SLOAD ISZERO DUP1 PUSH2 0x3FE JUMPI POP PUSH1 0x2 SLOAD ISZERO JUMPDEST ISZERO PUSH2 0x41C JUMPI PUSH1 0x40 MLOAD PUSH4 0xBB55FD27 PUSH1 0xE0 SHL DUP2 MSTORE PUSH1 0x4 ADD PUSH1 0x40 MLOAD DUP1 SWAP2 SUB SWAP1 REVERT JUMPDEST PUSH1 0x0 DUP4 PUSH1 0x1 SLOAD PUSH2 0x42C SWAP2 SWAP1 PUSH2 0x1000 JUMP JUMPDEST PUSH1 0x2 SLOAD PUSH2 0x439 SWAP1 DUP7 PUSH2 0xFAE JUMP JUMPDEST PUSH2 0x443 SWAP2 SWAP1 PUSH2 0xFCB JUMP JUMPDEST SWAP1 POP PUSH1 0x0 PUSH2 0x3E8 PUSH2 0x455 PUSH1 0x4 DUP5 PUSH2 0xFAE JUMP JUMPDEST PUSH2 0x45F SWAP2 SWAP1 PUSH2 0xFCB JUMP JUMPDEST SWAP1 POP PUSH2 0x46B DUP2 DUP4 PUSH2 0xFED JUMP JUMPDEST SWAP3 POP DUP4 DUP4 LT ISZERO PUSH2 0x48E JUMPI PUSH1 0x40 MLOAD PUSH4 0x8199F5F3 PUSH1 0xE0 SHL DUP2 MSTORE PUSH1 0x4 ADD PUSH1 0x40 MLOAD DUP1 SWAP2 SUB SWAP1 REVERT JUMPDEST PUSH1 0x2 SLOAD DUP4 GT ISZERO PUSH2 0x4B1 JUMPI PUSH1 0x40 MLOAD PUSH4 0xBB55FD27 PUSH1 0xE0 SHL DUP2 MSTORE PUSH1 0x4 ADD PUSH1 0x40 MLOAD DUP1 SWAP2 SUB SWAP1 REVERT JUMPDEST DUP5 PUSH1 0x1 PUSH1 0x0 DUP3 DUP3 SLOAD PUSH2 0x4C3 SWAP2 SWAP1 PUSH2 0x1000 JUMP JUMPDEST SWAP3 POP POP DUP2 SWAP1 SSTORE POP DUP2 PUSH1 0x2 PUSH1 0x0 DUP3 DUP3 SLOAD PUSH2 0x4DC SWAP2 SWAP1 PUSH2 0xFED JUMP JUMPDEST SWAP1 SWAP2 SSTORE POP POP PUSH1 0x0 SLOAD PUSH1 0x40 MLOAD PUSH4 0x23B872DD PUSH1 0xE0 SHL DUP2 MSTORE CALLER PUSH1 0x4 DUP3 ADD MSTORE ADDRESS PUSH1 0x24 DUP3 ADD MSTORE PUSH1 0x44 DUP2 ADD DUP8 SWAP1 MSTORE PUSH1 0x1 PUSH1 0x1 PUSH1 0xA0 SHL SUB SWAP1 SWAP2 AND SWAP1 PUSH4 0x23B872DD SWAP1 PUSH1 0x64 ADD PUSH1 0x20 PUSH1 0x40 MLOAD DUP1 DUP4 SUB DUP2 PUSH1 0x0 DUP8 GAS CALL ISZERO DUP1 ISZERO PUSH2 0x538 JUMPI RETURNDATASIZE PUSH1 0x0 DUP1 RETURNDATACOPY RETURNDATASIZE PUSH1 0x0 REVERT JUMPDEST POP POP POP POP PUSH1 0x40 MLOAD RETURNDATASIZE PUSH1 0x1F NOT PUSH1 0x1F DUP3 ADD AND DUP3 ADD DUP1 PUSH1 0x40 MSTORE POP DUP2 ADD SWAP1 PUSH2 0x55C SWAP2 SWAP1 PUSH2 0x1013 JUMP JUMPDEST PUSH2 0x579 JUMPI PUSH1 0x40 MLOAD PUSH4 0x12171D83 PUSH1 0xE3 SHL DUP2 MSTORE PUSH1 0x4 ADD PUSH1 0x40 MLOAD DUP1 SWAP2 SUB SWAP1 REVERT JUMPDEST PUSH1 0x40 MLOAD PUSH1 0x0 SWAP1 PUSH20 0x227D5F29BAB4CEC30F511169886B86FAEF61C6BC SWAP1 DUP4 SWAP1 DUP4 DUP2 DUP2 DUP2 DUP6 DUP8 GAS CALL SWAP3 POP POP POP RETURNDATASIZE DUP1 PUSH1 0x0 DUP2 EQ PUSH2 0x5CF JUMPI PUSH1 0x40 MLOAD SWAP2 POP PUSH1 0x1F NOT PUSH1 0x3F RETURNDATASIZE ADD AND DUP3 ADD PUSH1 0x40 MSTORE RETURNDATASIZE DUP3 MSTORE RETURNDATASIZE PUSH1 0x0 PUSH1 0x20 DUP5 ADD RETURNDATACOPY PUSH2 0x5D4 JUMP JUMPDEST PUSH1 0x60 SWAP2 POP JUMPDEST POP POP SWAP1 POP DUP1 PUSH2 0x5F6 JUMPI PUSH1 0x40 MLOAD PUSH4 0x12171D83 PUSH1 0xE3 SHL DUP2 MSTORE PUSH1 0x4 ADD PUSH1 0x40 MLOAD DUP1 SWAP2 SUB SWAP1 REVERT JUMPDEST PUSH1 0x40 MLOAD PUSH1 0x0 SWAP1 CALLER SWAP1 DUP7 SWAP1 DUP4 DUP2 DUP2 DUP2 DUP6 DUP8 GAS CALL SWAP3 POP POP POP RETURNDATASIZE DUP1 PUSH1 0x0 DUP2 EQ PUSH2 0x638 JUMPI PUSH1 0x40 MLOAD SWAP2 POP PUSH1 0x1F NOT PUSH1 0x3F RETURNDATASIZE ADD AND DUP3 ADD PUSH1 0x40 MSTORE RETURNDATASIZE DUP3 MSTORE RETURNDATASIZE PUSH1 0x0 PUSH1 0x20 DUP5 ADD RETURNDATACOPY PUSH2 0x63D JUMP JUMPDEST PUSH1 0x60 SWAP2 POP JUMPDEST POP POP SWAP1 POP DUP1 PUSH2 0x65F JUMPI PUSH1 0x40 MLOAD PUSH4 0x12171D83 PUSH1 0xE3 SHL DUP2 MSTORE PUSH1 0x4 ADD PUSH1 0x40 MLOAD DUP1 SWAP2 SUB SWAP1 REVERT JUMPDEST PUSH1 0x40 DUP1 MLOAD PUSH1 0x0 DUP1 DUP3 MSTORE PUSH1 0x20 DUP3 ADD DUP11 SWAP1 MSTORE DUP2 DUP4 ADD DUP9 SWAP1 MSTORE PUSH1 0x60 DUP3 ADD MSTORE SWAP1 MLOAD CALLER SWAP2 PUSH32 0x49926BBEBE8474393F434DFA4F78694C0923EFA07D19F2284518BFABD06EB737 SWAP2 SWAP1 DUP2 SWAP1 SUB PUSH1 0x80 ADD SWAP1 LOG2 POP POP POP POP PUSH1 0x1 PUSH1 0x6 SSTORE SWAP3 SWAP2 POP POP JUMP JUMPDEST PUSH1 0x0 PUSH1 0x6 SLOAD PUSH1 0x1 EQ PUSH2 0x6DD JUMPI PUSH1 0x40 MLOAD PUSH4 0xC5F2BE51 PUSH1 0xE0 SHL DUP2 MSTORE PUSH1 0x4 ADD PUSH1 0x40 MLOAD DUP1 SWAP2 SUB SWAP1 REVERT JUMPDEST PUSH1 0x2 PUSH1 0x6 SSTORE CALLVALUE PUSH1 0x0 SUB PUSH2 0x703 JUMPI PUSH1 0x40 MLOAD PUSH4 0x1F2A2005 PUSH1 0xE0 SHL DUP2 MSTORE PUSH1 0x4 ADD PUSH1 0x40 MLOAD DUP1 SWAP2 SUB SWAP1 REVERT JUMPDEST PUSH1 0x1 SLOAD ISZERO DUP1 PUSH2 0x712 JUMPI POP PUSH1 0x2 SLOAD ISZERO JUMPDEST ISZERO PUSH2 0x730 JUMPI PUSH1 0x40 MLOAD PUSH4 0xBB55FD27 PUSH1 0xE0 SHL DUP2 MSTORE PUSH1 0x4 ADD PUSH1 0x40 MLOAD DUP1 SWAP2 SUB SWAP1 REVERT JUMPDEST PUSH1 0x0 PUSH2 0x3E8 PUSH2 0x740 PUSH1 0x4 CALLVALUE PUSH2 0xFAE JUMP JUMPDEST PUSH2 0x74A SWAP2 SWAP1 PUSH2 0xFCB JUMP JUMPDEST SWAP1 POP PUSH1 0x0 PUSH2 0x758 DUP3 CALLVALUE PUSH2 0xFED JUMP JUMPDEST SWAP1 POP DUP1 PUSH1 0x2 SLOAD PUSH2 0x768 SWAP2 SWAP1 PUSH2 0x1000 JUMP JUMPDEST PUSH1 0x1 SLOAD PUSH2 0x775 SWAP1 DUP4 PUSH2 0xFAE JUMP JUMPDEST PUSH2 0x77F SWAP2 SWAP1 PUSH2 0xFCB JUMP JUMPDEST SWAP3 POP DUP4 DUP4 LT ISZERO PUSH2 0x7A2 JUMPI PUSH1 0x40 MLOAD PUSH4 0x8199F5F3 PUSH1 0xE0 SHL DUP2 MSTORE PUSH1 0x4 ADD PUSH1 0x40 MLOAD DUP1 SWAP2 SUB SWAP1 REVERT JUMPDEST PUSH1 0x1 SLOAD DUP4 GT ISZERO PUSH2 0x7C5 JUMPI PUSH1 0x40 MLOAD PUSH4 0xBB55FD27 PUSH1 0xE0 SHL DUP2 MSTORE PUSH1 0x4 ADD PUSH1 0x40 MLOAD DUP1 SWAP2 SUB SWAP1 REVERT JUMPDEST DUP1 PUSH1 0x2 PUSH1 0x0 DUP3 DUP3 SLOAD PUSH2 0x7D7 SWAP2 SWAP1 PUSH2 0x1000 JUMP JUMPDEST SWAP3 POP POP DUP2 SWAP1 SSTORE POP DUP3 PUSH1 0x1 PUSH1 0x0 DUP3 DUP3 SLOAD PUSH2 0x7F0 SWAP2 SWAP1 PUSH2 0xFED JUMP JUMPDEST SWAP1 SWAP2 SSTORE POP POP PUSH1 0x40 MLOAD PUSH1 0x0 SWAP1 PUSH20 0x227D5F29BAB4CEC30F511169886B86FAEF61C6BC SWAP1 DUP5 SWAP1 DUP4 DUP2 DUP2 DUP2 DUP6 DUP8 GAS CALL SWAP3 POP POP POP RETURNDATASIZE DUP1 PUSH1 0x0 DUP2 EQ PUSH2 0x84B JUMPI PUSH1 0x40 MLOAD SWAP2 POP PUSH1 0x1F NOT PUSH1 0x3F RETURNDATASIZE ADD AND DUP3 ADD PUSH1 0x40 MSTORE RETURNDATASIZE DUP3 MSTORE RETURNDATASIZE PUSH1 0x0 PUSH1 0x20 DUP5 ADD RETURNDATACOPY PUSH2 0x850 JUMP JUMPDEST PUSH1 0x60 SWAP2 POP JUMPDEST POP POP SWAP1 POP DUP1 PUSH2 0x872 JUMPI PUSH1 0x40 MLOAD PUSH4 0x12171D83 PUSH1 0xE3 SHL DUP2 MSTORE PUSH1 0x4 ADD PUSH1 0x40 MLOAD DUP1 SWAP2 SUB SWAP1 REVERT JUMPDEST PUSH1 0x0 SLOAD PUSH1 0x40 MLOAD PUSH4 0xA9059CBB PUSH1 0xE0 SHL DUP2 MSTORE CALLER PUSH1 0x4 DUP3 ADD MSTORE PUSH1 0x24 DUP2 ADD DUP7 SWAP1 MSTORE PUSH1 0x1 PUSH1 0x1 PUSH1 0xA0 SHL SUB SWAP1 SWAP2 AND SWAP1 PUSH4 0xA9059CBB SWAP1 PUSH1 0x44 ADD PUSH1 0x20 PUSH1 0x40 MLOAD DUP1 DUP4 SUB DUP2 PUSH1 0x0 DUP8 GAS CALL ISZERO DUP1 ISZERO PUSH2 0x8C3 JUMPI RETURNDATASIZE PUSH1 0x0 DUP1 RETURNDATACOPY RETURNDATASIZE PUSH1 0x0 REVERT JUMPDEST POP POP POP POP PUSH1 0x40 MLOAD RETURNDATASIZE PUSH1 0x1F NOT PUSH1 0x1F DUP3 ADD AND DUP3 ADD DUP1 PUSH1 0x40 MSTORE POP DUP2 ADD SWAP1 PUSH2 0x8E7 SWAP2 SWAP1 PUSH2 0x1013 JUMP JUMPDEST PUSH2 0x904 JUMPI PUSH1 0x40 MLOAD PUSH4 0x12171D83 PUSH1 0xE3 SHL DUP2 MSTORE PUSH1 0x4 ADD PUSH1 0x40 MLOAD DUP1 SWAP2 SUB SWAP1 REVERT JUMPDEST PUSH1 0x40 DUP1 MLOAD CALLVALUE DUP2 MSTORE PUSH1 0x0 PUSH1 0x20 DUP3 ADD DUP2 SWAP1 MSTORE DUP2 DUP4 ADD MSTORE PUSH1 0x60 DUP2 ADD DUP7 SWAP1 MSTORE SWAP1 MLOAD CALLER SWAP2 PUSH32 0x49926BBEBE8474393F434DFA4F78694C0923EFA07D19F2284518BFABD06EB737 SWAP2 SWAP1 DUP2 SWAP1 SUB PUSH1 0x80 ADD SWAP1 LOG2 POP POP POP PUSH1 0x1 PUSH1 0x6 SSTORE SWAP2 SWAP1 POP JUMP JUMPDEST PUSH1 0x0 PUSH1 0x6 SLOAD PUSH1 0x1 EQ PUSH2 0x980 JUMPI PUSH1 0x40 MLOAD PUSH4 0xC5F2BE51 PUSH1 0xE0 SHL DUP2 MSTORE PUSH1 0x4 ADD PUSH1 0x40 MLOAD DUP1 SWAP2 SUB SWAP1 REVERT JUMPDEST PUSH1 0x2 PUSH1 0x6 SSTORE CALLER PUSH1 0x1 PUSH1 0x1 PUSH1 0xA0 SHL SUB PUSH32 0x0 AND EQ PUSH2 0x9CE JUMPI PUSH1 0x40 MLOAD PUSH4 0x636A157 PUSH1 0xE1 SHL DUP2 MSTORE PUSH1 0x4 ADD PUSH1 0x40 MLOAD DUP1 SWAP2 SUB SWAP1 REVERT JUMPDEST PUSH1 0x4 SLOAD PUSH1 0xFF AND ISZERO PUSH2 0x9F2 JUMPI PUSH1 0x40 MLOAD PUSH4 0x19F4DB0F PUSH1 0xE3 SHL DUP2 MSTORE PUSH1 0x4 ADD PUSH1 0x40 MLOAD DUP1 SWAP2 SUB SWAP1 REVERT JUMPDEST CALLVALUE ISZERO DUP1 PUSH2 0x9FD JUMPI POP DUP2 ISZERO JUMPDEST ISZERO PUSH2 0xA1B JUMPI PUSH1 0x40 MLOAD PUSH4 0x1F2A2005 PUSH1 0xE0 SHL DUP2 MSTORE PUSH1 0x4 ADD PUSH1 0x40 MLOAD DUP1 SWAP2 SUB SWAP1 REVERT JUMPDEST POP PUSH1 0x4 DUP1 SLOAD PUSH1 0xFF NOT AND PUSH1 0x1 OR SWAP1 SSTORE CALLVALUE PUSH2 0x3E8 DUP2 GT PUSH2 0xA4C JUMPI PUSH1 0x40 MLOAD PUSH4 0x1F2C4DF7 PUSH1 0xE1 SHL DUP2 MSTORE PUSH1 0x4 ADD PUSH1 0x40 MLOAD DUP1 SWAP2 SUB SWAP1 REVERT JUMPDEST CALLVALUE PUSH1 0x2 SSTORE PUSH1 0x1 DUP3 SWAP1 SSTORE PUSH1 0x0 DUP1 MSTORE PUSH1 0x5 PUSH1 0x20 MSTORE PUSH2 0x3E8 PUSH32 0x5B8CCBB9D4D8FB16EA74CE3C29A41F1B461FBDAFF4714A0D9A8EB05499746BC DUP2 SWAP1 SSTORE PUSH1 0x3 DUP2 SWAP1 SSTORE PUSH2 0xA94 SWAP1 DUP3 PUSH2 0xFED JUMP JUMPDEST PUSH1 0x0 SLOAD PUSH1 0x40 MLOAD PUSH4 0x23B872DD PUSH1 0xE0 SHL DUP2 MSTORE CALLER PUSH1 0x4 DUP3 ADD MSTORE ADDRESS PUSH1 0x24 DUP3 ADD MSTORE PUSH1 0x44 DUP2 ADD DUP6 SWAP1 MSTORE SWAP2 SWAP3 POP PUSH1 0x1 PUSH1 0x1 PUSH1 0xA0 SHL SUB AND SWAP1 PUSH4 0x23B872DD SWAP1 PUSH1 0x64 ADD PUSH1 0x20 PUSH1 0x40 MLOAD DUP1 DUP4 SUB DUP2 PUSH1 0x0 DUP8 GAS CALL ISZERO DUP1 ISZERO PUSH2 0xAEC JUMPI RETURNDATASIZE PUSH1 0x0 DUP1 RETURNDATACOPY RETURNDATASIZE PUSH1 0x0 REVERT JUMPDEST POP POP POP POP PUSH1 0x40 MLOAD RETURNDATASIZE PUSH1 0x1F NOT PUSH1 0x1F DUP3 ADD AND DUP3 ADD DUP1 PUSH1 0x40 MSTORE POP DUP2 ADD SWAP1 PUSH2 0xB10 SWAP2 SWAP1 PUSH2 0x1013 JUMP JUMPDEST PUSH2 0xB2D JUMPI PUSH1 0x40 MLOAD PUSH4 0x12171D83 PUSH1 0xE3 SHL DUP2 MSTORE PUSH1 0x4 ADD PUSH1 0x40 MLOAD DUP1 SWAP2 SUB SWAP1 REVERT JUMPDEST PUSH2 0xDEAD PUSH1 0x0 SWAP1 DUP2 MSTORE PUSH1 0x5 PUSH1 0x20 MSTORE PUSH32 0x7D509C07F0D4EDCC2DD1B53AAE68677132EB562DCBA78E36381B63CCAF66E6BA DUP1 SLOAD DUP4 SWAP3 SWAP1 PUSH2 0xB6B SWAP1 DUP5 SWAP1 PUSH2 0x1000 JUMP JUMPDEST SWAP3 POP POP DUP2 SWAP1 SSTORE POP DUP1 PUSH1 0x3 PUSH1 0x0 DUP3 DUP3 SLOAD PUSH2 0xB84 SWAP2 SWAP1 PUSH2 0x1000 JUMP JUMPDEST SWAP1 SWAP2 SSTORE POP POP PUSH1 0x40 DUP1 MLOAD CALLVALUE DUP2 MSTORE PUSH1 0x20 DUP2 ADD DUP5 SWAP1 MSTORE SWAP1 DUP2 ADD DUP3 SWAP1 MSTORE PUSH2 0xDEAD SWAP1 PUSH32 0x64B83944E79C3CE8D4C297411DE637C3E102D064677AAC0C163976EBDCD6F50E SWAP1 PUSH1 0x60 ADD PUSH1 0x40 MLOAD DUP1 SWAP2 SUB SWAP1 LOG2 PUSH1 0x1 PUSH1 0x6 SSTORE SWAP2 SWAP1 POP JUMP JUMPDEST PUSH1 0x0 DUP2 ISZERO DUP1 PUSH2 0xBE7 JUMPI POP PUSH1 0x1 SLOAD ISZERO JUMPDEST ISZERO PUSH2 0xBF4 JUMPI POP PUSH1 0x0 SWAP2 SWAP1 POP JUMP JUMPDEST PUSH1 0x0 DUP3 PUSH1 0x1 SLOAD PUSH2 0xC04 SWAP2 SWAP1 PUSH2 0x1000 JUMP JUMPDEST PUSH1 0x2 SLOAD PUSH2 0xC11 SWAP1 DUP6 PUSH2 0xFAE JUMP JUMPDEST PUSH2 0xC1B SWAP2 SWAP1 PUSH2 0xFCB JUMP JUMPDEST SWAP1 POP PUSH2 0x3E8 PUSH2 0xC2B PUSH1 0x4 DUP4 PUSH2 0xFAE JUMP JUMPDEST PUSH2 0xC35 SWAP2 SWAP1 PUSH2 0xFCB JUMP JUMPDEST PUSH2 0x39C SWAP1 DUP3 PUSH2 0xFED JUMP JUMPDEST PUSH1 0x0 PUSH1 0x1 SLOAD PUSH1 0x0 SUB PUSH2 0xC51 JUMPI POP PUSH1 0x0 SWAP1 JUMP JUMPDEST PUSH1 0x1 SLOAD PUSH1 0x2 SLOAD PUSH2 0xC69 SWAP1 PUSH8 0xDE0B6B3A7640000 PUSH2 0xFAE JUMP JUMPDEST PUSH2 0xC73 SWAP2 SWAP1 PUSH2 0xFCB JUMP JUMPDEST SWAP1 POP SWAP1 JUMP JUMPDEST PUSH1 0x0 DUP1 PUSH1 0x6 SLOAD PUSH1 0x1 EQ PUSH2 0xC9E JUMPI PUSH1 0x40 MLOAD PUSH4 0xC5F2BE51 PUSH1 0xE0 SHL DUP2 MSTORE PUSH1 0x4 ADD PUSH1 0x40 MLOAD DUP1 SWAP2 SUB SWAP1 REVERT JUMPDEST PUSH1 0x2 PUSH1 0x6 SSTORE PUSH1 0x0 DUP4 SWAP1 SUB PUSH2 0xCC5 JUMPI PUSH1 0x40 MLOAD PUSH4 0x1F2A2005 PUSH1 0xE0 SHL DUP2 MSTORE PUSH1 0x4 ADD PUSH1 0x40 MLOAD DUP1 SWAP2 SUB SWAP1 REVERT JUMPDEST CALLER PUSH1 0x0 SWAP1 DUP2 MSTORE PUSH1 0x5 PUSH1 0x20 MSTORE PUSH1 0x40 SWAP1 KECCAK256 SLOAD DUP4 GT ISZERO PUSH2 0xCF5 JUMPI PUSH1 0x40 MLOAD PUSH4 0xBB55FD27 PUSH1 0xE0 SHL DUP2 MSTORE PUSH1 0x4 ADD PUSH1 0x40 MLOAD DUP1 SWAP2 SUB SWAP1 REVERT JUMPDEST PUSH1 0x3 SLOAD PUSH1 0x0 SUB PUSH2 0xD18 JUMPI PUSH1 0x40 MLOAD PUSH4 0xBB55FD27 PUSH1 0xE0 SHL DUP2 MSTORE PUSH1 0x4 ADD PUSH1 0x40 MLOAD DUP1 SWAP2 SUB SWAP1 REVERT JUMPDEST PUSH1 0x3 SLOAD PUSH1 0x2 SLOAD PUSH2 0xD28 SWAP1 DUP6 PUSH2 0xFAE JUMP JUMPDEST PUSH2 0xD32 SWAP2 SWAP1 PUSH2 0xFCB JUMP JUMPDEST SWAP2 POP PUSH1 0x3 SLOAD PUSH1 0x1 SLOAD DUP5 PUSH2 0xD45 SWAP2 SWAP1 PUSH2 0xFAE JUMP JUMPDEST PUSH2 0xD4F SWAP2 SWAP1 PUSH2 0xFCB JUMP JUMPDEST SWAP1 POP DUP2 ISZERO DUP1 PUSH2 0xD5C JUMPI POP DUP1 ISZERO JUMPDEST ISZERO PUSH2 0xD7A JUMPI PUSH1 0x40 MLOAD PUSH4 0x1F2C4DF7 PUSH1 0xE1 SHL DUP2 MSTORE PUSH1 0x4 ADD PUSH1 0x40 MLOAD DUP1 SWAP2 SUB SWAP1 REVERT JUMPDEST CALLER PUSH1 0x0 SWAP1 DUP2 MSTORE PUSH1 0x5 PUSH1 0x20 MSTORE PUSH1 0x40 DUP2 KECCAK256 DUP1 SLOAD DUP6 SWAP3 SWAP1 PUSH2 0xD99 SWAP1 DUP5 SWAP1 PUSH2 0xFED JUMP JUMPDEST SWAP3 POP POP DUP2 SWAP1 SSTORE POP DUP3 PUSH1 0x3 PUSH1 0x0 DUP3 DUP3 SLOAD PUSH2 0xDB2 SWAP2 SWAP1 PUSH2 0xFED JUMP JUMPDEST SWAP3 POP POP DUP2 SWAP1 SSTORE POP DUP2 PUSH1 0x2 PUSH1 0x0 DUP3 DUP3 SLOAD PUSH2 0xDCB SWAP2 SWAP1 PUSH2 0xFED JUMP JUMPDEST SWAP3 POP POP DUP2 SWAP1 SSTORE POP DUP1 PUSH1 0x1 PUSH1 0x0 DUP3 DUP3 SLOAD PUSH2 0xDE4 SWAP2 SWAP1 PUSH2 0xFED JUMP JUMPDEST SWAP1 SWAP2 SSTORE POP POP PUSH1 0x0 SLOAD PUSH1 0x40 MLOAD PUSH4 0xA9059CBB PUSH1 0xE0 SHL DUP2 MSTORE CALLER PUSH1 0x4 DUP3 ADD MSTORE PUSH1 0x24 DUP2 ADD DUP4 SWAP1 MSTORE PUSH1 0x1 PUSH1 0x1 PUSH1 0xA0 SHL SUB SWAP1 SWAP2 AND SWAP1 PUSH4 0xA9059CBB SWAP1 PUSH1 0x44 ADD PUSH1 0x20 PUSH1 0x40 MLOAD DUP1 DUP4 SUB DUP2 PUSH1 0x0 DUP8 GAS CALL ISZERO DUP1 ISZERO PUSH2 0xE3A JUMPI RETURNDATASIZE PUSH1 0x0 DUP1 RETURNDATACOPY RETURNDATASIZE PUSH1 0x0 REVERT JUMPDEST POP POP POP POP PUSH1 0x40 MLOAD RETURNDATASIZE PUSH1 0x1F NOT PUSH1 0x1F DUP3 ADD AND DUP3 ADD DUP1 PUSH1 0x40 MSTORE POP DUP2 ADD SWAP1 PUSH2 0xE5E SWAP2 SWAP1 PUSH2 0x1013 JUMP JUMPDEST PUSH2 0xE7B JUMPI PUSH1 0x40 MLOAD PUSH4 0x12171D83 PUSH1 0xE3 SHL DUP2 MSTORE PUSH1 0x4 ADD PUSH1 0x40 MLOAD DUP1 SWAP2 SUB SWAP1 REVERT JUMPDEST PUSH1 0x40 MLOAD PUSH1 0x0 SWAP1 CALLER SWAP1 DUP5 SWAP1 DUP4 DUP2 DUP2 DUP2 DUP6 DUP8 GAS CALL SWAP3 POP POP POP RETURNDATASIZE DUP1 PUSH1 0x0 DUP2 EQ PUSH2 0xEBD JUMPI PUSH1 0x40 MLOAD SWAP2 POP PUSH1 0x1F NOT PUSH1 0x3F RETURNDATASIZE ADD AND DUP3 ADD PUSH1 0x40 MSTORE RETURNDATASIZE DUP3 MSTORE RETURNDATASIZE PUSH1 0x0 PUSH1 0x20 DUP5 ADD RETURNDATACOPY PUSH2 0xEC2 JUMP JUMPDEST PUSH1 0x60 SWAP2 POP JUMPDEST POP POP SWAP1 POP DUP1 PUSH2 0xEE4 JUMPI PUSH1 0x40 MLOAD PUSH4 0x12171D83 PUSH1 0xE3 SHL DUP2 MSTORE PUSH1 0x4 ADD PUSH1 0x40 MLOAD DUP1 SWAP2 SUB SWAP1 REVERT JUMPDEST PUSH1 0x40 DUP1 MLOAD DUP5 DUP2 MSTORE PUSH1 0x20 DUP2 ADD DUP5 SWAP1 MSTORE SWAP1 DUP2 ADD DUP6 SWAP1 MSTORE CALLER SWAP1 PUSH32 0x1DC8BB69DF2B8E91FBDCBFCF93D951B3F0000F085A95FE3F7946D6161439245D SWAP1 PUSH1 0x60 ADD PUSH1 0x40 MLOAD DUP1 SWAP2 SUB SWAP1 LOG2 POP PUSH1 0x1 PUSH1 0x6 SSTORE SWAP1 SWAP3 SWAP1 SWAP2 POP JUMP JUMPDEST PUSH1 0x0 PUSH1 0x20 DUP3 DUP5 SUB SLT ISZERO PUSH2 0xF46 JUMPI PUSH1 0x0 DUP1 REVERT JUMPDEST POP CALLDATALOAD SWAP2 SWAP1 POP JUMP JUMPDEST PUSH1 0x0 DUP1 PUSH1 0x40 DUP4 DUP6 SUB SLT ISZERO PUSH2 0xF60 JUMPI PUSH1 0x0 DUP1 REVERT JUMPDEST POP POP DUP1 CALLDATALOAD SWAP3 PUSH1 0x20 SWAP1 SWAP2 ADD CALLDATALOAD SWAP2 POP JUMP JUMPDEST PUSH1 0x0 PUSH1 0x20 DUP3 DUP5 SUB SLT ISZERO PUSH2 0xF81 JUMPI PUSH1 0x0 DUP1 REVERT JUMPDEST DUP2 CALLDATALOAD PUSH1 0x1 PUSH1 0x1 PUSH1 0xA0 SHL SUB DUP2 AND DUP2 EQ PUSH2 0x39C JUMPI PUSH1 0x0 DUP1 REVERT JUMPDEST PUSH4 0x4E487B71 PUSH1 0xE0 SHL PUSH1 0x0 MSTORE PUSH1 0x11 PUSH1 0x4 MSTORE PUSH1 0x24 PUSH1 0x0 REVERT JUMPDEST DUP1 DUP3 MUL DUP2 ISZERO DUP3 DUP3 DIV DUP5 EQ OR PUSH2 0xFC5 JUMPI PUSH2 0xFC5 PUSH2 0xF98 JUMP JUMPDEST SWAP3 SWAP2 POP POP JUMP JUMPDEST PUSH1 0x0 DUP3 PUSH2 0xFE8 JUMPI PUSH4 0x4E487B71 PUSH1 0xE0 SHL PUSH1 0x0 MSTORE PUSH1 0x12 PUSH1 0x4 MSTORE PUSH1 0x24 PUSH1 0x0 REVERT JUMPDEST POP DIV SWAP1 JUMP JUMPDEST DUP2 DUP2 SUB DUP2 DUP2 GT ISZERO PUSH2 0xFC5 JUMPI PUSH2 0xFC5 PUSH2 0xF98 JUMP JUMPDEST DUP1 DUP3 ADD DUP1 DUP3 GT ISZERO PUSH2 0xFC5 JUMPI PUSH2 0xFC5 PUSH2 0xF98 JUMP JUMPDEST PUSH1 0x0 PUSH1 0x20 DUP3 DUP5 SUB SLT ISZERO PUSH2 0x1025 JUMPI PUSH1 0x0 DUP1 REVERT JUMPDEST DUP2 MLOAD DUP1 ISZERO ISZERO DUP2 EQ PUSH2 0x39C JUMPI PUSH1 0x0 DUP1 REVERT INVALID LOG2 PUSH5 0x6970667358 0x22 SLT KECCAK256 DUP15 0x49 LOG2 TIMESTAMP CODESIZE PUSH21 0x6D80882ED52AA229D3F1C807452328042A9C2B1957 ADDMOD 0x1E SWAP15 0xEC BLOCKHASH PUSH5 0x736F6C6343 STOP ADDMOD EQ STOP CALLER LOG2 PUSH5 0x6970667358 0x22 SLT KECCAK256 0x1F SAR 0xA9 PUSH30 0x26654848AFCBE0C37A9CFBF4FCA8D374DA56647277286BE56C73E7076473 PUSH16 0x6C634300081400330000000000000000 "},"methodIdentifiers":{"DEAD_ADDRESS()":"4e6fd6c4","MAX_NAME_LENGTH()":"86074985","MAX_SYMBOL_LENGTH()":"e3d89171","MIN_LIQUIDITY_ETH()":"5d230110","MIN_LIQUIDITY_PERCENT()":"c342381e","TOTAL_SUPPLY()":"902d55a5","createToken(string,string,uint256)":"5b060530","getToken(uint256)":"e4b50cb8","getTokenCount()":"78a89567","tokenToAMM(address)":"2610942c","tokens(uint256)":"4f64b2be"}}}}}