{"src/contracts/McFunFactory.sol":{"McFunAMM":{"abi":[{"inputs":[{"internalType":"address","name":"_token","type":"address"}],"stateMutability":"nonpayable","type":"constructor"},{"inputs":[],"name":"InsufficientLiquidity","type":"error"},{"inputs":[],"name":"ReentrancyGuard","type":"error"},{"inputs":[],"name":"SlippageExceeded","type":"error"},{"inputs":[],"name":"ZeroAddress","type":"error"},{"inputs":[],"name":"ZeroAmount","type":"error"},{"anonymous":false,"inputs":[{"indexed":true,"internalType":"address","name":"provider","type":"address"},{"indexed":false,"internalType":"uint256","name":"ethAmount","type":"uint256"},{"indexed":false,"internalType":"uint256","name":"tokenAmount","type":"uint256"},{"indexed":false,"internalType":"uint256","name":"liquidityMinted","type":"uint256"}],"name":"LiquidityAdded","type":"event"},{"anonymous":false,"inputs":[{"indexed":true,"internalType":"address","name":"provider","type":"address"},{"indexed":false,"internalType":"uint256","name":"ethAmount","type":"uint256"},{"indexed":false,"internalType":"uint256","name":"tokenAmount","type":"uint256"},{"indexed":false,"internalType":"uint256","name":"liquidityBurned","type":"uint256"}],"name":"LiquidityRemoved","type":"event"},{"anonymous":false,"inputs":[{"indexed":true,"internalType":"address","name":"user","type":"address"},{"indexed":false,"internalType":"uint256","name":"ethIn","type":"uint256"},{"indexed":false,"internalType":"uint256","name":"tokenIn","type":"uint256"},{"indexed":false,"internalType":"uint256","name":"ethOut","type":"uint256"},{"indexed":false,"internalType":"uint256","name":"tokenOut","type":"uint256"}],"name":"Swap","type":"event"},{"inputs":[],"name":"FEE_DENOMINATOR","outputs":[{"internalType":"uint256","name":"","type":"uint256"}],"stateMutability":"view","type":"function"},{"inputs":[],"name":"FEE_PERCENT","outputs":[{"internalType":"uint256","name":"","type":"uint256"}],"stateMutability":"view","type":"function"},{"inputs":[{"internalType":"uint256","name":"tokenAmount","type":"uint256"}],"name":"addLiquidity","outputs":[{"internalType":"uint256","name":"liquidityMinted","type":"uint256"}],"stateMutability":"payable","type":"function"},{"inputs":[{"internalType":"address","name":"account","type":"address"}],"name":"balanceOf","outputs":[{"internalType":"uint256","name":"","type":"uint256"}],"stateMutability":"view","type":"function"},{"inputs":[],"name":"feeRecipient","outputs":[{"internalType":"address","name":"","type":"address"}],"stateMutability":"view","type":"function"},{"inputs":[{"internalType":"uint256","name":"tokenIn","type":"uint256"}],"name":"getETHOut","outputs":[{"internalType":"uint256","name":"","type":"uint256"}],"stateMutability":"view","type":"function"},{"inputs":[],"name":"getPrice","outputs":[{"internalType":"uint256","name":"","type":"uint256"}],"stateMutability":"view","type":"function"},{"inputs":[{"internalType":"uint256","name":"ethIn","type":"uint256"}],"name":"getTokenOut","outputs":[{"internalType":"uint256","name":"","type":"uint256"}],"stateMutability":"view","type":"function"},{"inputs":[{"internalType":"address","name":"","type":"address"}],"name":"liquidity","outputs":[{"internalType":"uint256","name":"","type":"uint256"}],"stateMutability":"view","type":"function"},{"inputs":[{"internalType":"uint256","name":"liquidityAmount","type":"uint256"}],"name":"removeLiquidity","outputs":[{"internalType":"uint256","name":"ethAmount","type":"uint256"},{"internalType":"uint256","name":"tokenAmount","type":"uint256"}],"stateMutability":"nonpayable","type":"function"},{"inputs":[],"name":"reserveETH","outputs":[{"internalType":"uint256","name":"","type":"uint256"}],"stateMutability":"view","type":"function"},{"inputs":[],"name":"reserveToken","outputs":[{"internalType":"uint256","name":"","type":"uint256"}],"stateMutability":"view","type":"function"},{"inputs":[{"internalType":"uint256","name":"minTokenOut","type":"uint256"}],"name":"swapETHForToken","outputs":[{"internalType":"uint256","name":"tokenOut","type":"uint256"}],"stateMutability":"payable","type":"function"},{"inputs":[{"internalType":"uint256","name":"tokenIn","type":"uint256"},{"internalType":"uint256","name":"minETHOut","type":"uint256"}],"name":"swapTokenForETH","outputs":[{"internalType":"uint256","name":"ethOut","type":"uint256"}],"stateMutability":"nonpayable","type":"function"},{"inputs":[],"name":"token","outputs":[{"internalType":"address","name":"","type":"address"}],"stateMutability":"view","type":"function"},{"inputs":[],"name":"totalLiquidity","outputs":[{"internalType":"uint256","name":"","type":"uint256"}],"stateMutability":"view","type":"function"},{"inputs":[{"internalType":"address","name":"to","type":"address"},{"internalType":"uint256","name":"value","type":"uint256"}],"name":"transfer","outputs":[{"internalType":"bool","name":"","type":"bool"}],"stateMutability":"nonpayable","type":"function"}],"evm":{"bytecode":{"linkReferences":{},"object":"6080604052600160055534801561001557600080fd5b5060405161100e38038061100e83398101604081905261003491610080565b6001600160a01b03811661005b5760405163d92e233d60e01b815260040160405180910390fd5b600080546001600160a01b0319166001600160a01b03929092169190911790556100b0565b60006020828403121561009257600080fd5b81516001600160a01b03811681146100a957600080fd5b9392505050565b610f4f806100bf6000396000f3fe6080604052600436106100fe5760003560e01c806380cb1a6e11610095578063b8c876b111610064578063b8c876b1146102b8578063d73792a9146102e5578063eaf98d23146102fb578063f4325d6714610310578063fc0c546a1461032657600080fd5b806380cb1a6e1461021e57806398d5fdca1461023e5780639c8f9f2314610253578063a9059cbb1461028857600080fd5b80631b3d2cb3116100d15780631b3d2cb314610182578063469048401461019557806351c6590a146101d557806370a08231146101e857600080fd5b8063100af2031461010357806315770f921461012c57806315d6dae9146101425780631618e13014610162575b600080fd5b34801561010f57600080fd5b5061011960025481565b6040519081526020015b60405180910390f35b34801561013857600080fd5b5061011960035481565b34801561014e57600080fd5b5061011961015d366004610de6565b610346565b34801561016e57600080fd5b5061011961017d366004610dff565b6103b4565b610119610190366004610de6565b610635565b3480156101a157600080fd5b506101bd73227d5f29bab4cec30f511169886b86faef61c6bc81565b6040516001600160a01b039091168152602001610123565b6101196101e3366004610de6565b610880565b3480156101f457600080fd5b50610119610203366004610e3d565b6001600160a01b031660009081526004602052604090205490565b34801561022a57600080fd5b50610119610239366004610de6565b610a76565b34801561024a57600080fd5b50610119610add565b34801561025f57600080fd5b5061027361026e366004610de6565b610b16565b60408051928352602083019190915201610123565b34801561029457600080fd5b506102a86102a3366004610e58565b610d31565b6040519015158152602001610123565b3480156102c457600080fd5b506101196102d3366004610e3d565b60046020526000908152604090205481565b3480156102f157600080fd5b506101196103e881565b34801561030757600080fd5b50610119600481565b34801561031c57600080fd5b5061011960015481565b34801561033257600080fd5b506000546101bd906001600160a01b031681565b60008115806103555750600254155b1561036257506000919050565b60006103e8610372600485610e98565b61037c9190610eaf565b6103869084610ed1565b9050806002546103969190610ee4565b6001546103a39083610e98565b6103ad9190610eaf565b9392505050565b60006005546001146103d9576040516345f5ce8b60e11b815260040160405180910390fd5b6002600555600083900361040057604051631f2a200560e01b815260040160405180910390fd5b600154158061040f5750600254155b1561042d5760405163bb55fd2760e01b815260040160405180910390fd5b6000546040516323b872dd60e01b8152336004820152306024820152604481018590526001600160a01b03909116906323b872dd906064016020604051808303816000875af1158015610484573d6000803e3d6000fd5b505050506040513d601f19601f820116820180604052508101906104a89190610ef7565b506000836001546104b99190610ee4565b6002546104c69086610e98565b6104d09190610eaf565b905060006103e86104e2600484610e98565b6104ec9190610eaf565b90506104f88183610ed1565b92508383101561051b57604051638199f5f360e01b815260040160405180910390fd5b60025483111561053e5760405163bb55fd2760e01b815260040160405180910390fd5b84600160008282546105509190610ee4565b9250508190555081600260008282546105699190610ed1565b909155505060405173227d5f29bab4cec30f511169886b86faef61c6bc9082156108fc029083906000818181858888f193505050501580156105af573d6000803e3d6000fd5b50604051339084156108fc029085906000818181858888f193505050501580156105dd573d6000803e3d6000fd5b50604080516000808252602082018890528183018690526060820152905133917f49926bbebe8474393f434dfa4f78694c0923efa07d19f2284518bfabd06eb737919081900360800190a25050600160055592915050565b600060055460011461065a576040516345f5ce8b60e11b815260040160405180910390fd5b60026005553460000361068057604051631f2a200560e01b815260040160405180910390fd5b600154158061068f5750600254155b156106ad5760405163bb55fd2760e01b815260040160405180910390fd5b60006103e86106bd600434610e98565b6106c79190610eaf565b905060006106d58234610ed1565b9050806002546106e59190610ee4565b6001546106f29083610e98565b6106fc9190610eaf565b92508383101561071f57604051638199f5f360e01b815260040160405180910390fd5b6001548311156107425760405163bb55fd2760e01b815260040160405180910390fd5b80600260008282546107549190610ee4565b92505081905550826001600082825461076d9190610ed1565b909155505060405173227d5f29bab4cec30f511169886b86faef61c6bc9083156108fc029084906000818181858888f193505050501580156107b3573d6000803e3d6000fd5b5060005460405163a9059cbb60e01b8152336004820152602481018590526001600160a01b039091169063a9059cbb906044016020604051808303816000875af1158015610805573d6000803e3d6000fd5b505050506040513d601f19601f820116820180604052508101906108299190610ef7565b50604080513481526000602082018190528183015260608101859052905133917f49926bbebe8474393f434dfa4f78694c0923efa07d19f2284518bfabd06eb737919081900360800190a250506001600555919050565b60006005546001146108a5576040516345f5ce8b60e11b815260040160405180910390fd5b60026005553415806108b5575081155b156108d357604051631f2a200560e01b815260040160405180910390fd5b6003546000036108ee57503460028190556001829055610970565b6000600254600354346109019190610e98565b61090b9190610eaf565b90506000600154600354856109209190610e98565b61092a9190610eaf565b9050808210610939578061093b565b815b9250346002600082825461094f9190610ee4565b9250508190555083600160008282546109689190610ee4565b909155505050505b6000546040516323b872dd60e01b8152336004820152306024820152604481018490526001600160a01b03909116906323b872dd906064016020604051808303816000875af11580156109c7573d6000803e3d6000fd5b505050506040513d601f19601f820116820180604052508101906109eb9190610ef7565b503360009081526004602052604081208054839290610a0b908490610ee4565b925050819055508060036000828254610a249190610ee4565b9091555050604080513481526020810184905290810182905233907f64b83944e79c3ce8d4c297411de637c3e102d064677aac0c163976ebdcd6f50e9060600160405180910390a26001600555919050565b6000811580610a855750600154155b15610a9257506000919050565b600082600154610aa29190610ee4565b600254610aaf9085610e98565b610ab99190610eaf565b90506103e8610ac9600483610e98565b610ad39190610eaf565b6103ad9082610ed1565b6000600154600003610aef5750600090565b600154600254610b0790670de0b6b3a7640000610e98565b610b119190610eaf565b905090565b600080600554600114610b3c576040516345f5ce8b60e11b815260040160405180910390fd5b60026005556000839003610b6357604051631f2a200560e01b815260040160405180910390fd5b33600090815260046020526040902054831115610b935760405163bb55fd2760e01b815260040160405180910390fd5b600354600254610ba39085610e98565b610bad9190610eaf565b915060035460015484610bc09190610e98565b610bca9190610eaf565b33600090815260046020526040812080549293508592909190610bee908490610ed1565b925050819055508260036000828254610c079190610ed1565b925050819055508160026000828254610c209190610ed1565b925050819055508060016000828254610c399190610ed1565b909155505060005460405163a9059cbb60e01b8152336004820152602481018390526001600160a01b039091169063a9059cbb906044016020604051808303816000875af1158015610c8f573d6000803e3d6000fd5b505050506040513d601f19601f82011682018060405250810190610cb39190610ef7565b50604051339083156108fc029084906000818181858888f19350505050158015610ce1573d6000803e3d6000fd5b50604080518381526020810183905290810184905233907f1dc8bb69df2b8e91fbdcbfcf93d951b3f0000f085a95fe3f7946d6161439245d9060600160405180910390a260016005559092909150565b60006001600160a01b038316610d5a5760405163d92e233d60e01b815260040160405180910390fd5b33600090815260046020526040902054821115610d8a5760405163bb55fd2760e01b815260040160405180910390fd5b3360009081526004602052604081208054849290610da9908490610ed1565b90915550506001600160a01b03831660009081526004602052604081208054849290610dd6908490610ee4565b9091555060019150505b92915050565b600060208284031215610df857600080fd5b5035919050565b60008060408385031215610e1257600080fd5b50508035926020909101359150565b80356001600160a01b0381168114610e3857600080fd5b919050565b600060208284031215610e4f57600080fd5b6103ad82610e21565b60008060408385031215610e6b57600080fd5b610e7483610e21565b946020939093013593505050565b634e487b7160e01b600052601160045260246000fd5b8082028115828204841417610de057610de0610e82565b600082610ecc57634e487b7160e01b600052601260045260246000fd5b500490565b81810381811115610de057610de0610e82565b80820180821115610de057610de0610e82565b600060208284031215610f0957600080fd5b815180151581146103ad57600080fdfea2646970667358221220dce46bd7b173f9c4c3007cf704430e3c0ce74ef22daf58f8c7a370387519219b64736f6c63430008140033","opcodes":"PUSH1 0x80 PUSH1 0x40 MSTORE PUSH1 0x1 PUSH1 0x5 SSTORE CALLVALUE DUP1 ISZERO PUSH2 0x15 JUMPI PUSH1 0x0 DUP1 REVERT JUMPDEST POP PUSH1 0x40 MLOAD PUSH2 0x100E CODESIZE SUB DUP1 PUSH2 0x100E DUP4 CODECOPY DUP2 ADD PUSH1 0x40 DUP2 SWAP1 MSTORE PUSH2 0x34 SWAP2 PUSH2 0x80 JUMP JUMPDEST PUSH1 0x1 PUSH1 0x1 PUSH1 0xA0 SHL SUB DUP2 AND PUSH2 0x5B JUMPI PUSH1 0x40 MLOAD PUSH4 0xD92E233D PUSH1 0xE0 SHL DUP2 MSTORE PUSH1 0x4 ADD PUSH1 0x40 MLOAD DUP1 SWAP2 SUB SWAP1 REVERT JUMPDEST PUSH1 0x0 DUP1 SLOAD PUSH1 0x1 PUSH1 0x1 PUSH1 0xA0 SHL SUB NOT AND PUSH1 0x1 PUSH1 0x1 PUSH1 0xA0 SHL SUB SWAP3 SWAP1 SWAP3 AND SWAP2 SWAP1 SWAP2 OR SWAP1 SSTORE PUSH2 0xB0 JUMP JUMPDEST PUSH1 0x0 PUSH1 0x20 DUP3 DUP5 SUB SLT ISZERO PUSH2 0x92 JUMPI PUSH1 0x0 DUP1 REVERT JUMPDEST DUP2 MLOAD PUSH1 0x1 PUSH1 0x1 PUSH1 0xA0 SHL SUB DUP2 AND DUP2 EQ PUSH2 0xA9 JUMPI PUSH1 0x0 DUP1 REVERT JUMPDEST SWAP4 SWAP3 POP POP POP JUMP JUMPDEST PUSH2 0xF4F DUP1 PUSH2 0xBF PUSH1 0x0 CODECOPY PUSH1 0x0 RETURN INVALID PUSH1 0x80 PUSH1 0x40 MSTORE PUSH1 0x4 CALLDATASIZE LT PUSH2 0xFE JUMPI PUSH1 0x0 CALLDATALOAD PUSH1 0xE0 SHR DUP1 PUSH4 0x80CB1A6E GT PUSH2 0x95 JUMPI DUP1 PUSH4 0xB8C876B1 GT PUSH2 0x64 JUMPI DUP1 PUSH4 0xB8C876B1 EQ PUSH2 0x2B8 JUMPI DUP1 PUSH4 0xD73792A9 EQ PUSH2 0x2E5 JUMPI DUP1 PUSH4 0xEAF98D23 EQ PUSH2 0x2FB JUMPI DUP1 PUSH4 0xF4325D67 EQ PUSH2 0x310 JUMPI DUP1 PUSH4 0xFC0C546A EQ PUSH2 0x326 JUMPI PUSH1 0x0 DUP1 REVERT JUMPDEST DUP1 PUSH4 0x80CB1A6E EQ PUSH2 0x21E JUMPI DUP1 PUSH4 0x98D5FDCA EQ PUSH2 0x23E JUMPI DUP1 PUSH4 0x9C8F9F23 EQ PUSH2 0x253 JUMPI DUP1 PUSH4 0xA9059CBB EQ PUSH2 0x288 JUMPI PUSH1 0x0 DUP1 REVERT JUMPDEST DUP1 PUSH4 0x1B3D2CB3 GT PUSH2 0xD1 JUMPI DUP1 PUSH4 0x1B3D2CB3 EQ PUSH2 0x182 JUMPI DUP1 PUSH4 0x46904840 EQ PUSH2 0x195 JUMPI DUP1 PUSH4 0x51C6590A EQ PUSH2 0x1D5 JUMPI DUP1 PUSH4 0x70A08231 EQ PUSH2 0x1E8 JUMPI PUSH1 0x0 DUP1 REVERT JUMPDEST DUP1 PUSH4 0x100AF203 EQ PUSH2 0x103 JUMPI DUP1 PUSH4 0x15770F92 EQ PUSH2 0x12C JUMPI DUP1 PUSH4 0x15D6DAE9 EQ PUSH2 0x142 JUMPI DUP1 PUSH4 0x1618E130 EQ PUSH2 0x162 JUMPI JUMPDEST PUSH1 0x0 DUP1 REVERT JUMPDEST CALLVALUE DUP1 ISZERO PUSH2 0x10F JUMPI PUSH1 0x0 DUP1 REVERT JUMPDEST POP PUSH2 0x119 PUSH1 0x2 SLOAD DUP2 JUMP JUMPDEST PUSH1 0x40 MLOAD SWAP1 DUP2 MSTORE PUSH1 0x20 ADD JUMPDEST PUSH1 0x40 MLOAD DUP1 SWAP2 SUB SWAP1 RETURN JUMPDEST CALLVALUE DUP1 ISZERO PUSH2 0x138 JUMPI PUSH1 0x0 DUP1 REVERT JUMPDEST POP PUSH2 0x119 PUSH1 0x3 SLOAD DUP2 JUMP JUMPDEST CALLVALUE DUP1 ISZERO PUSH2 0x14E JUMPI PUSH1 0x0 DUP1 REVERT JUMPDEST POP PUSH2 0x119 PUSH2 0x15D CALLDATASIZE PUSH1 0x4 PUSH2 0xDE6 JUMP JUMPDEST PUSH2 0x346 JUMP JUMPDEST CALLVALUE DUP1 ISZERO PUSH2 0x16E JUMPI PUSH1 0x0 DUP1 REVERT JUMPDEST POP PUSH2 0x119 PUSH2 0x17D CALLDATASIZE PUSH1 0x4 PUSH2 0xDFF JUMP JUMPDEST PUSH2 0x3B4 JUMP JUMPDEST PUSH2 0x119 PUSH2 0x190 CALLDATASIZE PUSH1 0x4 PUSH2 0xDE6 JUMP JUMPDEST PUSH2 0x635 JUMP JUMPDEST CALLVALUE DUP1 ISZERO PUSH2 0x1A1 JUMPI PUSH1 0x0 DUP1 REVERT JUMPDEST POP PUSH2 0x1BD PUSH20 0x227D5F29BAB4CEC30F511169886B86FAEF61C6BC DUP2 JUMP JUMPDEST PUSH1 0x40 MLOAD PUSH1 0x1 PUSH1 0x1 PUSH1 0xA0 SHL SUB SWAP1 SWAP2 AND DUP2 MSTORE PUSH1 0x20 ADD PUSH2 0x123 JUMP JUMPDEST PUSH2 0x119 PUSH2 0x1E3 CALLDATASIZE PUSH1 0x4 PUSH2 0xDE6 JUMP JUMPDEST PUSH2 0x880 JUMP JUMPDEST CALLVALUE DUP1 ISZERO PUSH2 0x1F4 JUMPI PUSH1 0x0 DUP1 REVERT JUMPDEST POP PUSH2 0x119 PUSH2 0x203 CALLDATASIZE PUSH1 0x4 PUSH2 0xE3D JUMP JUMPDEST PUSH1 0x1 PUSH1 0x1 PUSH1 0xA0 SHL SUB AND PUSH1 0x0 SWAP1 DUP2 MSTORE PUSH1 0x4 PUSH1 0x20 MSTORE PUSH1 0x40 SWAP1 KECCAK256 SLOAD SWAP1 JUMP JUMPDEST CALLVALUE DUP1 ISZERO PUSH2 0x22A JUMPI PUSH1 0x0 DUP1 REVERT JUMPDEST POP PUSH2 0x119 PUSH2 0x239 CALLDATASIZE PUSH1 0x4 PUSH2 0xDE6 JUMP JUMPDEST PUSH2 0xA76 JUMP JUMPDEST CALLVALUE DUP1 ISZERO PUSH2 0x24A JUMPI PUSH1 0x0 DUP1 REVERT JUMPDEST POP PUSH2 0x119 PUSH2 0xADD JUMP JUMPDEST CALLVALUE DUP1 ISZERO PUSH2 0x25F JUMPI PUSH1 0x0 DUP1 REVERT JUMPDEST POP PUSH2 0x273 PUSH2 0x26E CALLDATASIZE PUSH1 0x4 PUSH2 0xDE6 JUMP JUMPDEST PUSH2 0xB16 JUMP JUMPDEST PUSH1 0x40 DUP1 MLOAD SWAP3 DUP4 MSTORE PUSH1 0x20 DUP4 ADD SWAP2 SWAP1 SWAP2 MSTORE ADD PUSH2 0x123 JUMP JUMPDEST CALLVALUE DUP1 ISZERO PUSH2 0x294 JUMPI PUSH1 0x0 DUP1 REVERT JUMPDEST POP PUSH2 0x2A8 PUSH2 0x2A3 CALLDATASIZE PUSH1 0x4 PUSH2 0xE58 JUMP JUMPDEST PUSH2 0xD31 JUMP JUMPDEST PUSH1 0x40 MLOAD SWAP1 ISZERO ISZERO DUP2 MSTORE PUSH1 0x20 ADD PUSH2 0x123 JUMP JUMPDEST CALLVALUE DUP1 ISZERO PUSH2 0x2C4 JUMPI PUSH1 0x0 DUP1 REVERT JUMPDEST POP PUSH2 0x119 PUSH2 0x2D3 CALLDATASIZE PUSH1 0x4 PUSH2 0xE3D JUMP JUMPDEST PUSH1 0x4 PUSH1 0x20 MSTORE PUSH1 0x0 SWAP1 DUP2 MSTORE PUSH1 0x40 SWAP1 KECCAK256 SLOAD DUP2 JUMP JUMPDEST CALLVALUE DUP1 ISZERO PUSH2 0x2F1 JUMPI PUSH1 0x0 DUP1 REVERT JUMPDEST POP PUSH2 0x119 PUSH2 0x3E8 DUP2 JUMP JUMPDEST CALLVALUE DUP1 ISZERO PUSH2 0x307 JUMPI PUSH1 0x0 DUP1 REVERT JUMPDEST POP PUSH2 0x119 PUSH1 0x4 DUP2 JUMP JUMPDEST CALLVALUE DUP1 ISZERO PUSH2 0x31C JUMPI PUSH1 0x0 DUP1 REVERT JUMPDEST POP PUSH2 0x119 PUSH1 0x1 SLOAD DUP2 JUMP JUMPDEST CALLVALUE DUP1 ISZERO PUSH2 0x332 JUMPI PUSH1 0x0 DUP1 REVERT JUMPDEST POP PUSH1 0x0 SLOAD PUSH2 0x1BD SWAP1 PUSH1 0x1 PUSH1 0x1 PUSH1 0xA0 SHL SUB AND DUP2 JUMP JUMPDEST PUSH1 0x0 DUP2 ISZERO DUP1 PUSH2 0x355 JUMPI POP PUSH1 0x2 SLOAD ISZERO JUMPDEST ISZERO PUSH2 0x362 JUMPI POP PUSH1 0x0 SWAP2 SWAP1 POP JUMP JUMPDEST PUSH1 0x0 PUSH2 0x3E8 PUSH2 0x372 PUSH1 0x4 DUP6 PUSH2 0xE98 JUMP JUMPDEST PUSH2 0x37C SWAP2 SWAP1 PUSH2 0xEAF JUMP JUMPDEST PUSH2 0x386 SWAP1 DUP5 PUSH2 0xED1 JUMP JUMPDEST SWAP1 POP DUP1 PUSH1 0x2 SLOAD PUSH2 0x396 SWAP2 SWAP1 PUSH2 0xEE4 JUMP JUMPDEST PUSH1 0x1 SLOAD PUSH2 0x3A3 SWAP1 DUP4 PUSH2 0xE98 JUMP JUMPDEST PUSH2 0x3AD SWAP2 SWAP1 PUSH2 0xEAF JUMP JUMPDEST SWAP4 SWAP3 POP POP POP JUMP JUMPDEST PUSH1 0x0 PUSH1 0x5 SLOAD PUSH1 0x1 EQ PUSH2 0x3D9 JUMPI PUSH1 0x40 MLOAD PUSH4 0x45F5CE8B PUSH1 0xE1 SHL DUP2 MSTORE PUSH1 0x4 ADD PUSH1 0x40 MLOAD DUP1 SWAP2 SUB SWAP1 REVERT JUMPDEST PUSH1 0x2 PUSH1 0x5 SSTORE PUSH1 0x0 DUP4 SWAP1 SUB PUSH2 0x400 JUMPI PUSH1 0x40 MLOAD PUSH4 0x1F2A2005 PUSH1 0xE0 SHL DUP2 MSTORE PUSH1 0x4 ADD PUSH1 0x40 MLOAD DUP1 SWAP2 SUB SWAP1 REVERT JUMPDEST PUSH1 0x1 SLOAD ISZERO DUP1 PUSH2 0x40F JUMPI POP PUSH1 0x2 SLOAD ISZERO JUMPDEST ISZERO PUSH2 0x42D JUMPI PUSH1 0x40 MLOAD PUSH4 0xBB55FD27 PUSH1 0xE0 SHL DUP2 MSTORE PUSH1 0x4 ADD PUSH1 0x40 MLOAD DUP1 SWAP2 SUB SWAP1 REVERT JUMPDEST PUSH1 0x0 SLOAD PUSH1 0x40 MLOAD PUSH4 0x23B872DD PUSH1 0xE0 SHL DUP2 MSTORE CALLER PUSH1 0x4 DUP3 ADD MSTORE ADDRESS PUSH1 0x24 DUP3 ADD MSTORE PUSH1 0x44 DUP2 ADD DUP6 SWAP1 MSTORE PUSH1 0x1 PUSH1 0x1 PUSH1 0xA0 SHL SUB SWAP1 SWAP2 AND SWAP1 PUSH4 0x23B872DD SWAP1 PUSH1 0x64 ADD PUSH1 0x20 PUSH1 0x40 MLOAD DUP1 DUP4 SUB DUP2 PUSH1 0x0 DUP8 GAS CALL ISZERO DUP1 ISZERO PUSH2 0x484 JUMPI RETURNDATASIZE PUSH1 0x0 DUP1 RETURNDATACOPY RETURNDATASIZE PUSH1 0x0 REVERT JUMPDEST POP POP POP POP PUSH1 0x40 MLOAD RETURNDATASIZE PUSH1 0x1F NOT PUSH1 0x1F DUP3 ADD AND DUP3 ADD DUP1 PUSH1 0x40 MSTORE POP DUP2 ADD SWAP1 PUSH2 0x4A8 SWAP2 SWAP1 PUSH2 0xEF7 JUMP JUMPDEST POP PUSH1 0x0 DUP4 PUSH1 0x1 SLOAD PUSH2 0x4B9 SWAP2 SWAP1 PUSH2 0xEE4 JUMP JUMPDEST PUSH1 0x2 SLOAD PUSH2 0x4C6 SWAP1 DUP7 PUSH2 0xE98 JUMP JUMPDEST PUSH2 0x4D0 SWAP2 SWAP1 PUSH2 0xEAF JUMP JUMPDEST SWAP1 POP PUSH1 0x0 PUSH2 0x3E8 PUSH2 0x4E2 PUSH1 0x4 DUP5 PUSH2 0xE98 JUMP JUMPDEST PUSH2 0x4EC SWAP2 SWAP1 PUSH2 0xEAF JUMP JUMPDEST SWAP1 POP PUSH2 0x4F8 DUP2 DUP4 PUSH2 0xED1 JUMP JUMPDEST SWAP3 POP DUP4 DUP4 LT ISZERO PUSH2 0x51B JUMPI PUSH1 0x40 MLOAD PUSH4 0x8199F5F3 PUSH1 0xE0 SHL DUP2 MSTORE PUSH1 0x4 ADD PUSH1 0x40 MLOAD DUP1 SWAP2 SUB SWAP1 REVERT JUMPDEST PUSH1 0x2 SLOAD DUP4 GT ISZERO PUSH2 0x53E JUMPI PUSH1 0x40 MLOAD PUSH4 0xBB55FD27 PUSH1 0xE0 SHL DUP2 MSTORE PUSH1 0x4 ADD PUSH1 0x40 MLOAD DUP1 SWAP2 SUB SWAP1 REVERT JUMPDEST DUP5 PUSH1 0x1 PUSH1 0x0 DUP3 DUP3 SLOAD PUSH2 0x550 SWAP2 SWAP1 PUSH2 0xEE4 JUMP JUMPDEST SWAP3 POP POP DUP2 SWAP1 SSTORE POP DUP2 PUSH1 0x2 PUSH1 0x0 DUP3 DUP3 SLOAD PUSH2 0x569 SWAP2 SWAP1 PUSH2 0xED1 JUMP JUMPDEST SWAP1 SWAP2 SSTORE POP POP PUSH1 0x40 MLOAD PUSH20 0x227D5F29BAB4CEC30F511169886B86FAEF61C6BC SWAP1 DUP3 ISZERO PUSH2 0x8FC MUL SWAP1 DUP4 SWAP1 PUSH1 0x0 DUP2 DUP2 DUP2 DUP6 DUP9 DUP9 CALL SWAP4 POP POP POP POP ISZERO DUP1 ISZERO PUSH2 0x5AF JUMPI RETURNDATASIZE PUSH1 0x0 DUP1 RETURNDATACOPY RETURNDATASIZE PUSH1 0x0 REVERT JUMPDEST POP PUSH1 0x40 MLOAD CALLER SWAP1 DUP5 ISZERO PUSH2 0x8FC MUL SWAP1 DUP6 SWAP1 PUSH1 0x0 DUP2 DUP2 DUP2 DUP6 DUP9 DUP9 CALL SWAP4 POP POP POP POP ISZERO DUP1 ISZERO PUSH2 0x5DD JUMPI RETURNDATASIZE PUSH1 0x0 DUP1 RETURNDATACOPY RETURNDATASIZE PUSH1 0x0 REVERT JUMPDEST POP PUSH1 0x40 DUP1 MLOAD PUSH1 0x0 DUP1 DUP3 MSTORE PUSH1 0x20 DUP3 ADD DUP9 SWAP1 MSTORE DUP2 DUP4 ADD DUP7 SWAP1 MSTORE PUSH1 0x60 DUP3 ADD MSTORE SWAP1 MLOAD CALLER SWAP2 PUSH32 0x49926BBEBE8474393F434DFA4F78694C0923EFA07D19F2284518BFABD06EB737 SWAP2 SWAP1 DUP2 SWAP1 SUB PUSH1 0x80 ADD SWAP1 LOG2 POP POP PUSH1 0x1 PUSH1 0x5 SSTORE SWAP3 SWAP2 POP POP JUMP JUMPDEST PUSH1 0x0 PUSH1 0x5 SLOAD PUSH1 0x1 EQ PUSH2 0x65A JUMPI PUSH1 0x40 MLOAD PUSH4 0x45F5CE8B PUSH1 0xE1 SHL DUP2 MSTORE PUSH1 0x4 ADD PUSH1 0x40 MLOAD DUP1 SWAP2 SUB SWAP1 REVERT JUMPDEST PUSH1 0x2 PUSH1 0x5 SSTORE CALLVALUE PUSH1 0x0 SUB PUSH2 0x680 JUMPI PUSH1 0x40 MLOAD PUSH4 0x1F2A2005 PUSH1 0xE0 SHL DUP2 MSTORE PUSH1 0x4 ADD PUSH1 0x40 MLOAD DUP1 SWAP2 SUB SWAP1 REVERT JUMPDEST PUSH1 0x1 SLOAD ISZERO DUP1 PUSH2 0x68F JUMPI POP PUSH1 0x2 SLOAD ISZERO JUMPDEST ISZERO PUSH2 0x6AD JUMPI PUSH1 0x40 MLOAD PUSH4 0xBB55FD27 PUSH1 0xE0 SHL DUP2 MSTORE PUSH1 0x4 ADD PUSH1 0x40 MLOAD DUP1 SWAP2 SUB SWAP1 REVERT JUMPDEST PUSH1 0x0 PUSH2 0x3E8 PUSH2 0x6BD PUSH1 0x4 CALLVALUE PUSH2 0xE98 JUMP JUMPDEST PUSH2 0x6C7 SWAP2 SWAP1 PUSH2 0xEAF JUMP JUMPDEST SWAP1 POP PUSH1 0x0 PUSH2 0x6D5 DUP3 CALLVALUE PUSH2 0xED1 JUMP JUMPDEST SWAP1 POP DUP1 PUSH1 0x2 SLOAD PUSH2 0x6E5 SWAP2 SWAP1 PUSH2 0xEE4 JUMP JUMPDEST PUSH1 0x1 SLOAD PUSH2 0x6F2 SWAP1 DUP4 PUSH2 0xE98 JUMP JUMPDEST PUSH2 0x6FC SWAP2 SWAP1 PUSH2 0xEAF JUMP JUMPDEST SWAP3 POP DUP4 DUP4 LT ISZERO PUSH2 0x71F JUMPI PUSH1 0x40 MLOAD PUSH4 0x8199F5F3 PUSH1 0xE0 SHL DUP2 MSTORE PUSH1 0x4 ADD PUSH1 0x40 MLOAD DUP1 SWAP2 SUB SWAP1 REVERT JUMPDEST PUSH1 0x1 SLOAD DUP4 GT ISZERO PUSH2 0x742 JUMPI PUSH1 0x40 MLOAD PUSH4 0xBB55FD27 PUSH1 0xE0 SHL DUP2 MSTORE PUSH1 0x4 ADD PUSH1 0x40 MLOAD DUP1 SWAP2 SUB SWAP1 REVERT JUMPDEST DUP1 PUSH1 0x2 PUSH1 0x0 DUP3 DUP3 SLOAD PUSH2 0x754 SWAP2 SWAP1 PUSH2 0xEE4 JUMP JUMPDEST SWAP3 POP POP DUP2 SWAP1 SSTORE POP DUP3 PUSH1 0x1 PUSH1 0x0 DUP3 DUP3 SLOAD PUSH2 0x76D SWAP2 SWAP1 PUSH2 0xED1 JUMP JUMPDEST SWAP1 SWAP2 SSTORE POP POP PUSH1 0x40 MLOAD PUSH20 0x227D5F29BAB4CEC30F511169886B86FAEF61C6BC SWAP1 DUP4 ISZERO PUSH2 0x8FC MUL SWAP1 DUP5 SWAP1 PUSH1 0x0 DUP2 DUP2 DUP2 DUP6 DUP9 DUP9 CALL SWAP4 POP POP POP POP ISZERO DUP1 ISZERO PUSH2 0x7B3 JUMPI RETURNDATASIZE PUSH1 0x0 DUP1 RETURNDATACOPY RETURNDATASIZE PUSH1 0x0 REVERT JUMPDEST POP PUSH1 0x0 SLOAD PUSH1 0x40 MLOAD PUSH4 0xA9059CBB PUSH1 0xE0 SHL DUP2 MSTORE CALLER PUSH1 0x4 DUP3 ADD MSTORE PUSH1 0x24 DUP2 ADD DUP6 SWAP1 MSTORE PUSH1 0x1 PUSH1 0x1 PUSH1 0xA0 SHL SUB SWAP1 SWAP2 AND SWAP1 PUSH4 0xA9059CBB SWAP1 PUSH1 0x44 ADD PUSH1 0x20 PUSH1 0x40 MLOAD DUP1 DUP4 SUB DUP2 PUSH1 0x0 DUP8 GAS CALL ISZERO DUP1 ISZERO PUSH2 0x805 JUMPI RETURNDATASIZE PUSH1 0x0 DUP1 RETURNDATACOPY RETURNDATASIZE PUSH1 0x0 REVERT JUMPDEST POP POP POP POP PUSH1 0x40 MLOAD RETURNDATASIZE PUSH1 0x1F NOT PUSH1 0x1F DUP3 ADD AND DUP3 ADD DUP1 PUSH1 0x40 MSTORE POP DUP2 ADD SWAP1 PUSH2 0x829 SWAP2 SWAP1 PUSH2 0xEF7 JUMP JUMPDEST POP PUSH1 0x40 DUP1 MLOAD CALLVALUE DUP2 MSTORE PUSH1 0x0 PUSH1 0x20 DUP3 ADD DUP2 SWAP1 MSTORE DUP2 DUP4 ADD MSTORE PUSH1 0x60 DUP2 ADD DUP6 SWAP1 MSTORE SWAP1 MLOAD CALLER SWAP2 PUSH32 0x49926BBEBE8474393F434DFA4F78694C0923EFA07D19F2284518BFABD06EB737 SWAP2 SWAP1 DUP2 SWAP1 SUB PUSH1 0x80 ADD SWAP1 LOG2 POP POP PUSH1 0x1 PUSH1 0x5 SSTORE SWAP2 SWAP1 POP JUMP JUMPDEST PUSH1 0x0 PUSH1 0x5 SLOAD PUSH1 0x1 EQ PUSH2 0x8A5 JUMPI PUSH1 0x40 MLOAD PUSH4 0x45F5CE8B PUSH1 0xE1 SHL DUP2 MSTORE PUSH1 0x4 ADD PUSH1 0x40 MLOAD DUP1 SWAP2 SUB SWAP1 REVERT JUMPDEST PUSH1 0x2 PUSH1 0x5 SSTORE CALLVALUE ISZERO DUP1 PUSH2 0x8B5 JUMPI POP DUP2 ISZERO JUMPDEST ISZERO PUSH2 0x8D3 JUMPI PUSH1 0x40 MLOAD PUSH4 0x1F2A2005 PUSH1 0xE0 SHL DUP2 MSTORE PUSH1 0x4 ADD PUSH1 0x40 MLOAD DUP1 SWAP2 SUB SWAP1 REVERT JUMPDEST PUSH1 0x3 SLOAD PUSH1 0x0 SUB PUSH2 0x8EE JUMPI POP CALLVALUE PUSH1 0x2 DUP2 SWAP1 SSTORE PUSH1 0x1 DUP3 SWAP1 SSTORE PUSH2 0x970 JUMP JUMPDEST PUSH1 0x0 PUSH1 0x2 SLOAD PUSH1 0x3 SLOAD CALLVALUE PUSH2 0x901 SWAP2 SWAP1 PUSH2 0xE98 JUMP JUMPDEST PUSH2 0x90B SWAP2 SWAP1 PUSH2 0xEAF JUMP JUMPDEST SWAP1 POP PUSH1 0x0 PUSH1 0x1 SLOAD PUSH1 0x3 SLOAD DUP6 PUSH2 0x920 SWAP2 SWAP1 PUSH2 0xE98 JUMP JUMPDEST PUSH2 0x92A SWAP2 SWAP1 PUSH2 0xEAF JUMP JUMPDEST SWAP1 POP DUP1 DUP3 LT PUSH2 0x939 JUMPI DUP1 PUSH2 0x93B JUMP JUMPDEST DUP2 JUMPDEST SWAP3 POP CALLVALUE PUSH1 0x2 PUSH1 0x0 DUP3 DUP3 SLOAD PUSH2 0x94F SWAP2 SWAP1 PUSH2 0xEE4 JUMP JUMPDEST SWAP3 POP POP DUP2 SWAP1 SSTORE POP DUP4 PUSH1 0x1 PUSH1 0x0 DUP3 DUP3 SLOAD PUSH2 0x968 SWAP2 SWAP1 PUSH2 0xEE4 JUMP JUMPDEST SWAP1 SWAP2 SSTORE POP POP POP POP JUMPDEST PUSH1 0x0 SLOAD PUSH1 0x40 MLOAD PUSH4 0x23B872DD PUSH1 0xE0 SHL DUP2 MSTORE CALLER PUSH1 0x4 DUP3 ADD MSTORE ADDRESS PUSH1 0x24 DUP3 ADD MSTORE PUSH1 0x44 DUP2 ADD DUP5 SWAP1 MSTORE PUSH1 0x1 PUSH1 0x1 PUSH1 0xA0 SHL SUB SWAP1 SWAP2 AND SWAP1 PUSH4 0x23B872DD SWAP1 PUSH1 0x64 ADD PUSH1 0x20 PUSH1 0x40 MLOAD DUP1 DUP4 SUB DUP2 PUSH1 0x0 DUP8 GAS CALL ISZERO DUP1 ISZERO PUSH2 0x9C7 JUMPI RETURNDATASIZE PUSH1 0x0 DUP1 RETURNDATACOPY RETURNDATASIZE PUSH1 0x0 REVERT JUMPDEST POP POP POP POP PUSH1 0x40 MLOAD RETURNDATASIZE PUSH1 0x1F NOT PUSH1 0x1F DUP3 ADD AND DUP3 ADD DUP1 PUSH1 0x40 MSTORE POP DUP2 ADD SWAP1 PUSH2 0x9EB SWAP2 SWAP1 PUSH2 0xEF7 JUMP JUMPDEST POP CALLER PUSH1 0x0 SWAP1 DUP2 MSTORE PUSH1 0x4 PUSH1 0x20 MSTORE PUSH1 0x40 DUP2 KECCAK256 DUP1 SLOAD DUP4 SWAP3 SWAP1 PUSH2 0xA0B SWAP1 DUP5 SWAP1 PUSH2 0xEE4 JUMP JUMPDEST SWAP3 POP POP DUP2 SWAP1 SSTORE POP DUP1 PUSH1 0x3 PUSH1 0x0 DUP3 DUP3 SLOAD PUSH2 0xA24 SWAP2 SWAP1 PUSH2 0xEE4 JUMP JUMPDEST SWAP1 SWAP2 SSTORE POP POP PUSH1 0x40 DUP1 MLOAD CALLVALUE DUP2 MSTORE PUSH1 0x20 DUP2 ADD DUP5 SWAP1 MSTORE SWAP1 DUP2 ADD DUP3 SWAP1 MSTORE CALLER SWAP1 PUSH32 0x64B83944E79C3CE8D4C297411DE637C3E102D064677AAC0C163976EBDCD6F50E SWAP1 PUSH1 0x60 ADD PUSH1 0x40 MLOAD DUP1 SWAP2 SUB SWAP1 LOG2 PUSH1 0x1 PUSH1 0x5 SSTORE SWAP2 SWAP1 POP JUMP JUMPDEST PUSH1 0x0 DUP2 ISZERO DUP1 PUSH2 0xA85 JUMPI POP PUSH1 0x1 SLOAD ISZERO JUMPDEST ISZERO PUSH2 0xA92 JUMPI POP PUSH1 0x0 SWAP2 SWAP1 POP JUMP JUMPDEST PUSH1 0x0 DUP3 PUSH1 0x1 SLOAD PUSH2 0xAA2 SWAP2 SWAP1 PUSH2 0xEE4 JUMP JUMPDEST PUSH1 0x2 SLOAD PUSH2 0xAAF SWAP1 DUP6 PUSH2 0xE98 JUMP JUMPDEST PUSH2 0xAB9 SWAP2 SWAP1 PUSH2 0xEAF JUMP JUMPDEST SWAP1 POP PUSH2 0x3E8 PUSH2 0xAC9 PUSH1 0x4 DUP4 PUSH2 0xE98 JUMP JUMPDEST PUSH2 0xAD3 SWAP2 SWAP1 PUSH2 0xEAF JUMP JUMPDEST PUSH2 0x3AD SWAP1 DUP3 PUSH2 0xED1 JUMP JUMPDEST PUSH1 0x0 PUSH1 0x1 SLOAD PUSH1 0x0 SUB PUSH2 0xAEF JUMPI POP PUSH1 0x0 SWAP1 JUMP JUMPDEST PUSH1 0x1 SLOAD PUSH1 0x2 SLOAD PUSH2 0xB07 SWAP1 PUSH8 0xDE0B6B3A7640000 PUSH2 0xE98 JUMP JUMPDEST PUSH2 0xB11 SWAP2 SWAP1 PUSH2 0xEAF JUMP JUMPDEST SWAP1 POP SWAP1 JUMP JUMPDEST PUSH1 0x0 DUP1 PUSH1 0x5 SLOAD PUSH1 0x1 EQ PUSH2 0xB3C JUMPI PUSH1 0x40 MLOAD PUSH4 0x45F5CE8B PUSH1 0xE1 SHL DUP2 MSTORE PUSH1 0x4 ADD PUSH1 0x40 MLOAD DUP1 SWAP2 SUB SWAP1 REVERT JUMPDEST PUSH1 0x2 PUSH1 0x5 SSTORE PUSH1 0x0 DUP4 SWAP1 SUB PUSH2 0xB63 JUMPI PUSH1 0x40 MLOAD PUSH4 0x1F2A2005 PUSH1 0xE0 SHL DUP2 MSTORE PUSH1 0x4 ADD PUSH1 0x40 MLOAD DUP1 SWAP2 SUB SWAP1 REVERT JUMPDEST CALLER PUSH1 0x0 SWAP1 DUP2 MSTORE PUSH1 0x4 PUSH1 0x20 MSTORE PUSH1 0x40 SWAP1 KECCAK256 SLOAD DUP4 GT ISZERO PUSH2 0xB93 JUMPI PUSH1 0x40 MLOAD PUSH4 0xBB55FD27 PUSH1 0xE0 SHL DUP2 MSTORE PUSH1 0x4 ADD PUSH1 0x40 MLOAD DUP1 SWAP2 SUB SWAP1 REVERT JUMPDEST PUSH1 0x3 SLOAD PUSH1 0x2 SLOAD PUSH2 0xBA3 SWAP1 DUP6 PUSH2 0xE98 JUMP JUMPDEST PUSH2 0xBAD SWAP2 SWAP1 PUSH2 0xEAF JUMP JUMPDEST SWAP2 POP PUSH1 0x3 SLOAD PUSH1 0x1 SLOAD DUP5 PUSH2 0xBC0 SWAP2 SWAP1 PUSH2 0xE98 JUMP JUMPDEST PUSH2 0xBCA SWAP2 SWAP1 PUSH2 0xEAF JUMP JUMPDEST CALLER PUSH1 0x0 SWAP1 DUP2 MSTORE PUSH1 0x4 PUSH1 0x20 MSTORE PUSH1 0x40 DUP2 KECCAK256 DUP1 SLOAD SWAP3 SWAP4 POP DUP6 SWAP3 SWAP1 SWAP2 SWAP1 PUSH2 0xBEE SWAP1 DUP5 SWAP1 PUSH2 0xED1 JUMP JUMPDEST SWAP3 POP POP DUP2 SWAP1 SSTORE POP DUP3 PUSH1 0x3 PUSH1 0x0 DUP3 DUP3 SLOAD PUSH2 0xC07 SWAP2 SWAP1 PUSH2 0xED1 JUMP JUMPDEST SWAP3 POP POP DUP2 SWAP1 SSTORE POP DUP2 PUSH1 0x2 PUSH1 0x0 DUP3 DUP3 SLOAD PUSH2 0xC20 SWAP2 SWAP1 PUSH2 0xED1 JUMP JUMPDEST SWAP3 POP POP DUP2 SWAP1 SSTORE POP DUP1 PUSH1 0x1 PUSH1 0x0 DUP3 DUP3 SLOAD PUSH2 0xC39 SWAP2 SWAP1 PUSH2 0xED1 JUMP JUMPDEST SWAP1 SWAP2 SSTORE POP POP PUSH1 0x0 SLOAD PUSH1 0x40 MLOAD PUSH4 0xA9059CBB PUSH1 0xE0 SHL DUP2 MSTORE CALLER PUSH1 0x4 DUP3 ADD MSTORE PUSH1 0x24 DUP2 ADD DUP4 SWAP1 MSTORE PUSH1 0x1 PUSH1 0x1 PUSH1 0xA0 SHL SUB SWAP1 SWAP2 AND SWAP1 PUSH4 0xA9059CBB SWAP1 PUSH1 0x44 ADD PUSH1 0x20 PUSH1 0x40 MLOAD DUP1 DUP4 SUB DUP2 PUSH1 0x0 DUP8 GAS CALL ISZERO DUP1 ISZERO PUSH2 0xC8F JUMPI RETURNDATASIZE PUSH1 0x0 DUP1 RETURNDATACOPY RETURNDATASIZE PUSH1 0x0 REVERT JUMPDEST POP POP POP POP PUSH1 0x40 MLOAD RETURNDATASIZE PUSH1 0x1F NOT PUSH1 0x1F DUP3 ADD AND DUP3 ADD DUP1 PUSH1 0x40 MSTORE POP DUP2 ADD SWAP1 PUSH2 0xCB3 SWAP2 SWAP1 PUSH2 0xEF7 JUMP JUMPDEST POP PUSH1 0x40 MLOAD CALLER SWAP1 DUP4 ISZERO PUSH2 0x8FC MUL SWAP1 DUP5 SWAP1 PUSH1 0x0 DUP2 DUP2 DUP2 DUP6 DUP9 DUP9 CALL SWAP4 POP POP POP POP ISZERO DUP1 ISZERO PUSH2 0xCE1 JUMPI RETURNDATASIZE PUSH1 0x0 DUP1 RETURNDATACOPY RETURNDATASIZE PUSH1 0x0 REVERT JUMPDEST POP PUSH1 0x40 DUP1 MLOAD DUP4 DUP2 MSTORE PUSH1 0x20 DUP2 ADD DUP4 SWAP1 MSTORE SWAP1 DUP2 ADD DUP5 SWAP1 MSTORE CALLER SWAP1 PUSH32 0x1DC8BB69DF2B8E91FBDCBFCF93D951B3F0000F085A95FE3F7946D6161439245D SWAP1 PUSH1 0x60 ADD PUSH1 0x40 MLOAD DUP1 SWAP2 SUB SWAP1 LOG2 PUSH1 0x1 PUSH1 0x5 SSTORE SWAP1 SWAP3 SWAP1 SWAP2 POP JUMP JUMPDEST PUSH1 0x0 PUSH1 0x1 PUSH1 0x1 PUSH1 0xA0 SHL SUB DUP4 AND PUSH2 0xD5A JUMPI PUSH1 0x40 MLOAD PUSH4 0xD92E233D PUSH1 0xE0 SHL DUP2 MSTORE PUSH1 0x4 ADD PUSH1 0x40 MLOAD DUP1 SWAP2 SUB SWAP1 REVERT JUMPDEST CALLER PUSH1 0x0 SWAP1 DUP2 MSTORE PUSH1 0x4 PUSH1 0x20 MSTORE PUSH1 0x40 SWAP1 KECCAK256 SLOAD DUP3 GT ISZERO PUSH2 0xD8A JUMPI PUSH1 0x40 MLOAD PUSH4 0xBB55FD27 PUSH1 0xE0 SHL DUP2 MSTORE PUSH1 0x4 ADD PUSH1 0x40 MLOAD DUP1 SWAP2 SUB SWAP1 REVERT JUMPDEST CALLER PUSH1 0x0 SWAP1 DUP2 MSTORE PUSH1 0x4 PUSH1 0x20 MSTORE PUSH1 0x40 DUP2 KECCAK256 DUP1 SLOAD DUP5 SWAP3 SWAP1 PUSH2 0xDA9 SWAP1 DUP5 SWAP1 PUSH2 0xED1 JUMP JUMPDEST SWAP1 SWAP2 SSTORE POP POP PUSH1 0x1 PUSH1 0x1 PUSH1 0xA0 SHL SUB DUP4 AND PUSH1 0x0 SWAP1 DUP2 MSTORE PUSH1 0x4 PUSH1 0x20 MSTORE PUSH1 0x40 DUP2 KECCAK256 DUP1 SLOAD DUP5 SWAP3 SWAP1 PUSH2 0xDD6 SWAP1 DUP5 SWAP1 PUSH2 0xEE4 JUMP JUMPDEST SWAP1 SWAP2 SSTORE POP PUSH1 0x1 SWAP2 POP POP JUMPDEST SWAP3 SWAP2 POP POP JUMP JUMPDEST PUSH1 0x0 PUSH1 0x20 DUP3 DUP5 SUB SLT ISZERO PUSH2 0xDF8 JUMPI PUSH1 0x0 DUP1 REVERT JUMPDEST POP CALLDATALOAD SWAP2 SWAP1 POP JUMP JUMPDEST PUSH1 0x0 DUP1 PUSH1 0x40 DUP4 DUP6 SUB SLT ISZERO PUSH2 0xE12 JUMPI PUSH1 0x0 DUP1 REVERT JUMPDEST POP POP DUP1 CALLDATALOAD SWAP3 PUSH1 0x20 SWAP1 SWAP2 ADD CALLDATALOAD SWAP2 POP JUMP JUMPDEST DUP1 CALLDATALOAD PUSH1 0x1 PUSH1 0x1 PUSH1 0xA0 SHL SUB DUP2 AND DUP2 EQ PUSH2 0xE38 JUMPI PUSH1 0x0 DUP1 REVERT JUMPDEST SWAP2 SWAP1 POP JUMP JUMPDEST PUSH1 0x0 PUSH1 0x20 DUP3 DUP5 SUB SLT ISZERO PUSH2 0xE4F JUMPI PUSH1 0x0 DUP1 REVERT JUMPDEST PUSH2 0x3AD DUP3 PUSH2 0xE21 JUMP JUMPDEST PUSH1 0x0 DUP1 PUSH1 0x40 DUP4 DUP6 SUB SLT ISZERO PUSH2 0xE6B JUMPI PUSH1 0x0 DUP1 REVERT JUMPDEST PUSH2 0xE74 DUP4 PUSH2 0xE21 JUMP JUMPDEST SWAP5 PUSH1 0x20 SWAP4 SWAP1 SWAP4 ADD CALLDATALOAD SWAP4 POP POP POP JUMP JUMPDEST PUSH4 0x4E487B71 PUSH1 0xE0 SHL PUSH1 0x0 MSTORE PUSH1 0x11 PUSH1 0x4 MSTORE PUSH1 0x24 PUSH1 0x0 REVERT JUMPDEST DUP1 DUP3 MUL DUP2 ISZERO DUP3 DUP3 DIV DUP5 EQ OR PUSH2 0xDE0 JUMPI PUSH2 0xDE0 PUSH2 0xE82 JUMP JUMPDEST PUSH1 0x0 DUP3 PUSH2 0xECC JUMPI PUSH4 0x4E487B71 PUSH1 0xE0 SHL PUSH1 0x0 MSTORE PUSH1 0x12 PUSH1 0x4 MSTORE PUSH1 0x24 PUSH1 0x0 REVERT JUMPDEST POP DIV SWAP1 JUMP JUMPDEST DUP2 DUP2 SUB DUP2 DUP2 GT ISZERO PUSH2 0xDE0 JUMPI PUSH2 0xDE0 PUSH2 0xE82 JUMP JUMPDEST DUP1 DUP3 ADD DUP1 DUP3 GT ISZERO PUSH2 0xDE0 JUMPI PUSH2 0xDE0 PUSH2 0xE82 JUMP JUMPDEST PUSH1 0x0 PUSH1 0x20 DUP3 DUP5 SUB SLT ISZERO PUSH2 0xF09 JUMPI PUSH1 0x0 DUP1 REVERT JUMPDEST DUP2 MLOAD DUP1 ISZERO ISZERO DUP2 EQ PUSH2 0x3AD JUMPI PUSH1 0x0 DUP1 REVERT INVALID LOG2 PUSH5 0x6970667358 0x22 SLT KECCAK256 0xDC 0xE4 PUSH12 0xD7B173F9C4C3007CF704430E EXTCODECOPY 0xC 0xE7 0x4E CALLCODE 0x2D 0xAF PC 0xF8 0xC7 LOG3 PUSH17 0x387519219B64736F6C6343000814003300 "},"methodIdentifiers":{"FEE_DENOMINATOR()":"d73792a9","FEE_PERCENT()":"eaf98d23","addLiquidity(uint256)":"51c6590a","balanceOf(address)":"70a08231","feeRecipient()":"46904840","getETHOut(uint256)":"80cb1a6e","getPrice()":"98d5fdca","getTokenOut(uint256)":"15d6dae9","liquidity(address)":"b8c876b1","removeLiquidity(uint256)":"9c8f9f23","reserveETH()":"100af203","reserveToken()":"f4325d67","swapETHForToken(uint256)":"1b3d2cb3","swapTokenForETH(uint256,uint256)":"1618e130","token()":"fc0c546a","totalLiquidity()":"15770f92","transfer(address,uint256)":"a9059cbb"}}}}}