{"src/contracts/JammFactory.sol":{"JammAMM":{"abi":[{"inputs":[{"internalType":"address","name":"_token","type":"address"}],"stateMutability":"nonpayable","type":"constructor"},{"anonymous":false,"inputs":[{"indexed":true,"internalType":"address","name":"provider","type":"address"},{"indexed":false,"internalType":"uint256","name":"ethAmount","type":"uint256"},{"indexed":false,"internalType":"uint256","name":"tokenAmount","type":"uint256"},{"indexed":false,"internalType":"uint256","name":"liquidityMinted","type":"uint256"}],"name":"LiquidityAdded","type":"event"},{"anonymous":false,"inputs":[{"indexed":true,"internalType":"address","name":"provider","type":"address"},{"indexed":false,"internalType":"uint256","name":"ethAmount","type":"uint256"},{"indexed":false,"internalType":"uint256","name":"tokenAmount","type":"uint256"},{"indexed":false,"internalType":"uint256","name":"liquidityBurned","type":"uint256"}],"name":"LiquidityRemoved","type":"event"},{"anonymous":false,"inputs":[{"indexed":true,"internalType":"address","name":"user","type":"address"},{"indexed":false,"internalType":"uint256","name":"ethIn","type":"uint256"},{"indexed":false,"internalType":"uint256","name":"tokenIn","type":"uint256"},{"indexed":false,"internalType":"uint256","name":"ethOut","type":"uint256"},{"indexed":false,"internalType":"uint256","name":"tokenOut","type":"uint256"}],"name":"Swap","type":"event"},{"inputs":[],"name":"FEE_DENOMINATOR","outputs":[{"internalType":"uint256","name":"","type":"uint256"}],"stateMutability":"view","type":"function"},{"inputs":[],"name":"FEE_PERCENT","outputs":[{"internalType":"uint256","name":"","type":"uint256"}],"stateMutability":"view","type":"function"},{"inputs":[{"internalType":"uint256","name":"tokenAmount","type":"uint256"}],"name":"addLiquidity","outputs":[{"internalType":"uint256","name":"liquidityMinted","type":"uint256"}],"stateMutability":"payable","type":"function"},{"inputs":[{"internalType":"address","name":"account","type":"address"}],"name":"balanceOf","outputs":[{"internalType":"uint256","name":"","type":"uint256"}],"stateMutability":"view","type":"function"},{"inputs":[],"name":"feeRecipient","outputs":[{"internalType":"address","name":"","type":"address"}],"stateMutability":"view","type":"function"},{"inputs":[{"internalType":"uint256","name":"tokenIn","type":"uint256"}],"name":"getETHOut","outputs":[{"internalType":"uint256","name":"","type":"uint256"}],"stateMutability":"view","type":"function"},{"inputs":[],"name":"getPrice","outputs":[{"internalType":"uint256","name":"","type":"uint256"}],"stateMutability":"view","type":"function"},{"inputs":[{"internalType":"uint256","name":"ethIn","type":"uint256"}],"name":"getTokenOut","outputs":[{"internalType":"uint256","name":"","type":"uint256"}],"stateMutability":"view","type":"function"},{"inputs":[{"internalType":"address","name":"","type":"address"}],"name":"liquidity","outputs":[{"internalType":"uint256","name":"","type":"uint256"}],"stateMutability":"view","type":"function"},{"inputs":[{"internalType":"uint256","name":"liquidityAmount","type":"uint256"}],"name":"removeLiquidity","outputs":[{"internalType":"uint256","name":"ethAmount","type":"uint256"},{"internalType":"uint256","name":"tokenAmount","type":"uint256"}],"stateMutability":"nonpayable","type":"function"},{"inputs":[],"name":"reserveETH","outputs":[{"internalType":"uint256","name":"","type":"uint256"}],"stateMutability":"view","type":"function"},{"inputs":[],"name":"reserveToken","outputs":[{"internalType":"uint256","name":"","type":"uint256"}],"stateMutability":"view","type":"function"},{"inputs":[{"internalType":"uint256","name":"minTokenOut","type":"uint256"}],"name":"swapETHForToken","outputs":[{"internalType":"uint256","name":"tokenOut","type":"uint256"}],"stateMutability":"payable","type":"function"},{"inputs":[{"internalType":"uint256","name":"tokenIn","type":"uint256"},{"internalType":"uint256","name":"minETHOut","type":"uint256"}],"name":"swapTokenForETH","outputs":[{"internalType":"uint256","name":"ethOut","type":"uint256"}],"stateMutability":"nonpayable","type":"function"},{"inputs":[],"name":"token","outputs":[{"internalType":"address","name":"","type":"address"}],"stateMutability":"view","type":"function"},{"inputs":[],"name":"totalLiquidity","outputs":[{"internalType":"uint256","name":"","type":"uint256"}],"stateMutability":"view","type":"function"},{"inputs":[{"internalType":"address","name":"to","type":"address"},{"internalType":"uint256","name":"value","type":"uint256"}],"name":"transfer","outputs":[{"internalType":"bool","name":"","type":"bool"}],"stateMutability":"nonpayable","type":"function"}],"evm":{"bytecode":{"linkReferences":{},"object":"608060405234801561001057600080fd5b50604051610f8e380380610f8e83398101604081905261002f91610054565b600080546001600160a01b0319166001600160a01b0392909216919091179055610084565b60006020828403121561006657600080fd5b81516001600160a01b038116811461007d57600080fd5b9392505050565b610efb806100936000396000f3fe6080604052600436106100fe5760003560e01c806380cb1a6e11610095578063b8c876b111610064578063b8c876b1146102b8578063d73792a9146102e5578063eaf98d23146102fb578063f4325d6714610310578063fc0c546a1461032657600080fd5b806380cb1a6e1461021e57806398d5fdca1461023e5780639c8f9f2314610253578063a9059cbb1461028857600080fd5b80631b3d2cb3116100d15780631b3d2cb314610182578063469048401461019557806351c6590a146101d557806370a08231146101e857600080fd5b8063100af2031461010357806315770f921461012c57806315d6dae9146101425780631618e13014610162575b600080fd5b34801561010f57600080fd5b5061011960025481565b6040519081526020015b60405180910390f35b34801561013857600080fd5b5061011960035481565b34801561014e57600080fd5b5061011961015d366004610d62565b610346565b34801561016e57600080fd5b5061011961017d366004610d7b565b6103b4565b610119610190366004610d62565b610627565b3480156101a157600080fd5b506101bd73227d5f29bab4cec30f511169886b86faef61c6bc81565b6040516001600160a01b039091168152602001610123565b6101196101e3366004610d62565b61085d565b3480156101f457600080fd5b50610119610203366004610db9565b6001600160a01b031660009081526004602052604090205490565b34801561022a57600080fd5b50610119610239366004610d62565b610a4a565b34801561024a57600080fd5b50610119610ab1565b34801561025f57600080fd5b5061027361026e366004610d62565b610aea565b60408051928352602083019190915201610123565b34801561029457600080fd5b506102a86102a3366004610dd4565b610cb2565b6040519015158152602001610123565b3480156102c457600080fd5b506101196102d3366004610db9565b60046020526000908152604090205481565b3480156102f157600080fd5b506101196103e881565b34801561030757600080fd5b50610119600481565b34801561031c57600080fd5b5061011960015481565b34801561033257600080fd5b506000546101bd906001600160a01b031681565b60008115806103555750600254155b1561036257506000919050565b60006103e8610372600485610e14565b61037c9190610e2b565b6103869084610e4d565b9050806002546103969190610e60565b6001546103a39083610e14565b6103ad9190610e2b565b9392505050565b60008083116104015760405162461bcd60e51b8152602060048201526014602482015273125b9d985b1a59081d1bdad95b88185b5bdd5b9d60621b60448201526064015b60405180910390fd5b6000546040516323b872dd60e01b8152336004820152306024820152604481018590526001600160a01b03909116906323b872dd906064016020604051808303816000875af1158015610458573d6000803e3d6000fd5b505050506040513d601f19601f8201168201806040525081019061047c9190610e73565b5060008360015461048d9190610e60565b60025461049a9086610e14565b6104a49190610e2b565b905060006103e86104b6600484610e14565b6104c09190610e2b565b90506104cc8183610e4d565b9250838310156105125760405162461bcd60e51b81526020600482015260116024820152700a6d8d2e0e0c2ceca40e8dede40d0d2ced607b1b60448201526064016103f8565b6002548311156105345760405162461bcd60e51b81526004016103f890610e95565b84600160008282546105469190610e60565b92505081905550816002600082825461055f9190610e4d565b909155505060405173227d5f29bab4cec30f511169886b86faef61c6bc9082156108fc029083906000818181858888f193505050501580156105a5573d6000803e3d6000fd5b50604051339084156108fc029085906000818181858888f193505050501580156105d3573d6000803e3d6000fd5b50604080516000808252602082018890528183018690526060820152905133917f49926bbebe8474393f434dfa4f78694c0923efa07d19f2284518bfabd06eb737919081900360800190a250505b92915050565b600080341161066d5760405162461bcd60e51b8152602060048201526012602482015271125b9d985b1a590811551208185b5bdd5b9d60721b60448201526064016103f8565b60006103e861067d600434610e14565b6106879190610e2b565b905060006106958234610e4d565b9050806002546106a59190610e60565b6001546106b29083610e14565b6106bc9190610e2b565b9250838310156107025760405162461bcd60e51b81526020600482015260116024820152700a6d8d2e0e0c2ceca40e8dede40d0d2ced607b1b60448201526064016103f8565b6001548311156107245760405162461bcd60e51b81526004016103f890610e95565b80600260008282546107369190610e60565b92505081905550826001600082825461074f9190610e4d565b909155505060405173227d5f29bab4cec30f511169886b86faef61c6bc9083156108fc029084906000818181858888f19350505050158015610795573d6000803e3d6000fd5b5060005460405163a9059cbb60e01b8152336004820152602481018590526001600160a01b039091169063a9059cbb906044016020604051808303816000875af11580156107e7573d6000803e3d6000fd5b505050506040513d601f19601f8201168201806040525081019061080b9190610e73565b50604080513481526000602082018190528183015260608101859052905133917f49926bbebe8474393f434dfa4f78694c0923efa07d19f2284518bfabd06eb737919081900360800190a25050919050565b6000803411801561086e5750600082115b6108ac5760405162461bcd60e51b815260206004820152600f60248201526e496e76616c696420616d6f756e747360881b60448201526064016103f8565b6003546000036108c757503460028190556001829055610949565b6000600254600354346108da9190610e14565b6108e49190610e2b565b90506000600154600354856108f99190610e14565b6109039190610e2b565b90508082106109125780610914565b815b925034600260008282546109289190610e60565b9250508190555083600160008282546109419190610e60565b909155505050505b6000546040516323b872dd60e01b8152336004820152306024820152604481018490526001600160a01b03909116906323b872dd906064016020604051808303816000875af11580156109a0573d6000803e3d6000fd5b505050506040513d601f19601f820116820180604052508101906109c49190610e73565b5033600090815260046020526040812080548392906109e4908490610e60565b9250508190555080600360008282546109fd9190610e60565b9091555050604080513481526020810184905290810182905233907f64b83944e79c3ce8d4c297411de637c3e102d064677aac0c163976ebdcd6f50e9060600160405180910390a2919050565b6000811580610a595750600154155b15610a6657506000919050565b600082600154610a769190610e60565b600254610a839085610e14565b610a8d9190610e2b565b90506103e8610a9d600483610e14565b610aa79190610e2b565b6103ad9082610e4d565b6000600154600003610ac35750600090565b600154600254610adb90670de0b6b3a7640000610e14565b610ae59190610e2b565b905090565b336000908152600460205260408120548190831115610b1b5760405162461bcd60e51b81526004016103f890610e95565b600354600254610b2b9085610e14565b610b359190610e2b565b915060035460015484610b489190610e14565b610b529190610e2b565b33600090815260046020526040812080549293508592909190610b76908490610e4d565b925050819055508260036000828254610b8f9190610e4d565b925050819055508160026000828254610ba89190610e4d565b925050819055508060016000828254610bc19190610e4d565b909155505060005460405163a9059cbb60e01b8152336004820152602481018390526001600160a01b039091169063a9059cbb906044016020604051808303816000875af1158015610c17573d6000803e3d6000fd5b505050506040513d601f19601f82011682018060405250810190610c3b9190610e73565b50604051339083156108fc029084906000818181858888f19350505050158015610c69573d6000803e3d6000fd5b50604080518381526020810183905290810184905233907f1dc8bb69df2b8e91fbdcbfcf93d951b3f0000f085a95fe3f7946d6161439245d9060600160405180910390a2915091565b33600090815260046020526040812054821115610d085760405162461bcd60e51b8152602060048201526014602482015273496e73756666696369656e742062616c616e636560601b60448201526064016103f8565b3360009081526004602052604081208054849290610d27908490610e4d565b90915550506001600160a01b03831660009081526004602052604081208054849290610d54908490610e60565b909155506001949350505050565b600060208284031215610d7457600080fd5b5035919050565b60008060408385031215610d8e57600080fd5b50508035926020909101359150565b80356001600160a01b0381168114610db457600080fd5b919050565b600060208284031215610dcb57600080fd5b6103ad82610d9d565b60008060408385031215610de757600080fd5b610df083610d9d565b946020939093013593505050565b634e487b7160e01b600052601160045260246000fd5b808202811582820484141761062157610621610dfe565b600082610e4857634e487b7160e01b600052601260045260246000fd5b500490565b8181038181111561062157610621610dfe565b8082018082111561062157610621610dfe565b600060208284031215610e8557600080fd5b815180151581146103ad57600080fd5b602080825260169082015275496e73756666696369656e74206c697175696469747960501b60408201526060019056fea2646970667358221220d6033eb473dec0da27f4719d489ca849d95dbda887018825023f12a6544a3ea564736f6c63430008140033","opcodes":"PUSH1 0x80 PUSH1 0x40 MSTORE CALLVALUE DUP1 ISZERO PUSH2 0x10 JUMPI PUSH1 0x0 DUP1 REVERT JUMPDEST POP PUSH1 0x40 MLOAD PUSH2 0xF8E CODESIZE SUB DUP1 PUSH2 0xF8E DUP4 CODECOPY DUP2 ADD PUSH1 0x40 DUP2 SWAP1 MSTORE PUSH2 0x2F SWAP2 PUSH2 0x54 JUMP JUMPDEST PUSH1 0x0 DUP1 SLOAD PUSH1 0x1 PUSH1 0x1 PUSH1 0xA0 SHL SUB NOT AND PUSH1 0x1 PUSH1 0x1 PUSH1 0xA0 SHL SUB SWAP3 SWAP1 SWAP3 AND SWAP2 SWAP1 SWAP2 OR SWAP1 SSTORE PUSH2 0x84 JUMP JUMPDEST PUSH1 0x0 PUSH1 0x20 DUP3 DUP5 SUB SLT ISZERO PUSH2 0x66 JUMPI PUSH1 0x0 DUP1 REVERT JUMPDEST DUP2 MLOAD PUSH1 0x1 PUSH1 0x1 PUSH1 0xA0 SHL SUB DUP2 AND DUP2 EQ PUSH2 0x7D JUMPI PUSH1 0x0 DUP1 REVERT JUMPDEST SWAP4 SWAP3 POP POP POP JUMP JUMPDEST PUSH2 0xEFB DUP1 PUSH2 0x93 PUSH1 0x0 CODECOPY PUSH1 0x0 RETURN INVALID PUSH1 0x80 PUSH1 0x40 MSTORE PUSH1 0x4 CALLDATASIZE LT PUSH2 0xFE JUMPI PUSH1 0x0 CALLDATALOAD PUSH1 0xE0 SHR DUP1 PUSH4 0x80CB1A6E GT PUSH2 0x95 JUMPI DUP1 PUSH4 0xB8C876B1 GT PUSH2 0x64 JUMPI DUP1 PUSH4 0xB8C876B1 EQ PUSH2 0x2B8 JUMPI DUP1 PUSH4 0xD73792A9 EQ PUSH2 0x2E5 JUMPI DUP1 PUSH4 0xEAF98D23 EQ PUSH2 0x2FB JUMPI DUP1 PUSH4 0xF4325D67 EQ PUSH2 0x310 JUMPI DUP1 PUSH4 0xFC0C546A EQ PUSH2 0x326 JUMPI PUSH1 0x0 DUP1 REVERT JUMPDEST DUP1 PUSH4 0x80CB1A6E EQ PUSH2 0x21E JUMPI DUP1 PUSH4 0x98D5FDCA EQ PUSH2 0x23E JUMPI DUP1 PUSH4 0x9C8F9F23 EQ PUSH2 0x253 JUMPI DUP1 PUSH4 0xA9059CBB EQ PUSH2 0x288 JUMPI PUSH1 0x0 DUP1 REVERT JUMPDEST DUP1 PUSH4 0x1B3D2CB3 GT PUSH2 0xD1 JUMPI DUP1 PUSH4 0x1B3D2CB3 EQ PUSH2 0x182 JUMPI DUP1 PUSH4 0x46904840 EQ PUSH2 0x195 JUMPI DUP1 PUSH4 0x51C6590A EQ PUSH2 0x1D5 JUMPI DUP1 PUSH4 0x70A08231 EQ PUSH2 0x1E8 JUMPI PUSH1 0x0 DUP1 REVERT JUMPDEST DUP1 PUSH4 0x100AF203 EQ PUSH2 0x103 JUMPI DUP1 PUSH4 0x15770F92 EQ PUSH2 0x12C JUMPI DUP1 PUSH4 0x15D6DAE9 EQ PUSH2 0x142 JUMPI DUP1 PUSH4 0x1618E130 EQ PUSH2 0x162 JUMPI JUMPDEST PUSH1 0x0 DUP1 REVERT JUMPDEST CALLVALUE DUP1 ISZERO PUSH2 0x10F JUMPI PUSH1 0x0 DUP1 REVERT JUMPDEST POP PUSH2 0x119 PUSH1 0x2 SLOAD DUP2 JUMP JUMPDEST PUSH1 0x40 MLOAD SWAP1 DUP2 MSTORE PUSH1 0x20 ADD JUMPDEST PUSH1 0x40 MLOAD DUP1 SWAP2 SUB SWAP1 RETURN JUMPDEST CALLVALUE DUP1 ISZERO PUSH2 0x138 JUMPI PUSH1 0x0 DUP1 REVERT JUMPDEST POP PUSH2 0x119 PUSH1 0x3 SLOAD DUP2 JUMP JUMPDEST CALLVALUE DUP1 ISZERO PUSH2 0x14E JUMPI PUSH1 0x0 DUP1 REVERT JUMPDEST POP PUSH2 0x119 PUSH2 0x15D CALLDATASIZE PUSH1 0x4 PUSH2 0xD62 JUMP JUMPDEST PUSH2 0x346 JUMP JUMPDEST CALLVALUE DUP1 ISZERO PUSH2 0x16E JUMPI PUSH1 0x0 DUP1 REVERT JUMPDEST POP PUSH2 0x119 PUSH2 0x17D CALLDATASIZE PUSH1 0x4 PUSH2 0xD7B JUMP JUMPDEST PUSH2 0x3B4 JUMP JUMPDEST PUSH2 0x119 PUSH2 0x190 CALLDATASIZE PUSH1 0x4 PUSH2 0xD62 JUMP JUMPDEST PUSH2 0x627 JUMP JUMPDEST CALLVALUE DUP1 ISZERO PUSH2 0x1A1 JUMPI PUSH1 0x0 DUP1 REVERT JUMPDEST POP PUSH2 0x1BD PUSH20 0x227D5F29BAB4CEC30F511169886B86FAEF61C6BC DUP2 JUMP JUMPDEST PUSH1 0x40 MLOAD PUSH1 0x1 PUSH1 0x1 PUSH1 0xA0 SHL SUB SWAP1 SWAP2 AND DUP2 MSTORE PUSH1 0x20 ADD PUSH2 0x123 JUMP JUMPDEST PUSH2 0x119 PUSH2 0x1E3 CALLDATASIZE PUSH1 0x4 PUSH2 0xD62 JUMP JUMPDEST PUSH2 0x85D JUMP JUMPDEST CALLVALUE DUP1 ISZERO PUSH2 0x1F4 JUMPI PUSH1 0x0 DUP1 REVERT JUMPDEST POP PUSH2 0x119 PUSH2 0x203 CALLDATASIZE PUSH1 0x4 PUSH2 0xDB9 JUMP JUMPDEST PUSH1 0x1 PUSH1 0x1 PUSH1 0xA0 SHL SUB AND PUSH1 0x0 SWAP1 DUP2 MSTORE PUSH1 0x4 PUSH1 0x20 MSTORE PUSH1 0x40 SWAP1 KECCAK256 SLOAD SWAP1 JUMP JUMPDEST CALLVALUE DUP1 ISZERO PUSH2 0x22A JUMPI PUSH1 0x0 DUP1 REVERT JUMPDEST POP PUSH2 0x119 PUSH2 0x239 CALLDATASIZE PUSH1 0x4 PUSH2 0xD62 JUMP JUMPDEST PUSH2 0xA4A JUMP JUMPDEST CALLVALUE DUP1 ISZERO PUSH2 0x24A JUMPI PUSH1 0x0 DUP1 REVERT JUMPDEST POP PUSH2 0x119 PUSH2 0xAB1 JUMP JUMPDEST CALLVALUE DUP1 ISZERO PUSH2 0x25F JUMPI PUSH1 0x0 DUP1 REVERT JUMPDEST POP PUSH2 0x273 PUSH2 0x26E CALLDATASIZE PUSH1 0x4 PUSH2 0xD62 JUMP JUMPDEST PUSH2 0xAEA JUMP JUMPDEST PUSH1 0x40 DUP1 MLOAD SWAP3 DUP4 MSTORE PUSH1 0x20 DUP4 ADD SWAP2 SWAP1 SWAP2 MSTORE ADD PUSH2 0x123 JUMP JUMPDEST CALLVALUE DUP1 ISZERO PUSH2 0x294 JUMPI PUSH1 0x0 DUP1 REVERT JUMPDEST POP PUSH2 0x2A8 PUSH2 0x2A3 CALLDATASIZE PUSH1 0x4 PUSH2 0xDD4 JUMP JUMPDEST PUSH2 0xCB2 JUMP JUMPDEST PUSH1 0x40 MLOAD SWAP1 ISZERO ISZERO DUP2 MSTORE PUSH1 0x20 ADD PUSH2 0x123 JUMP JUMPDEST CALLVALUE DUP1 ISZERO PUSH2 0x2C4 JUMPI PUSH1 0x0 DUP1 REVERT JUMPDEST POP PUSH2 0x119 PUSH2 0x2D3 CALLDATASIZE PUSH1 0x4 PUSH2 0xDB9 JUMP JUMPDEST PUSH1 0x4 PUSH1 0x20 MSTORE PUSH1 0x0 SWAP1 DUP2 MSTORE PUSH1 0x40 SWAP1 KECCAK256 SLOAD DUP2 JUMP JUMPDEST CALLVALUE DUP1 ISZERO PUSH2 0x2F1 JUMPI PUSH1 0x0 DUP1 REVERT JUMPDEST POP PUSH2 0x119 PUSH2 0x3E8 DUP2 JUMP JUMPDEST CALLVALUE DUP1 ISZERO PUSH2 0x307 JUMPI PUSH1 0x0 DUP1 REVERT JUMPDEST POP PUSH2 0x119 PUSH1 0x4 DUP2 JUMP JUMPDEST CALLVALUE DUP1 ISZERO PUSH2 0x31C JUMPI PUSH1 0x0 DUP1 REVERT JUMPDEST POP PUSH2 0x119 PUSH1 0x1 SLOAD DUP2 JUMP JUMPDEST CALLVALUE DUP1 ISZERO PUSH2 0x332 JUMPI PUSH1 0x0 DUP1 REVERT JUMPDEST POP PUSH1 0x0 SLOAD PUSH2 0x1BD SWAP1 PUSH1 0x1 PUSH1 0x1 PUSH1 0xA0 SHL SUB AND DUP2 JUMP JUMPDEST PUSH1 0x0 DUP2 ISZERO DUP1 PUSH2 0x355 JUMPI POP PUSH1 0x2 SLOAD ISZERO JUMPDEST ISZERO PUSH2 0x362 JUMPI POP PUSH1 0x0 SWAP2 SWAP1 POP JUMP JUMPDEST PUSH1 0x0 PUSH2 0x3E8 PUSH2 0x372 PUSH1 0x4 DUP6 PUSH2 0xE14 JUMP JUMPDEST PUSH2 0x37C SWAP2 SWAP1 PUSH2 0xE2B JUMP JUMPDEST PUSH2 0x386 SWAP1 DUP5 PUSH2 0xE4D JUMP JUMPDEST SWAP1 POP DUP1 PUSH1 0x2 SLOAD PUSH2 0x396 SWAP2 SWAP1 PUSH2 0xE60 JUMP JUMPDEST PUSH1 0x1 SLOAD PUSH2 0x3A3 SWAP1 DUP4 PUSH2 0xE14 JUMP JUMPDEST PUSH2 0x3AD SWAP2 SWAP1 PUSH2 0xE2B JUMP JUMPDEST SWAP4 SWAP3 POP POP POP JUMP JUMPDEST PUSH1 0x0 DUP1 DUP4 GT PUSH2 0x401 JUMPI PUSH1 0x40 MLOAD PUSH3 0x461BCD PUSH1 0xE5 SHL DUP2 MSTORE PUSH1 0x20 PUSH1 0x4 DUP3 ADD MSTORE PUSH1 0x14 PUSH1 0x24 DUP3 ADD MSTORE PUSH20 0x125B9D985B1A59081D1BDAD95B88185B5BDD5B9D PUSH1 0x62 SHL PUSH1 0x44 DUP3 ADD MSTORE PUSH1 0x64 ADD JUMPDEST PUSH1 0x40 MLOAD DUP1 SWAP2 SUB SWAP1 REVERT JUMPDEST PUSH1 0x0 SLOAD PUSH1 0x40 MLOAD PUSH4 0x23B872DD PUSH1 0xE0 SHL DUP2 MSTORE CALLER PUSH1 0x4 DUP3 ADD MSTORE ADDRESS PUSH1 0x24 DUP3 ADD MSTORE PUSH1 0x44 DUP2 ADD DUP6 SWAP1 MSTORE PUSH1 0x1 PUSH1 0x1 PUSH1 0xA0 SHL SUB SWAP1 SWAP2 AND SWAP1 PUSH4 0x23B872DD SWAP1 PUSH1 0x64 ADD PUSH1 0x20 PUSH1 0x40 MLOAD DUP1 DUP4 SUB DUP2 PUSH1 0x0 DUP8 GAS CALL ISZERO DUP1 ISZERO PUSH2 0x458 JUMPI RETURNDATASIZE PUSH1 0x0 DUP1 RETURNDATACOPY RETURNDATASIZE PUSH1 0x0 REVERT JUMPDEST POP POP POP POP PUSH1 0x40 MLOAD RETURNDATASIZE PUSH1 0x1F NOT PUSH1 0x1F DUP3 ADD AND DUP3 ADD DUP1 PUSH1 0x40 MSTORE POP DUP2 ADD SWAP1 PUSH2 0x47C SWAP2 SWAP1 PUSH2 0xE73 JUMP JUMPDEST POP PUSH1 0x0 DUP4 PUSH1 0x1 SLOAD PUSH2 0x48D SWAP2 SWAP1 PUSH2 0xE60 JUMP JUMPDEST PUSH1 0x2 SLOAD PUSH2 0x49A SWAP1 DUP7 PUSH2 0xE14 JUMP JUMPDEST PUSH2 0x4A4 SWAP2 SWAP1 PUSH2 0xE2B JUMP JUMPDEST SWAP1 POP PUSH1 0x0 PUSH2 0x3E8 PUSH2 0x4B6 PUSH1 0x4 DUP5 PUSH2 0xE14 JUMP JUMPDEST PUSH2 0x4C0 SWAP2 SWAP1 PUSH2 0xE2B JUMP JUMPDEST SWAP1 POP PUSH2 0x4CC DUP2 DUP4 PUSH2 0xE4D JUMP JUMPDEST SWAP3 POP DUP4 DUP4 LT ISZERO PUSH2 0x512 JUMPI PUSH1 0x40 MLOAD PUSH3 0x461BCD PUSH1 0xE5 SHL DUP2 MSTORE PUSH1 0x20 PUSH1 0x4 DUP3 ADD MSTORE PUSH1 0x11 PUSH1 0x24 DUP3 ADD MSTORE PUSH17 0xA6D8D2E0E0C2CECA40E8DEDE40D0D2CED PUSH1 0x7B SHL PUSH1 0x44 DUP3 ADD MSTORE PUSH1 0x64 ADD PUSH2 0x3F8 JUMP JUMPDEST PUSH1 0x2 SLOAD DUP4 GT ISZERO PUSH2 0x534 JUMPI PUSH1 0x40 MLOAD PUSH3 0x461BCD PUSH1 0xE5 SHL DUP2 MSTORE PUSH1 0x4 ADD PUSH2 0x3F8 SWAP1 PUSH2 0xE95 JUMP JUMPDEST DUP5 PUSH1 0x1 PUSH1 0x0 DUP3 DUP3 SLOAD PUSH2 0x546 SWAP2 SWAP1 PUSH2 0xE60 JUMP JUMPDEST SWAP3 POP POP DUP2 SWAP1 SSTORE POP DUP2 PUSH1 0x2 PUSH1 0x0 DUP3 DUP3 SLOAD PUSH2 0x55F SWAP2 SWAP1 PUSH2 0xE4D JUMP JUMPDEST SWAP1 SWAP2 SSTORE POP POP PUSH1 0x40 MLOAD PUSH20 0x227D5F29BAB4CEC30F511169886B86FAEF61C6BC SWAP1 DUP3 ISZERO PUSH2 0x8FC MUL SWAP1 DUP4 SWAP1 PUSH1 0x0 DUP2 DUP2 DUP2 DUP6 DUP9 DUP9 CALL SWAP4 POP POP POP POP ISZERO DUP1 ISZERO PUSH2 0x5A5 JUMPI RETURNDATASIZE PUSH1 0x0 DUP1 RETURNDATACOPY RETURNDATASIZE PUSH1 0x0 REVERT JUMPDEST POP PUSH1 0x40 MLOAD CALLER SWAP1 DUP5 ISZERO PUSH2 0x8FC MUL SWAP1 DUP6 SWAP1 PUSH1 0x0 DUP2 DUP2 DUP2 DUP6 DUP9 DUP9 CALL SWAP4 POP POP POP POP ISZERO DUP1 ISZERO PUSH2 0x5D3 JUMPI RETURNDATASIZE PUSH1 0x0 DUP1 RETURNDATACOPY RETURNDATASIZE PUSH1 0x0 REVERT JUMPDEST POP PUSH1 0x40 DUP1 MLOAD PUSH1 0x0 DUP1 DUP3 MSTORE PUSH1 0x20 DUP3 ADD DUP9 SWAP1 MSTORE DUP2 DUP4 ADD DUP7 SWAP1 MSTORE PUSH1 0x60 DUP3 ADD MSTORE SWAP1 MLOAD CALLER SWAP2 PUSH32 0x49926BBEBE8474393F434DFA4F78694C0923EFA07D19F2284518BFABD06EB737 SWAP2 SWAP1 DUP2 SWAP1 SUB PUSH1 0x80 ADD SWAP1 LOG2 POP POP JUMPDEST SWAP3 SWAP2 POP POP JUMP JUMPDEST PUSH1 0x0 DUP1 CALLVALUE GT PUSH2 0x66D JUMPI PUSH1 0x40 MLOAD PUSH3 0x461BCD PUSH1 0xE5 SHL DUP2 MSTORE PUSH1 0x20 PUSH1 0x4 DUP3 ADD MSTORE PUSH1 0x12 PUSH1 0x24 DUP3 ADD MSTORE PUSH18 0x125B9D985B1A590811551208185B5BDD5B9D PUSH1 0x72 SHL PUSH1 0x44 DUP3 ADD MSTORE PUSH1 0x64 ADD PUSH2 0x3F8 JUMP JUMPDEST PUSH1 0x0 PUSH2 0x3E8 PUSH2 0x67D PUSH1 0x4 CALLVALUE PUSH2 0xE14 JUMP JUMPDEST PUSH2 0x687 SWAP2 SWAP1 PUSH2 0xE2B JUMP JUMPDEST SWAP1 POP PUSH1 0x0 PUSH2 0x695 DUP3 CALLVALUE PUSH2 0xE4D JUMP JUMPDEST SWAP1 POP DUP1 PUSH1 0x2 SLOAD PUSH2 0x6A5 SWAP2 SWAP1 PUSH2 0xE60 JUMP JUMPDEST PUSH1 0x1 SLOAD PUSH2 0x6B2 SWAP1 DUP4 PUSH2 0xE14 JUMP JUMPDEST PUSH2 0x6BC SWAP2 SWAP1 PUSH2 0xE2B JUMP JUMPDEST SWAP3 POP DUP4 DUP4 LT ISZERO PUSH2 0x702 JUMPI PUSH1 0x40 MLOAD PUSH3 0x461BCD PUSH1 0xE5 SHL DUP2 MSTORE PUSH1 0x20 PUSH1 0x4 DUP3 ADD MSTORE PUSH1 0x11 PUSH1 0x24 DUP3 ADD MSTORE PUSH17 0xA6D8D2E0E0C2CECA40E8DEDE40D0D2CED PUSH1 0x7B SHL PUSH1 0x44 DUP3 ADD MSTORE PUSH1 0x64 ADD PUSH2 0x3F8 JUMP JUMPDEST PUSH1 0x1 SLOAD DUP4 GT ISZERO PUSH2 0x724 JUMPI PUSH1 0x40 MLOAD PUSH3 0x461BCD PUSH1 0xE5 SHL DUP2 MSTORE PUSH1 0x4 ADD PUSH2 0x3F8 SWAP1 PUSH2 0xE95 JUMP JUMPDEST DUP1 PUSH1 0x2 PUSH1 0x0 DUP3 DUP3 SLOAD PUSH2 0x736 SWAP2 SWAP1 PUSH2 0xE60 JUMP JUMPDEST SWAP3 POP POP DUP2 SWAP1 SSTORE POP DUP3 PUSH1 0x1 PUSH1 0x0 DUP3 DUP3 SLOAD PUSH2 0x74F SWAP2 SWAP1 PUSH2 0xE4D JUMP JUMPDEST SWAP1 SWAP2 SSTORE POP POP PUSH1 0x40 MLOAD PUSH20 0x227D5F29BAB4CEC30F511169886B86FAEF61C6BC SWAP1 DUP4 ISZERO PUSH2 0x8FC MUL SWAP1 DUP5 SWAP1 PUSH1 0x0 DUP2 DUP2 DUP2 DUP6 DUP9 DUP9 CALL SWAP4 POP POP POP POP ISZERO DUP1 ISZERO PUSH2 0x795 JUMPI RETURNDATASIZE PUSH1 0x0 DUP1 RETURNDATACOPY RETURNDATASIZE PUSH1 0x0 REVERT JUMPDEST POP PUSH1 0x0 SLOAD PUSH1 0x40 MLOAD PUSH4 0xA9059CBB PUSH1 0xE0 SHL DUP2 MSTORE CALLER PUSH1 0x4 DUP3 ADD MSTORE PUSH1 0x24 DUP2 ADD DUP6 SWAP1 MSTORE PUSH1 0x1 PUSH1 0x1 PUSH1 0xA0 SHL SUB SWAP1 SWAP2 AND SWAP1 PUSH4 0xA9059CBB SWAP1 PUSH1 0x44 ADD PUSH1 0x20 PUSH1 0x40 MLOAD DUP1 DUP4 SUB DUP2 PUSH1 0x0 DUP8 GAS CALL ISZERO DUP1 ISZERO PUSH2 0x7E7 JUMPI RETURNDATASIZE PUSH1 0x0 DUP1 RETURNDATACOPY RETURNDATASIZE PUSH1 0x0 REVERT JUMPDEST POP POP POP POP PUSH1 0x40 MLOAD RETURNDATASIZE PUSH1 0x1F NOT PUSH1 0x1F DUP3 ADD AND DUP3 ADD DUP1 PUSH1 0x40 MSTORE POP DUP2 ADD SWAP1 PUSH2 0x80B SWAP2 SWAP1 PUSH2 0xE73 JUMP JUMPDEST POP PUSH1 0x40 DUP1 MLOAD CALLVALUE DUP2 MSTORE PUSH1 0x0 PUSH1 0x20 DUP3 ADD DUP2 SWAP1 MSTORE DUP2 DUP4 ADD MSTORE PUSH1 0x60 DUP2 ADD DUP6 SWAP1 MSTORE SWAP1 MLOAD CALLER SWAP2 PUSH32 0x49926BBEBE8474393F434DFA4F78694C0923EFA07D19F2284518BFABD06EB737 SWAP2 SWAP1 DUP2 SWAP1 SUB PUSH1 0x80 ADD SWAP1 LOG2 POP POP SWAP2 SWAP1 POP JUMP JUMPDEST PUSH1 0x0 DUP1 CALLVALUE GT DUP1 ISZERO PUSH2 0x86E JUMPI POP PUSH1 0x0 DUP3 GT JUMPDEST PUSH2 0x8AC JUMPI PUSH1 0x40 MLOAD PUSH3 0x461BCD PUSH1 0xE5 SHL DUP2 MSTORE PUSH1 0x20 PUSH1 0x4 DUP3 ADD MSTORE PUSH1 0xF PUSH1 0x24 DUP3 ADD MSTORE PUSH15 0x496E76616C696420616D6F756E7473 PUSH1 0x88 SHL PUSH1 0x44 DUP3 ADD MSTORE PUSH1 0x64 ADD PUSH2 0x3F8 JUMP JUMPDEST PUSH1 0x3 SLOAD PUSH1 0x0 SUB PUSH2 0x8C7 JUMPI POP CALLVALUE PUSH1 0x2 DUP2 SWAP1 SSTORE PUSH1 0x1 DUP3 SWAP1 SSTORE PUSH2 0x949 JUMP JUMPDEST PUSH1 0x0 PUSH1 0x2 SLOAD PUSH1 0x3 SLOAD CALLVALUE PUSH2 0x8DA SWAP2 SWAP1 PUSH2 0xE14 JUMP JUMPDEST PUSH2 0x8E4 SWAP2 SWAP1 PUSH2 0xE2B JUMP JUMPDEST SWAP1 POP PUSH1 0x0 PUSH1 0x1 SLOAD PUSH1 0x3 SLOAD DUP6 PUSH2 0x8F9 SWAP2 SWAP1 PUSH2 0xE14 JUMP JUMPDEST PUSH2 0x903 SWAP2 SWAP1 PUSH2 0xE2B JUMP JUMPDEST SWAP1 POP DUP1 DUP3 LT PUSH2 0x912 JUMPI DUP1 PUSH2 0x914 JUMP JUMPDEST DUP2 JUMPDEST SWAP3 POP CALLVALUE PUSH1 0x2 PUSH1 0x0 DUP3 DUP3 SLOAD PUSH2 0x928 SWAP2 SWAP1 PUSH2 0xE60 JUMP JUMPDEST SWAP3 POP POP DUP2 SWAP1 SSTORE POP DUP4 PUSH1 0x1 PUSH1 0x0 DUP3 DUP3 SLOAD PUSH2 0x941 SWAP2 SWAP1 PUSH2 0xE60 JUMP JUMPDEST SWAP1 SWAP2 SSTORE POP POP POP POP JUMPDEST PUSH1 0x0 SLOAD PUSH1 0x40 MLOAD PUSH4 0x23B872DD PUSH1 0xE0 SHL DUP2 MSTORE CALLER PUSH1 0x4 DUP3 ADD MSTORE ADDRESS PUSH1 0x24 DUP3 ADD MSTORE PUSH1 0x44 DUP2 ADD DUP5 SWAP1 MSTORE PUSH1 0x1 PUSH1 0x1 PUSH1 0xA0 SHL SUB SWAP1 SWAP2 AND SWAP1 PUSH4 0x23B872DD SWAP1 PUSH1 0x64 ADD PUSH1 0x20 PUSH1 0x40 MLOAD DUP1 DUP4 SUB DUP2 PUSH1 0x0 DUP8 GAS CALL ISZERO DUP1 ISZERO PUSH2 0x9A0 JUMPI RETURNDATASIZE PUSH1 0x0 DUP1 RETURNDATACOPY RETURNDATASIZE PUSH1 0x0 REVERT JUMPDEST POP POP POP POP PUSH1 0x40 MLOAD RETURNDATASIZE PUSH1 0x1F NOT PUSH1 0x1F DUP3 ADD AND DUP3 ADD DUP1 PUSH1 0x40 MSTORE POP DUP2 ADD SWAP1 PUSH2 0x9C4 SWAP2 SWAP1 PUSH2 0xE73 JUMP JUMPDEST POP CALLER PUSH1 0x0 SWAP1 DUP2 MSTORE PUSH1 0x4 PUSH1 0x20 MSTORE PUSH1 0x40 DUP2 KECCAK256 DUP1 SLOAD DUP4 SWAP3 SWAP1 PUSH2 0x9E4 SWAP1 DUP5 SWAP1 PUSH2 0xE60 JUMP JUMPDEST SWAP3 POP POP DUP2 SWAP1 SSTORE POP DUP1 PUSH1 0x3 PUSH1 0x0 DUP3 DUP3 SLOAD PUSH2 0x9FD SWAP2 SWAP1 PUSH2 0xE60 JUMP JUMPDEST SWAP1 SWAP2 SSTORE POP POP PUSH1 0x40 DUP1 MLOAD CALLVALUE DUP2 MSTORE PUSH1 0x20 DUP2 ADD DUP5 SWAP1 MSTORE SWAP1 DUP2 ADD DUP3 SWAP1 MSTORE CALLER SWAP1 PUSH32 0x64B83944E79C3CE8D4C297411DE637C3E102D064677AAC0C163976EBDCD6F50E SWAP1 PUSH1 0x60 ADD PUSH1 0x40 MLOAD DUP1 SWAP2 SUB SWAP1 LOG2 SWAP2 SWAP1 POP JUMP JUMPDEST PUSH1 0x0 DUP2 ISZERO DUP1 PUSH2 0xA59 JUMPI POP PUSH1 0x1 SLOAD ISZERO JUMPDEST ISZERO PUSH2 0xA66 JUMPI POP PUSH1 0x0 SWAP2 SWAP1 POP JUMP JUMPDEST PUSH1 0x0 DUP3 PUSH1 0x1 SLOAD PUSH2 0xA76 SWAP2 SWAP1 PUSH2 0xE60 JUMP JUMPDEST PUSH1 0x2 SLOAD PUSH2 0xA83 SWAP1 DUP6 PUSH2 0xE14 JUMP JUMPDEST PUSH2 0xA8D SWAP2 SWAP1 PUSH2 0xE2B JUMP JUMPDEST SWAP1 POP PUSH2 0x3E8 PUSH2 0xA9D PUSH1 0x4 DUP4 PUSH2 0xE14 JUMP JUMPDEST PUSH2 0xAA7 SWAP2 SWAP1 PUSH2 0xE2B JUMP JUMPDEST PUSH2 0x3AD SWAP1 DUP3 PUSH2 0xE4D JUMP JUMPDEST PUSH1 0x0 PUSH1 0x1 SLOAD PUSH1 0x0 SUB PUSH2 0xAC3 JUMPI POP PUSH1 0x0 SWAP1 JUMP JUMPDEST PUSH1 0x1 SLOAD PUSH1 0x2 SLOAD PUSH2 0xADB SWAP1 PUSH8 0xDE0B6B3A7640000 PUSH2 0xE14 JUMP JUMPDEST PUSH2 0xAE5 SWAP2 SWAP1 PUSH2 0xE2B JUMP JUMPDEST SWAP1 POP SWAP1 JUMP JUMPDEST CALLER PUSH1 0x0 SWAP1 DUP2 MSTORE PUSH1 0x4 PUSH1 0x20 MSTORE PUSH1 0x40 DUP2 KECCAK256 SLOAD DUP2 SWAP1 DUP4 GT ISZERO PUSH2 0xB1B JUMPI PUSH1 0x40 MLOAD PUSH3 0x461BCD PUSH1 0xE5 SHL DUP2 MSTORE PUSH1 0x4 ADD PUSH2 0x3F8 SWAP1 PUSH2 0xE95 JUMP JUMPDEST PUSH1 0x3 SLOAD PUSH1 0x2 SLOAD PUSH2 0xB2B SWAP1 DUP6 PUSH2 0xE14 JUMP JUMPDEST PUSH2 0xB35 SWAP2 SWAP1 PUSH2 0xE2B JUMP JUMPDEST SWAP2 POP PUSH1 0x3 SLOAD PUSH1 0x1 SLOAD DUP5 PUSH2 0xB48 SWAP2 SWAP1 PUSH2 0xE14 JUMP JUMPDEST PUSH2 0xB52 SWAP2 SWAP1 PUSH2 0xE2B JUMP JUMPDEST CALLER PUSH1 0x0 SWAP1 DUP2 MSTORE PUSH1 0x4 PUSH1 0x20 MSTORE PUSH1 0x40 DUP2 KECCAK256 DUP1 SLOAD SWAP3 SWAP4 POP DUP6 SWAP3 SWAP1 SWAP2 SWAP1 PUSH2 0xB76 SWAP1 DUP5 SWAP1 PUSH2 0xE4D JUMP JUMPDEST SWAP3 POP POP DUP2 SWAP1 SSTORE POP DUP3 PUSH1 0x3 PUSH1 0x0 DUP3 DUP3 SLOAD PUSH2 0xB8F SWAP2 SWAP1 PUSH2 0xE4D JUMP JUMPDEST SWAP3 POP POP DUP2 SWAP1 SSTORE POP DUP2 PUSH1 0x2 PUSH1 0x0 DUP3 DUP3 SLOAD PUSH2 0xBA8 SWAP2 SWAP1 PUSH2 0xE4D JUMP JUMPDEST SWAP3 POP POP DUP2 SWAP1 SSTORE POP DUP1 PUSH1 0x1 PUSH1 0x0 DUP3 DUP3 SLOAD PUSH2 0xBC1 SWAP2 SWAP1 PUSH2 0xE4D JUMP JUMPDEST SWAP1 SWAP2 SSTORE POP POP PUSH1 0x0 SLOAD PUSH1 0x40 MLOAD PUSH4 0xA9059CBB PUSH1 0xE0 SHL DUP2 MSTORE CALLER PUSH1 0x4 DUP3 ADD MSTORE PUSH1 0x24 DUP2 ADD DUP4 SWAP1 MSTORE PUSH1 0x1 PUSH1 0x1 PUSH1 0xA0 SHL SUB SWAP1 SWAP2 AND SWAP1 PUSH4 0xA9059CBB SWAP1 PUSH1 0x44 ADD PUSH1 0x20 PUSH1 0x40 MLOAD DUP1 DUP4 SUB DUP2 PUSH1 0x0 DUP8 GAS CALL ISZERO DUP1 ISZERO PUSH2 0xC17 JUMPI RETURNDATASIZE PUSH1 0x0 DUP1 RETURNDATACOPY RETURNDATASIZE PUSH1 0x0 REVERT JUMPDEST POP POP POP POP PUSH1 0x40 MLOAD RETURNDATASIZE PUSH1 0x1F NOT PUSH1 0x1F DUP3 ADD AND DUP3 ADD DUP1 PUSH1 0x40 MSTORE POP DUP2 ADD SWAP1 PUSH2 0xC3B SWAP2 SWAP1 PUSH2 0xE73 JUMP JUMPDEST POP PUSH1 0x40 MLOAD CALLER SWAP1 DUP4 ISZERO PUSH2 0x8FC MUL SWAP1 DUP5 SWAP1 PUSH1 0x0 DUP2 DUP2 DUP2 DUP6 DUP9 DUP9 CALL SWAP4 POP POP POP POP ISZERO DUP1 ISZERO PUSH2 0xC69 JUMPI RETURNDATASIZE PUSH1 0x0 DUP1 RETURNDATACOPY RETURNDATASIZE PUSH1 0x0 REVERT JUMPDEST POP PUSH1 0x40 DUP1 MLOAD DUP4 DUP2 MSTORE PUSH1 0x20 DUP2 ADD DUP4 SWAP1 MSTORE SWAP1 DUP2 ADD DUP5 SWAP1 MSTORE CALLER SWAP1 PUSH32 0x1DC8BB69DF2B8E91FBDCBFCF93D951B3F0000F085A95FE3F7946D6161439245D SWAP1 PUSH1 0x60 ADD PUSH1 0x40 MLOAD DUP1 SWAP2 SUB SWAP1 LOG2 SWAP2 POP SWAP2 JUMP JUMPDEST CALLER PUSH1 0x0 SWAP1 DUP2 MSTORE PUSH1 0x4 PUSH1 0x20 MSTORE PUSH1 0x40 DUP2 KECCAK256 SLOAD DUP3 GT ISZERO PUSH2 0xD08 JUMPI PUSH1 0x40 MLOAD PUSH3 0x461BCD PUSH1 0xE5 SHL DUP2 MSTORE PUSH1 0x20 PUSH1 0x4 DUP3 ADD MSTORE PUSH1 0x14 PUSH1 0x24 DUP3 ADD MSTORE PUSH20 0x496E73756666696369656E742062616C616E6365 PUSH1 0x60 SHL PUSH1 0x44 DUP3 ADD MSTORE PUSH1 0x64 ADD PUSH2 0x3F8 JUMP JUMPDEST CALLER PUSH1 0x0 SWAP1 DUP2 MSTORE PUSH1 0x4 PUSH1 0x20 MSTORE PUSH1 0x40 DUP2 KECCAK256 DUP1 SLOAD DUP5 SWAP3 SWAP1 PUSH2 0xD27 SWAP1 DUP5 SWAP1 PUSH2 0xE4D JUMP JUMPDEST SWAP1 SWAP2 SSTORE POP POP PUSH1 0x1 PUSH1 0x1 PUSH1 0xA0 SHL SUB DUP4 AND PUSH1 0x0 SWAP1 DUP2 MSTORE PUSH1 0x4 PUSH1 0x20 MSTORE PUSH1 0x40 DUP2 KECCAK256 DUP1 SLOAD DUP5 SWAP3 SWAP1 PUSH2 0xD54 SWAP1 DUP5 SWAP1 PUSH2 0xE60 JUMP JUMPDEST SWAP1 SWAP2 SSTORE POP PUSH1 0x1 SWAP5 SWAP4 POP POP POP POP JUMP JUMPDEST PUSH1 0x0 PUSH1 0x20 DUP3 DUP5 SUB SLT ISZERO PUSH2 0xD74 JUMPI PUSH1 0x0 DUP1 REVERT JUMPDEST POP CALLDATALOAD SWAP2 SWAP1 POP JUMP JUMPDEST PUSH1 0x0 DUP1 PUSH1 0x40 DUP4 DUP6 SUB SLT ISZERO PUSH2 0xD8E JUMPI PUSH1 0x0 DUP1 REVERT JUMPDEST POP POP DUP1 CALLDATALOAD SWAP3 PUSH1 0x20 SWAP1 SWAP2 ADD CALLDATALOAD SWAP2 POP JUMP JUMPDEST DUP1 CALLDATALOAD PUSH1 0x1 PUSH1 0x1 PUSH1 0xA0 SHL SUB DUP2 AND DUP2 EQ PUSH2 0xDB4 JUMPI PUSH1 0x0 DUP1 REVERT JUMPDEST SWAP2 SWAP1 POP JUMP JUMPDEST PUSH1 0x0 PUSH1 0x20 DUP3 DUP5 SUB SLT ISZERO PUSH2 0xDCB JUMPI PUSH1 0x0 DUP1 REVERT JUMPDEST PUSH2 0x3AD DUP3 PUSH2 0xD9D JUMP JUMPDEST PUSH1 0x0 DUP1 PUSH1 0x40 DUP4 DUP6 SUB SLT ISZERO PUSH2 0xDE7 JUMPI PUSH1 0x0 DUP1 REVERT JUMPDEST PUSH2 0xDF0 DUP4 PUSH2 0xD9D JUMP JUMPDEST SWAP5 PUSH1 0x20 SWAP4 SWAP1 SWAP4 ADD CALLDATALOAD SWAP4 POP POP POP JUMP JUMPDEST PUSH4 0x4E487B71 PUSH1 0xE0 SHL PUSH1 0x0 MSTORE PUSH1 0x11 PUSH1 0x4 MSTORE PUSH1 0x24 PUSH1 0x0 REVERT JUMPDEST DUP1 DUP3 MUL DUP2 ISZERO DUP3 DUP3 DIV DUP5 EQ OR PUSH2 0x621 JUMPI PUSH2 0x621 PUSH2 0xDFE JUMP JUMPDEST PUSH1 0x0 DUP3 PUSH2 0xE48 JUMPI PUSH4 0x4E487B71 PUSH1 0xE0 SHL PUSH1 0x0 MSTORE PUSH1 0x12 PUSH1 0x4 MSTORE PUSH1 0x24 PUSH1 0x0 REVERT JUMPDEST POP DIV SWAP1 JUMP JUMPDEST DUP2 DUP2 SUB DUP2 DUP2 GT ISZERO PUSH2 0x621 JUMPI PUSH2 0x621 PUSH2 0xDFE JUMP JUMPDEST DUP1 DUP3 ADD DUP1 DUP3 GT ISZERO PUSH2 0x621 JUMPI PUSH2 0x621 PUSH2 0xDFE JUMP JUMPDEST PUSH1 0x0 PUSH1 0x20 DUP3 DUP5 SUB SLT ISZERO PUSH2 0xE85 JUMPI PUSH1 0x0 DUP1 REVERT JUMPDEST DUP2 MLOAD DUP1 ISZERO ISZERO DUP2 EQ PUSH2 0x3AD JUMPI PUSH1 0x0 DUP1 REVERT JUMPDEST PUSH1 0x20 DUP1 DUP3 MSTORE PUSH1 0x16 SWAP1 DUP3 ADD MSTORE PUSH22 0x496E73756666696369656E74206C6971756964697479 PUSH1 0x50 SHL PUSH1 0x40 DUP3 ADD MSTORE PUSH1 0x60 ADD SWAP1 JUMP INVALID LOG2 PUSH5 0x6970667358 0x22 SLT KECCAK256 0xD6 SUB RETURNDATACOPY 0xB4 PUSH20 0xDEC0DA27F4719D489CA849D95DBDA88701882502 EXTCODEHASH SLT 0xA6 SLOAD 0x4A RETURNDATACOPY 0xA5 PUSH5 0x736F6C6343 STOP ADDMOD EQ STOP CALLER "},"methodIdentifiers":{"FEE_DENOMINATOR()":"d73792a9","FEE_PERCENT()":"eaf98d23","addLiquidity(uint256)":"51c6590a","balanceOf(address)":"70a08231","feeRecipient()":"46904840","getETHOut(uint256)":"80cb1a6e","getPrice()":"98d5fdca","getTokenOut(uint256)":"15d6dae9","liquidity(address)":"b8c876b1","removeLiquidity(uint256)":"9c8f9f23","reserveETH()":"100af203","reserveToken()":"f4325d67","swapETHForToken(uint256)":"1b3d2cb3","swapTokenForETH(uint256,uint256)":"1618e130","token()":"fc0c546a","totalLiquidity()":"15770f92","transfer(address,uint256)":"a9059cbb"}}}}}