{"src/contracts/JammFactory.sol":{"JammAMM":{"abi":[{"inputs":[{"internalType":"address","name":"_token","type":"address"}],"stateMutability":"nonpayable","type":"constructor"},{"inputs":[],"name":"InsufficientLiquidity","type":"error"},{"inputs":[],"name":"InvalidLiquidityAmount","type":"error"},{"inputs":[],"name":"ReentrancyDetected","type":"error"},{"inputs":[],"name":"SlippageExceeded","type":"error"},{"inputs":[],"name":"TransferFailed","type":"error"},{"inputs":[],"name":"ZeroAddress","type":"error"},{"inputs":[],"name":"ZeroAmount","type":"error"},{"anonymous":false,"inputs":[{"indexed":true,"internalType":"address","name":"provider","type":"address"},{"indexed":false,"internalType":"uint256","name":"ethAmount","type":"uint256"},{"indexed":false,"internalType":"uint256","name":"tokenAmount","type":"uint256"},{"indexed":false,"internalType":"uint256","name":"liquidityMinted","type":"uint256"}],"name":"LiquidityAdded","type":"event"},{"anonymous":false,"inputs":[{"indexed":true,"internalType":"address","name":"provider","type":"address"},{"indexed":false,"internalType":"uint256","name":"ethAmount","type":"uint256"},{"indexed":false,"internalType":"uint256","name":"tokenAmount","type":"uint256"},{"indexed":false,"internalType":"uint256","name":"liquidityBurned","type":"uint256"}],"name":"LiquidityRemoved","type":"event"},{"anonymous":false,"inputs":[{"indexed":true,"internalType":"address","name":"user","type":"address"},{"indexed":false,"internalType":"uint256","name":"ethIn","type":"uint256"},{"indexed":false,"internalType":"uint256","name":"tokenIn","type":"uint256"},{"indexed":false,"internalType":"uint256","name":"ethOut","type":"uint256"},{"indexed":false,"internalType":"uint256","name":"tokenOut","type":"uint256"}],"name":"Swap","type":"event"},{"inputs":[],"name":"FEE_DENOMINATOR","outputs":[{"internalType":"uint256","name":"","type":"uint256"}],"stateMutability":"view","type":"function"},{"inputs":[],"name":"FEE_PERCENT","outputs":[{"internalType":"uint256","name":"","type":"uint256"}],"stateMutability":"view","type":"function"},{"inputs":[],"name":"MINIMUM_LIQUIDITY","outputs":[{"internalType":"uint256","name":"","type":"uint256"}],"stateMutability":"view","type":"function"},{"inputs":[{"internalType":"uint256","name":"tokenAmount","type":"uint256"}],"name":"addLiquidity","outputs":[{"internalType":"uint256","name":"liquidityMinted","type":"uint256"}],"stateMutability":"payable","type":"function"},{"inputs":[{"internalType":"address","name":"account","type":"address"}],"name":"balanceOf","outputs":[{"internalType":"uint256","name":"","type":"uint256"}],"stateMutability":"view","type":"function"},{"inputs":[],"name":"feeRecipient","outputs":[{"internalType":"address","name":"","type":"address"}],"stateMutability":"view","type":"function"},{"inputs":[{"internalType":"uint256","name":"tokenIn","type":"uint256"}],"name":"getETHOut","outputs":[{"internalType":"uint256","name":"","type":"uint256"}],"stateMutability":"view","type":"function"},{"inputs":[],"name":"getPrice","outputs":[{"internalType":"uint256","name":"","type":"uint256"}],"stateMutability":"view","type":"function"},{"inputs":[{"internalType":"uint256","name":"ethIn","type":"uint256"}],"name":"getTokenOut","outputs":[{"internalType":"uint256","name":"","type":"uint256"}],"stateMutability":"view","type":"function"},{"inputs":[{"internalType":"address","name":"","type":"address"}],"name":"liquidity","outputs":[{"internalType":"uint256","name":"","type":"uint256"}],"stateMutability":"view","type":"function"},{"inputs":[{"internalType":"uint256","name":"liquidityAmount","type":"uint256"}],"name":"removeLiquidity","outputs":[{"internalType":"uint256","name":"ethAmount","type":"uint256"},{"internalType":"uint256","name":"tokenAmount","type":"uint256"}],"stateMutability":"nonpayable","type":"function"},{"inputs":[],"name":"reserveETH","outputs":[{"internalType":"uint256","name":"","type":"uint256"}],"stateMutability":"view","type":"function"},{"inputs":[],"name":"reserveToken","outputs":[{"internalType":"uint256","name":"","type":"uint256"}],"stateMutability":"view","type":"function"},{"inputs":[{"internalType":"uint256","name":"minTokenOut","type":"uint256"}],"name":"swapETHForToken","outputs":[{"internalType":"uint256","name":"tokenOut","type":"uint256"}],"stateMutability":"payable","type":"function"},{"inputs":[{"internalType":"uint256","name":"tokenIn","type":"uint256"},{"internalType":"uint256","name":"minETHOut","type":"uint256"}],"name":"swapTokenForETH","outputs":[{"internalType":"uint256","name":"ethOut","type":"uint256"}],"stateMutability":"nonpayable","type":"function"},{"inputs":[],"name":"token","outputs":[{"internalType":"address","name":"","type":"address"}],"stateMutability":"view","type":"function"},{"inputs":[],"name":"totalLiquidity","outputs":[{"internalType":"uint256","name":"","type":"uint256"}],"stateMutability":"view","type":"function"},{"inputs":[{"internalType":"address","name":"to","type":"address"},{"internalType":"uint256","name":"value","type":"uint256"}],"name":"transfer","outputs":[{"internalType":"bool","name":"","type":"bool"}],"stateMutability":"nonpayable","type":"function"}],"evm":{"bytecode":{"linkReferences":{},"object":"6080604052600160055534801561001557600080fd5b5060405161124638038061124683398101604081905261003491610080565b6001600160a01b03811661005b5760405163d92e233d60e01b815260040160405180910390fd5b600080546001600160a01b0319166001600160a01b03929092169190911790556100b0565b60006020828403121561009257600080fd5b81516001600160a01b03811681146100a957600080fd5b9392505050565b611187806100bf6000396000f3fe6080604052600436106101095760003560e01c806398d5fdca11610095578063ba9a7a5611610064578063ba9a7a56146102f0578063d73792a9146102f0578063eaf98d2314610306578063f4325d671461031b578063fc0c546a1461033157600080fd5b806398d5fdca146102495780639c8f9f231461025e578063a9059cbb14610293578063b8c876b1146102c357600080fd5b80631b3d2cb3116100dc5780631b3d2cb31461018d57806346904840146101a057806351c6590a146101e057806370a08231146101f357806380cb1a6e1461022957600080fd5b8063100af2031461010e57806315770f921461013757806315d6dae91461014d5780631618e1301461016d575b600080fd5b34801561011a57600080fd5b5061012460025481565b6040519081526020015b60405180910390f35b34801561014357600080fd5b5061012460035481565b34801561015957600080fd5b5061012461016836600461101e565b610351565b34801561017957600080fd5b50610124610188366004611037565b6103bf565b61012461019b36600461101e565b6106d4565b3480156101ac57600080fd5b506101c873227d5f29bab4cec30f511169886b86faef61c6bc81565b6040516001600160a01b03909116815260200161012e565b6101246101ee36600461101e565b610977565b3480156101ff57600080fd5b5061012461020e366004611075565b6001600160a01b031660009081526004602052604090205490565b34801561023557600080fd5b5061012461024436600461101e565b610c0c565b34801561025557600080fd5b50610124610c73565b34801561026a57600080fd5b5061027e61027936600461101e565b610cac565b6040805192835260208301919091520161012e565b34801561029f57600080fd5b506102b36102ae366004611090565b610f68565b604051901515815260200161012e565b3480156102cf57600080fd5b506101246102de366004611075565b60046020526000908152604090205481565b3480156102fc57600080fd5b506101246103e881565b34801561031257600080fd5b50610124600481565b34801561032757600080fd5b5061012460015481565b34801561033d57600080fd5b506000546101c8906001600160a01b031681565b60008115806103605750600254155b1561036d57506000919050565b60006103e861037d6004856110d0565b61038791906110e7565b6103919084611109565b9050806002546103a1919061111c565b6001546103ae90836110d0565b6103b891906110e7565b9392505050565b60006005546001146103e45760405163c5f2be5160e01b815260040160405180910390fd5b6002600555600083900361040b57604051631f2a200560e01b815260040160405180910390fd5b600154158061041a5750600254155b156104385760405163bb55fd2760e01b815260040160405180910390fd5b600083600154610448919061111c565b60025461045590866110d0565b61045f91906110e7565b905060006103e86104716004846110d0565b61047b91906110e7565b90506104878183611109565b9250838310156104aa57604051638199f5f360e01b815260040160405180910390fd5b6002548311156104cd5760405163bb55fd2760e01b815260040160405180910390fd5b84600160008282546104df919061111c565b9250508190555081600260008282546104f89190611109565b90915550506000546040516323b872dd60e01b8152336004820152306024820152604481018790526001600160a01b03909116906323b872dd906064016020604051808303816000875af1158015610554573d6000803e3d6000fd5b505050506040513d601f19601f82011682018060405250810190610578919061112f565b610595576040516312171d8360e31b815260040160405180910390fd5b60405160009073227d5f29bab4cec30f511169886b86faef61c6bc9083908381818185875af1925050503d80600081146105eb576040519150601f19603f3d011682016040523d82523d6000602084013e6105f0565b606091505b5050905080610612576040516312171d8360e31b815260040160405180910390fd5b604051600090339086908381818185875af1925050503d8060008114610654576040519150601f19603f3d011682016040523d82523d6000602084013e610659565b606091505b505090508061067b576040516312171d8360e31b815260040160405180910390fd5b604080516000808252602082018a90528183018890526060820152905133917f49926bbebe8474393f434dfa4f78694c0923efa07d19f2284518bfabd06eb737919081900360800190a250505050600160055592915050565b60006005546001146106f95760405163c5f2be5160e01b815260040160405180910390fd5b60026005553460000361071f57604051631f2a200560e01b815260040160405180910390fd5b600154158061072e5750600254155b1561074c5760405163bb55fd2760e01b815260040160405180910390fd5b60006103e861075c6004346110d0565b61076691906110e7565b905060006107748234611109565b905080600254610784919061111c565b60015461079190836110d0565b61079b91906110e7565b9250838310156107be57604051638199f5f360e01b815260040160405180910390fd5b6001548311156107e15760405163bb55fd2760e01b815260040160405180910390fd5b80600260008282546107f3919061111c565b92505081905550826001600082825461080c9190611109565b909155505060405160009073227d5f29bab4cec30f511169886b86faef61c6bc9084908381818185875af1925050503d8060008114610867576040519150601f19603f3d011682016040523d82523d6000602084013e61086c565b606091505b505090508061088e576040516312171d8360e31b815260040160405180910390fd5b60005460405163a9059cbb60e01b8152336004820152602481018690526001600160a01b039091169063a9059cbb906044016020604051808303816000875af11580156108df573d6000803e3d6000fd5b505050506040513d601f19601f82011682018060405250810190610903919061112f565b610920576040516312171d8360e31b815260040160405180910390fd5b604080513481526000602082018190528183015260608101869052905133917f49926bbebe8474393f434dfa4f78694c0923efa07d19f2284518bfabd06eb737919081900360800190a25050506001600555919050565b600060055460011461099c5760405163c5f2be5160e01b815260040160405180910390fd5b60026005553415806109ac575081155b156109ca57604051631f2a200560e01b815260040160405180910390fd5b600354600003610a475750346103e881116109f857604051631f2c4df760e11b815260040160405180910390fd5b3460025560018290556000805260046020526103e87f17ef568e3e12ab5b9c7254a8d58478811de00f9e6eb34345acd53bf8fd09d3ec8190556003819055610a409082611109565b9050610aea565b600060025460035434610a5a91906110d0565b610a6491906110e7565b9050600060015460035485610a7991906110d0565b610a8391906110e7565b9050808210610a925780610a94565b815b925082600003610ab757604051631f2c4df760e11b815260040160405180910390fd5b3460026000828254610ac9919061111c565b925050819055508360016000828254610ae2919061111c565b909155505050505b6000546040516323b872dd60e01b8152336004820152306024820152604481018490526001600160a01b03909116906323b872dd906064016020604051808303816000875af1158015610b41573d6000803e3d6000fd5b505050506040513d601f19601f82011682018060405250810190610b65919061112f565b610b82576040516312171d8360e31b815260040160405180910390fd5b3360009081526004602052604081208054839290610ba190849061111c565b925050819055508060036000828254610bba919061111c565b9091555050604080513481526020810184905290810182905233907f64b83944e79c3ce8d4c297411de637c3e102d064677aac0c163976ebdcd6f50e9060600160405180910390a26001600555919050565b6000811580610c1b5750600154155b15610c2857506000919050565b600082600154610c38919061111c565b600254610c4590856110d0565b610c4f91906110e7565b90506103e8610c5f6004836110d0565b610c6991906110e7565b6103b89082611109565b6000600154600003610c855750600090565b600154600254610c9d90670de0b6b3a76400006110d0565b610ca791906110e7565b905090565b600080600554600114610cd25760405163c5f2be5160e01b815260040160405180910390fd5b60026005556000839003610cf957604051631f2a200560e01b815260040160405180910390fd5b33600090815260046020526040902054831115610d295760405163bb55fd2760e01b815260040160405180910390fd5b600354600003610d4c5760405163bb55fd2760e01b815260040160405180910390fd5b600354600254610d5c90856110d0565b610d6691906110e7565b915060035460015484610d7991906110d0565b610d8391906110e7565b9050811580610d90575080155b15610dae57604051631f2c4df760e11b815260040160405180910390fd5b3360009081526004602052604081208054859290610dcd908490611109565b925050819055508260036000828254610de69190611109565b925050819055508160026000828254610dff9190611109565b925050819055508060016000828254610e189190611109565b909155505060005460405163a9059cbb60e01b8152336004820152602481018390526001600160a01b039091169063a9059cbb906044016020604051808303816000875af1158015610e6e573d6000803e3d6000fd5b505050506040513d601f19601f82011682018060405250810190610e92919061112f565b610eaf576040516312171d8360e31b815260040160405180910390fd5b604051600090339084908381818185875af1925050503d8060008114610ef1576040519150601f19603f3d011682016040523d82523d6000602084013e610ef6565b606091505b5050905080610f18576040516312171d8360e31b815260040160405180910390fd5b604080518481526020810184905290810185905233907f1dc8bb69df2b8e91fbdcbfcf93d951b3f0000f085a95fe3f7946d6161439245d9060600160405180910390a25060016005559092909150565b33600090815260046020526040812054821115610fc25760405162461bcd60e51b8152602060048201526014602482015273496e73756666696369656e742062616c616e636560601b604482015260640160405180910390fd5b3360009081526004602052604081208054849290610fe1908490611109565b90915550506001600160a01b0383166000908152600460205260408120805484929061100e90849061111c565b9091555060019150505b92915050565b60006020828403121561103057600080fd5b5035919050565b6000806040838503121561104a57600080fd5b50508035926020909101359150565b80356001600160a01b038116811461107057600080fd5b919050565b60006020828403121561108757600080fd5b6103b882611059565b600080604083850312156110a357600080fd5b6110ac83611059565b946020939093013593505050565b634e487b7160e01b600052601160045260246000fd5b8082028115828204841417611018576110186110ba565b60008261110457634e487b7160e01b600052601260045260246000fd5b500490565b81810381811115611018576110186110ba565b80820180821115611018576110186110ba565b60006020828403121561114157600080fd5b815180151581146103b857600080fdfea2646970667358221220a1609d7ab56e791c3471f656da8a5c590084c41445a62f0df15172c6854a131464736f6c63430008140033","opcodes":"PUSH1 0x80 PUSH1 0x40 MSTORE PUSH1 0x1 PUSH1 0x5 SSTORE CALLVALUE DUP1 ISZERO PUSH2 0x15 JUMPI PUSH1 0x0 DUP1 REVERT JUMPDEST POP PUSH1 0x40 MLOAD PUSH2 0x1246 CODESIZE SUB DUP1 PUSH2 0x1246 DUP4 CODECOPY DUP2 ADD PUSH1 0x40 DUP2 SWAP1 MSTORE PUSH2 0x34 SWAP2 PUSH2 0x80 JUMP JUMPDEST PUSH1 0x1 PUSH1 0x1 PUSH1 0xA0 SHL SUB DUP2 AND PUSH2 0x5B JUMPI PUSH1 0x40 MLOAD PUSH4 0xD92E233D PUSH1 0xE0 SHL DUP2 MSTORE PUSH1 0x4 ADD PUSH1 0x40 MLOAD DUP1 SWAP2 SUB SWAP1 REVERT JUMPDEST PUSH1 0x0 DUP1 SLOAD PUSH1 0x1 PUSH1 0x1 PUSH1 0xA0 SHL SUB NOT AND PUSH1 0x1 PUSH1 0x1 PUSH1 0xA0 SHL SUB SWAP3 SWAP1 SWAP3 AND SWAP2 SWAP1 SWAP2 OR SWAP1 SSTORE PUSH2 0xB0 JUMP JUMPDEST PUSH1 0x0 PUSH1 0x20 DUP3 DUP5 SUB SLT ISZERO PUSH2 0x92 JUMPI PUSH1 0x0 DUP1 REVERT JUMPDEST DUP2 MLOAD PUSH1 0x1 PUSH1 0x1 PUSH1 0xA0 SHL SUB DUP2 AND DUP2 EQ PUSH2 0xA9 JUMPI PUSH1 0x0 DUP1 REVERT JUMPDEST SWAP4 SWAP3 POP POP POP JUMP JUMPDEST PUSH2 0x1187 DUP1 PUSH2 0xBF PUSH1 0x0 CODECOPY PUSH1 0x0 RETURN INVALID PUSH1 0x80 PUSH1 0x40 MSTORE PUSH1 0x4 CALLDATASIZE LT PUSH2 0x109 JUMPI PUSH1 0x0 CALLDATALOAD PUSH1 0xE0 SHR DUP1 PUSH4 0x98D5FDCA GT PUSH2 0x95 JUMPI DUP1 PUSH4 0xBA9A7A56 GT PUSH2 0x64 JUMPI DUP1 PUSH4 0xBA9A7A56 EQ PUSH2 0x2F0 JUMPI DUP1 PUSH4 0xD73792A9 EQ PUSH2 0x2F0 JUMPI DUP1 PUSH4 0xEAF98D23 EQ PUSH2 0x306 JUMPI DUP1 PUSH4 0xF4325D67 EQ PUSH2 0x31B JUMPI DUP1 PUSH4 0xFC0C546A EQ PUSH2 0x331 JUMPI PUSH1 0x0 DUP1 REVERT JUMPDEST DUP1 PUSH4 0x98D5FDCA EQ PUSH2 0x249 JUMPI DUP1 PUSH4 0x9C8F9F23 EQ PUSH2 0x25E JUMPI DUP1 PUSH4 0xA9059CBB EQ PUSH2 0x293 JUMPI DUP1 PUSH4 0xB8C876B1 EQ PUSH2 0x2C3 JUMPI PUSH1 0x0 DUP1 REVERT JUMPDEST DUP1 PUSH4 0x1B3D2CB3 GT PUSH2 0xDC JUMPI DUP1 PUSH4 0x1B3D2CB3 EQ PUSH2 0x18D JUMPI DUP1 PUSH4 0x46904840 EQ PUSH2 0x1A0 JUMPI DUP1 PUSH4 0x51C6590A EQ PUSH2 0x1E0 JUMPI DUP1 PUSH4 0x70A08231 EQ PUSH2 0x1F3 JUMPI DUP1 PUSH4 0x80CB1A6E EQ PUSH2 0x229 JUMPI PUSH1 0x0 DUP1 REVERT JUMPDEST DUP1 PUSH4 0x100AF203 EQ PUSH2 0x10E JUMPI DUP1 PUSH4 0x15770F92 EQ PUSH2 0x137 JUMPI DUP1 PUSH4 0x15D6DAE9 EQ PUSH2 0x14D JUMPI DUP1 PUSH4 0x1618E130 EQ PUSH2 0x16D JUMPI JUMPDEST PUSH1 0x0 DUP1 REVERT JUMPDEST CALLVALUE DUP1 ISZERO PUSH2 0x11A JUMPI PUSH1 0x0 DUP1 REVERT JUMPDEST POP PUSH2 0x124 PUSH1 0x2 SLOAD DUP2 JUMP JUMPDEST PUSH1 0x40 MLOAD SWAP1 DUP2 MSTORE PUSH1 0x20 ADD JUMPDEST PUSH1 0x40 MLOAD DUP1 SWAP2 SUB SWAP1 RETURN JUMPDEST CALLVALUE DUP1 ISZERO PUSH2 0x143 JUMPI PUSH1 0x0 DUP1 REVERT JUMPDEST POP PUSH2 0x124 PUSH1 0x3 SLOAD DUP2 JUMP JUMPDEST CALLVALUE DUP1 ISZERO PUSH2 0x159 JUMPI PUSH1 0x0 DUP1 REVERT JUMPDEST POP PUSH2 0x124 PUSH2 0x168 CALLDATASIZE PUSH1 0x4 PUSH2 0x101E JUMP JUMPDEST PUSH2 0x351 JUMP JUMPDEST CALLVALUE DUP1 ISZERO PUSH2 0x179 JUMPI PUSH1 0x0 DUP1 REVERT JUMPDEST POP PUSH2 0x124 PUSH2 0x188 CALLDATASIZE PUSH1 0x4 PUSH2 0x1037 JUMP JUMPDEST PUSH2 0x3BF JUMP JUMPDEST PUSH2 0x124 PUSH2 0x19B CALLDATASIZE PUSH1 0x4 PUSH2 0x101E JUMP JUMPDEST PUSH2 0x6D4 JUMP JUMPDEST CALLVALUE DUP1 ISZERO PUSH2 0x1AC JUMPI PUSH1 0x0 DUP1 REVERT JUMPDEST POP PUSH2 0x1C8 PUSH20 0x227D5F29BAB4CEC30F511169886B86FAEF61C6BC DUP2 JUMP JUMPDEST PUSH1 0x40 MLOAD PUSH1 0x1 PUSH1 0x1 PUSH1 0xA0 SHL SUB SWAP1 SWAP2 AND DUP2 MSTORE PUSH1 0x20 ADD PUSH2 0x12E JUMP JUMPDEST PUSH2 0x124 PUSH2 0x1EE CALLDATASIZE PUSH1 0x4 PUSH2 0x101E JUMP JUMPDEST PUSH2 0x977 JUMP JUMPDEST CALLVALUE DUP1 ISZERO PUSH2 0x1FF JUMPI PUSH1 0x0 DUP1 REVERT JUMPDEST POP PUSH2 0x124 PUSH2 0x20E CALLDATASIZE PUSH1 0x4 PUSH2 0x1075 JUMP JUMPDEST PUSH1 0x1 PUSH1 0x1 PUSH1 0xA0 SHL SUB AND PUSH1 0x0 SWAP1 DUP2 MSTORE PUSH1 0x4 PUSH1 0x20 MSTORE PUSH1 0x40 SWAP1 KECCAK256 SLOAD SWAP1 JUMP JUMPDEST CALLVALUE DUP1 ISZERO PUSH2 0x235 JUMPI PUSH1 0x0 DUP1 REVERT JUMPDEST POP PUSH2 0x124 PUSH2 0x244 CALLDATASIZE PUSH1 0x4 PUSH2 0x101E JUMP JUMPDEST PUSH2 0xC0C JUMP JUMPDEST CALLVALUE DUP1 ISZERO PUSH2 0x255 JUMPI PUSH1 0x0 DUP1 REVERT JUMPDEST POP PUSH2 0x124 PUSH2 0xC73 JUMP JUMPDEST CALLVALUE DUP1 ISZERO PUSH2 0x26A JUMPI PUSH1 0x0 DUP1 REVERT JUMPDEST POP PUSH2 0x27E PUSH2 0x279 CALLDATASIZE PUSH1 0x4 PUSH2 0x101E JUMP JUMPDEST PUSH2 0xCAC JUMP JUMPDEST PUSH1 0x40 DUP1 MLOAD SWAP3 DUP4 MSTORE PUSH1 0x20 DUP4 ADD SWAP2 SWAP1 SWAP2 MSTORE ADD PUSH2 0x12E JUMP JUMPDEST CALLVALUE DUP1 ISZERO PUSH2 0x29F JUMPI PUSH1 0x0 DUP1 REVERT JUMPDEST POP PUSH2 0x2B3 PUSH2 0x2AE CALLDATASIZE PUSH1 0x4 PUSH2 0x1090 JUMP JUMPDEST PUSH2 0xF68 JUMP JUMPDEST PUSH1 0x40 MLOAD SWAP1 ISZERO ISZERO DUP2 MSTORE PUSH1 0x20 ADD PUSH2 0x12E JUMP JUMPDEST CALLVALUE DUP1 ISZERO PUSH2 0x2CF JUMPI PUSH1 0x0 DUP1 REVERT JUMPDEST POP PUSH2 0x124 PUSH2 0x2DE CALLDATASIZE PUSH1 0x4 PUSH2 0x1075 JUMP JUMPDEST PUSH1 0x4 PUSH1 0x20 MSTORE PUSH1 0x0 SWAP1 DUP2 MSTORE PUSH1 0x40 SWAP1 KECCAK256 SLOAD DUP2 JUMP JUMPDEST CALLVALUE DUP1 ISZERO PUSH2 0x2FC JUMPI PUSH1 0x0 DUP1 REVERT JUMPDEST POP PUSH2 0x124 PUSH2 0x3E8 DUP2 JUMP JUMPDEST CALLVALUE DUP1 ISZERO PUSH2 0x312 JUMPI PUSH1 0x0 DUP1 REVERT JUMPDEST POP PUSH2 0x124 PUSH1 0x4 DUP2 JUMP JUMPDEST CALLVALUE DUP1 ISZERO PUSH2 0x327 JUMPI PUSH1 0x0 DUP1 REVERT JUMPDEST POP PUSH2 0x124 PUSH1 0x1 SLOAD DUP2 JUMP JUMPDEST CALLVALUE DUP1 ISZERO PUSH2 0x33D JUMPI PUSH1 0x0 DUP1 REVERT JUMPDEST POP PUSH1 0x0 SLOAD PUSH2 0x1C8 SWAP1 PUSH1 0x1 PUSH1 0x1 PUSH1 0xA0 SHL SUB AND DUP2 JUMP JUMPDEST PUSH1 0x0 DUP2 ISZERO DUP1 PUSH2 0x360 JUMPI POP PUSH1 0x2 SLOAD ISZERO JUMPDEST ISZERO PUSH2 0x36D JUMPI POP PUSH1 0x0 SWAP2 SWAP1 POP JUMP JUMPDEST PUSH1 0x0 PUSH2 0x3E8 PUSH2 0x37D PUSH1 0x4 DUP6 PUSH2 0x10D0 JUMP JUMPDEST PUSH2 0x387 SWAP2 SWAP1 PUSH2 0x10E7 JUMP JUMPDEST PUSH2 0x391 SWAP1 DUP5 PUSH2 0x1109 JUMP JUMPDEST SWAP1 POP DUP1 PUSH1 0x2 SLOAD PUSH2 0x3A1 SWAP2 SWAP1 PUSH2 0x111C JUMP JUMPDEST PUSH1 0x1 SLOAD PUSH2 0x3AE SWAP1 DUP4 PUSH2 0x10D0 JUMP JUMPDEST PUSH2 0x3B8 SWAP2 SWAP1 PUSH2 0x10E7 JUMP JUMPDEST SWAP4 SWAP3 POP POP POP JUMP JUMPDEST PUSH1 0x0 PUSH1 0x5 SLOAD PUSH1 0x1 EQ PUSH2 0x3E4 JUMPI PUSH1 0x40 MLOAD PUSH4 0xC5F2BE51 PUSH1 0xE0 SHL DUP2 MSTORE PUSH1 0x4 ADD PUSH1 0x40 MLOAD DUP1 SWAP2 SUB SWAP1 REVERT JUMPDEST PUSH1 0x2 PUSH1 0x5 SSTORE PUSH1 0x0 DUP4 SWAP1 SUB PUSH2 0x40B JUMPI PUSH1 0x40 MLOAD PUSH4 0x1F2A2005 PUSH1 0xE0 SHL DUP2 MSTORE PUSH1 0x4 ADD PUSH1 0x40 MLOAD DUP1 SWAP2 SUB SWAP1 REVERT JUMPDEST PUSH1 0x1 SLOAD ISZERO DUP1 PUSH2 0x41A JUMPI POP PUSH1 0x2 SLOAD ISZERO JUMPDEST ISZERO PUSH2 0x438 JUMPI PUSH1 0x40 MLOAD PUSH4 0xBB55FD27 PUSH1 0xE0 SHL DUP2 MSTORE PUSH1 0x4 ADD PUSH1 0x40 MLOAD DUP1 SWAP2 SUB SWAP1 REVERT JUMPDEST PUSH1 0x0 DUP4 PUSH1 0x1 SLOAD PUSH2 0x448 SWAP2 SWAP1 PUSH2 0x111C JUMP JUMPDEST PUSH1 0x2 SLOAD PUSH2 0x455 SWAP1 DUP7 PUSH2 0x10D0 JUMP JUMPDEST PUSH2 0x45F SWAP2 SWAP1 PUSH2 0x10E7 JUMP JUMPDEST SWAP1 POP PUSH1 0x0 PUSH2 0x3E8 PUSH2 0x471 PUSH1 0x4 DUP5 PUSH2 0x10D0 JUMP JUMPDEST PUSH2 0x47B SWAP2 SWAP1 PUSH2 0x10E7 JUMP JUMPDEST SWAP1 POP PUSH2 0x487 DUP2 DUP4 PUSH2 0x1109 JUMP JUMPDEST SWAP3 POP DUP4 DUP4 LT ISZERO PUSH2 0x4AA JUMPI PUSH1 0x40 MLOAD PUSH4 0x8199F5F3 PUSH1 0xE0 SHL DUP2 MSTORE PUSH1 0x4 ADD PUSH1 0x40 MLOAD DUP1 SWAP2 SUB SWAP1 REVERT JUMPDEST PUSH1 0x2 SLOAD DUP4 GT ISZERO PUSH2 0x4CD JUMPI PUSH1 0x40 MLOAD PUSH4 0xBB55FD27 PUSH1 0xE0 SHL DUP2 MSTORE PUSH1 0x4 ADD PUSH1 0x40 MLOAD DUP1 SWAP2 SUB SWAP1 REVERT JUMPDEST DUP5 PUSH1 0x1 PUSH1 0x0 DUP3 DUP3 SLOAD PUSH2 0x4DF SWAP2 SWAP1 PUSH2 0x111C JUMP JUMPDEST SWAP3 POP POP DUP2 SWAP1 SSTORE POP DUP2 PUSH1 0x2 PUSH1 0x0 DUP3 DUP3 SLOAD PUSH2 0x4F8 SWAP2 SWAP1 PUSH2 0x1109 JUMP JUMPDEST SWAP1 SWAP2 SSTORE POP POP PUSH1 0x0 SLOAD PUSH1 0x40 MLOAD PUSH4 0x23B872DD PUSH1 0xE0 SHL DUP2 MSTORE CALLER PUSH1 0x4 DUP3 ADD MSTORE ADDRESS PUSH1 0x24 DUP3 ADD MSTORE PUSH1 0x44 DUP2 ADD DUP8 SWAP1 MSTORE PUSH1 0x1 PUSH1 0x1 PUSH1 0xA0 SHL SUB SWAP1 SWAP2 AND SWAP1 PUSH4 0x23B872DD SWAP1 PUSH1 0x64 ADD PUSH1 0x20 PUSH1 0x40 MLOAD DUP1 DUP4 SUB DUP2 PUSH1 0x0 DUP8 GAS CALL ISZERO DUP1 ISZERO PUSH2 0x554 JUMPI RETURNDATASIZE PUSH1 0x0 DUP1 RETURNDATACOPY RETURNDATASIZE PUSH1 0x0 REVERT JUMPDEST POP POP POP POP PUSH1 0x40 MLOAD RETURNDATASIZE PUSH1 0x1F NOT PUSH1 0x1F DUP3 ADD AND DUP3 ADD DUP1 PUSH1 0x40 MSTORE POP DUP2 ADD SWAP1 PUSH2 0x578 SWAP2 SWAP1 PUSH2 0x112F JUMP JUMPDEST PUSH2 0x595 JUMPI PUSH1 0x40 MLOAD PUSH4 0x12171D83 PUSH1 0xE3 SHL DUP2 MSTORE PUSH1 0x4 ADD PUSH1 0x40 MLOAD DUP1 SWAP2 SUB SWAP1 REVERT JUMPDEST PUSH1 0x40 MLOAD PUSH1 0x0 SWAP1 PUSH20 0x227D5F29BAB4CEC30F511169886B86FAEF61C6BC SWAP1 DUP4 SWAP1 DUP4 DUP2 DUP2 DUP2 DUP6 DUP8 GAS CALL SWAP3 POP POP POP RETURNDATASIZE DUP1 PUSH1 0x0 DUP2 EQ PUSH2 0x5EB JUMPI PUSH1 0x40 MLOAD SWAP2 POP PUSH1 0x1F NOT PUSH1 0x3F RETURNDATASIZE ADD AND DUP3 ADD PUSH1 0x40 MSTORE RETURNDATASIZE DUP3 MSTORE RETURNDATASIZE PUSH1 0x0 PUSH1 0x20 DUP5 ADD RETURNDATACOPY PUSH2 0x5F0 JUMP JUMPDEST PUSH1 0x60 SWAP2 POP JUMPDEST POP POP SWAP1 POP DUP1 PUSH2 0x612 JUMPI PUSH1 0x40 MLOAD PUSH4 0x12171D83 PUSH1 0xE3 SHL DUP2 MSTORE PUSH1 0x4 ADD PUSH1 0x40 MLOAD DUP1 SWAP2 SUB SWAP1 REVERT JUMPDEST PUSH1 0x40 MLOAD PUSH1 0x0 SWAP1 CALLER SWAP1 DUP7 SWAP1 DUP4 DUP2 DUP2 DUP2 DUP6 DUP8 GAS CALL SWAP3 POP POP POP RETURNDATASIZE DUP1 PUSH1 0x0 DUP2 EQ PUSH2 0x654 JUMPI PUSH1 0x40 MLOAD SWAP2 POP PUSH1 0x1F NOT PUSH1 0x3F RETURNDATASIZE ADD AND DUP3 ADD PUSH1 0x40 MSTORE RETURNDATASIZE DUP3 MSTORE RETURNDATASIZE PUSH1 0x0 PUSH1 0x20 DUP5 ADD RETURNDATACOPY PUSH2 0x659 JUMP JUMPDEST PUSH1 0x60 SWAP2 POP JUMPDEST POP POP SWAP1 POP DUP1 PUSH2 0x67B JUMPI PUSH1 0x40 MLOAD PUSH4 0x12171D83 PUSH1 0xE3 SHL DUP2 MSTORE PUSH1 0x4 ADD PUSH1 0x40 MLOAD DUP1 SWAP2 SUB SWAP1 REVERT JUMPDEST PUSH1 0x40 DUP1 MLOAD PUSH1 0x0 DUP1 DUP3 MSTORE PUSH1 0x20 DUP3 ADD DUP11 SWAP1 MSTORE DUP2 DUP4 ADD DUP9 SWAP1 MSTORE PUSH1 0x60 DUP3 ADD MSTORE SWAP1 MLOAD CALLER SWAP2 PUSH32 0x49926BBEBE8474393F434DFA4F78694C0923EFA07D19F2284518BFABD06EB737 SWAP2 SWAP1 DUP2 SWAP1 SUB PUSH1 0x80 ADD SWAP1 LOG2 POP POP POP POP PUSH1 0x1 PUSH1 0x5 SSTORE SWAP3 SWAP2 POP POP JUMP JUMPDEST PUSH1 0x0 PUSH1 0x5 SLOAD PUSH1 0x1 EQ PUSH2 0x6F9 JUMPI PUSH1 0x40 MLOAD PUSH4 0xC5F2BE51 PUSH1 0xE0 SHL DUP2 MSTORE PUSH1 0x4 ADD PUSH1 0x40 MLOAD DUP1 SWAP2 SUB SWAP1 REVERT JUMPDEST PUSH1 0x2 PUSH1 0x5 SSTORE CALLVALUE PUSH1 0x0 SUB PUSH2 0x71F JUMPI PUSH1 0x40 MLOAD PUSH4 0x1F2A2005 PUSH1 0xE0 SHL DUP2 MSTORE PUSH1 0x4 ADD PUSH1 0x40 MLOAD DUP1 SWAP2 SUB SWAP1 REVERT JUMPDEST PUSH1 0x1 SLOAD ISZERO DUP1 PUSH2 0x72E JUMPI POP PUSH1 0x2 SLOAD ISZERO JUMPDEST ISZERO PUSH2 0x74C JUMPI PUSH1 0x40 MLOAD PUSH4 0xBB55FD27 PUSH1 0xE0 SHL DUP2 MSTORE PUSH1 0x4 ADD PUSH1 0x40 MLOAD DUP1 SWAP2 SUB SWAP1 REVERT JUMPDEST PUSH1 0x0 PUSH2 0x3E8 PUSH2 0x75C PUSH1 0x4 CALLVALUE PUSH2 0x10D0 JUMP JUMPDEST PUSH2 0x766 SWAP2 SWAP1 PUSH2 0x10E7 JUMP JUMPDEST SWAP1 POP PUSH1 0x0 PUSH2 0x774 DUP3 CALLVALUE PUSH2 0x1109 JUMP JUMPDEST SWAP1 POP DUP1 PUSH1 0x2 SLOAD PUSH2 0x784 SWAP2 SWAP1 PUSH2 0x111C JUMP JUMPDEST PUSH1 0x1 SLOAD PUSH2 0x791 SWAP1 DUP4 PUSH2 0x10D0 JUMP JUMPDEST PUSH2 0x79B SWAP2 SWAP1 PUSH2 0x10E7 JUMP JUMPDEST SWAP3 POP DUP4 DUP4 LT ISZERO PUSH2 0x7BE JUMPI PUSH1 0x40 MLOAD PUSH4 0x8199F5F3 PUSH1 0xE0 SHL DUP2 MSTORE PUSH1 0x4 ADD PUSH1 0x40 MLOAD DUP1 SWAP2 SUB SWAP1 REVERT JUMPDEST PUSH1 0x1 SLOAD DUP4 GT ISZERO PUSH2 0x7E1 JUMPI PUSH1 0x40 MLOAD PUSH4 0xBB55FD27 PUSH1 0xE0 SHL DUP2 MSTORE PUSH1 0x4 ADD PUSH1 0x40 MLOAD DUP1 SWAP2 SUB SWAP1 REVERT JUMPDEST DUP1 PUSH1 0x2 PUSH1 0x0 DUP3 DUP3 SLOAD PUSH2 0x7F3 SWAP2 SWAP1 PUSH2 0x111C JUMP JUMPDEST SWAP3 POP POP DUP2 SWAP1 SSTORE POP DUP3 PUSH1 0x1 PUSH1 0x0 DUP3 DUP3 SLOAD PUSH2 0x80C SWAP2 SWAP1 PUSH2 0x1109 JUMP JUMPDEST SWAP1 SWAP2 SSTORE POP POP PUSH1 0x40 MLOAD PUSH1 0x0 SWAP1 PUSH20 0x227D5F29BAB4CEC30F511169886B86FAEF61C6BC SWAP1 DUP5 SWAP1 DUP4 DUP2 DUP2 DUP2 DUP6 DUP8 GAS CALL SWAP3 POP POP POP RETURNDATASIZE DUP1 PUSH1 0x0 DUP2 EQ PUSH2 0x867 JUMPI PUSH1 0x40 MLOAD SWAP2 POP PUSH1 0x1F NOT PUSH1 0x3F RETURNDATASIZE ADD AND DUP3 ADD PUSH1 0x40 MSTORE RETURNDATASIZE DUP3 MSTORE RETURNDATASIZE PUSH1 0x0 PUSH1 0x20 DUP5 ADD RETURNDATACOPY PUSH2 0x86C JUMP JUMPDEST PUSH1 0x60 SWAP2 POP JUMPDEST POP POP SWAP1 POP DUP1 PUSH2 0x88E JUMPI PUSH1 0x40 MLOAD PUSH4 0x12171D83 PUSH1 0xE3 SHL DUP2 MSTORE PUSH1 0x4 ADD PUSH1 0x40 MLOAD DUP1 SWAP2 SUB SWAP1 REVERT JUMPDEST PUSH1 0x0 SLOAD PUSH1 0x40 MLOAD PUSH4 0xA9059CBB PUSH1 0xE0 SHL DUP2 MSTORE CALLER PUSH1 0x4 DUP3 ADD MSTORE PUSH1 0x24 DUP2 ADD DUP7 SWAP1 MSTORE PUSH1 0x1 PUSH1 0x1 PUSH1 0xA0 SHL SUB SWAP1 SWAP2 AND SWAP1 PUSH4 0xA9059CBB SWAP1 PUSH1 0x44 ADD PUSH1 0x20 PUSH1 0x40 MLOAD DUP1 DUP4 SUB DUP2 PUSH1 0x0 DUP8 GAS CALL ISZERO DUP1 ISZERO PUSH2 0x8DF JUMPI RETURNDATASIZE PUSH1 0x0 DUP1 RETURNDATACOPY RETURNDATASIZE PUSH1 0x0 REVERT JUMPDEST POP POP POP POP PUSH1 0x40 MLOAD RETURNDATASIZE PUSH1 0x1F NOT PUSH1 0x1F DUP3 ADD AND DUP3 ADD DUP1 PUSH1 0x40 MSTORE POP DUP2 ADD SWAP1 PUSH2 0x903 SWAP2 SWAP1 PUSH2 0x112F JUMP JUMPDEST PUSH2 0x920 JUMPI PUSH1 0x40 MLOAD PUSH4 0x12171D83 PUSH1 0xE3 SHL DUP2 MSTORE PUSH1 0x4 ADD PUSH1 0x40 MLOAD DUP1 SWAP2 SUB SWAP1 REVERT JUMPDEST PUSH1 0x40 DUP1 MLOAD CALLVALUE DUP2 MSTORE PUSH1 0x0 PUSH1 0x20 DUP3 ADD DUP2 SWAP1 MSTORE DUP2 DUP4 ADD MSTORE PUSH1 0x60 DUP2 ADD DUP7 SWAP1 MSTORE SWAP1 MLOAD CALLER SWAP2 PUSH32 0x49926BBEBE8474393F434DFA4F78694C0923EFA07D19F2284518BFABD06EB737 SWAP2 SWAP1 DUP2 SWAP1 SUB PUSH1 0x80 ADD SWAP1 LOG2 POP POP POP PUSH1 0x1 PUSH1 0x5 SSTORE SWAP2 SWAP1 POP JUMP JUMPDEST PUSH1 0x0 PUSH1 0x5 SLOAD PUSH1 0x1 EQ PUSH2 0x99C JUMPI PUSH1 0x40 MLOAD PUSH4 0xC5F2BE51 PUSH1 0xE0 SHL DUP2 MSTORE PUSH1 0x4 ADD PUSH1 0x40 MLOAD DUP1 SWAP2 SUB SWAP1 REVERT JUMPDEST PUSH1 0x2 PUSH1 0x5 SSTORE CALLVALUE ISZERO DUP1 PUSH2 0x9AC JUMPI POP DUP2 ISZERO JUMPDEST ISZERO PUSH2 0x9CA JUMPI PUSH1 0x40 MLOAD PUSH4 0x1F2A2005 PUSH1 0xE0 SHL DUP2 MSTORE PUSH1 0x4 ADD PUSH1 0x40 MLOAD DUP1 SWAP2 SUB SWAP1 REVERT JUMPDEST PUSH1 0x3 SLOAD PUSH1 0x0 SUB PUSH2 0xA47 JUMPI POP CALLVALUE PUSH2 0x3E8 DUP2 GT PUSH2 0x9F8 JUMPI PUSH1 0x40 MLOAD PUSH4 0x1F2C4DF7 PUSH1 0xE1 SHL DUP2 MSTORE PUSH1 0x4 ADD PUSH1 0x40 MLOAD DUP1 SWAP2 SUB SWAP1 REVERT JUMPDEST CALLVALUE PUSH1 0x2 SSTORE PUSH1 0x1 DUP3 SWAP1 SSTORE PUSH1 0x0 DUP1 MSTORE PUSH1 0x4 PUSH1 0x20 MSTORE PUSH2 0x3E8 PUSH32 0x17EF568E3E12AB5B9C7254A8D58478811DE00F9E6EB34345ACD53BF8FD09D3EC DUP2 SWAP1 SSTORE PUSH1 0x3 DUP2 SWAP1 SSTORE PUSH2 0xA40 SWAP1 DUP3 PUSH2 0x1109 JUMP JUMPDEST SWAP1 POP PUSH2 0xAEA JUMP JUMPDEST PUSH1 0x0 PUSH1 0x2 SLOAD PUSH1 0x3 SLOAD CALLVALUE PUSH2 0xA5A SWAP2 SWAP1 PUSH2 0x10D0 JUMP JUMPDEST PUSH2 0xA64 SWAP2 SWAP1 PUSH2 0x10E7 JUMP JUMPDEST SWAP1 POP PUSH1 0x0 PUSH1 0x1 SLOAD PUSH1 0x3 SLOAD DUP6 PUSH2 0xA79 SWAP2 SWAP1 PUSH2 0x10D0 JUMP JUMPDEST PUSH2 0xA83 SWAP2 SWAP1 PUSH2 0x10E7 JUMP JUMPDEST SWAP1 POP DUP1 DUP3 LT PUSH2 0xA92 JUMPI DUP1 PUSH2 0xA94 JUMP JUMPDEST DUP2 JUMPDEST SWAP3 POP DUP3 PUSH1 0x0 SUB PUSH2 0xAB7 JUMPI PUSH1 0x40 MLOAD PUSH4 0x1F2C4DF7 PUSH1 0xE1 SHL DUP2 MSTORE PUSH1 0x4 ADD PUSH1 0x40 MLOAD DUP1 SWAP2 SUB SWAP1 REVERT JUMPDEST CALLVALUE PUSH1 0x2 PUSH1 0x0 DUP3 DUP3 SLOAD PUSH2 0xAC9 SWAP2 SWAP1 PUSH2 0x111C JUMP JUMPDEST SWAP3 POP POP DUP2 SWAP1 SSTORE POP DUP4 PUSH1 0x1 PUSH1 0x0 DUP3 DUP3 SLOAD PUSH2 0xAE2 SWAP2 SWAP1 PUSH2 0x111C JUMP JUMPDEST SWAP1 SWAP2 SSTORE POP POP POP POP JUMPDEST PUSH1 0x0 SLOAD PUSH1 0x40 MLOAD PUSH4 0x23B872DD PUSH1 0xE0 SHL DUP2 MSTORE CALLER PUSH1 0x4 DUP3 ADD MSTORE ADDRESS PUSH1 0x24 DUP3 ADD MSTORE PUSH1 0x44 DUP2 ADD DUP5 SWAP1 MSTORE PUSH1 0x1 PUSH1 0x1 PUSH1 0xA0 SHL SUB SWAP1 SWAP2 AND SWAP1 PUSH4 0x23B872DD SWAP1 PUSH1 0x64 ADD PUSH1 0x20 PUSH1 0x40 MLOAD DUP1 DUP4 SUB DUP2 PUSH1 0x0 DUP8 GAS CALL ISZERO DUP1 ISZERO PUSH2 0xB41 JUMPI RETURNDATASIZE PUSH1 0x0 DUP1 RETURNDATACOPY RETURNDATASIZE PUSH1 0x0 REVERT JUMPDEST POP POP POP POP PUSH1 0x40 MLOAD RETURNDATASIZE PUSH1 0x1F NOT PUSH1 0x1F DUP3 ADD AND DUP3 ADD DUP1 PUSH1 0x40 MSTORE POP DUP2 ADD SWAP1 PUSH2 0xB65 SWAP2 SWAP1 PUSH2 0x112F JUMP JUMPDEST PUSH2 0xB82 JUMPI PUSH1 0x40 MLOAD PUSH4 0x12171D83 PUSH1 0xE3 SHL DUP2 MSTORE PUSH1 0x4 ADD PUSH1 0x40 MLOAD DUP1 SWAP2 SUB SWAP1 REVERT JUMPDEST CALLER PUSH1 0x0 SWAP1 DUP2 MSTORE PUSH1 0x4 PUSH1 0x20 MSTORE PUSH1 0x40 DUP2 KECCAK256 DUP1 SLOAD DUP4 SWAP3 SWAP1 PUSH2 0xBA1 SWAP1 DUP5 SWAP1 PUSH2 0x111C JUMP JUMPDEST SWAP3 POP POP DUP2 SWAP1 SSTORE POP DUP1 PUSH1 0x3 PUSH1 0x0 DUP3 DUP3 SLOAD PUSH2 0xBBA SWAP2 SWAP1 PUSH2 0x111C JUMP JUMPDEST SWAP1 SWAP2 SSTORE POP POP PUSH1 0x40 DUP1 MLOAD CALLVALUE DUP2 MSTORE PUSH1 0x20 DUP2 ADD DUP5 SWAP1 MSTORE SWAP1 DUP2 ADD DUP3 SWAP1 MSTORE CALLER SWAP1 PUSH32 0x64B83944E79C3CE8D4C297411DE637C3E102D064677AAC0C163976EBDCD6F50E SWAP1 PUSH1 0x60 ADD PUSH1 0x40 MLOAD DUP1 SWAP2 SUB SWAP1 LOG2 PUSH1 0x1 PUSH1 0x5 SSTORE SWAP2 SWAP1 POP JUMP JUMPDEST PUSH1 0x0 DUP2 ISZERO DUP1 PUSH2 0xC1B JUMPI POP PUSH1 0x1 SLOAD ISZERO JUMPDEST ISZERO PUSH2 0xC28 JUMPI POP PUSH1 0x0 SWAP2 SWAP1 POP JUMP JUMPDEST PUSH1 0x0 DUP3 PUSH1 0x1 SLOAD PUSH2 0xC38 SWAP2 SWAP1 PUSH2 0x111C JUMP JUMPDEST PUSH1 0x2 SLOAD PUSH2 0xC45 SWAP1 DUP6 PUSH2 0x10D0 JUMP JUMPDEST PUSH2 0xC4F SWAP2 SWAP1 PUSH2 0x10E7 JUMP JUMPDEST SWAP1 POP PUSH2 0x3E8 PUSH2 0xC5F PUSH1 0x4 DUP4 PUSH2 0x10D0 JUMP JUMPDEST PUSH2 0xC69 SWAP2 SWAP1 PUSH2 0x10E7 JUMP JUMPDEST PUSH2 0x3B8 SWAP1 DUP3 PUSH2 0x1109 JUMP JUMPDEST PUSH1 0x0 PUSH1 0x1 SLOAD PUSH1 0x0 SUB PUSH2 0xC85 JUMPI POP PUSH1 0x0 SWAP1 JUMP JUMPDEST PUSH1 0x1 SLOAD PUSH1 0x2 SLOAD PUSH2 0xC9D SWAP1 PUSH8 0xDE0B6B3A7640000 PUSH2 0x10D0 JUMP JUMPDEST PUSH2 0xCA7 SWAP2 SWAP1 PUSH2 0x10E7 JUMP JUMPDEST SWAP1 POP SWAP1 JUMP JUMPDEST PUSH1 0x0 DUP1 PUSH1 0x5 SLOAD PUSH1 0x1 EQ PUSH2 0xCD2 JUMPI PUSH1 0x40 MLOAD PUSH4 0xC5F2BE51 PUSH1 0xE0 SHL DUP2 MSTORE PUSH1 0x4 ADD PUSH1 0x40 MLOAD DUP1 SWAP2 SUB SWAP1 REVERT JUMPDEST PUSH1 0x2 PUSH1 0x5 SSTORE PUSH1 0x0 DUP4 SWAP1 SUB PUSH2 0xCF9 JUMPI PUSH1 0x40 MLOAD PUSH4 0x1F2A2005 PUSH1 0xE0 SHL DUP2 MSTORE PUSH1 0x4 ADD PUSH1 0x40 MLOAD DUP1 SWAP2 SUB SWAP1 REVERT JUMPDEST CALLER PUSH1 0x0 SWAP1 DUP2 MSTORE PUSH1 0x4 PUSH1 0x20 MSTORE PUSH1 0x40 SWAP1 KECCAK256 SLOAD DUP4 GT ISZERO PUSH2 0xD29 JUMPI PUSH1 0x40 MLOAD PUSH4 0xBB55FD27 PUSH1 0xE0 SHL DUP2 MSTORE PUSH1 0x4 ADD PUSH1 0x40 MLOAD DUP1 SWAP2 SUB SWAP1 REVERT JUMPDEST PUSH1 0x3 SLOAD PUSH1 0x0 SUB PUSH2 0xD4C JUMPI PUSH1 0x40 MLOAD PUSH4 0xBB55FD27 PUSH1 0xE0 SHL DUP2 MSTORE PUSH1 0x4 ADD PUSH1 0x40 MLOAD DUP1 SWAP2 SUB SWAP1 REVERT JUMPDEST PUSH1 0x3 SLOAD PUSH1 0x2 SLOAD PUSH2 0xD5C SWAP1 DUP6 PUSH2 0x10D0 JUMP JUMPDEST PUSH2 0xD66 SWAP2 SWAP1 PUSH2 0x10E7 JUMP JUMPDEST SWAP2 POP PUSH1 0x3 SLOAD PUSH1 0x1 SLOAD DUP5 PUSH2 0xD79 SWAP2 SWAP1 PUSH2 0x10D0 JUMP JUMPDEST PUSH2 0xD83 SWAP2 SWAP1 PUSH2 0x10E7 JUMP JUMPDEST SWAP1 POP DUP2 ISZERO DUP1 PUSH2 0xD90 JUMPI POP DUP1 ISZERO JUMPDEST ISZERO PUSH2 0xDAE JUMPI PUSH1 0x40 MLOAD PUSH4 0x1F2C4DF7 PUSH1 0xE1 SHL DUP2 MSTORE PUSH1 0x4 ADD PUSH1 0x40 MLOAD DUP1 SWAP2 SUB SWAP1 REVERT JUMPDEST CALLER PUSH1 0x0 SWAP1 DUP2 MSTORE PUSH1 0x4 PUSH1 0x20 MSTORE PUSH1 0x40 DUP2 KECCAK256 DUP1 SLOAD DUP6 SWAP3 SWAP1 PUSH2 0xDCD SWAP1 DUP5 SWAP1 PUSH2 0x1109 JUMP JUMPDEST SWAP3 POP POP DUP2 SWAP1 SSTORE POP DUP3 PUSH1 0x3 PUSH1 0x0 DUP3 DUP3 SLOAD PUSH2 0xDE6 SWAP2 SWAP1 PUSH2 0x1109 JUMP JUMPDEST SWAP3 POP POP DUP2 SWAP1 SSTORE POP DUP2 PUSH1 0x2 PUSH1 0x0 DUP3 DUP3 SLOAD PUSH2 0xDFF SWAP2 SWAP1 PUSH2 0x1109 JUMP JUMPDEST SWAP3 POP POP DUP2 SWAP1 SSTORE POP DUP1 PUSH1 0x1 PUSH1 0x0 DUP3 DUP3 SLOAD PUSH2 0xE18 SWAP2 SWAP1 PUSH2 0x1109 JUMP JUMPDEST SWAP1 SWAP2 SSTORE POP POP PUSH1 0x0 SLOAD PUSH1 0x40 MLOAD PUSH4 0xA9059CBB PUSH1 0xE0 SHL DUP2 MSTORE CALLER PUSH1 0x4 DUP3 ADD MSTORE PUSH1 0x24 DUP2 ADD DUP4 SWAP1 MSTORE PUSH1 0x1 PUSH1 0x1 PUSH1 0xA0 SHL SUB SWAP1 SWAP2 AND SWAP1 PUSH4 0xA9059CBB SWAP1 PUSH1 0x44 ADD PUSH1 0x20 PUSH1 0x40 MLOAD DUP1 DUP4 SUB DUP2 PUSH1 0x0 DUP8 GAS CALL ISZERO DUP1 ISZERO PUSH2 0xE6E JUMPI RETURNDATASIZE PUSH1 0x0 DUP1 RETURNDATACOPY RETURNDATASIZE PUSH1 0x0 REVERT JUMPDEST POP POP POP POP PUSH1 0x40 MLOAD RETURNDATASIZE PUSH1 0x1F NOT PUSH1 0x1F DUP3 ADD AND DUP3 ADD DUP1 PUSH1 0x40 MSTORE POP DUP2 ADD SWAP1 PUSH2 0xE92 SWAP2 SWAP1 PUSH2 0x112F JUMP JUMPDEST PUSH2 0xEAF JUMPI PUSH1 0x40 MLOAD PUSH4 0x12171D83 PUSH1 0xE3 SHL DUP2 MSTORE PUSH1 0x4 ADD PUSH1 0x40 MLOAD DUP1 SWAP2 SUB SWAP1 REVERT JUMPDEST PUSH1 0x40 MLOAD PUSH1 0x0 SWAP1 CALLER SWAP1 DUP5 SWAP1 DUP4 DUP2 DUP2 DUP2 DUP6 DUP8 GAS CALL SWAP3 POP POP POP RETURNDATASIZE DUP1 PUSH1 0x0 DUP2 EQ PUSH2 0xEF1 JUMPI PUSH1 0x40 MLOAD SWAP2 POP PUSH1 0x1F NOT PUSH1 0x3F RETURNDATASIZE ADD AND DUP3 ADD PUSH1 0x40 MSTORE RETURNDATASIZE DUP3 MSTORE RETURNDATASIZE PUSH1 0x0 PUSH1 0x20 DUP5 ADD RETURNDATACOPY PUSH2 0xEF6 JUMP JUMPDEST PUSH1 0x60 SWAP2 POP JUMPDEST POP POP SWAP1 POP DUP1 PUSH2 0xF18 JUMPI PUSH1 0x40 MLOAD PUSH4 0x12171D83 PUSH1 0xE3 SHL DUP2 MSTORE PUSH1 0x4 ADD PUSH1 0x40 MLOAD DUP1 SWAP2 SUB SWAP1 REVERT JUMPDEST PUSH1 0x40 DUP1 MLOAD DUP5 DUP2 MSTORE PUSH1 0x20 DUP2 ADD DUP5 SWAP1 MSTORE SWAP1 DUP2 ADD DUP6 SWAP1 MSTORE CALLER SWAP1 PUSH32 0x1DC8BB69DF2B8E91FBDCBFCF93D951B3F0000F085A95FE3F7946D6161439245D SWAP1 PUSH1 0x60 ADD PUSH1 0x40 MLOAD DUP1 SWAP2 SUB SWAP1 LOG2 POP PUSH1 0x1 PUSH1 0x5 SSTORE SWAP1 SWAP3 SWAP1 SWAP2 POP JUMP JUMPDEST CALLER PUSH1 0x0 SWAP1 DUP2 MSTORE PUSH1 0x4 PUSH1 0x20 MSTORE PUSH1 0x40 DUP2 KECCAK256 SLOAD DUP3 GT ISZERO PUSH2 0xFC2 JUMPI PUSH1 0x40 MLOAD PUSH3 0x461BCD PUSH1 0xE5 SHL DUP2 MSTORE PUSH1 0x20 PUSH1 0x4 DUP3 ADD MSTORE PUSH1 0x14 PUSH1 0x24 DUP3 ADD MSTORE PUSH20 0x496E73756666696369656E742062616C616E6365 PUSH1 0x60 SHL PUSH1 0x44 DUP3 ADD MSTORE PUSH1 0x64 ADD PUSH1 0x40 MLOAD DUP1 SWAP2 SUB SWAP1 REVERT JUMPDEST CALLER PUSH1 0x0 SWAP1 DUP2 MSTORE PUSH1 0x4 PUSH1 0x20 MSTORE PUSH1 0x40 DUP2 KECCAK256 DUP1 SLOAD DUP5 SWAP3 SWAP1 PUSH2 0xFE1 SWAP1 DUP5 SWAP1 PUSH2 0x1109 JUMP JUMPDEST SWAP1 SWAP2 SSTORE POP POP PUSH1 0x1 PUSH1 0x1 PUSH1 0xA0 SHL SUB DUP4 AND PUSH1 0x0 SWAP1 DUP2 MSTORE PUSH1 0x4 PUSH1 0x20 MSTORE PUSH1 0x40 DUP2 KECCAK256 DUP1 SLOAD DUP5 SWAP3 SWAP1 PUSH2 0x100E SWAP1 DUP5 SWAP1 PUSH2 0x111C JUMP JUMPDEST SWAP1 SWAP2 SSTORE POP PUSH1 0x1 SWAP2 POP POP JUMPDEST SWAP3 SWAP2 POP POP JUMP JUMPDEST PUSH1 0x0 PUSH1 0x20 DUP3 DUP5 SUB SLT ISZERO PUSH2 0x1030 JUMPI PUSH1 0x0 DUP1 REVERT JUMPDEST POP CALLDATALOAD SWAP2 SWAP1 POP JUMP JUMPDEST PUSH1 0x0 DUP1 PUSH1 0x40 DUP4 DUP6 SUB SLT ISZERO PUSH2 0x104A JUMPI PUSH1 0x0 DUP1 REVERT JUMPDEST POP POP DUP1 CALLDATALOAD SWAP3 PUSH1 0x20 SWAP1 SWAP2 ADD CALLDATALOAD SWAP2 POP JUMP JUMPDEST DUP1 CALLDATALOAD PUSH1 0x1 PUSH1 0x1 PUSH1 0xA0 SHL SUB DUP2 AND DUP2 EQ PUSH2 0x1070 JUMPI PUSH1 0x0 DUP1 REVERT JUMPDEST SWAP2 SWAP1 POP JUMP JUMPDEST PUSH1 0x0 PUSH1 0x20 DUP3 DUP5 SUB SLT ISZERO PUSH2 0x1087 JUMPI PUSH1 0x0 DUP1 REVERT JUMPDEST PUSH2 0x3B8 DUP3 PUSH2 0x1059 JUMP JUMPDEST PUSH1 0x0 DUP1 PUSH1 0x40 DUP4 DUP6 SUB SLT ISZERO PUSH2 0x10A3 JUMPI PUSH1 0x0 DUP1 REVERT JUMPDEST PUSH2 0x10AC DUP4 PUSH2 0x1059 JUMP JUMPDEST SWAP5 PUSH1 0x20 SWAP4 SWAP1 SWAP4 ADD CALLDATALOAD SWAP4 POP POP POP JUMP JUMPDEST PUSH4 0x4E487B71 PUSH1 0xE0 SHL PUSH1 0x0 MSTORE PUSH1 0x11 PUSH1 0x4 MSTORE PUSH1 0x24 PUSH1 0x0 REVERT JUMPDEST DUP1 DUP3 MUL DUP2 ISZERO DUP3 DUP3 DIV DUP5 EQ OR PUSH2 0x1018 JUMPI PUSH2 0x1018 PUSH2 0x10BA JUMP JUMPDEST PUSH1 0x0 DUP3 PUSH2 0x1104 JUMPI PUSH4 0x4E487B71 PUSH1 0xE0 SHL PUSH1 0x0 MSTORE PUSH1 0x12 PUSH1 0x4 MSTORE PUSH1 0x24 PUSH1 0x0 REVERT JUMPDEST POP DIV SWAP1 JUMP JUMPDEST DUP2 DUP2 SUB DUP2 DUP2 GT ISZERO PUSH2 0x1018 JUMPI PUSH2 0x1018 PUSH2 0x10BA JUMP JUMPDEST DUP1 DUP3 ADD DUP1 DUP3 GT ISZERO PUSH2 0x1018 JUMPI PUSH2 0x1018 PUSH2 0x10BA JUMP JUMPDEST PUSH1 0x0 PUSH1 0x20 DUP3 DUP5 SUB SLT ISZERO PUSH2 0x1141 JUMPI PUSH1 0x0 DUP1 REVERT JUMPDEST DUP2 MLOAD DUP1 ISZERO ISZERO DUP2 EQ PUSH2 0x3B8 JUMPI PUSH1 0x0 DUP1 REVERT INVALID LOG2 PUSH5 0x6970667358 0x22 SLT KECCAK256 LOG1 PUSH1 0x9D PUSH27 0xB56E791C3471F656DA8A5C590084C41445A62F0DF15172C6854A13 EQ PUSH5 0x736F6C6343 STOP ADDMOD EQ STOP CALLER "},"methodIdentifiers":{"FEE_DENOMINATOR()":"d73792a9","FEE_PERCENT()":"eaf98d23","MINIMUM_LIQUIDITY()":"ba9a7a56","addLiquidity(uint256)":"51c6590a","balanceOf(address)":"70a08231","feeRecipient()":"46904840","getETHOut(uint256)":"80cb1a6e","getPrice()":"98d5fdca","getTokenOut(uint256)":"15d6dae9","liquidity(address)":"b8c876b1","removeLiquidity(uint256)":"9c8f9f23","reserveETH()":"100af203","reserveToken()":"f4325d67","swapETHForToken(uint256)":"1b3d2cb3","swapTokenForETH(uint256,uint256)":"1618e130","token()":"fc0c546a","totalLiquidity()":"15770f92","transfer(address,uint256)":"a9059cbb"}}}}}