{"src/contracts/JammAMM.sol":{"JammAMM":{"abi":[{"inputs":[{"internalType":"address","name":"_token","type":"address"}],"stateMutability":"nonpayable","type":"constructor"},{"inputs":[],"name":"InsufficientLiquidity","type":"error"},{"inputs":[],"name":"InvalidLiquidityAmount","type":"error"},{"inputs":[],"name":"ReentrancyDetected","type":"error"},{"inputs":[],"name":"SlippageExceeded","type":"error"},{"inputs":[],"name":"TransferFailed","type":"error"},{"inputs":[],"name":"ZeroAddress","type":"error"},{"inputs":[],"name":"ZeroAmount","type":"error"},{"anonymous":false,"inputs":[{"indexed":true,"internalType":"address","name":"provider","type":"address"},{"indexed":false,"internalType":"uint256","name":"ethAmount","type":"uint256"},{"indexed":false,"internalType":"uint256","name":"tokenAmount","type":"uint256"},{"indexed":false,"internalType":"uint256","name":"liquidityMinted","type":"uint256"}],"name":"LiquidityAdded","type":"event"},{"anonymous":false,"inputs":[{"indexed":true,"internalType":"address","name":"provider","type":"address"},{"indexed":false,"internalType":"uint256","name":"ethAmount","type":"uint256"},{"indexed":false,"internalType":"uint256","name":"tokenAmount","type":"uint256"},{"indexed":false,"internalType":"uint256","name":"liquidityBurned","type":"uint256"}],"name":"LiquidityRemoved","type":"event"},{"anonymous":false,"inputs":[{"indexed":true,"internalType":"address","name":"user","type":"address"},{"indexed":false,"internalType":"uint256","name":"ethIn","type":"uint256"},{"indexed":false,"internalType":"uint256","name":"tokenIn","type":"uint256"},{"indexed":false,"internalType":"uint256","name":"ethOut","type":"uint256"},{"indexed":false,"internalType":"uint256","name":"tokenOut","type":"uint256"}],"name":"Swap","type":"event"},{"inputs":[],"name":"DEAD_ADDRESS","outputs":[{"internalType":"address","name":"","type":"address"}],"stateMutability":"view","type":"function"},{"inputs":[],"name":"FEE_DENOMINATOR","outputs":[{"internalType":"uint256","name":"","type":"uint256"}],"stateMutability":"view","type":"function"},{"inputs":[],"name":"FEE_PERCENT","outputs":[{"internalType":"uint256","name":"","type":"uint256"}],"stateMutability":"view","type":"function"},{"inputs":[],"name":"MINIMUM_LIQUIDITY","outputs":[{"internalType":"uint256","name":"","type":"uint256"}],"stateMutability":"view","type":"function"},{"inputs":[{"internalType":"uint256","name":"tokenAmount","type":"uint256"}],"name":"addLiquidity","outputs":[{"internalType":"uint256","name":"liquidityMinted","type":"uint256"}],"stateMutability":"payable","type":"function"},{"inputs":[],"name":"feeRecipient","outputs":[{"internalType":"address","name":"","type":"address"}],"stateMutability":"view","type":"function"},{"inputs":[{"internalType":"uint256","name":"tokenIn","type":"uint256"}],"name":"getETHOut","outputs":[{"internalType":"uint256","name":"","type":"uint256"}],"stateMutability":"view","type":"function"},{"inputs":[],"name":"getPrice","outputs":[{"internalType":"uint256","name":"","type":"uint256"}],"stateMutability":"view","type":"function"},{"inputs":[{"internalType":"uint256","name":"ethIn","type":"uint256"}],"name":"getTokenOut","outputs":[{"internalType":"uint256","name":"","type":"uint256"}],"stateMutability":"view","type":"function"},{"inputs":[{"internalType":"address","name":"","type":"address"}],"name":"liquidity","outputs":[{"internalType":"uint256","name":"","type":"uint256"}],"stateMutability":"view","type":"function"},{"inputs":[{"internalType":"uint256","name":"liquidityAmount","type":"uint256"}],"name":"removeLiquidity","outputs":[{"internalType":"uint256","name":"ethAmount","type":"uint256"},{"internalType":"uint256","name":"tokenAmount","type":"uint256"}],"stateMutability":"nonpayable","type":"function"},{"inputs":[],"name":"reserveETH","outputs":[{"internalType":"uint256","name":"","type":"uint256"}],"stateMutability":"view","type":"function"},{"inputs":[],"name":"reserveToken","outputs":[{"internalType":"uint256","name":"","type":"uint256"}],"stateMutability":"view","type":"function"},{"inputs":[{"internalType":"uint256","name":"minTokenOut","type":"uint256"}],"name":"swapETHForToken","outputs":[{"internalType":"uint256","name":"tokenOut","type":"uint256"}],"stateMutability":"payable","type":"function"},{"inputs":[{"internalType":"uint256","name":"tokenIn","type":"uint256"},{"internalType":"uint256","name":"minETHOut","type":"uint256"}],"name":"swapTokenForETH","outputs":[{"internalType":"uint256","name":"ethOut","type":"uint256"}],"stateMutability":"nonpayable","type":"function"},{"inputs":[],"name":"token","outputs":[{"internalType":"address","name":"","type":"address"}],"stateMutability":"view","type":"function"},{"inputs":[],"name":"totalLiquidity","outputs":[{"internalType":"uint256","name":"","type":"uint256"}],"stateMutability":"view","type":"function"}],"evm":{"bytecode":{"linkReferences":{},"object":"6080604052600160055534801561001557600080fd5b5060405161113238038061113283398101604081905261003491610080565b6001600160a01b03811661005b5760405163d92e233d60e01b815260040160405180910390fd5b600080546001600160a01b0319166001600160a01b03929092169190911790556100b0565b60006020828403121561009257600080fd5b81516001600160a01b03811681146100a957600080fd5b9392505050565b611073806100bf6000396000f3fe6080604052600436106100fe5760003560e01c806380cb1a6e11610095578063ba9a7a5611610064578063ba9a7a5614610295578063d73792a914610295578063eaf98d23146102ab578063f4325d67146102c0578063fc0c546a146102d657600080fd5b806380cb1a6e146101fe57806398d5fdca1461021e5780639c8f9f2314610233578063b8c876b11461026857600080fd5b80631b3d2cb3116100d15780631b3d2cb31461018257806346904840146101955780634e6fd6c4146101d557806351c6590a146101eb57600080fd5b8063100af2031461010357806315770f921461012c57806315d6dae9146101425780631618e13014610162575b600080fd5b34801561010f57600080fd5b5061011960025481565b6040519081526020015b60405180910390f35b34801561013857600080fd5b5061011960035481565b34801561014e57600080fd5b5061011961015d366004610f3c565b6102f6565b34801561016e57600080fd5b5061011961017d366004610f55565b610364565b610119610190366004610f3c565b610679565b3480156101a157600080fd5b506101bd73227d5f29bab4cec30f511169886b86faef61c6bc81565b6040516001600160a01b039091168152602001610123565b3480156101e157600080fd5b506101bd61dead81565b6101196101f9366004610f3c565b61091c565b34801561020a57600080fd5b50610119610219366004610f3c565b610be0565b34801561022a57600080fd5b50610119610c47565b34801561023f57600080fd5b5061025361024e366004610f3c565b610c80565b60408051928352602083019190915201610123565b34801561027457600080fd5b50610119610283366004610f77565b60046020526000908152604090205481565b3480156102a157600080fd5b506101196103e881565b3480156102b757600080fd5b50610119600481565b3480156102cc57600080fd5b5061011960015481565b3480156102e257600080fd5b506000546101bd906001600160a01b031681565b60008115806103055750600254155b1561031257506000919050565b60006103e8610322600485610fb6565b61032c9190610fd3565b6103369084610ff5565b9050806002546103469190611008565b6001546103539083610fb6565b61035d9190610fd3565b9392505050565b60006005546001146103895760405163c5f2be5160e01b815260040160405180910390fd5b600260055560008390036103b057604051631f2a200560e01b815260040160405180910390fd5b60015415806103bf5750600254155b156103dd5760405163bb55fd2760e01b815260040160405180910390fd5b6000836001546103ed9190611008565b6002546103fa9086610fb6565b6104049190610fd3565b905060006103e8610416600484610fb6565b6104209190610fd3565b905061042c8183610ff5565b92508383101561044f57604051638199f5f360e01b815260040160405180910390fd5b6002548311156104725760405163bb55fd2760e01b815260040160405180910390fd5b84600160008282546104849190611008565b92505081905550816002600082825461049d9190610ff5565b90915550506000546040516323b872dd60e01b8152336004820152306024820152604481018790526001600160a01b03909116906323b872dd906064016020604051808303816000875af11580156104f9573d6000803e3d6000fd5b505050506040513d601f19601f8201168201806040525081019061051d919061101b565b61053a576040516312171d8360e31b815260040160405180910390fd5b60405160009073227d5f29bab4cec30f511169886b86faef61c6bc9083908381818185875af1925050503d8060008114610590576040519150601f19603f3d011682016040523d82523d6000602084013e610595565b606091505b50509050806105b7576040516312171d8360e31b815260040160405180910390fd5b604051600090339086908381818185875af1925050503d80600081146105f9576040519150601f19603f3d011682016040523d82523d6000602084013e6105fe565b606091505b5050905080610620576040516312171d8360e31b815260040160405180910390fd5b604080516000808252602082018a90528183018890526060820152905133917f49926bbebe8474393f434dfa4f78694c0923efa07d19f2284518bfabd06eb737919081900360800190a250505050600160055592915050565b600060055460011461069e5760405163c5f2be5160e01b815260040160405180910390fd5b6002600555346000036106c457604051631f2a200560e01b815260040160405180910390fd5b60015415806106d35750600254155b156106f15760405163bb55fd2760e01b815260040160405180910390fd5b60006103e8610701600434610fb6565b61070b9190610fd3565b905060006107198234610ff5565b9050806002546107299190611008565b6001546107369083610fb6565b6107409190610fd3565b92508383101561076357604051638199f5f360e01b815260040160405180910390fd5b6001548311156107865760405163bb55fd2760e01b815260040160405180910390fd5b80600260008282546107989190611008565b9250508190555082600160008282546107b19190610ff5565b909155505060405160009073227d5f29bab4cec30f511169886b86faef61c6bc9084908381818185875af1925050503d806000811461080c576040519150601f19603f3d011682016040523d82523d6000602084013e610811565b606091505b5050905080610833576040516312171d8360e31b815260040160405180910390fd5b60005460405163a9059cbb60e01b8152336004820152602481018690526001600160a01b039091169063a9059cbb906044016020604051808303816000875af1158015610884573d6000803e3d6000fd5b505050506040513d601f19601f820116820180604052508101906108a8919061101b565b6108c5576040516312171d8360e31b815260040160405180910390fd5b604080513481526000602082018190528183015260608101869052905133917f49926bbebe8474393f434dfa4f78694c0923efa07d19f2284518bfabd06eb737919081900360800190a25050506001600555919050565b60006005546001146109415760405163c5f2be5160e01b815260040160405180910390fd5b6002600555341580610951575081155b1561096f57604051631f2a200560e01b815260040160405180910390fd5b6003546000036109ec5750346103e8811161099d57604051631f2c4df760e11b815260040160405180910390fd5b3460025560018290556000805260046020526103e87f17ef568e3e12ab5b9c7254a8d58478811de00f9e6eb34345acd53bf8fd09d3ec81905560038190556109e59082610ff5565b9050610a8f565b6000600254600354346109ff9190610fb6565b610a099190610fd3565b9050600060015460035485610a1e9190610fb6565b610a289190610fd3565b9050808210610a375780610a39565b815b925082600003610a5c57604051631f2c4df760e11b815260040160405180910390fd5b3460026000828254610a6e9190611008565b925050819055508360016000828254610a879190611008565b909155505050505b6000546040516323b872dd60e01b8152336004820152306024820152604481018490526001600160a01b03909116906323b872dd906064016020604051808303816000875af1158015610ae6573d6000803e3d6000fd5b505050506040513d601f19601f82011682018060405250810190610b0a919061101b565b610b27576040516312171d8360e31b815260040160405180910390fd5b60006103e860035414610b3a5733610b3e565b61dead5b6001600160a01b038116600090815260046020526040812080549293508492909190610b6b908490611008565b925050819055508160036000828254610b849190611008565b909155505060408051348152602081018590529081018390526001600160a01b038216907f64b83944e79c3ce8d4c297411de637c3e102d064677aac0c163976ebdcd6f50e9060600160405180910390a2506001600555919050565b6000811580610bef5750600154155b15610bfc57506000919050565b600082600154610c0c9190611008565b600254610c199085610fb6565b610c239190610fd3565b90506103e8610c33600483610fb6565b610c3d9190610fd3565b61035d9082610ff5565b6000600154600003610c595750600090565b600154600254610c7190670de0b6b3a7640000610fb6565b610c7b9190610fd3565b905090565b600080600554600114610ca65760405163c5f2be5160e01b815260040160405180910390fd5b60026005556000839003610ccd57604051631f2a200560e01b815260040160405180910390fd5b33600090815260046020526040902054831115610cfd5760405163bb55fd2760e01b815260040160405180910390fd5b600354600003610d205760405163bb55fd2760e01b815260040160405180910390fd5b600354600254610d309085610fb6565b610d3a9190610fd3565b915060035460015484610d4d9190610fb6565b610d579190610fd3565b9050811580610d64575080155b15610d8257604051631f2c4df760e11b815260040160405180910390fd5b3360009081526004602052604081208054859290610da1908490610ff5565b925050819055508260036000828254610dba9190610ff5565b925050819055508160026000828254610dd39190610ff5565b925050819055508060016000828254610dec9190610ff5565b909155505060005460405163a9059cbb60e01b8152336004820152602481018390526001600160a01b039091169063a9059cbb906044016020604051808303816000875af1158015610e42573d6000803e3d6000fd5b505050506040513d601f19601f82011682018060405250810190610e66919061101b565b610e83576040516312171d8360e31b815260040160405180910390fd5b604051600090339084908381818185875af1925050503d8060008114610ec5576040519150601f19603f3d011682016040523d82523d6000602084013e610eca565b606091505b5050905080610eec576040516312171d8360e31b815260040160405180910390fd5b604080518481526020810184905290810185905233907f1dc8bb69df2b8e91fbdcbfcf93d951b3f0000f085a95fe3f7946d6161439245d9060600160405180910390a25060016005559092909150565b600060208284031215610f4e57600080fd5b5035919050565b60008060408385031215610f6857600080fd5b50508035926020909101359150565b600060208284031215610f8957600080fd5b81356001600160a01b038116811461035d57600080fd5b634e487b7160e01b600052601160045260246000fd5b8082028115828204841417610fcd57610fcd610fa0565b92915050565b600082610ff057634e487b7160e01b600052601260045260246000fd5b500490565b81810381811115610fcd57610fcd610fa0565b80820180821115610fcd57610fcd610fa0565b60006020828403121561102d57600080fd5b8151801515811461035d57600080fdfea2646970667358221220a6a4caf8a1a9fc1b4c86869cc693f98a3859aafb60ec4abf6243a58227b3ecb764736f6c63430008140033","opcodes":"PUSH1 0x80 PUSH1 0x40 MSTORE PUSH1 0x1 PUSH1 0x5 SSTORE CALLVALUE DUP1 ISZERO PUSH2 0x15 JUMPI PUSH1 0x0 DUP1 REVERT JUMPDEST POP PUSH1 0x40 MLOAD PUSH2 0x1132 CODESIZE SUB DUP1 PUSH2 0x1132 DUP4 CODECOPY DUP2 ADD PUSH1 0x40 DUP2 SWAP1 MSTORE PUSH2 0x34 SWAP2 PUSH2 0x80 JUMP JUMPDEST PUSH1 0x1 PUSH1 0x1 PUSH1 0xA0 SHL SUB DUP2 AND PUSH2 0x5B JUMPI PUSH1 0x40 MLOAD PUSH4 0xD92E233D PUSH1 0xE0 SHL DUP2 MSTORE PUSH1 0x4 ADD PUSH1 0x40 MLOAD DUP1 SWAP2 SUB SWAP1 REVERT JUMPDEST PUSH1 0x0 DUP1 SLOAD PUSH1 0x1 PUSH1 0x1 PUSH1 0xA0 SHL SUB NOT AND PUSH1 0x1 PUSH1 0x1 PUSH1 0xA0 SHL SUB SWAP3 SWAP1 SWAP3 AND SWAP2 SWAP1 SWAP2 OR SWAP1 SSTORE PUSH2 0xB0 JUMP JUMPDEST PUSH1 0x0 PUSH1 0x20 DUP3 DUP5 SUB SLT ISZERO PUSH2 0x92 JUMPI PUSH1 0x0 DUP1 REVERT JUMPDEST DUP2 MLOAD PUSH1 0x1 PUSH1 0x1 PUSH1 0xA0 SHL SUB DUP2 AND DUP2 EQ PUSH2 0xA9 JUMPI PUSH1 0x0 DUP1 REVERT JUMPDEST SWAP4 SWAP3 POP POP POP JUMP JUMPDEST PUSH2 0x1073 DUP1 PUSH2 0xBF PUSH1 0x0 CODECOPY PUSH1 0x0 RETURN INVALID PUSH1 0x80 PUSH1 0x40 MSTORE PUSH1 0x4 CALLDATASIZE LT PUSH2 0xFE JUMPI PUSH1 0x0 CALLDATALOAD PUSH1 0xE0 SHR DUP1 PUSH4 0x80CB1A6E GT PUSH2 0x95 JUMPI DUP1 PUSH4 0xBA9A7A56 GT PUSH2 0x64 JUMPI DUP1 PUSH4 0xBA9A7A56 EQ PUSH2 0x295 JUMPI DUP1 PUSH4 0xD73792A9 EQ PUSH2 0x295 JUMPI DUP1 PUSH4 0xEAF98D23 EQ PUSH2 0x2AB JUMPI DUP1 PUSH4 0xF4325D67 EQ PUSH2 0x2C0 JUMPI DUP1 PUSH4 0xFC0C546A EQ PUSH2 0x2D6 JUMPI PUSH1 0x0 DUP1 REVERT JUMPDEST DUP1 PUSH4 0x80CB1A6E EQ PUSH2 0x1FE JUMPI DUP1 PUSH4 0x98D5FDCA EQ PUSH2 0x21E JUMPI DUP1 PUSH4 0x9C8F9F23 EQ PUSH2 0x233 JUMPI DUP1 PUSH4 0xB8C876B1 EQ PUSH2 0x268 JUMPI PUSH1 0x0 DUP1 REVERT JUMPDEST DUP1 PUSH4 0x1B3D2CB3 GT PUSH2 0xD1 JUMPI DUP1 PUSH4 0x1B3D2CB3 EQ PUSH2 0x182 JUMPI DUP1 PUSH4 0x46904840 EQ PUSH2 0x195 JUMPI DUP1 PUSH4 0x4E6FD6C4 EQ PUSH2 0x1D5 JUMPI DUP1 PUSH4 0x51C6590A EQ PUSH2 0x1EB JUMPI PUSH1 0x0 DUP1 REVERT JUMPDEST DUP1 PUSH4 0x100AF203 EQ PUSH2 0x103 JUMPI DUP1 PUSH4 0x15770F92 EQ PUSH2 0x12C JUMPI DUP1 PUSH4 0x15D6DAE9 EQ PUSH2 0x142 JUMPI DUP1 PUSH4 0x1618E130 EQ PUSH2 0x162 JUMPI JUMPDEST PUSH1 0x0 DUP1 REVERT JUMPDEST CALLVALUE DUP1 ISZERO PUSH2 0x10F JUMPI PUSH1 0x0 DUP1 REVERT JUMPDEST POP PUSH2 0x119 PUSH1 0x2 SLOAD DUP2 JUMP JUMPDEST PUSH1 0x40 MLOAD SWAP1 DUP2 MSTORE PUSH1 0x20 ADD JUMPDEST PUSH1 0x40 MLOAD DUP1 SWAP2 SUB SWAP1 RETURN JUMPDEST CALLVALUE DUP1 ISZERO PUSH2 0x138 JUMPI PUSH1 0x0 DUP1 REVERT JUMPDEST POP PUSH2 0x119 PUSH1 0x3 SLOAD DUP2 JUMP JUMPDEST CALLVALUE DUP1 ISZERO PUSH2 0x14E JUMPI PUSH1 0x0 DUP1 REVERT JUMPDEST POP PUSH2 0x119 PUSH2 0x15D CALLDATASIZE PUSH1 0x4 PUSH2 0xF3C JUMP JUMPDEST PUSH2 0x2F6 JUMP JUMPDEST CALLVALUE DUP1 ISZERO PUSH2 0x16E JUMPI PUSH1 0x0 DUP1 REVERT JUMPDEST POP PUSH2 0x119 PUSH2 0x17D CALLDATASIZE PUSH1 0x4 PUSH2 0xF55 JUMP JUMPDEST PUSH2 0x364 JUMP JUMPDEST PUSH2 0x119 PUSH2 0x190 CALLDATASIZE PUSH1 0x4 PUSH2 0xF3C JUMP JUMPDEST PUSH2 0x679 JUMP JUMPDEST CALLVALUE DUP1 ISZERO PUSH2 0x1A1 JUMPI PUSH1 0x0 DUP1 REVERT JUMPDEST POP PUSH2 0x1BD PUSH20 0x227D5F29BAB4CEC30F511169886B86FAEF61C6BC DUP2 JUMP JUMPDEST PUSH1 0x40 MLOAD PUSH1 0x1 PUSH1 0x1 PUSH1 0xA0 SHL SUB SWAP1 SWAP2 AND DUP2 MSTORE PUSH1 0x20 ADD PUSH2 0x123 JUMP JUMPDEST CALLVALUE DUP1 ISZERO PUSH2 0x1E1 JUMPI PUSH1 0x0 DUP1 REVERT JUMPDEST POP PUSH2 0x1BD PUSH2 0xDEAD DUP2 JUMP JUMPDEST PUSH2 0x119 PUSH2 0x1F9 CALLDATASIZE PUSH1 0x4 PUSH2 0xF3C JUMP JUMPDEST PUSH2 0x91C JUMP JUMPDEST CALLVALUE DUP1 ISZERO PUSH2 0x20A JUMPI PUSH1 0x0 DUP1 REVERT JUMPDEST POP PUSH2 0x119 PUSH2 0x219 CALLDATASIZE PUSH1 0x4 PUSH2 0xF3C JUMP JUMPDEST PUSH2 0xBE0 JUMP JUMPDEST CALLVALUE DUP1 ISZERO PUSH2 0x22A JUMPI PUSH1 0x0 DUP1 REVERT JUMPDEST POP PUSH2 0x119 PUSH2 0xC47 JUMP JUMPDEST CALLVALUE DUP1 ISZERO PUSH2 0x23F JUMPI PUSH1 0x0 DUP1 REVERT JUMPDEST POP PUSH2 0x253 PUSH2 0x24E CALLDATASIZE PUSH1 0x4 PUSH2 0xF3C JUMP JUMPDEST PUSH2 0xC80 JUMP JUMPDEST PUSH1 0x40 DUP1 MLOAD SWAP3 DUP4 MSTORE PUSH1 0x20 DUP4 ADD SWAP2 SWAP1 SWAP2 MSTORE ADD PUSH2 0x123 JUMP JUMPDEST CALLVALUE DUP1 ISZERO PUSH2 0x274 JUMPI PUSH1 0x0 DUP1 REVERT JUMPDEST POP PUSH2 0x119 PUSH2 0x283 CALLDATASIZE PUSH1 0x4 PUSH2 0xF77 JUMP JUMPDEST PUSH1 0x4 PUSH1 0x20 MSTORE PUSH1 0x0 SWAP1 DUP2 MSTORE PUSH1 0x40 SWAP1 KECCAK256 SLOAD DUP2 JUMP JUMPDEST CALLVALUE DUP1 ISZERO PUSH2 0x2A1 JUMPI PUSH1 0x0 DUP1 REVERT JUMPDEST POP PUSH2 0x119 PUSH2 0x3E8 DUP2 JUMP JUMPDEST CALLVALUE DUP1 ISZERO PUSH2 0x2B7 JUMPI PUSH1 0x0 DUP1 REVERT JUMPDEST POP PUSH2 0x119 PUSH1 0x4 DUP2 JUMP JUMPDEST CALLVALUE DUP1 ISZERO PUSH2 0x2CC JUMPI PUSH1 0x0 DUP1 REVERT JUMPDEST POP PUSH2 0x119 PUSH1 0x1 SLOAD DUP2 JUMP JUMPDEST CALLVALUE DUP1 ISZERO PUSH2 0x2E2 JUMPI PUSH1 0x0 DUP1 REVERT JUMPDEST POP PUSH1 0x0 SLOAD PUSH2 0x1BD SWAP1 PUSH1 0x1 PUSH1 0x1 PUSH1 0xA0 SHL SUB AND DUP2 JUMP JUMPDEST PUSH1 0x0 DUP2 ISZERO DUP1 PUSH2 0x305 JUMPI POP PUSH1 0x2 SLOAD ISZERO JUMPDEST ISZERO PUSH2 0x312 JUMPI POP PUSH1 0x0 SWAP2 SWAP1 POP JUMP JUMPDEST PUSH1 0x0 PUSH2 0x3E8 PUSH2 0x322 PUSH1 0x4 DUP6 PUSH2 0xFB6 JUMP JUMPDEST PUSH2 0x32C SWAP2 SWAP1 PUSH2 0xFD3 JUMP JUMPDEST PUSH2 0x336 SWAP1 DUP5 PUSH2 0xFF5 JUMP JUMPDEST SWAP1 POP DUP1 PUSH1 0x2 SLOAD PUSH2 0x346 SWAP2 SWAP1 PUSH2 0x1008 JUMP JUMPDEST PUSH1 0x1 SLOAD PUSH2 0x353 SWAP1 DUP4 PUSH2 0xFB6 JUMP JUMPDEST PUSH2 0x35D SWAP2 SWAP1 PUSH2 0xFD3 JUMP JUMPDEST SWAP4 SWAP3 POP POP POP JUMP JUMPDEST PUSH1 0x0 PUSH1 0x5 SLOAD PUSH1 0x1 EQ PUSH2 0x389 JUMPI PUSH1 0x40 MLOAD PUSH4 0xC5F2BE51 PUSH1 0xE0 SHL DUP2 MSTORE PUSH1 0x4 ADD PUSH1 0x40 MLOAD DUP1 SWAP2 SUB SWAP1 REVERT JUMPDEST PUSH1 0x2 PUSH1 0x5 SSTORE PUSH1 0x0 DUP4 SWAP1 SUB PUSH2 0x3B0 JUMPI PUSH1 0x40 MLOAD PUSH4 0x1F2A2005 PUSH1 0xE0 SHL DUP2 MSTORE PUSH1 0x4 ADD PUSH1 0x40 MLOAD DUP1 SWAP2 SUB SWAP1 REVERT JUMPDEST PUSH1 0x1 SLOAD ISZERO DUP1 PUSH2 0x3BF JUMPI POP PUSH1 0x2 SLOAD ISZERO JUMPDEST ISZERO PUSH2 0x3DD JUMPI PUSH1 0x40 MLOAD PUSH4 0xBB55FD27 PUSH1 0xE0 SHL DUP2 MSTORE PUSH1 0x4 ADD PUSH1 0x40 MLOAD DUP1 SWAP2 SUB SWAP1 REVERT JUMPDEST PUSH1 0x0 DUP4 PUSH1 0x1 SLOAD PUSH2 0x3ED SWAP2 SWAP1 PUSH2 0x1008 JUMP JUMPDEST PUSH1 0x2 SLOAD PUSH2 0x3FA SWAP1 DUP7 PUSH2 0xFB6 JUMP JUMPDEST PUSH2 0x404 SWAP2 SWAP1 PUSH2 0xFD3 JUMP JUMPDEST SWAP1 POP PUSH1 0x0 PUSH2 0x3E8 PUSH2 0x416 PUSH1 0x4 DUP5 PUSH2 0xFB6 JUMP JUMPDEST PUSH2 0x420 SWAP2 SWAP1 PUSH2 0xFD3 JUMP JUMPDEST SWAP1 POP PUSH2 0x42C DUP2 DUP4 PUSH2 0xFF5 JUMP JUMPDEST SWAP3 POP DUP4 DUP4 LT ISZERO PUSH2 0x44F JUMPI PUSH1 0x40 MLOAD PUSH4 0x8199F5F3 PUSH1 0xE0 SHL DUP2 MSTORE PUSH1 0x4 ADD PUSH1 0x40 MLOAD DUP1 SWAP2 SUB SWAP1 REVERT JUMPDEST PUSH1 0x2 SLOAD DUP4 GT ISZERO PUSH2 0x472 JUMPI PUSH1 0x40 MLOAD PUSH4 0xBB55FD27 PUSH1 0xE0 SHL DUP2 MSTORE PUSH1 0x4 ADD PUSH1 0x40 MLOAD DUP1 SWAP2 SUB SWAP1 REVERT JUMPDEST DUP5 PUSH1 0x1 PUSH1 0x0 DUP3 DUP3 SLOAD PUSH2 0x484 SWAP2 SWAP1 PUSH2 0x1008 JUMP JUMPDEST SWAP3 POP POP DUP2 SWAP1 SSTORE POP DUP2 PUSH1 0x2 PUSH1 0x0 DUP3 DUP3 SLOAD PUSH2 0x49D SWAP2 SWAP1 PUSH2 0xFF5 JUMP JUMPDEST SWAP1 SWAP2 SSTORE POP POP PUSH1 0x0 SLOAD PUSH1 0x40 MLOAD PUSH4 0x23B872DD PUSH1 0xE0 SHL DUP2 MSTORE CALLER PUSH1 0x4 DUP3 ADD MSTORE ADDRESS PUSH1 0x24 DUP3 ADD MSTORE PUSH1 0x44 DUP2 ADD DUP8 SWAP1 MSTORE PUSH1 0x1 PUSH1 0x1 PUSH1 0xA0 SHL SUB SWAP1 SWAP2 AND SWAP1 PUSH4 0x23B872DD SWAP1 PUSH1 0x64 ADD PUSH1 0x20 PUSH1 0x40 MLOAD DUP1 DUP4 SUB DUP2 PUSH1 0x0 DUP8 GAS CALL ISZERO DUP1 ISZERO PUSH2 0x4F9 JUMPI RETURNDATASIZE PUSH1 0x0 DUP1 RETURNDATACOPY RETURNDATASIZE PUSH1 0x0 REVERT JUMPDEST POP POP POP POP PUSH1 0x40 MLOAD RETURNDATASIZE PUSH1 0x1F NOT PUSH1 0x1F DUP3 ADD AND DUP3 ADD DUP1 PUSH1 0x40 MSTORE POP DUP2 ADD SWAP1 PUSH2 0x51D SWAP2 SWAP1 PUSH2 0x101B JUMP JUMPDEST PUSH2 0x53A JUMPI PUSH1 0x40 MLOAD PUSH4 0x12171D83 PUSH1 0xE3 SHL DUP2 MSTORE PUSH1 0x4 ADD PUSH1 0x40 MLOAD DUP1 SWAP2 SUB SWAP1 REVERT JUMPDEST PUSH1 0x40 MLOAD PUSH1 0x0 SWAP1 PUSH20 0x227D5F29BAB4CEC30F511169886B86FAEF61C6BC SWAP1 DUP4 SWAP1 DUP4 DUP2 DUP2 DUP2 DUP6 DUP8 GAS CALL SWAP3 POP POP POP RETURNDATASIZE DUP1 PUSH1 0x0 DUP2 EQ PUSH2 0x590 JUMPI PUSH1 0x40 MLOAD SWAP2 POP PUSH1 0x1F NOT PUSH1 0x3F RETURNDATASIZE ADD AND DUP3 ADD PUSH1 0x40 MSTORE RETURNDATASIZE DUP3 MSTORE RETURNDATASIZE PUSH1 0x0 PUSH1 0x20 DUP5 ADD RETURNDATACOPY PUSH2 0x595 JUMP JUMPDEST PUSH1 0x60 SWAP2 POP JUMPDEST POP POP SWAP1 POP DUP1 PUSH2 0x5B7 JUMPI PUSH1 0x40 MLOAD PUSH4 0x12171D83 PUSH1 0xE3 SHL DUP2 MSTORE PUSH1 0x4 ADD PUSH1 0x40 MLOAD DUP1 SWAP2 SUB SWAP1 REVERT JUMPDEST PUSH1 0x40 MLOAD PUSH1 0x0 SWAP1 CALLER SWAP1 DUP7 SWAP1 DUP4 DUP2 DUP2 DUP2 DUP6 DUP8 GAS CALL SWAP3 POP POP POP RETURNDATASIZE DUP1 PUSH1 0x0 DUP2 EQ PUSH2 0x5F9 JUMPI PUSH1 0x40 MLOAD SWAP2 POP PUSH1 0x1F NOT PUSH1 0x3F RETURNDATASIZE ADD AND DUP3 ADD PUSH1 0x40 MSTORE RETURNDATASIZE DUP3 MSTORE RETURNDATASIZE PUSH1 0x0 PUSH1 0x20 DUP5 ADD RETURNDATACOPY PUSH2 0x5FE JUMP JUMPDEST PUSH1 0x60 SWAP2 POP JUMPDEST POP POP SWAP1 POP DUP1 PUSH2 0x620 JUMPI PUSH1 0x40 MLOAD PUSH4 0x12171D83 PUSH1 0xE3 SHL DUP2 MSTORE PUSH1 0x4 ADD PUSH1 0x40 MLOAD DUP1 SWAP2 SUB SWAP1 REVERT JUMPDEST PUSH1 0x40 DUP1 MLOAD PUSH1 0x0 DUP1 DUP3 MSTORE PUSH1 0x20 DUP3 ADD DUP11 SWAP1 MSTORE DUP2 DUP4 ADD DUP9 SWAP1 MSTORE PUSH1 0x60 DUP3 ADD MSTORE SWAP1 MLOAD CALLER SWAP2 PUSH32 0x49926BBEBE8474393F434DFA4F78694C0923EFA07D19F2284518BFABD06EB737 SWAP2 SWAP1 DUP2 SWAP1 SUB PUSH1 0x80 ADD SWAP1 LOG2 POP POP POP POP PUSH1 0x1 PUSH1 0x5 SSTORE SWAP3 SWAP2 POP POP JUMP JUMPDEST PUSH1 0x0 PUSH1 0x5 SLOAD PUSH1 0x1 EQ PUSH2 0x69E JUMPI PUSH1 0x40 MLOAD PUSH4 0xC5F2BE51 PUSH1 0xE0 SHL DUP2 MSTORE PUSH1 0x4 ADD PUSH1 0x40 MLOAD DUP1 SWAP2 SUB SWAP1 REVERT JUMPDEST PUSH1 0x2 PUSH1 0x5 SSTORE CALLVALUE PUSH1 0x0 SUB PUSH2 0x6C4 JUMPI PUSH1 0x40 MLOAD PUSH4 0x1F2A2005 PUSH1 0xE0 SHL DUP2 MSTORE PUSH1 0x4 ADD PUSH1 0x40 MLOAD DUP1 SWAP2 SUB SWAP1 REVERT JUMPDEST PUSH1 0x1 SLOAD ISZERO DUP1 PUSH2 0x6D3 JUMPI POP PUSH1 0x2 SLOAD ISZERO JUMPDEST ISZERO PUSH2 0x6F1 JUMPI PUSH1 0x40 MLOAD PUSH4 0xBB55FD27 PUSH1 0xE0 SHL DUP2 MSTORE PUSH1 0x4 ADD PUSH1 0x40 MLOAD DUP1 SWAP2 SUB SWAP1 REVERT JUMPDEST PUSH1 0x0 PUSH2 0x3E8 PUSH2 0x701 PUSH1 0x4 CALLVALUE PUSH2 0xFB6 JUMP JUMPDEST PUSH2 0x70B SWAP2 SWAP1 PUSH2 0xFD3 JUMP JUMPDEST SWAP1 POP PUSH1 0x0 PUSH2 0x719 DUP3 CALLVALUE PUSH2 0xFF5 JUMP JUMPDEST SWAP1 POP DUP1 PUSH1 0x2 SLOAD PUSH2 0x729 SWAP2 SWAP1 PUSH2 0x1008 JUMP JUMPDEST PUSH1 0x1 SLOAD PUSH2 0x736 SWAP1 DUP4 PUSH2 0xFB6 JUMP JUMPDEST PUSH2 0x740 SWAP2 SWAP1 PUSH2 0xFD3 JUMP JUMPDEST SWAP3 POP DUP4 DUP4 LT ISZERO PUSH2 0x763 JUMPI PUSH1 0x40 MLOAD PUSH4 0x8199F5F3 PUSH1 0xE0 SHL DUP2 MSTORE PUSH1 0x4 ADD PUSH1 0x40 MLOAD DUP1 SWAP2 SUB SWAP1 REVERT JUMPDEST PUSH1 0x1 SLOAD DUP4 GT ISZERO PUSH2 0x786 JUMPI PUSH1 0x40 MLOAD PUSH4 0xBB55FD27 PUSH1 0xE0 SHL DUP2 MSTORE PUSH1 0x4 ADD PUSH1 0x40 MLOAD DUP1 SWAP2 SUB SWAP1 REVERT JUMPDEST DUP1 PUSH1 0x2 PUSH1 0x0 DUP3 DUP3 SLOAD PUSH2 0x798 SWAP2 SWAP1 PUSH2 0x1008 JUMP JUMPDEST SWAP3 POP POP DUP2 SWAP1 SSTORE POP DUP3 PUSH1 0x1 PUSH1 0x0 DUP3 DUP3 SLOAD PUSH2 0x7B1 SWAP2 SWAP1 PUSH2 0xFF5 JUMP JUMPDEST SWAP1 SWAP2 SSTORE POP POP PUSH1 0x40 MLOAD PUSH1 0x0 SWAP1 PUSH20 0x227D5F29BAB4CEC30F511169886B86FAEF61C6BC SWAP1 DUP5 SWAP1 DUP4 DUP2 DUP2 DUP2 DUP6 DUP8 GAS CALL SWAP3 POP POP POP RETURNDATASIZE DUP1 PUSH1 0x0 DUP2 EQ PUSH2 0x80C JUMPI PUSH1 0x40 MLOAD SWAP2 POP PUSH1 0x1F NOT PUSH1 0x3F RETURNDATASIZE ADD AND DUP3 ADD PUSH1 0x40 MSTORE RETURNDATASIZE DUP3 MSTORE RETURNDATASIZE PUSH1 0x0 PUSH1 0x20 DUP5 ADD RETURNDATACOPY PUSH2 0x811 JUMP JUMPDEST PUSH1 0x60 SWAP2 POP JUMPDEST POP POP SWAP1 POP DUP1 PUSH2 0x833 JUMPI PUSH1 0x40 MLOAD PUSH4 0x12171D83 PUSH1 0xE3 SHL DUP2 MSTORE PUSH1 0x4 ADD PUSH1 0x40 MLOAD DUP1 SWAP2 SUB SWAP1 REVERT JUMPDEST PUSH1 0x0 SLOAD PUSH1 0x40 MLOAD PUSH4 0xA9059CBB PUSH1 0xE0 SHL DUP2 MSTORE CALLER PUSH1 0x4 DUP3 ADD MSTORE PUSH1 0x24 DUP2 ADD DUP7 SWAP1 MSTORE PUSH1 0x1 PUSH1 0x1 PUSH1 0xA0 SHL SUB SWAP1 SWAP2 AND SWAP1 PUSH4 0xA9059CBB SWAP1 PUSH1 0x44 ADD PUSH1 0x20 PUSH1 0x40 MLOAD DUP1 DUP4 SUB DUP2 PUSH1 0x0 DUP8 GAS CALL ISZERO DUP1 ISZERO PUSH2 0x884 JUMPI RETURNDATASIZE PUSH1 0x0 DUP1 RETURNDATACOPY RETURNDATASIZE PUSH1 0x0 REVERT JUMPDEST POP POP POP POP PUSH1 0x40 MLOAD RETURNDATASIZE PUSH1 0x1F NOT PUSH1 0x1F DUP3 ADD AND DUP3 ADD DUP1 PUSH1 0x40 MSTORE POP DUP2 ADD SWAP1 PUSH2 0x8A8 SWAP2 SWAP1 PUSH2 0x101B JUMP JUMPDEST PUSH2 0x8C5 JUMPI PUSH1 0x40 MLOAD PUSH4 0x12171D83 PUSH1 0xE3 SHL DUP2 MSTORE PUSH1 0x4 ADD PUSH1 0x40 MLOAD DUP1 SWAP2 SUB SWAP1 REVERT JUMPDEST PUSH1 0x40 DUP1 MLOAD CALLVALUE DUP2 MSTORE PUSH1 0x0 PUSH1 0x20 DUP3 ADD DUP2 SWAP1 MSTORE DUP2 DUP4 ADD MSTORE PUSH1 0x60 DUP2 ADD DUP7 SWAP1 MSTORE SWAP1 MLOAD CALLER SWAP2 PUSH32 0x49926BBEBE8474393F434DFA4F78694C0923EFA07D19F2284518BFABD06EB737 SWAP2 SWAP1 DUP2 SWAP1 SUB PUSH1 0x80 ADD SWAP1 LOG2 POP POP POP PUSH1 0x1 PUSH1 0x5 SSTORE SWAP2 SWAP1 POP JUMP JUMPDEST PUSH1 0x0 PUSH1 0x5 SLOAD PUSH1 0x1 EQ PUSH2 0x941 JUMPI PUSH1 0x40 MLOAD PUSH4 0xC5F2BE51 PUSH1 0xE0 SHL DUP2 MSTORE PUSH1 0x4 ADD PUSH1 0x40 MLOAD DUP1 SWAP2 SUB SWAP1 REVERT JUMPDEST PUSH1 0x2 PUSH1 0x5 SSTORE CALLVALUE ISZERO DUP1 PUSH2 0x951 JUMPI POP DUP2 ISZERO JUMPDEST ISZERO PUSH2 0x96F JUMPI PUSH1 0x40 MLOAD PUSH4 0x1F2A2005 PUSH1 0xE0 SHL DUP2 MSTORE PUSH1 0x4 ADD PUSH1 0x40 MLOAD DUP1 SWAP2 SUB SWAP1 REVERT JUMPDEST PUSH1 0x3 SLOAD PUSH1 0x0 SUB PUSH2 0x9EC JUMPI POP CALLVALUE PUSH2 0x3E8 DUP2 GT PUSH2 0x99D JUMPI PUSH1 0x40 MLOAD PUSH4 0x1F2C4DF7 PUSH1 0xE1 SHL DUP2 MSTORE PUSH1 0x4 ADD PUSH1 0x40 MLOAD DUP1 SWAP2 SUB SWAP1 REVERT JUMPDEST CALLVALUE PUSH1 0x2 SSTORE PUSH1 0x1 DUP3 SWAP1 SSTORE PUSH1 0x0 DUP1 MSTORE PUSH1 0x4 PUSH1 0x20 MSTORE PUSH2 0x3E8 PUSH32 0x17EF568E3E12AB5B9C7254A8D58478811DE00F9E6EB34345ACD53BF8FD09D3EC DUP2 SWAP1 SSTORE PUSH1 0x3 DUP2 SWAP1 SSTORE PUSH2 0x9E5 SWAP1 DUP3 PUSH2 0xFF5 JUMP JUMPDEST SWAP1 POP PUSH2 0xA8F JUMP JUMPDEST PUSH1 0x0 PUSH1 0x2 SLOAD PUSH1 0x3 SLOAD CALLVALUE PUSH2 0x9FF SWAP2 SWAP1 PUSH2 0xFB6 JUMP JUMPDEST PUSH2 0xA09 SWAP2 SWAP1 PUSH2 0xFD3 JUMP JUMPDEST SWAP1 POP PUSH1 0x0 PUSH1 0x1 SLOAD PUSH1 0x3 SLOAD DUP6 PUSH2 0xA1E SWAP2 SWAP1 PUSH2 0xFB6 JUMP JUMPDEST PUSH2 0xA28 SWAP2 SWAP1 PUSH2 0xFD3 JUMP JUMPDEST SWAP1 POP DUP1 DUP3 LT PUSH2 0xA37 JUMPI DUP1 PUSH2 0xA39 JUMP JUMPDEST DUP2 JUMPDEST SWAP3 POP DUP3 PUSH1 0x0 SUB PUSH2 0xA5C JUMPI PUSH1 0x40 MLOAD PUSH4 0x1F2C4DF7 PUSH1 0xE1 SHL DUP2 MSTORE PUSH1 0x4 ADD PUSH1 0x40 MLOAD DUP1 SWAP2 SUB SWAP1 REVERT JUMPDEST CALLVALUE PUSH1 0x2 PUSH1 0x0 DUP3 DUP3 SLOAD PUSH2 0xA6E SWAP2 SWAP1 PUSH2 0x1008 JUMP JUMPDEST SWAP3 POP POP DUP2 SWAP1 SSTORE POP DUP4 PUSH1 0x1 PUSH1 0x0 DUP3 DUP3 SLOAD PUSH2 0xA87 SWAP2 SWAP1 PUSH2 0x1008 JUMP JUMPDEST SWAP1 SWAP2 SSTORE POP POP POP POP JUMPDEST PUSH1 0x0 SLOAD PUSH1 0x40 MLOAD PUSH4 0x23B872DD PUSH1 0xE0 SHL DUP2 MSTORE CALLER PUSH1 0x4 DUP3 ADD MSTORE ADDRESS PUSH1 0x24 DUP3 ADD MSTORE PUSH1 0x44 DUP2 ADD DUP5 SWAP1 MSTORE PUSH1 0x1 PUSH1 0x1 PUSH1 0xA0 SHL SUB SWAP1 SWAP2 AND SWAP1 PUSH4 0x23B872DD SWAP1 PUSH1 0x64 ADD PUSH1 0x20 PUSH1 0x40 MLOAD DUP1 DUP4 SUB DUP2 PUSH1 0x0 DUP8 GAS CALL ISZERO DUP1 ISZERO PUSH2 0xAE6 JUMPI RETURNDATASIZE PUSH1 0x0 DUP1 RETURNDATACOPY RETURNDATASIZE PUSH1 0x0 REVERT JUMPDEST POP POP POP POP PUSH1 0x40 MLOAD RETURNDATASIZE PUSH1 0x1F NOT PUSH1 0x1F DUP3 ADD AND DUP3 ADD DUP1 PUSH1 0x40 MSTORE POP DUP2 ADD SWAP1 PUSH2 0xB0A SWAP2 SWAP1 PUSH2 0x101B JUMP JUMPDEST PUSH2 0xB27 JUMPI PUSH1 0x40 MLOAD PUSH4 0x12171D83 PUSH1 0xE3 SHL DUP2 MSTORE PUSH1 0x4 ADD PUSH1 0x40 MLOAD DUP1 SWAP2 SUB SWAP1 REVERT JUMPDEST PUSH1 0x0 PUSH2 0x3E8 PUSH1 0x3 SLOAD EQ PUSH2 0xB3A JUMPI CALLER PUSH2 0xB3E JUMP JUMPDEST PUSH2 0xDEAD JUMPDEST PUSH1 0x1 PUSH1 0x1 PUSH1 0xA0 SHL SUB DUP2 AND PUSH1 0x0 SWAP1 DUP2 MSTORE PUSH1 0x4 PUSH1 0x20 MSTORE PUSH1 0x40 DUP2 KECCAK256 DUP1 SLOAD SWAP3 SWAP4 POP DUP5 SWAP3 SWAP1 SWAP2 SWAP1 PUSH2 0xB6B SWAP1 DUP5 SWAP1 PUSH2 0x1008 JUMP JUMPDEST SWAP3 POP POP DUP2 SWAP1 SSTORE POP DUP2 PUSH1 0x3 PUSH1 0x0 DUP3 DUP3 SLOAD PUSH2 0xB84 SWAP2 SWAP1 PUSH2 0x1008 JUMP JUMPDEST SWAP1 SWAP2 SSTORE POP POP PUSH1 0x40 DUP1 MLOAD CALLVALUE DUP2 MSTORE PUSH1 0x20 DUP2 ADD DUP6 SWAP1 MSTORE SWAP1 DUP2 ADD DUP4 SWAP1 MSTORE PUSH1 0x1 PUSH1 0x1 PUSH1 0xA0 SHL SUB DUP3 AND SWAP1 PUSH32 0x64B83944E79C3CE8D4C297411DE637C3E102D064677AAC0C163976EBDCD6F50E SWAP1 PUSH1 0x60 ADD PUSH1 0x40 MLOAD DUP1 SWAP2 SUB SWAP1 LOG2 POP PUSH1 0x1 PUSH1 0x5 SSTORE SWAP2 SWAP1 POP JUMP JUMPDEST PUSH1 0x0 DUP2 ISZERO DUP1 PUSH2 0xBEF JUMPI POP PUSH1 0x1 SLOAD ISZERO JUMPDEST ISZERO PUSH2 0xBFC JUMPI POP PUSH1 0x0 SWAP2 SWAP1 POP JUMP JUMPDEST PUSH1 0x0 DUP3 PUSH1 0x1 SLOAD PUSH2 0xC0C SWAP2 SWAP1 PUSH2 0x1008 JUMP JUMPDEST PUSH1 0x2 SLOAD PUSH2 0xC19 SWAP1 DUP6 PUSH2 0xFB6 JUMP JUMPDEST PUSH2 0xC23 SWAP2 SWAP1 PUSH2 0xFD3 JUMP JUMPDEST SWAP1 POP PUSH2 0x3E8 PUSH2 0xC33 PUSH1 0x4 DUP4 PUSH2 0xFB6 JUMP JUMPDEST PUSH2 0xC3D SWAP2 SWAP1 PUSH2 0xFD3 JUMP JUMPDEST PUSH2 0x35D SWAP1 DUP3 PUSH2 0xFF5 JUMP JUMPDEST PUSH1 0x0 PUSH1 0x1 SLOAD PUSH1 0x0 SUB PUSH2 0xC59 JUMPI POP PUSH1 0x0 SWAP1 JUMP JUMPDEST PUSH1 0x1 SLOAD PUSH1 0x2 SLOAD PUSH2 0xC71 SWAP1 PUSH8 0xDE0B6B3A7640000 PUSH2 0xFB6 JUMP JUMPDEST PUSH2 0xC7B SWAP2 SWAP1 PUSH2 0xFD3 JUMP JUMPDEST SWAP1 POP SWAP1 JUMP JUMPDEST PUSH1 0x0 DUP1 PUSH1 0x5 SLOAD PUSH1 0x1 EQ PUSH2 0xCA6 JUMPI PUSH1 0x40 MLOAD PUSH4 0xC5F2BE51 PUSH1 0xE0 SHL DUP2 MSTORE PUSH1 0x4 ADD PUSH1 0x40 MLOAD DUP1 SWAP2 SUB SWAP1 REVERT JUMPDEST PUSH1 0x2 PUSH1 0x5 SSTORE PUSH1 0x0 DUP4 SWAP1 SUB PUSH2 0xCCD JUMPI PUSH1 0x40 MLOAD PUSH4 0x1F2A2005 PUSH1 0xE0 SHL DUP2 MSTORE PUSH1 0x4 ADD PUSH1 0x40 MLOAD DUP1 SWAP2 SUB SWAP1 REVERT JUMPDEST CALLER PUSH1 0x0 SWAP1 DUP2 MSTORE PUSH1 0x4 PUSH1 0x20 MSTORE PUSH1 0x40 SWAP1 KECCAK256 SLOAD DUP4 GT ISZERO PUSH2 0xCFD JUMPI PUSH1 0x40 MLOAD PUSH4 0xBB55FD27 PUSH1 0xE0 SHL DUP2 MSTORE PUSH1 0x4 ADD PUSH1 0x40 MLOAD DUP1 SWAP2 SUB SWAP1 REVERT JUMPDEST PUSH1 0x3 SLOAD PUSH1 0x0 SUB PUSH2 0xD20 JUMPI PUSH1 0x40 MLOAD PUSH4 0xBB55FD27 PUSH1 0xE0 SHL DUP2 MSTORE PUSH1 0x4 ADD PUSH1 0x40 MLOAD DUP1 SWAP2 SUB SWAP1 REVERT JUMPDEST PUSH1 0x3 SLOAD PUSH1 0x2 SLOAD PUSH2 0xD30 SWAP1 DUP6 PUSH2 0xFB6 JUMP JUMPDEST PUSH2 0xD3A SWAP2 SWAP1 PUSH2 0xFD3 JUMP JUMPDEST SWAP2 POP PUSH1 0x3 SLOAD PUSH1 0x1 SLOAD DUP5 PUSH2 0xD4D SWAP2 SWAP1 PUSH2 0xFB6 JUMP JUMPDEST PUSH2 0xD57 SWAP2 SWAP1 PUSH2 0xFD3 JUMP JUMPDEST SWAP1 POP DUP2 ISZERO DUP1 PUSH2 0xD64 JUMPI POP DUP1 ISZERO JUMPDEST ISZERO PUSH2 0xD82 JUMPI PUSH1 0x40 MLOAD PUSH4 0x1F2C4DF7 PUSH1 0xE1 SHL DUP2 MSTORE PUSH1 0x4 ADD PUSH1 0x40 MLOAD DUP1 SWAP2 SUB SWAP1 REVERT JUMPDEST CALLER PUSH1 0x0 SWAP1 DUP2 MSTORE PUSH1 0x4 PUSH1 0x20 MSTORE PUSH1 0x40 DUP2 KECCAK256 DUP1 SLOAD DUP6 SWAP3 SWAP1 PUSH2 0xDA1 SWAP1 DUP5 SWAP1 PUSH2 0xFF5 JUMP JUMPDEST SWAP3 POP POP DUP2 SWAP1 SSTORE POP DUP3 PUSH1 0x3 PUSH1 0x0 DUP3 DUP3 SLOAD PUSH2 0xDBA SWAP2 SWAP1 PUSH2 0xFF5 JUMP JUMPDEST SWAP3 POP POP DUP2 SWAP1 SSTORE POP DUP2 PUSH1 0x2 PUSH1 0x0 DUP3 DUP3 SLOAD PUSH2 0xDD3 SWAP2 SWAP1 PUSH2 0xFF5 JUMP JUMPDEST SWAP3 POP POP DUP2 SWAP1 SSTORE POP DUP1 PUSH1 0x1 PUSH1 0x0 DUP3 DUP3 SLOAD PUSH2 0xDEC SWAP2 SWAP1 PUSH2 0xFF5 JUMP JUMPDEST SWAP1 SWAP2 SSTORE POP POP PUSH1 0x0 SLOAD PUSH1 0x40 MLOAD PUSH4 0xA9059CBB PUSH1 0xE0 SHL DUP2 MSTORE CALLER PUSH1 0x4 DUP3 ADD MSTORE PUSH1 0x24 DUP2 ADD DUP4 SWAP1 MSTORE PUSH1 0x1 PUSH1 0x1 PUSH1 0xA0 SHL SUB SWAP1 SWAP2 AND SWAP1 PUSH4 0xA9059CBB SWAP1 PUSH1 0x44 ADD PUSH1 0x20 PUSH1 0x40 MLOAD DUP1 DUP4 SUB DUP2 PUSH1 0x0 DUP8 GAS CALL ISZERO DUP1 ISZERO PUSH2 0xE42 JUMPI RETURNDATASIZE PUSH1 0x0 DUP1 RETURNDATACOPY RETURNDATASIZE PUSH1 0x0 REVERT JUMPDEST POP POP POP POP PUSH1 0x40 MLOAD RETURNDATASIZE PUSH1 0x1F NOT PUSH1 0x1F DUP3 ADD AND DUP3 ADD DUP1 PUSH1 0x40 MSTORE POP DUP2 ADD SWAP1 PUSH2 0xE66 SWAP2 SWAP1 PUSH2 0x101B JUMP JUMPDEST PUSH2 0xE83 JUMPI PUSH1 0x40 MLOAD PUSH4 0x12171D83 PUSH1 0xE3 SHL DUP2 MSTORE PUSH1 0x4 ADD PUSH1 0x40 MLOAD DUP1 SWAP2 SUB SWAP1 REVERT JUMPDEST PUSH1 0x40 MLOAD PUSH1 0x0 SWAP1 CALLER SWAP1 DUP5 SWAP1 DUP4 DUP2 DUP2 DUP2 DUP6 DUP8 GAS CALL SWAP3 POP POP POP RETURNDATASIZE DUP1 PUSH1 0x0 DUP2 EQ PUSH2 0xEC5 JUMPI PUSH1 0x40 MLOAD SWAP2 POP PUSH1 0x1F NOT PUSH1 0x3F RETURNDATASIZE ADD AND DUP3 ADD PUSH1 0x40 MSTORE RETURNDATASIZE DUP3 MSTORE RETURNDATASIZE PUSH1 0x0 PUSH1 0x20 DUP5 ADD RETURNDATACOPY PUSH2 0xECA JUMP JUMPDEST PUSH1 0x60 SWAP2 POP JUMPDEST POP POP SWAP1 POP DUP1 PUSH2 0xEEC JUMPI PUSH1 0x40 MLOAD PUSH4 0x12171D83 PUSH1 0xE3 SHL DUP2 MSTORE PUSH1 0x4 ADD PUSH1 0x40 MLOAD DUP1 SWAP2 SUB SWAP1 REVERT JUMPDEST PUSH1 0x40 DUP1 MLOAD DUP5 DUP2 MSTORE PUSH1 0x20 DUP2 ADD DUP5 SWAP1 MSTORE SWAP1 DUP2 ADD DUP6 SWAP1 MSTORE CALLER SWAP1 PUSH32 0x1DC8BB69DF2B8E91FBDCBFCF93D951B3F0000F085A95FE3F7946D6161439245D SWAP1 PUSH1 0x60 ADD PUSH1 0x40 MLOAD DUP1 SWAP2 SUB SWAP1 LOG2 POP PUSH1 0x1 PUSH1 0x5 SSTORE SWAP1 SWAP3 SWAP1 SWAP2 POP JUMP JUMPDEST PUSH1 0x0 PUSH1 0x20 DUP3 DUP5 SUB SLT ISZERO PUSH2 0xF4E JUMPI PUSH1 0x0 DUP1 REVERT JUMPDEST POP CALLDATALOAD SWAP2 SWAP1 POP JUMP JUMPDEST PUSH1 0x0 DUP1 PUSH1 0x40 DUP4 DUP6 SUB SLT ISZERO PUSH2 0xF68 JUMPI PUSH1 0x0 DUP1 REVERT JUMPDEST POP POP DUP1 CALLDATALOAD SWAP3 PUSH1 0x20 SWAP1 SWAP2 ADD CALLDATALOAD SWAP2 POP JUMP JUMPDEST PUSH1 0x0 PUSH1 0x20 DUP3 DUP5 SUB SLT ISZERO PUSH2 0xF89 JUMPI PUSH1 0x0 DUP1 REVERT JUMPDEST DUP2 CALLDATALOAD PUSH1 0x1 PUSH1 0x1 PUSH1 0xA0 SHL SUB DUP2 AND DUP2 EQ PUSH2 0x35D JUMPI PUSH1 0x0 DUP1 REVERT JUMPDEST PUSH4 0x4E487B71 PUSH1 0xE0 SHL PUSH1 0x0 MSTORE PUSH1 0x11 PUSH1 0x4 MSTORE PUSH1 0x24 PUSH1 0x0 REVERT JUMPDEST DUP1 DUP3 MUL DUP2 ISZERO DUP3 DUP3 DIV DUP5 EQ OR PUSH2 0xFCD JUMPI PUSH2 0xFCD PUSH2 0xFA0 JUMP JUMPDEST SWAP3 SWAP2 POP POP JUMP JUMPDEST PUSH1 0x0 DUP3 PUSH2 0xFF0 JUMPI PUSH4 0x4E487B71 PUSH1 0xE0 SHL PUSH1 0x0 MSTORE PUSH1 0x12 PUSH1 0x4 MSTORE PUSH1 0x24 PUSH1 0x0 REVERT JUMPDEST POP DIV SWAP1 JUMP JUMPDEST DUP2 DUP2 SUB DUP2 DUP2 GT ISZERO PUSH2 0xFCD JUMPI PUSH2 0xFCD PUSH2 0xFA0 JUMP JUMPDEST DUP1 DUP3 ADD DUP1 DUP3 GT ISZERO PUSH2 0xFCD JUMPI PUSH2 0xFCD PUSH2 0xFA0 JUMP JUMPDEST PUSH1 0x0 PUSH1 0x20 DUP3 DUP5 SUB SLT ISZERO PUSH2 0x102D JUMPI PUSH1 0x0 DUP1 REVERT JUMPDEST DUP2 MLOAD DUP1 ISZERO ISZERO DUP2 EQ PUSH2 0x35D JUMPI PUSH1 0x0 DUP1 REVERT INVALID LOG2 PUSH5 0x6970667358 0x22 SLT KECCAK256 0xA6 LOG4 0xCA 0xF8 LOG1 0xA9 0xFC SHL 0x4C DUP7 DUP7 SWAP13 0xC6 SWAP4 0xF9 DUP11 CODESIZE MSIZE 0xAA 0xFB PUSH1 0xEC 0x4A 0xBF PUSH3 0x43A582 0x27 0xB3 0xEC 0xB7 PUSH5 0x736F6C6343 STOP ADDMOD EQ STOP CALLER "},"methodIdentifiers":{"DEAD_ADDRESS()":"4e6fd6c4","FEE_DENOMINATOR()":"d73792a9","FEE_PERCENT()":"eaf98d23","MINIMUM_LIQUIDITY()":"ba9a7a56","addLiquidity(uint256)":"51c6590a","feeRecipient()":"46904840","getETHOut(uint256)":"80cb1a6e","getPrice()":"98d5fdca","getTokenOut(uint256)":"15d6dae9","liquidity(address)":"b8c876b1","removeLiquidity(uint256)":"9c8f9f23","reserveETH()":"100af203","reserveToken()":"f4325d67","swapETHForToken(uint256)":"1b3d2cb3","swapTokenForETH(uint256,uint256)":"1618e130","token()":"fc0c546a","totalLiquidity()":"15770f92"}}}}}