{
  "_format": "hh-sol-artifact-1",
  "contractName": "McFunAMM",
  "sourceName": "src/contracts/McFunAMM.sol",
  "abi": [
    {
      "inputs": [
        {
          "internalType": "address",
          "name": "_token",
          "type": "address"
        }
      ],
      "stateMutability": "nonpayable",
      "type": "constructor"
    },
    {
      "inputs": [],
      "name": "InsufficientLiquidity",
      "type": "error"
    },
    {
      "inputs": [],
      "name": "InvalidLiquidityAmount",
      "type": "error"
    },
    {
      "inputs": [],
      "name": "ReentrancyDetected",
      "type": "error"
    },
    {
      "inputs": [],
      "name": "SlippageExceeded",
      "type": "error"
    },
    {
      "inputs": [],
      "name": "TransferFailed",
      "type": "error"
    },
    {
      "inputs": [],
      "name": "ZeroAddress",
      "type": "error"
    },
    {
      "inputs": [],
      "name": "ZeroAmount",
      "type": "error"
    },
    {
      "anonymous": false,
      "inputs": [
        {
          "indexed": true,
          "internalType": "address",
          "name": "provider",
          "type": "address"
        },
        {
          "indexed": false,
          "internalType": "uint256",
          "name": "ethAmount",
          "type": "uint256"
        },
        {
          "indexed": false,
          "internalType": "uint256",
          "name": "tokenAmount",
          "type": "uint256"
        },
        {
          "indexed": false,
          "internalType": "uint256",
          "name": "liquidityMinted",
          "type": "uint256"
        }
      ],
      "name": "LiquidityAdded",
      "type": "event"
    },
    {
      "anonymous": false,
      "inputs": [
        {
          "indexed": true,
          "internalType": "address",
          "name": "provider",
          "type": "address"
        },
        {
          "indexed": false,
          "internalType": "uint256",
          "name": "ethAmount",
          "type": "uint256"
        },
        {
          "indexed": false,
          "internalType": "uint256",
          "name": "tokenAmount",
          "type": "uint256"
        },
        {
          "indexed": false,
          "internalType": "uint256",
          "name": "liquidityBurned",
          "type": "uint256"
        }
      ],
      "name": "LiquidityRemoved",
      "type": "event"
    },
    {
      "anonymous": false,
      "inputs": [
        {
          "indexed": true,
          "internalType": "address",
          "name": "user",
          "type": "address"
        },
        {
          "indexed": false,
          "internalType": "uint256",
          "name": "ethIn",
          "type": "uint256"
        },
        {
          "indexed": false,
          "internalType": "uint256",
          "name": "tokenIn",
          "type": "uint256"
        },
        {
          "indexed": false,
          "internalType": "uint256",
          "name": "ethOut",
          "type": "uint256"
        },
        {
          "indexed": false,
          "internalType": "uint256",
          "name": "tokenOut",
          "type": "uint256"
        }
      ],
      "name": "Swap",
      "type": "event"
    },
    {
      "inputs": [],
      "name": "FEE_DENOMINATOR",
      "outputs": [
        {
          "internalType": "uint256",
          "name": "",
          "type": "uint256"
        }
      ],
      "stateMutability": "view",
      "type": "function"
    },
    {
      "inputs": [],
      "name": "FEE_PERCENT",
      "outputs": [
        {
          "internalType": "uint256",
          "name": "",
          "type": "uint256"
        }
      ],
      "stateMutability": "view",
      "type": "function"
    },
    {
      "inputs": [],
      "name": "MINIMUM_LIQUIDITY",
      "outputs": [
        {
          "internalType": "uint256",
          "name": "",
          "type": "uint256"
        }
      ],
      "stateMutability": "view",
      "type": "function"
    },
    {
      "inputs": [
        {
          "internalType": "uint256",
          "name": "tokenAmount",
          "type": "uint256"
        }
      ],
      "name": "addLiquidity",
      "outputs": [
        {
          "internalType": "uint256",
          "name": "liquidityMinted",
          "type": "uint256"
        }
      ],
      "stateMutability": "payable",
      "type": "function"
    },
    {
      "inputs": [],
      "name": "feeRecipient",
      "outputs": [
        {
          "internalType": "address",
          "name": "",
          "type": "address"
        }
      ],
      "stateMutability": "view",
      "type": "function"
    },
    {
      "inputs": [
        {
          "internalType": "uint256",
          "name": "tokenIn",
          "type": "uint256"
        }
      ],
      "name": "getETHOut",
      "outputs": [
        {
          "internalType": "uint256",
          "name": "",
          "type": "uint256"
        }
      ],
      "stateMutability": "view",
      "type": "function"
    },
    {
      "inputs": [],
      "name": "getPrice",
      "outputs": [
        {
          "internalType": "uint256",
          "name": "",
          "type": "uint256"
        }
      ],
      "stateMutability": "view",
      "type": "function"
    },
    {
      "inputs": [
        {
          "internalType": "uint256",
          "name": "ethIn",
          "type": "uint256"
        }
      ],
      "name": "getTokenOut",
      "outputs": [
        {
          "internalType": "uint256",
          "name": "",
          "type": "uint256"
        }
      ],
      "stateMutability": "view",
      "type": "function"
    },
    {
      "inputs": [
        {
          "internalType": "address",
          "name": "",
          "type": "address"
        }
      ],
      "name": "liquidity",
      "outputs": [
        {
          "internalType": "uint256",
          "name": "",
          "type": "uint256"
        }
      ],
      "stateMutability": "view",
      "type": "function"
    },
    {
      "inputs": [
        {
          "internalType": "uint256",
          "name": "liquidityAmount",
          "type": "uint256"
        }
      ],
      "name": "removeLiquidity",
      "outputs": [
        {
          "internalType": "uint256",
          "name": "ethAmount",
          "type": "uint256"
        },
        {
          "internalType": "uint256",
          "name": "tokenAmount",
          "type": "uint256"
        }
      ],
      "stateMutability": "nonpayable",
      "type": "function"
    },
    {
      "inputs": [],
      "name": "reserveETH",
      "outputs": [
        {
          "internalType": "uint256",
          "name": "",
          "type": "uint256"
        }
      ],
      "stateMutability": "view",
      "type": "function"
    },
    {
      "inputs": [],
      "name": "reserveToken",
      "outputs": [
        {
          "internalType": "uint256",
          "name": "",
          "type": "uint256"
        }
      ],
      "stateMutability": "view",
      "type": "function"
    },
    {
      "inputs": [
        {
          "internalType": "uint256",
          "name": "minTokenOut",
          "type": "uint256"
        }
      ],
      "name": "swapETHForToken",
      "outputs": [
        {
          "internalType": "uint256",
          "name": "tokenOut",
          "type": "uint256"
        }
      ],
      "stateMutability": "payable",
      "type": "function"
    },
    {
      "inputs": [
        {
          "internalType": "uint256",
          "name": "tokenIn",
          "type": "uint256"
        },
        {
          "internalType": "uint256",
          "name": "minETHOut",
          "type": "uint256"
        }
      ],
      "name": "swapTokenForETH",
      "outputs": [
        {
          "internalType": "uint256",
          "name": "ethOut",
          "type": "uint256"
        }
      ],
      "stateMutability": "nonpayable",
      "type": "function"
    },
    {
      "inputs": [],
      "name": "token",
      "outputs": [
        {
          "internalType": "address",
          "name": "",
          "type": "address"
        }
      ],
      "stateMutability": "view",
      "type": "function"
    },
    {
      "inputs": [],
      "name": "totalLiquidity",
      "outputs": [
        {
          "internalType": "uint256",
          "name": "",
          "type": "uint256"
        }
      ],
      "stateMutability": "view",
      "type": "function"
    }
  ],
  "bytecode": "0x6080604052600160055534801561001557600080fd5b506040516110e23803806110e283398101604081905261003491610080565b6001600160a01b03811661005b5760405163d92e233d60e01b815260040160405180910390fd5b600080546001600160a01b0319166001600160a01b03929092169190911790556100b0565b60006020828403121561009257600080fd5b81516001600160a01b03811681146100a957600080fd5b9392505050565b611023806100bf6000396000f3fe6080604052600436106100f35760003560e01c806398d5fdca1161008a578063d73792a911610059578063d73792a914610274578063eaf98d231461028a578063f4325d671461029f578063fc0c546a146102b557600080fd5b806398d5fdca146101fd5780639c8f9f2314610212578063b8c876b114610247578063ba9a7a561461027457600080fd5b80631b3d2cb3116100c65780631b3d2cb314610177578063469048401461018a57806351c6590a146101ca57806380cb1a6e146101dd57600080fd5b8063100af203146100f857806315770f921461012157806315d6dae9146101375780631618e13014610157575b600080fd5b34801561010457600080fd5b5061010e60025481565b6040519081526020015b60405180910390f35b34801561012d57600080fd5b5061010e60035481565b34801561014357600080fd5b5061010e610152366004610eec565b6102d5565b34801561016357600080fd5b5061010e610172366004610f05565b610343565b61010e610185366004610eec565b610658565b34801561019657600080fd5b506101b273227d5f29bab4cec30f511169886b86faef61c6bc81565b6040516001600160a01b039091168152602001610118565b61010e6101d8366004610eec565b6108fb565b3480156101e957600080fd5b5061010e6101f8366004610eec565b610b90565b34801561020957600080fd5b5061010e610bf7565b34801561021e57600080fd5b5061023261022d366004610eec565b610c30565b60408051928352602083019190915201610118565b34801561025357600080fd5b5061010e610262366004610f27565b60046020526000908152604090205481565b34801561028057600080fd5b5061010e6103e881565b34801561029657600080fd5b5061010e600481565b3480156102ab57600080fd5b5061010e60015481565b3480156102c157600080fd5b506000546101b2906001600160a01b031681565b60008115806102e45750600254155b156102f157506000919050565b60006103e8610301600485610f66565b61030b9190610f83565b6103159084610fa5565b9050806002546103259190610fb8565b6001546103329083610f66565b61033c9190610f83565b9392505050565b60006005546001146103685760405163c5f2be5160e01b815260040160405180910390fd5b6002600555600083900361038f57604051631f2a200560e01b815260040160405180910390fd5b600154158061039e5750600254155b156103bc5760405163bb55fd2760e01b815260040160405180910390fd5b6000546040516323b872dd60e01b8152336004820152306024820152604481018590526001600160a01b03909116906323b872dd906064016020604051808303816000875af1158015610413573d6000803e3d6000fd5b505050506040513d601f19601f820116820180604052508101906104379190610fcb565b610454576040516312171d8360e31b815260040160405180910390fd5b6000836001546104649190610fb8565b6002546104719086610f66565b61047b9190610f83565b905060006103e861048d600484610f66565b6104979190610f83565b90506104a38183610fa5565b9250838310156104c657604051638199f5f360e01b815260040160405180910390fd5b6002548311156104e95760405163bb55fd2760e01b815260040160405180910390fd5b84600160008282546104fb9190610fb8565b9250508190555081600260008282546105149190610fa5565b909155505060405160009073227d5f29bab4cec30f511169886b86faef61c6bc9083908381818185875af1925050503d806000811461056f576040519150601f19603f3d011682016040523d82523d6000602084013e610574565b606091505b5050905080610596576040516312171d8360e31b815260040160405180910390fd5b604051600090339086908381818185875af1925050503d80600081146105d8576040519150601f19603f3d011682016040523d82523d6000602084013e6105dd565b606091505b50509050806105ff576040516312171d8360e31b815260040160405180910390fd5b604080516000808252602082018a90528183018890526060820152905133917f49926bbebe8474393f434dfa4f78694c0923efa07d19f2284518bfabd06eb737919081900360800190a250505050600160055592915050565b600060055460011461067d5760405163c5f2be5160e01b815260040160405180910390fd5b6002600555346000036106a357604051631f2a200560e01b815260040160405180910390fd5b60015415806106b25750600254155b156106d05760405163bb55fd2760e01b815260040160405180910390fd5b60006103e86106e0600434610f66565b6106ea9190610f83565b905060006106f88234610fa5565b9050806002546107089190610fb8565b6001546107159083610f66565b61071f9190610f83565b92508383101561074257604051638199f5f360e01b815260040160405180910390fd5b6001548311156107655760405163bb55fd2760e01b815260040160405180910390fd5b80600260008282546107779190610fb8565b9250508190555082600160008282546107909190610fa5565b909155505060405160009073227d5f29bab4cec30f511169886b86faef61c6bc9084908381818185875af1925050503d80600081146107eb576040519150601f19603f3d011682016040523d82523d6000602084013e6107f0565b606091505b5050905080610812576040516312171d8360e31b815260040160405180910390fd5b60005460405163a9059cbb60e01b8152336004820152602481018690526001600160a01b039091169063a9059cbb906044016020604051808303816000875af1158015610863573d6000803e3d6000fd5b505050506040513d601f19601f820116820180604052508101906108879190610fcb565b6108a4576040516312171d8360e31b815260040160405180910390fd5b604080513481526000602082018190528183015260608101869052905133917f49926bbebe8474393f434dfa4f78694c0923efa07d19f2284518bfabd06eb737919081900360800190a25050506001600555919050565b60006005546001146109205760405163c5f2be5160e01b815260040160405180910390fd5b6002600555341580610930575081155b1561094e57604051631f2a200560e01b815260040160405180910390fd5b6003546000036109cb5750346103e8811161097c57604051631f2c4df760e11b815260040160405180910390fd5b3460025560018290556000805260046020526103e87f17ef568e3e12ab5b9c7254a8d58478811de00f9e6eb34345acd53bf8fd09d3ec81905560038190556109c49082610fa5565b9050610a6e565b6000600254600354346109de9190610f66565b6109e89190610f83565b90506000600154600354856109fd9190610f66565b610a079190610f83565b9050808210610a165780610a18565b815b925082600003610a3b57604051631f2c4df760e11b815260040160405180910390fd5b3460026000828254610a4d9190610fb8565b925050819055508360016000828254610a669190610fb8565b909155505050505b6000546040516323b872dd60e01b8152336004820152306024820152604481018490526001600160a01b03909116906323b872dd906064016020604051808303816000875af1158015610ac5573d6000803e3d6000fd5b505050506040513d601f19601f82011682018060405250810190610ae99190610fcb565b610b06576040516312171d8360e31b815260040160405180910390fd5b3360009081526004602052604081208054839290610b25908490610fb8565b925050819055508060036000828254610b3e9190610fb8565b9091555050604080513481526020810184905290810182905233907f64b83944e79c3ce8d4c297411de637c3e102d064677aac0c163976ebdcd6f50e9060600160405180910390a26001600555919050565b6000811580610b9f5750600154155b15610bac57506000919050565b600082600154610bbc9190610fb8565b600254610bc99085610f66565b610bd39190610f83565b90506103e8610be3600483610f66565b610bed9190610f83565b61033c9082610fa5565b6000600154600003610c095750600090565b600154600254610c2190670de0b6b3a7640000610f66565b610c2b9190610f83565b905090565b600080600554600114610c565760405163c5f2be5160e01b815260040160405180910390fd5b60026005556000839003610c7d57604051631f2a200560e01b815260040160405180910390fd5b33600090815260046020526040902054831115610cad5760405163bb55fd2760e01b815260040160405180910390fd5b600354600003610cd05760405163bb55fd2760e01b815260040160405180910390fd5b600354600254610ce09085610f66565b610cea9190610f83565b915060035460015484610cfd9190610f66565b610d079190610f83565b9050811580610d14575080155b15610d3257604051631f2c4df760e11b815260040160405180910390fd5b3360009081526004602052604081208054859290610d51908490610fa5565b925050819055508260036000828254610d6a9190610fa5565b925050819055508160026000828254610d839190610fa5565b925050819055508060016000828254610d9c9190610fa5565b909155505060005460405163a9059cbb60e01b8152336004820152602481018390526001600160a01b039091169063a9059cbb906044016020604051808303816000875af1158015610df2573d6000803e3d6000fd5b505050506040513d601f19601f82011682018060405250810190610e169190610fcb565b610e33576040516312171d8360e31b815260040160405180910390fd5b604051600090339084908381818185875af1925050503d8060008114610e75576040519150601f19603f3d011682016040523d82523d6000602084013e610e7a565b606091505b5050905080610e9c576040516312171d8360e31b815260040160405180910390fd5b604080518481526020810184905290810185905233907f1dc8bb69df2b8e91fbdcbfcf93d951b3f0000f085a95fe3f7946d6161439245d9060600160405180910390a25060016005559092909150565b600060208284031215610efe57600080fd5b5035919050565b60008060408385031215610f1857600080fd5b50508035926020909101359150565b600060208284031215610f3957600080fd5b81356001600160a01b038116811461033c57600080fd5b634e487b7160e01b600052601160045260246000fd5b8082028115828204841417610f7d57610f7d610f50565b92915050565b600082610fa057634e487b7160e01b600052601260045260246000fd5b500490565b81810381811115610f7d57610f7d610f50565b80820180821115610f7d57610f7d610f50565b600060208284031215610fdd57600080fd5b8151801515811461033c57600080fdfea26469706673582212201f711ad90271824a5dcb494f87812bd3ea90b1d14bdd75fa56644fb04963791464736f6c63430008140033",
  "linkReferences": {},
  "deployedLinkReferences": {}
}