{
  "_format": "hh-sol-artifact-1",
  "contractName": "McFunAMM",
  "sourceName": "src/contracts/McFunAMM.sol",
  "abi": [
    {
      "inputs": [
        {
          "internalType": "address",
          "name": "_token",
          "type": "address"
        }
      ],
      "stateMutability": "nonpayable",
      "type": "constructor"
    },
    {
      "inputs": [],
      "name": "AlreadyLaunched",
      "type": "error"
    },
    {
      "inputs": [],
      "name": "InsufficientLiquidity",
      "type": "error"
    },
    {
      "inputs": [],
      "name": "InvalidLiquidityAmount",
      "type": "error"
    },
    {
      "inputs": [],
      "name": "OnlyFactory",
      "type": "error"
    },
    {
      "inputs": [],
      "name": "ReentrancyDetected",
      "type": "error"
    },
    {
      "inputs": [],
      "name": "SlippageExceeded",
      "type": "error"
    },
    {
      "inputs": [],
      "name": "TransferFailed",
      "type": "error"
    },
    {
      "inputs": [],
      "name": "ZeroAddress",
      "type": "error"
    },
    {
      "inputs": [],
      "name": "ZeroAmount",
      "type": "error"
    },
    {
      "anonymous": false,
      "inputs": [
        {
          "indexed": true,
          "internalType": "address",
          "name": "provider",
          "type": "address"
        },
        {
          "indexed": false,
          "internalType": "uint256",
          "name": "ethAmount",
          "type": "uint256"
        },
        {
          "indexed": false,
          "internalType": "uint256",
          "name": "tokenAmount",
          "type": "uint256"
        },
        {
          "indexed": false,
          "internalType": "uint256",
          "name": "liquidityMinted",
          "type": "uint256"
        }
      ],
      "name": "LiquidityAdded",
      "type": "event"
    },
    {
      "anonymous": false,
      "inputs": [
        {
          "indexed": true,
          "internalType": "address",
          "name": "provider",
          "type": "address"
        },
        {
          "indexed": false,
          "internalType": "uint256",
          "name": "ethAmount",
          "type": "uint256"
        },
        {
          "indexed": false,
          "internalType": "uint256",
          "name": "tokenAmount",
          "type": "uint256"
        },
        {
          "indexed": false,
          "internalType": "uint256",
          "name": "liquidityBurned",
          "type": "uint256"
        }
      ],
      "name": "LiquidityRemoved",
      "type": "event"
    },
    {
      "anonymous": false,
      "inputs": [
        {
          "indexed": true,
          "internalType": "address",
          "name": "user",
          "type": "address"
        },
        {
          "indexed": false,
          "internalType": "uint256",
          "name": "ethIn",
          "type": "uint256"
        },
        {
          "indexed": false,
          "internalType": "uint256",
          "name": "tokenIn",
          "type": "uint256"
        },
        {
          "indexed": false,
          "internalType": "uint256",
          "name": "ethOut",
          "type": "uint256"
        },
        {
          "indexed": false,
          "internalType": "uint256",
          "name": "tokenOut",
          "type": "uint256"
        }
      ],
      "name": "Swap",
      "type": "event"
    },
    {
      "inputs": [],
      "name": "FEE_DENOMINATOR",
      "outputs": [
        {
          "internalType": "uint256",
          "name": "",
          "type": "uint256"
        }
      ],
      "stateMutability": "view",
      "type": "function"
    },
    {
      "inputs": [],
      "name": "FEE_PERCENT",
      "outputs": [
        {
          "internalType": "uint256",
          "name": "",
          "type": "uint256"
        }
      ],
      "stateMutability": "view",
      "type": "function"
    },
    {
      "inputs": [],
      "name": "MINIMUM_LIQUIDITY",
      "outputs": [
        {
          "internalType": "uint256",
          "name": "",
          "type": "uint256"
        }
      ],
      "stateMutability": "view",
      "type": "function"
    },
    {
      "inputs": [
        {
          "internalType": "uint256",
          "name": "tokenAmount",
          "type": "uint256"
        }
      ],
      "name": "addLiquidity",
      "outputs": [
        {
          "internalType": "uint256",
          "name": "liquidityMinted",
          "type": "uint256"
        }
      ],
      "stateMutability": "payable",
      "type": "function"
    },
    {
      "inputs": [],
      "name": "factory",
      "outputs": [
        {
          "internalType": "address",
          "name": "",
          "type": "address"
        }
      ],
      "stateMutability": "view",
      "type": "function"
    },
    {
      "inputs": [],
      "name": "feeRecipient",
      "outputs": [
        {
          "internalType": "address",
          "name": "",
          "type": "address"
        }
      ],
      "stateMutability": "view",
      "type": "function"
    },
    {
      "inputs": [
        {
          "internalType": "uint256",
          "name": "tokenIn",
          "type": "uint256"
        }
      ],
      "name": "getETHOut",
      "outputs": [
        {
          "internalType": "uint256",
          "name": "",
          "type": "uint256"
        }
      ],
      "stateMutability": "view",
      "type": "function"
    },
    {
      "inputs": [],
      "name": "getPrice",
      "outputs": [
        {
          "internalType": "uint256",
          "name": "",
          "type": "uint256"
        }
      ],
      "stateMutability": "view",
      "type": "function"
    },
    {
      "inputs": [
        {
          "internalType": "uint256",
          "name": "ethIn",
          "type": "uint256"
        }
      ],
      "name": "getTokenOut",
      "outputs": [
        {
          "internalType": "uint256",
          "name": "",
          "type": "uint256"
        }
      ],
      "stateMutability": "view",
      "type": "function"
    },
    {
      "inputs": [
        {
          "internalType": "address",
          "name": "",
          "type": "address"
        }
      ],
      "name": "liquidity",
      "outputs": [
        {
          "internalType": "uint256",
          "name": "",
          "type": "uint256"
        }
      ],
      "stateMutability": "view",
      "type": "function"
    },
    {
      "inputs": [
        {
          "internalType": "uint256",
          "name": "liquidityAmount",
          "type": "uint256"
        }
      ],
      "name": "removeLiquidity",
      "outputs": [
        {
          "internalType": "uint256",
          "name": "ethAmount",
          "type": "uint256"
        },
        {
          "internalType": "uint256",
          "name": "tokenAmount",
          "type": "uint256"
        }
      ],
      "stateMutability": "nonpayable",
      "type": "function"
    },
    {
      "inputs": [],
      "name": "reserveETH",
      "outputs": [
        {
          "internalType": "uint256",
          "name": "",
          "type": "uint256"
        }
      ],
      "stateMutability": "view",
      "type": "function"
    },
    {
      "inputs": [],
      "name": "reserveToken",
      "outputs": [
        {
          "internalType": "uint256",
          "name": "",
          "type": "uint256"
        }
      ],
      "stateMutability": "view",
      "type": "function"
    },
    {
      "inputs": [
        {
          "internalType": "uint256",
          "name": "minTokenOut",
          "type": "uint256"
        }
      ],
      "name": "swapETHForToken",
      "outputs": [
        {
          "internalType": "uint256",
          "name": "tokenOut",
          "type": "uint256"
        }
      ],
      "stateMutability": "payable",
      "type": "function"
    },
    {
      "inputs": [
        {
          "internalType": "uint256",
          "name": "tokenIn",
          "type": "uint256"
        },
        {
          "internalType": "uint256",
          "name": "minETHOut",
          "type": "uint256"
        }
      ],
      "name": "swapTokenForETH",
      "outputs": [
        {
          "internalType": "uint256",
          "name": "ethOut",
          "type": "uint256"
        }
      ],
      "stateMutability": "nonpayable",
      "type": "function"
    },
    {
      "inputs": [],
      "name": "token",
      "outputs": [
        {
          "internalType": "address",
          "name": "",
          "type": "address"
        }
      ],
      "stateMutability": "view",
      "type": "function"
    },
    {
      "inputs": [],
      "name": "totalLiquidity",
      "outputs": [
        {
          "internalType": "uint256",
          "name": "",
          "type": "uint256"
        }
      ],
      "stateMutability": "view",
      "type": "function"
    }
  ],
  "bytecode": "0x60a0604052600160065534801561001557600080fd5b506040516110ff3803806110ff83398101604081905261003491610084565b6001600160a01b03811661005b5760405163d92e233d60e01b815260040160405180910390fd5b33608052600080546001600160a01b0319166001600160a01b03929092169190911790556100b4565b60006020828403121561009657600080fd5b81516001600160a01b03811681146100ad57600080fd5b9392505050565b6080516110296100d6600039600081816102a7015261096f01526110296000f3fe6080604052600436106100fe5760003560e01c806398d5fdca11610095578063c45a015511610064578063c45a015514610295578063d73792a91461027f578063eaf98d23146102c9578063f4325d67146102de578063fc0c546a146102f457600080fd5b806398d5fdca146102085780639c8f9f231461021d578063b8c876b114610252578063ba9a7a561461027f57600080fd5b80631b3d2cb3116100d15780631b3d2cb314610182578063469048401461019557806351c6590a146101d557806380cb1a6e146101e857600080fd5b8063100af2031461010357806315770f921461012c57806315d6dae9146101425780631618e13014610162575b600080fd5b34801561010f57600080fd5b5061011960025481565b6040519081526020015b60405180910390f35b34801561013857600080fd5b5061011960035481565b34801561014e57600080fd5b5061011961015d366004610ef2565b610314565b34801561016e57600080fd5b5061011961017d366004610f0b565b610382565b610119610190366004610ef2565b610697565b3480156101a157600080fd5b506101bd73227d5f29bab4cec30f511169886b86faef61c6bc81565b6040516001600160a01b039091168152602001610123565b6101196101e3366004610ef2565b61093a565b3480156101f457600080fd5b50610119610203366004610ef2565b610b96565b34801561021457600080fd5b50610119610bfd565b34801561022957600080fd5b5061023d610238366004610ef2565b610c36565b60408051928352602083019190915201610123565b34801561025e57600080fd5b5061011961026d366004610f2d565b60056020526000908152604090205481565b34801561028b57600080fd5b506101196103e881565b3480156102a157600080fd5b506101bd7f000000000000000000000000000000000000000000000000000000000000000081565b3480156102d557600080fd5b50610119600481565b3480156102ea57600080fd5b5061011960015481565b34801561030057600080fd5b506000546101bd906001600160a01b031681565b60008115806103235750600254155b1561033057506000919050565b60006103e8610340600485610f6c565b61034a9190610f89565b6103549084610fab565b9050806002546103649190610fbe565b6001546103719083610f6c565b61037b9190610f89565b9392505050565b60006006546001146103a75760405163c5f2be5160e01b815260040160405180910390fd5b600260065560008390036103ce57604051631f2a200560e01b815260040160405180910390fd5b60015415806103dd5750600254155b156103fb5760405163bb55fd2760e01b815260040160405180910390fd5b60008360015461040b9190610fbe565b6002546104189086610f6c565b6104229190610f89565b905060006103e8610434600484610f6c565b61043e9190610f89565b905061044a8183610fab565b92508383101561046d57604051638199f5f360e01b815260040160405180910390fd5b6002548311156104905760405163bb55fd2760e01b815260040160405180910390fd5b84600160008282546104a29190610fbe565b9250508190555081600260008282546104bb9190610fab565b90915550506000546040516323b872dd60e01b8152336004820152306024820152604481018790526001600160a01b03909116906323b872dd906064016020604051808303816000875af1158015610517573d6000803e3d6000fd5b505050506040513d601f19601f8201168201806040525081019061053b9190610fd1565b610558576040516312171d8360e31b815260040160405180910390fd5b60405160009073227d5f29bab4cec30f511169886b86faef61c6bc9083908381818185875af1925050503d80600081146105ae576040519150601f19603f3d011682016040523d82523d6000602084013e6105b3565b606091505b50509050806105d5576040516312171d8360e31b815260040160405180910390fd5b604051600090339086908381818185875af1925050503d8060008114610617576040519150601f19603f3d011682016040523d82523d6000602084013e61061c565b606091505b505090508061063e576040516312171d8360e31b815260040160405180910390fd5b604080516000808252602082018a90528183018890526060820152905133917f49926bbebe8474393f434dfa4f78694c0923efa07d19f2284518bfabd06eb737919081900360800190a250505050600160065592915050565b60006006546001146106bc5760405163c5f2be5160e01b815260040160405180910390fd5b6002600655346000036106e257604051631f2a200560e01b815260040160405180910390fd5b60015415806106f15750600254155b1561070f5760405163bb55fd2760e01b815260040160405180910390fd5b60006103e861071f600434610f6c565b6107299190610f89565b905060006107378234610fab565b9050806002546107479190610fbe565b6001546107549083610f6c565b61075e9190610f89565b92508383101561078157604051638199f5f360e01b815260040160405180910390fd5b6001548311156107a45760405163bb55fd2760e01b815260040160405180910390fd5b80600260008282546107b69190610fbe565b9250508190555082600160008282546107cf9190610fab565b909155505060405160009073227d5f29bab4cec30f511169886b86faef61c6bc9084908381818185875af1925050503d806000811461082a576040519150601f19603f3d011682016040523d82523d6000602084013e61082f565b606091505b5050905080610851576040516312171d8360e31b815260040160405180910390fd5b60005460405163a9059cbb60e01b8152336004820152602481018690526001600160a01b039091169063a9059cbb906044016020604051808303816000875af11580156108a2573d6000803e3d6000fd5b505050506040513d601f19601f820116820180604052508101906108c69190610fd1565b6108e3576040516312171d8360e31b815260040160405180910390fd5b604080513481526000602082018190528183015260608101869052905133917f49926bbebe8474393f434dfa4f78694c0923efa07d19f2284518bfabd06eb737919081900360800190a25050506001600655919050565b600060065460011461095f5760405163c5f2be5160e01b815260040160405180910390fd5b6002600655336001600160a01b037f000000000000000000000000000000000000000000000000000000000000000016146109ad57604051630636a15760e11b815260040160405180910390fd5b60045460ff16156109d1576040516319f4db0f60e31b815260040160405180910390fd5b3415806109dc575081155b156109fa57604051631f2a200560e01b815260040160405180910390fd5b506004805460ff19166001179055346103e88111610a2b57604051631f2c4df760e11b815260040160405180910390fd5b3460025560018290556000805260056020526103e87f05b8ccbb9d4d8fb16ea74ce3c29a41f1b461fbdaff4714a0d9a8eb05499746bc8190556003819055610a739082610fab565b6000546040516323b872dd60e01b8152336004820152306024820152604481018590529192506001600160a01b0316906323b872dd906064016020604051808303816000875af1158015610acb573d6000803e3d6000fd5b505050506040513d601f19601f82011682018060405250810190610aef9190610fd1565b610b0c576040516312171d8360e31b815260040160405180910390fd5b3360009081526005602052604081208054839290610b2b908490610fbe565b925050819055508060036000828254610b449190610fbe565b9091555050604080513481526020810184905290810182905233907f64b83944e79c3ce8d4c297411de637c3e102d064677aac0c163976ebdcd6f50e9060600160405180910390a26001600655919050565b6000811580610ba55750600154155b15610bb257506000919050565b600082600154610bc29190610fbe565b600254610bcf9085610f6c565b610bd99190610f89565b90506103e8610be9600483610f6c565b610bf39190610f89565b61037b9082610fab565b6000600154600003610c0f5750600090565b600154600254610c2790670de0b6b3a7640000610f6c565b610c319190610f89565b905090565b600080600654600114610c5c5760405163c5f2be5160e01b815260040160405180910390fd5b60026006556000839003610c8357604051631f2a200560e01b815260040160405180910390fd5b33600090815260056020526040902054831115610cb35760405163bb55fd2760e01b815260040160405180910390fd5b600354600003610cd65760405163bb55fd2760e01b815260040160405180910390fd5b600354600254610ce69085610f6c565b610cf09190610f89565b915060035460015484610d039190610f6c565b610d0d9190610f89565b9050811580610d1a575080155b15610d3857604051631f2c4df760e11b815260040160405180910390fd5b3360009081526005602052604081208054859290610d57908490610fab565b925050819055508260036000828254610d709190610fab565b925050819055508160026000828254610d899190610fab565b925050819055508060016000828254610da29190610fab565b909155505060005460405163a9059cbb60e01b8152336004820152602481018390526001600160a01b039091169063a9059cbb906044016020604051808303816000875af1158015610df8573d6000803e3d6000fd5b505050506040513d601f19601f82011682018060405250810190610e1c9190610fd1565b610e39576040516312171d8360e31b815260040160405180910390fd5b604051600090339084908381818185875af1925050503d8060008114610e7b576040519150601f19603f3d011682016040523d82523d6000602084013e610e80565b606091505b5050905080610ea2576040516312171d8360e31b815260040160405180910390fd5b604080518481526020810184905290810185905233907f1dc8bb69df2b8e91fbdcbfcf93d951b3f0000f085a95fe3f7946d6161439245d9060600160405180910390a25060016006559092909150565b600060208284031215610f0457600080fd5b5035919050565b60008060408385031215610f1e57600080fd5b50508035926020909101359150565b600060208284031215610f3f57600080fd5b81356001600160a01b038116811461037b57600080fd5b634e487b7160e01b600052601160045260246000fd5b8082028115828204841417610f8357610f83610f56565b92915050565b600082610fa657634e487b7160e01b600052601260045260246000fd5b500490565b81810381811115610f8357610f83610f56565b80820180821115610f8357610f83610f56565b600060208284031215610fe357600080fd5b8151801515811461037b57600080fdfea26469706673582212205da9b87f71a55ed5bd8126d785e8d284291a9dcd7994331ccb44319ec70051e064736f6c63430008140033",
  "linkReferences": {},
  "deployedLinkReferences": {}
}