{
  "_format": "hh-sol-artifact-1",
  "contractName": "McFunAMM",
  "sourceName": "src/contracts/McFunAMM.sol",
  "abi": [
    {
      "inputs": [
        {
          "internalType": "address",
          "name": "_token",
          "type": "address"
        }
      ],
      "stateMutability": "nonpayable",
      "type": "constructor"
    },
    {
      "inputs": [],
      "name": "AlreadyLaunched",
      "type": "error"
    },
    {
      "inputs": [],
      "name": "InsufficientLiquidity",
      "type": "error"
    },
    {
      "inputs": [],
      "name": "InvalidLiquidityAmount",
      "type": "error"
    },
    {
      "inputs": [],
      "name": "OnlyFactory",
      "type": "error"
    },
    {
      "inputs": [],
      "name": "ReentrancyDetected",
      "type": "error"
    },
    {
      "inputs": [],
      "name": "SlippageExceeded",
      "type": "error"
    },
    {
      "inputs": [],
      "name": "TransferFailed",
      "type": "error"
    },
    {
      "inputs": [],
      "name": "ZeroAddress",
      "type": "error"
    },
    {
      "inputs": [],
      "name": "ZeroAmount",
      "type": "error"
    },
    {
      "anonymous": false,
      "inputs": [
        {
          "indexed": true,
          "internalType": "address",
          "name": "provider",
          "type": "address"
        },
        {
          "indexed": false,
          "internalType": "uint256",
          "name": "ethAmount",
          "type": "uint256"
        },
        {
          "indexed": false,
          "internalType": "uint256",
          "name": "tokenAmount",
          "type": "uint256"
        },
        {
          "indexed": false,
          "internalType": "uint256",
          "name": "liquidityMinted",
          "type": "uint256"
        }
      ],
      "name": "LiquidityAdded",
      "type": "event"
    },
    {
      "anonymous": false,
      "inputs": [
        {
          "indexed": true,
          "internalType": "address",
          "name": "provider",
          "type": "address"
        },
        {
          "indexed": false,
          "internalType": "uint256",
          "name": "ethAmount",
          "type": "uint256"
        },
        {
          "indexed": false,
          "internalType": "uint256",
          "name": "tokenAmount",
          "type": "uint256"
        },
        {
          "indexed": false,
          "internalType": "uint256",
          "name": "liquidityBurned",
          "type": "uint256"
        }
      ],
      "name": "LiquidityRemoved",
      "type": "event"
    },
    {
      "anonymous": false,
      "inputs": [
        {
          "indexed": true,
          "internalType": "address",
          "name": "user",
          "type": "address"
        },
        {
          "indexed": false,
          "internalType": "uint256",
          "name": "ethIn",
          "type": "uint256"
        },
        {
          "indexed": false,
          "internalType": "uint256",
          "name": "tokenIn",
          "type": "uint256"
        },
        {
          "indexed": false,
          "internalType": "uint256",
          "name": "ethOut",
          "type": "uint256"
        },
        {
          "indexed": false,
          "internalType": "uint256",
          "name": "tokenOut",
          "type": "uint256"
        }
      ],
      "name": "Swap",
      "type": "event"
    },
    {
      "inputs": [],
      "name": "DEAD_ADDRESS",
      "outputs": [
        {
          "internalType": "address",
          "name": "",
          "type": "address"
        }
      ],
      "stateMutability": "view",
      "type": "function"
    },
    {
      "inputs": [],
      "name": "FEE_DENOMINATOR",
      "outputs": [
        {
          "internalType": "uint256",
          "name": "",
          "type": "uint256"
        }
      ],
      "stateMutability": "view",
      "type": "function"
    },
    {
      "inputs": [],
      "name": "FEE_PERCENT",
      "outputs": [
        {
          "internalType": "uint256",
          "name": "",
          "type": "uint256"
        }
      ],
      "stateMutability": "view",
      "type": "function"
    },
    {
      "inputs": [],
      "name": "MINIMUM_LIQUIDITY",
      "outputs": [
        {
          "internalType": "uint256",
          "name": "",
          "type": "uint256"
        }
      ],
      "stateMutability": "view",
      "type": "function"
    },
    {
      "inputs": [
        {
          "internalType": "uint256",
          "name": "tokenAmount",
          "type": "uint256"
        }
      ],
      "name": "addLiquidity",
      "outputs": [
        {
          "internalType": "uint256",
          "name": "liquidityMinted",
          "type": "uint256"
        }
      ],
      "stateMutability": "payable",
      "type": "function"
    },
    {
      "inputs": [],
      "name": "factory",
      "outputs": [
        {
          "internalType": "address",
          "name": "",
          "type": "address"
        }
      ],
      "stateMutability": "view",
      "type": "function"
    },
    {
      "inputs": [],
      "name": "feeRecipient",
      "outputs": [
        {
          "internalType": "address",
          "name": "",
          "type": "address"
        }
      ],
      "stateMutability": "view",
      "type": "function"
    },
    {
      "inputs": [
        {
          "internalType": "uint256",
          "name": "tokenIn",
          "type": "uint256"
        }
      ],
      "name": "getETHOut",
      "outputs": [
        {
          "internalType": "uint256",
          "name": "",
          "type": "uint256"
        }
      ],
      "stateMutability": "view",
      "type": "function"
    },
    {
      "inputs": [],
      "name": "getPrice",
      "outputs": [
        {
          "internalType": "uint256",
          "name": "",
          "type": "uint256"
        }
      ],
      "stateMutability": "view",
      "type": "function"
    },
    {
      "inputs": [
        {
          "internalType": "uint256",
          "name": "ethIn",
          "type": "uint256"
        }
      ],
      "name": "getTokenOut",
      "outputs": [
        {
          "internalType": "uint256",
          "name": "",
          "type": "uint256"
        }
      ],
      "stateMutability": "view",
      "type": "function"
    },
    {
      "inputs": [
        {
          "internalType": "address",
          "name": "",
          "type": "address"
        }
      ],
      "name": "liquidity",
      "outputs": [
        {
          "internalType": "uint256",
          "name": "",
          "type": "uint256"
        }
      ],
      "stateMutability": "view",
      "type": "function"
    },
    {
      "inputs": [
        {
          "internalType": "uint256",
          "name": "liquidityAmount",
          "type": "uint256"
        }
      ],
      "name": "removeLiquidity",
      "outputs": [
        {
          "internalType": "uint256",
          "name": "ethAmount",
          "type": "uint256"
        },
        {
          "internalType": "uint256",
          "name": "tokenAmount",
          "type": "uint256"
        }
      ],
      "stateMutability": "nonpayable",
      "type": "function"
    },
    {
      "inputs": [],
      "name": "reserveETH",
      "outputs": [
        {
          "internalType": "uint256",
          "name": "",
          "type": "uint256"
        }
      ],
      "stateMutability": "view",
      "type": "function"
    },
    {
      "inputs": [],
      "name": "reserveToken",
      "outputs": [
        {
          "internalType": "uint256",
          "name": "",
          "type": "uint256"
        }
      ],
      "stateMutability": "view",
      "type": "function"
    },
    {
      "inputs": [
        {
          "internalType": "uint256",
          "name": "minTokenOut",
          "type": "uint256"
        }
      ],
      "name": "swapETHForToken",
      "outputs": [
        {
          "internalType": "uint256",
          "name": "tokenOut",
          "type": "uint256"
        }
      ],
      "stateMutability": "payable",
      "type": "function"
    },
    {
      "inputs": [
        {
          "internalType": "uint256",
          "name": "tokenIn",
          "type": "uint256"
        },
        {
          "internalType": "uint256",
          "name": "minETHOut",
          "type": "uint256"
        }
      ],
      "name": "swapTokenForETH",
      "outputs": [
        {
          "internalType": "uint256",
          "name": "ethOut",
          "type": "uint256"
        }
      ],
      "stateMutability": "nonpayable",
      "type": "function"
    },
    {
      "inputs": [],
      "name": "token",
      "outputs": [
        {
          "internalType": "address",
          "name": "",
          "type": "address"
        }
      ],
      "stateMutability": "view",
      "type": "function"
    },
    {
      "inputs": [],
      "name": "totalLiquidity",
      "outputs": [
        {
          "internalType": "uint256",
          "name": "",
          "type": "uint256"
        }
      ],
      "stateMutability": "view",
      "type": "function"
    }
  ],
  "bytecode": "0x60a0604052600160065534801561001557600080fd5b5060405161114138038061114183398101604081905261003491610084565b6001600160a01b03811661005b5760405163d92e233d60e01b815260040160405180910390fd5b33608052600080546001600160a01b0319166001600160a01b03929092169190911790556100b4565b60006020828403121561009657600080fd5b81516001600160a01b03811681146100ad57600080fd5b9392505050565b60805161106b6100d6600039600081816102c80152610990015261106b6000f3fe6080604052600436106101095760003560e01c806398d5fdca11610095578063c45a015511610064578063c45a0155146102b6578063d73792a9146102a0578063eaf98d23146102ea578063f4325d67146102ff578063fc0c546a1461031557600080fd5b806398d5fdca146102295780639c8f9f231461023e578063b8c876b114610273578063ba9a7a56146102a057600080fd5b80631b3d2cb3116100dc5780631b3d2cb31461018d57806346904840146101a05780634e6fd6c4146101e057806351c6590a146101f657806380cb1a6e1461020957600080fd5b8063100af2031461010e57806315770f921461013757806315d6dae91461014d5780631618e1301461016d575b600080fd5b34801561011a57600080fd5b5061012460025481565b6040519081526020015b60405180910390f35b34801561014357600080fd5b5061012460035481565b34801561015957600080fd5b50610124610168366004610f34565b610335565b34801561017957600080fd5b50610124610188366004610f4d565b6103a3565b61012461019b366004610f34565b6106b8565b3480156101ac57600080fd5b506101c873227d5f29bab4cec30f511169886b86faef61c6bc81565b6040516001600160a01b03909116815260200161012e565b3480156101ec57600080fd5b506101c861dead81565b610124610204366004610f34565b61095b565b34801561021557600080fd5b50610124610224366004610f34565b610bd8565b34801561023557600080fd5b50610124610c3f565b34801561024a57600080fd5b5061025e610259366004610f34565b610c78565b6040805192835260208301919091520161012e565b34801561027f57600080fd5b5061012461028e366004610f6f565b60056020526000908152604090205481565b3480156102ac57600080fd5b506101246103e881565b3480156102c257600080fd5b506101c87f000000000000000000000000000000000000000000000000000000000000000081565b3480156102f657600080fd5b50610124600481565b34801561030b57600080fd5b5061012460015481565b34801561032157600080fd5b506000546101c8906001600160a01b031681565b60008115806103445750600254155b1561035157506000919050565b60006103e8610361600485610fae565b61036b9190610fcb565b6103759084610fed565b9050806002546103859190611000565b6001546103929083610fae565b61039c9190610fcb565b9392505050565b60006006546001146103c85760405163c5f2be5160e01b815260040160405180910390fd5b600260065560008390036103ef57604051631f2a200560e01b815260040160405180910390fd5b60015415806103fe5750600254155b1561041c5760405163bb55fd2760e01b815260040160405180910390fd5b60008360015461042c9190611000565b6002546104399086610fae565b6104439190610fcb565b905060006103e8610455600484610fae565b61045f9190610fcb565b905061046b8183610fed565b92508383101561048e57604051638199f5f360e01b815260040160405180910390fd5b6002548311156104b15760405163bb55fd2760e01b815260040160405180910390fd5b84600160008282546104c39190611000565b9250508190555081600260008282546104dc9190610fed565b90915550506000546040516323b872dd60e01b8152336004820152306024820152604481018790526001600160a01b03909116906323b872dd906064016020604051808303816000875af1158015610538573d6000803e3d6000fd5b505050506040513d601f19601f8201168201806040525081019061055c9190611013565b610579576040516312171d8360e31b815260040160405180910390fd5b60405160009073227d5f29bab4cec30f511169886b86faef61c6bc9083908381818185875af1925050503d80600081146105cf576040519150601f19603f3d011682016040523d82523d6000602084013e6105d4565b606091505b50509050806105f6576040516312171d8360e31b815260040160405180910390fd5b604051600090339086908381818185875af1925050503d8060008114610638576040519150601f19603f3d011682016040523d82523d6000602084013e61063d565b606091505b505090508061065f576040516312171d8360e31b815260040160405180910390fd5b604080516000808252602082018a90528183018890526060820152905133917f49926bbebe8474393f434dfa4f78694c0923efa07d19f2284518bfabd06eb737919081900360800190a250505050600160065592915050565b60006006546001146106dd5760405163c5f2be5160e01b815260040160405180910390fd5b60026006553460000361070357604051631f2a200560e01b815260040160405180910390fd5b60015415806107125750600254155b156107305760405163bb55fd2760e01b815260040160405180910390fd5b60006103e8610740600434610fae565b61074a9190610fcb565b905060006107588234610fed565b9050806002546107689190611000565b6001546107759083610fae565b61077f9190610fcb565b9250838310156107a257604051638199f5f360e01b815260040160405180910390fd5b6001548311156107c55760405163bb55fd2760e01b815260040160405180910390fd5b80600260008282546107d79190611000565b9250508190555082600160008282546107f09190610fed565b909155505060405160009073227d5f29bab4cec30f511169886b86faef61c6bc9084908381818185875af1925050503d806000811461084b576040519150601f19603f3d011682016040523d82523d6000602084013e610850565b606091505b5050905080610872576040516312171d8360e31b815260040160405180910390fd5b60005460405163a9059cbb60e01b8152336004820152602481018690526001600160a01b039091169063a9059cbb906044016020604051808303816000875af11580156108c3573d6000803e3d6000fd5b505050506040513d601f19601f820116820180604052508101906108e79190611013565b610904576040516312171d8360e31b815260040160405180910390fd5b604080513481526000602082018190528183015260608101869052905133917f49926bbebe8474393f434dfa4f78694c0923efa07d19f2284518bfabd06eb737919081900360800190a25050506001600655919050565b60006006546001146109805760405163c5f2be5160e01b815260040160405180910390fd5b6002600655336001600160a01b037f000000000000000000000000000000000000000000000000000000000000000016146109ce57604051630636a15760e11b815260040160405180910390fd5b60045460ff16156109f2576040516319f4db0f60e31b815260040160405180910390fd5b3415806109fd575081155b15610a1b57604051631f2a200560e01b815260040160405180910390fd5b506004805460ff19166001179055346103e88111610a4c57604051631f2c4df760e11b815260040160405180910390fd5b3460025560018290556000805260056020526103e87f05b8ccbb9d4d8fb16ea74ce3c29a41f1b461fbdaff4714a0d9a8eb05499746bc8190556003819055610a949082610fed565b6000546040516323b872dd60e01b8152336004820152306024820152604481018590529192506001600160a01b0316906323b872dd906064016020604051808303816000875af1158015610aec573d6000803e3d6000fd5b505050506040513d601f19601f82011682018060405250810190610b109190611013565b610b2d576040516312171d8360e31b815260040160405180910390fd5b61dead600090815260056020527f7d509c07f0d4edcc2dd1b53aae68677132eb562dcba78e36381b63ccaf66e6ba8054839290610b6b908490611000565b925050819055508060036000828254610b849190611000565b9091555050604080513481526020810184905290810182905261dead907f64b83944e79c3ce8d4c297411de637c3e102d064677aac0c163976ebdcd6f50e9060600160405180910390a26001600655919050565b6000811580610be75750600154155b15610bf457506000919050565b600082600154610c049190611000565b600254610c119085610fae565b610c1b9190610fcb565b90506103e8610c2b600483610fae565b610c359190610fcb565b61039c9082610fed565b6000600154600003610c515750600090565b600154600254610c6990670de0b6b3a7640000610fae565b610c739190610fcb565b905090565b600080600654600114610c9e5760405163c5f2be5160e01b815260040160405180910390fd5b60026006556000839003610cc557604051631f2a200560e01b815260040160405180910390fd5b33600090815260056020526040902054831115610cf55760405163bb55fd2760e01b815260040160405180910390fd5b600354600003610d185760405163bb55fd2760e01b815260040160405180910390fd5b600354600254610d289085610fae565b610d329190610fcb565b915060035460015484610d459190610fae565b610d4f9190610fcb565b9050811580610d5c575080155b15610d7a57604051631f2c4df760e11b815260040160405180910390fd5b3360009081526005602052604081208054859290610d99908490610fed565b925050819055508260036000828254610db29190610fed565b925050819055508160026000828254610dcb9190610fed565b925050819055508060016000828254610de49190610fed565b909155505060005460405163a9059cbb60e01b8152336004820152602481018390526001600160a01b039091169063a9059cbb906044016020604051808303816000875af1158015610e3a573d6000803e3d6000fd5b505050506040513d601f19601f82011682018060405250810190610e5e9190611013565b610e7b576040516312171d8360e31b815260040160405180910390fd5b604051600090339084908381818185875af1925050503d8060008114610ebd576040519150601f19603f3d011682016040523d82523d6000602084013e610ec2565b606091505b5050905080610ee4576040516312171d8360e31b815260040160405180910390fd5b604080518481526020810184905290810185905233907f1dc8bb69df2b8e91fbdcbfcf93d951b3f0000f085a95fe3f7946d6161439245d9060600160405180910390a25060016006559092909150565b600060208284031215610f4657600080fd5b5035919050565b60008060408385031215610f6057600080fd5b50508035926020909101359150565b600060208284031215610f8157600080fd5b81356001600160a01b038116811461039c57600080fd5b634e487b7160e01b600052601160045260246000fd5b8082028115828204841417610fc557610fc5610f98565b92915050565b600082610fe857634e487b7160e01b600052601260045260246000fd5b500490565b81810381811115610fc557610fc5610f98565b80820180821115610fc557610fc5610f98565b60006020828403121561102557600080fd5b8151801515811461039c57600080fdfea2646970667358221220068662b0a0f035b858ad4b2c5208627c8b466efa01ea497dc21e60df80571bd464736f6c63430008140033",
  "linkReferences": {},
  "deployedLinkReferences": {}
}