{
  "_format": "hh-sol-artifact-1",
  "contractName": "JammAMM",
  "sourceName": "src/contracts/JammFactory.sol",
  "abi": [
    {
      "inputs": [
        {
          "internalType": "address",
          "name": "_token",
          "type": "address"
        }
      ],
      "stateMutability": "nonpayable",
      "type": "constructor"
    },
    {
      "inputs": [],
      "name": "InsufficientLiquidity",
      "type": "error"
    },
    {
      "inputs": [],
      "name": "InvalidLiquidityAmount",
      "type": "error"
    },
    {
      "inputs": [],
      "name": "ReentrancyDetected",
      "type": "error"
    },
    {
      "inputs": [],
      "name": "SlippageExceeded",
      "type": "error"
    },
    {
      "inputs": [],
      "name": "TransferFailed",
      "type": "error"
    },
    {
      "inputs": [],
      "name": "ZeroAddress",
      "type": "error"
    },
    {
      "inputs": [],
      "name": "ZeroAmount",
      "type": "error"
    },
    {
      "anonymous": false,
      "inputs": [
        {
          "indexed": true,
          "internalType": "address",
          "name": "provider",
          "type": "address"
        },
        {
          "indexed": false,
          "internalType": "uint256",
          "name": "ethAmount",
          "type": "uint256"
        },
        {
          "indexed": false,
          "internalType": "uint256",
          "name": "tokenAmount",
          "type": "uint256"
        },
        {
          "indexed": false,
          "internalType": "uint256",
          "name": "liquidityMinted",
          "type": "uint256"
        }
      ],
      "name": "LiquidityAdded",
      "type": "event"
    },
    {
      "anonymous": false,
      "inputs": [
        {
          "indexed": true,
          "internalType": "address",
          "name": "provider",
          "type": "address"
        },
        {
          "indexed": false,
          "internalType": "uint256",
          "name": "ethAmount",
          "type": "uint256"
        },
        {
          "indexed": false,
          "internalType": "uint256",
          "name": "tokenAmount",
          "type": "uint256"
        },
        {
          "indexed": false,
          "internalType": "uint256",
          "name": "liquidityBurned",
          "type": "uint256"
        }
      ],
      "name": "LiquidityRemoved",
      "type": "event"
    },
    {
      "anonymous": false,
      "inputs": [
        {
          "indexed": true,
          "internalType": "address",
          "name": "user",
          "type": "address"
        },
        {
          "indexed": false,
          "internalType": "uint256",
          "name": "ethIn",
          "type": "uint256"
        },
        {
          "indexed": false,
          "internalType": "uint256",
          "name": "tokenIn",
          "type": "uint256"
        },
        {
          "indexed": false,
          "internalType": "uint256",
          "name": "ethOut",
          "type": "uint256"
        },
        {
          "indexed": false,
          "internalType": "uint256",
          "name": "tokenOut",
          "type": "uint256"
        }
      ],
      "name": "Swap",
      "type": "event"
    },
    {
      "inputs": [],
      "name": "FEE_DENOMINATOR",
      "outputs": [
        {
          "internalType": "uint256",
          "name": "",
          "type": "uint256"
        }
      ],
      "stateMutability": "view",
      "type": "function"
    },
    {
      "inputs": [],
      "name": "FEE_PERCENT",
      "outputs": [
        {
          "internalType": "uint256",
          "name": "",
          "type": "uint256"
        }
      ],
      "stateMutability": "view",
      "type": "function"
    },
    {
      "inputs": [],
      "name": "MINIMUM_LIQUIDITY",
      "outputs": [
        {
          "internalType": "uint256",
          "name": "",
          "type": "uint256"
        }
      ],
      "stateMutability": "view",
      "type": "function"
    },
    {
      "inputs": [
        {
          "internalType": "uint256",
          "name": "tokenAmount",
          "type": "uint256"
        }
      ],
      "name": "addLiquidity",
      "outputs": [
        {
          "internalType": "uint256",
          "name": "liquidityMinted",
          "type": "uint256"
        }
      ],
      "stateMutability": "payable",
      "type": "function"
    },
    {
      "inputs": [
        {
          "internalType": "address",
          "name": "account",
          "type": "address"
        }
      ],
      "name": "balanceOf",
      "outputs": [
        {
          "internalType": "uint256",
          "name": "",
          "type": "uint256"
        }
      ],
      "stateMutability": "view",
      "type": "function"
    },
    {
      "inputs": [],
      "name": "feeRecipient",
      "outputs": [
        {
          "internalType": "address",
          "name": "",
          "type": "address"
        }
      ],
      "stateMutability": "view",
      "type": "function"
    },
    {
      "inputs": [
        {
          "internalType": "uint256",
          "name": "tokenIn",
          "type": "uint256"
        }
      ],
      "name": "getETHOut",
      "outputs": [
        {
          "internalType": "uint256",
          "name": "",
          "type": "uint256"
        }
      ],
      "stateMutability": "view",
      "type": "function"
    },
    {
      "inputs": [],
      "name": "getPrice",
      "outputs": [
        {
          "internalType": "uint256",
          "name": "",
          "type": "uint256"
        }
      ],
      "stateMutability": "view",
      "type": "function"
    },
    {
      "inputs": [
        {
          "internalType": "uint256",
          "name": "ethIn",
          "type": "uint256"
        }
      ],
      "name": "getTokenOut",
      "outputs": [
        {
          "internalType": "uint256",
          "name": "",
          "type": "uint256"
        }
      ],
      "stateMutability": "view",
      "type": "function"
    },
    {
      "inputs": [
        {
          "internalType": "address",
          "name": "",
          "type": "address"
        }
      ],
      "name": "liquidity",
      "outputs": [
        {
          "internalType": "uint256",
          "name": "",
          "type": "uint256"
        }
      ],
      "stateMutability": "view",
      "type": "function"
    },
    {
      "inputs": [
        {
          "internalType": "uint256",
          "name": "liquidityAmount",
          "type": "uint256"
        }
      ],
      "name": "removeLiquidity",
      "outputs": [
        {
          "internalType": "uint256",
          "name": "ethAmount",
          "type": "uint256"
        },
        {
          "internalType": "uint256",
          "name": "tokenAmount",
          "type": "uint256"
        }
      ],
      "stateMutability": "nonpayable",
      "type": "function"
    },
    {
      "inputs": [],
      "name": "reserveETH",
      "outputs": [
        {
          "internalType": "uint256",
          "name": "",
          "type": "uint256"
        }
      ],
      "stateMutability": "view",
      "type": "function"
    },
    {
      "inputs": [],
      "name": "reserveToken",
      "outputs": [
        {
          "internalType": "uint256",
          "name": "",
          "type": "uint256"
        }
      ],
      "stateMutability": "view",
      "type": "function"
    },
    {
      "inputs": [
        {
          "internalType": "uint256",
          "name": "minTokenOut",
          "type": "uint256"
        }
      ],
      "name": "swapETHForToken",
      "outputs": [
        {
          "internalType": "uint256",
          "name": "tokenOut",
          "type": "uint256"
        }
      ],
      "stateMutability": "payable",
      "type": "function"
    },
    {
      "inputs": [
        {
          "internalType": "uint256",
          "name": "tokenIn",
          "type": "uint256"
        },
        {
          "internalType": "uint256",
          "name": "minETHOut",
          "type": "uint256"
        }
      ],
      "name": "swapTokenForETH",
      "outputs": [
        {
          "internalType": "uint256",
          "name": "ethOut",
          "type": "uint256"
        }
      ],
      "stateMutability": "nonpayable",
      "type": "function"
    },
    {
      "inputs": [],
      "name": "token",
      "outputs": [
        {
          "internalType": "address",
          "name": "",
          "type": "address"
        }
      ],
      "stateMutability": "view",
      "type": "function"
    },
    {
      "inputs": [],
      "name": "totalLiquidity",
      "outputs": [
        {
          "internalType": "uint256",
          "name": "",
          "type": "uint256"
        }
      ],
      "stateMutability": "view",
      "type": "function"
    },
    {
      "inputs": [
        {
          "internalType": "address",
          "name": "to",
          "type": "address"
        },
        {
          "internalType": "uint256",
          "name": "value",
          "type": "uint256"
        }
      ],
      "name": "transfer",
      "outputs": [
        {
          "internalType": "bool",
          "name": "",
          "type": "bool"
        }
      ],
      "stateMutability": "nonpayable",
      "type": "function"
    }
  ],
  "bytecode": "0x6080604052600160055534801561001557600080fd5b5060405161124638038061124683398101604081905261003491610080565b6001600160a01b03811661005b5760405163d92e233d60e01b815260040160405180910390fd5b600080546001600160a01b0319166001600160a01b03929092169190911790556100b0565b60006020828403121561009257600080fd5b81516001600160a01b03811681146100a957600080fd5b9392505050565b611187806100bf6000396000f3fe6080604052600436106101095760003560e01c806398d5fdca11610095578063ba9a7a5611610064578063ba9a7a56146102f0578063d73792a9146102f0578063eaf98d2314610306578063f4325d671461031b578063fc0c546a1461033157600080fd5b806398d5fdca146102495780639c8f9f231461025e578063a9059cbb14610293578063b8c876b1146102c357600080fd5b80631b3d2cb3116100dc5780631b3d2cb31461018d57806346904840146101a057806351c6590a146101e057806370a08231146101f357806380cb1a6e1461022957600080fd5b8063100af2031461010e57806315770f921461013757806315d6dae91461014d5780631618e1301461016d575b600080fd5b34801561011a57600080fd5b5061012460025481565b6040519081526020015b60405180910390f35b34801561014357600080fd5b5061012460035481565b34801561015957600080fd5b5061012461016836600461101e565b610351565b34801561017957600080fd5b50610124610188366004611037565b6103bf565b61012461019b36600461101e565b6106d4565b3480156101ac57600080fd5b506101c873227d5f29bab4cec30f511169886b86faef61c6bc81565b6040516001600160a01b03909116815260200161012e565b6101246101ee36600461101e565b610977565b3480156101ff57600080fd5b5061012461020e366004611075565b6001600160a01b031660009081526004602052604090205490565b34801561023557600080fd5b5061012461024436600461101e565b610c0c565b34801561025557600080fd5b50610124610c73565b34801561026a57600080fd5b5061027e61027936600461101e565b610cac565b6040805192835260208301919091520161012e565b34801561029f57600080fd5b506102b36102ae366004611090565b610f68565b604051901515815260200161012e565b3480156102cf57600080fd5b506101246102de366004611075565b60046020526000908152604090205481565b3480156102fc57600080fd5b506101246103e881565b34801561031257600080fd5b50610124600481565b34801561032757600080fd5b5061012460015481565b34801561033d57600080fd5b506000546101c8906001600160a01b031681565b60008115806103605750600254155b1561036d57506000919050565b60006103e861037d6004856110d0565b61038791906110e7565b6103919084611109565b9050806002546103a1919061111c565b6001546103ae90836110d0565b6103b891906110e7565b9392505050565b60006005546001146103e45760405163c5f2be5160e01b815260040160405180910390fd5b6002600555600083900361040b57604051631f2a200560e01b815260040160405180910390fd5b600154158061041a5750600254155b156104385760405163bb55fd2760e01b815260040160405180910390fd5b600083600154610448919061111c565b60025461045590866110d0565b61045f91906110e7565b905060006103e86104716004846110d0565b61047b91906110e7565b90506104878183611109565b9250838310156104aa57604051638199f5f360e01b815260040160405180910390fd5b6002548311156104cd5760405163bb55fd2760e01b815260040160405180910390fd5b84600160008282546104df919061111c565b9250508190555081600260008282546104f89190611109565b90915550506000546040516323b872dd60e01b8152336004820152306024820152604481018790526001600160a01b03909116906323b872dd906064016020604051808303816000875af1158015610554573d6000803e3d6000fd5b505050506040513d601f19601f82011682018060405250810190610578919061112f565b610595576040516312171d8360e31b815260040160405180910390fd5b60405160009073227d5f29bab4cec30f511169886b86faef61c6bc9083908381818185875af1925050503d80600081146105eb576040519150601f19603f3d011682016040523d82523d6000602084013e6105f0565b606091505b5050905080610612576040516312171d8360e31b815260040160405180910390fd5b604051600090339086908381818185875af1925050503d8060008114610654576040519150601f19603f3d011682016040523d82523d6000602084013e610659565b606091505b505090508061067b576040516312171d8360e31b815260040160405180910390fd5b604080516000808252602082018a90528183018890526060820152905133917f49926bbebe8474393f434dfa4f78694c0923efa07d19f2284518bfabd06eb737919081900360800190a250505050600160055592915050565b60006005546001146106f95760405163c5f2be5160e01b815260040160405180910390fd5b60026005553460000361071f57604051631f2a200560e01b815260040160405180910390fd5b600154158061072e5750600254155b1561074c5760405163bb55fd2760e01b815260040160405180910390fd5b60006103e861075c6004346110d0565b61076691906110e7565b905060006107748234611109565b905080600254610784919061111c565b60015461079190836110d0565b61079b91906110e7565b9250838310156107be57604051638199f5f360e01b815260040160405180910390fd5b6001548311156107e15760405163bb55fd2760e01b815260040160405180910390fd5b80600260008282546107f3919061111c565b92505081905550826001600082825461080c9190611109565b909155505060405160009073227d5f29bab4cec30f511169886b86faef61c6bc9084908381818185875af1925050503d8060008114610867576040519150601f19603f3d011682016040523d82523d6000602084013e61086c565b606091505b505090508061088e576040516312171d8360e31b815260040160405180910390fd5b60005460405163a9059cbb60e01b8152336004820152602481018690526001600160a01b039091169063a9059cbb906044016020604051808303816000875af11580156108df573d6000803e3d6000fd5b505050506040513d601f19601f82011682018060405250810190610903919061112f565b610920576040516312171d8360e31b815260040160405180910390fd5b604080513481526000602082018190528183015260608101869052905133917f49926bbebe8474393f434dfa4f78694c0923efa07d19f2284518bfabd06eb737919081900360800190a25050506001600555919050565b600060055460011461099c5760405163c5f2be5160e01b815260040160405180910390fd5b60026005553415806109ac575081155b156109ca57604051631f2a200560e01b815260040160405180910390fd5b600354600003610a475750346103e881116109f857604051631f2c4df760e11b815260040160405180910390fd5b3460025560018290556000805260046020526103e87f17ef568e3e12ab5b9c7254a8d58478811de00f9e6eb34345acd53bf8fd09d3ec8190556003819055610a409082611109565b9050610aea565b600060025460035434610a5a91906110d0565b610a6491906110e7565b9050600060015460035485610a7991906110d0565b610a8391906110e7565b9050808210610a925780610a94565b815b925082600003610ab757604051631f2c4df760e11b815260040160405180910390fd5b3460026000828254610ac9919061111c565b925050819055508360016000828254610ae2919061111c565b909155505050505b6000546040516323b872dd60e01b8152336004820152306024820152604481018490526001600160a01b03909116906323b872dd906064016020604051808303816000875af1158015610b41573d6000803e3d6000fd5b505050506040513d601f19601f82011682018060405250810190610b65919061112f565b610b82576040516312171d8360e31b815260040160405180910390fd5b3360009081526004602052604081208054839290610ba190849061111c565b925050819055508060036000828254610bba919061111c565b9091555050604080513481526020810184905290810182905233907f64b83944e79c3ce8d4c297411de637c3e102d064677aac0c163976ebdcd6f50e9060600160405180910390a26001600555919050565b6000811580610c1b5750600154155b15610c2857506000919050565b600082600154610c38919061111c565b600254610c4590856110d0565b610c4f91906110e7565b90506103e8610c5f6004836110d0565b610c6991906110e7565b6103b89082611109565b6000600154600003610c855750600090565b600154600254610c9d90670de0b6b3a76400006110d0565b610ca791906110e7565b905090565b600080600554600114610cd25760405163c5f2be5160e01b815260040160405180910390fd5b60026005556000839003610cf957604051631f2a200560e01b815260040160405180910390fd5b33600090815260046020526040902054831115610d295760405163bb55fd2760e01b815260040160405180910390fd5b600354600003610d4c5760405163bb55fd2760e01b815260040160405180910390fd5b600354600254610d5c90856110d0565b610d6691906110e7565b915060035460015484610d7991906110d0565b610d8391906110e7565b9050811580610d90575080155b15610dae57604051631f2c4df760e11b815260040160405180910390fd5b3360009081526004602052604081208054859290610dcd908490611109565b925050819055508260036000828254610de69190611109565b925050819055508160026000828254610dff9190611109565b925050819055508060016000828254610e189190611109565b909155505060005460405163a9059cbb60e01b8152336004820152602481018390526001600160a01b039091169063a9059cbb906044016020604051808303816000875af1158015610e6e573d6000803e3d6000fd5b505050506040513d601f19601f82011682018060405250810190610e92919061112f565b610eaf576040516312171d8360e31b815260040160405180910390fd5b604051600090339084908381818185875af1925050503d8060008114610ef1576040519150601f19603f3d011682016040523d82523d6000602084013e610ef6565b606091505b5050905080610f18576040516312171d8360e31b815260040160405180910390fd5b604080518481526020810184905290810185905233907f1dc8bb69df2b8e91fbdcbfcf93d951b3f0000f085a95fe3f7946d6161439245d9060600160405180910390a25060016005559092909150565b33600090815260046020526040812054821115610fc25760405162461bcd60e51b8152602060048201526014602482015273496e73756666696369656e742062616c616e636560601b604482015260640160405180910390fd5b3360009081526004602052604081208054849290610fe1908490611109565b90915550506001600160a01b0383166000908152600460205260408120805484929061100e90849061111c565b9091555060019150505b92915050565b60006020828403121561103057600080fd5b5035919050565b6000806040838503121561104a57600080fd5b50508035926020909101359150565b80356001600160a01b038116811461107057600080fd5b919050565b60006020828403121561108757600080fd5b6103b882611059565b600080604083850312156110a357600080fd5b6110ac83611059565b946020939093013593505050565b634e487b7160e01b600052601160045260246000fd5b8082028115828204841417611018576110186110ba565b60008261110457634e487b7160e01b600052601260045260246000fd5b500490565b81810381811115611018576110186110ba565b80820180821115611018576110186110ba565b60006020828403121561114157600080fd5b815180151581146103b857600080fdfea2646970667358221220543601b57f148f91cfa4663d26e75386c6cf8fc5bd721a73906253a39de5769264736f6c63430008140033",
  "linkReferences": {},
  "deployedLinkReferences": {}
}