{
  "_format": "hh-sol-artifact-1",
  "contractName": "JammAMM",
  "sourceName": "src/contracts/JammFactory.sol",
  "abi": [
    {
      "inputs": [
        {
          "internalType": "address",
          "name": "_token",
          "type": "address"
        }
      ],
      "stateMutability": "nonpayable",
      "type": "constructor"
    },
    {
      "anonymous": false,
      "inputs": [
        {
          "indexed": true,
          "internalType": "address",
          "name": "provider",
          "type": "address"
        },
        {
          "indexed": false,
          "internalType": "uint256",
          "name": "ethAmount",
          "type": "uint256"
        },
        {
          "indexed": false,
          "internalType": "uint256",
          "name": "tokenAmount",
          "type": "uint256"
        },
        {
          "indexed": false,
          "internalType": "uint256",
          "name": "liquidityMinted",
          "type": "uint256"
        }
      ],
      "name": "LiquidityAdded",
      "type": "event"
    },
    {
      "anonymous": false,
      "inputs": [
        {
          "indexed": true,
          "internalType": "address",
          "name": "provider",
          "type": "address"
        },
        {
          "indexed": false,
          "internalType": "uint256",
          "name": "ethAmount",
          "type": "uint256"
        },
        {
          "indexed": false,
          "internalType": "uint256",
          "name": "tokenAmount",
          "type": "uint256"
        },
        {
          "indexed": false,
          "internalType": "uint256",
          "name": "liquidityBurned",
          "type": "uint256"
        }
      ],
      "name": "LiquidityRemoved",
      "type": "event"
    },
    {
      "anonymous": false,
      "inputs": [
        {
          "indexed": true,
          "internalType": "address",
          "name": "user",
          "type": "address"
        },
        {
          "indexed": false,
          "internalType": "uint256",
          "name": "ethIn",
          "type": "uint256"
        },
        {
          "indexed": false,
          "internalType": "uint256",
          "name": "tokenIn",
          "type": "uint256"
        },
        {
          "indexed": false,
          "internalType": "uint256",
          "name": "ethOut",
          "type": "uint256"
        },
        {
          "indexed": false,
          "internalType": "uint256",
          "name": "tokenOut",
          "type": "uint256"
        }
      ],
      "name": "Swap",
      "type": "event"
    },
    {
      "inputs": [],
      "name": "FEE_DENOMINATOR",
      "outputs": [
        {
          "internalType": "uint256",
          "name": "",
          "type": "uint256"
        }
      ],
      "stateMutability": "view",
      "type": "function"
    },
    {
      "inputs": [],
      "name": "FEE_PERCENT",
      "outputs": [
        {
          "internalType": "uint256",
          "name": "",
          "type": "uint256"
        }
      ],
      "stateMutability": "view",
      "type": "function"
    },
    {
      "inputs": [
        {
          "internalType": "uint256",
          "name": "tokenAmount",
          "type": "uint256"
        }
      ],
      "name": "addLiquidity",
      "outputs": [
        {
          "internalType": "uint256",
          "name": "liquidityMinted",
          "type": "uint256"
        }
      ],
      "stateMutability": "payable",
      "type": "function"
    },
    {
      "inputs": [
        {
          "internalType": "address",
          "name": "account",
          "type": "address"
        }
      ],
      "name": "balanceOf",
      "outputs": [
        {
          "internalType": "uint256",
          "name": "",
          "type": "uint256"
        }
      ],
      "stateMutability": "view",
      "type": "function"
    },
    {
      "inputs": [],
      "name": "feeRecipient",
      "outputs": [
        {
          "internalType": "address",
          "name": "",
          "type": "address"
        }
      ],
      "stateMutability": "view",
      "type": "function"
    },
    {
      "inputs": [
        {
          "internalType": "uint256",
          "name": "tokenIn",
          "type": "uint256"
        }
      ],
      "name": "getETHOut",
      "outputs": [
        {
          "internalType": "uint256",
          "name": "",
          "type": "uint256"
        }
      ],
      "stateMutability": "view",
      "type": "function"
    },
    {
      "inputs": [],
      "name": "getPrice",
      "outputs": [
        {
          "internalType": "uint256",
          "name": "",
          "type": "uint256"
        }
      ],
      "stateMutability": "view",
      "type": "function"
    },
    {
      "inputs": [
        {
          "internalType": "uint256",
          "name": "ethIn",
          "type": "uint256"
        }
      ],
      "name": "getTokenOut",
      "outputs": [
        {
          "internalType": "uint256",
          "name": "",
          "type": "uint256"
        }
      ],
      "stateMutability": "view",
      "type": "function"
    },
    {
      "inputs": [
        {
          "internalType": "address",
          "name": "",
          "type": "address"
        }
      ],
      "name": "liquidity",
      "outputs": [
        {
          "internalType": "uint256",
          "name": "",
          "type": "uint256"
        }
      ],
      "stateMutability": "view",
      "type": "function"
    },
    {
      "inputs": [
        {
          "internalType": "uint256",
          "name": "liquidityAmount",
          "type": "uint256"
        }
      ],
      "name": "removeLiquidity",
      "outputs": [
        {
          "internalType": "uint256",
          "name": "ethAmount",
          "type": "uint256"
        },
        {
          "internalType": "uint256",
          "name": "tokenAmount",
          "type": "uint256"
        }
      ],
      "stateMutability": "nonpayable",
      "type": "function"
    },
    {
      "inputs": [],
      "name": "reserveETH",
      "outputs": [
        {
          "internalType": "uint256",
          "name": "",
          "type": "uint256"
        }
      ],
      "stateMutability": "view",
      "type": "function"
    },
    {
      "inputs": [],
      "name": "reserveToken",
      "outputs": [
        {
          "internalType": "uint256",
          "name": "",
          "type": "uint256"
        }
      ],
      "stateMutability": "view",
      "type": "function"
    },
    {
      "inputs": [
        {
          "internalType": "uint256",
          "name": "minTokenOut",
          "type": "uint256"
        }
      ],
      "name": "swapETHForToken",
      "outputs": [
        {
          "internalType": "uint256",
          "name": "tokenOut",
          "type": "uint256"
        }
      ],
      "stateMutability": "payable",
      "type": "function"
    },
    {
      "inputs": [
        {
          "internalType": "uint256",
          "name": "tokenIn",
          "type": "uint256"
        },
        {
          "internalType": "uint256",
          "name": "minETHOut",
          "type": "uint256"
        }
      ],
      "name": "swapTokenForETH",
      "outputs": [
        {
          "internalType": "uint256",
          "name": "ethOut",
          "type": "uint256"
        }
      ],
      "stateMutability": "nonpayable",
      "type": "function"
    },
    {
      "inputs": [],
      "name": "token",
      "outputs": [
        {
          "internalType": "address",
          "name": "",
          "type": "address"
        }
      ],
      "stateMutability": "view",
      "type": "function"
    },
    {
      "inputs": [],
      "name": "totalLiquidity",
      "outputs": [
        {
          "internalType": "uint256",
          "name": "",
          "type": "uint256"
        }
      ],
      "stateMutability": "view",
      "type": "function"
    },
    {
      "inputs": [
        {
          "internalType": "address",
          "name": "to",
          "type": "address"
        },
        {
          "internalType": "uint256",
          "name": "value",
          "type": "uint256"
        }
      ],
      "name": "transfer",
      "outputs": [
        {
          "internalType": "bool",
          "name": "",
          "type": "bool"
        }
      ],
      "stateMutability": "nonpayable",
      "type": "function"
    }
  ],
  "bytecode": "0x608060405234801561001057600080fd5b50604051610f8e380380610f8e83398101604081905261002f91610054565b600080546001600160a01b0319166001600160a01b0392909216919091179055610084565b60006020828403121561006657600080fd5b81516001600160a01b038116811461007d57600080fd5b9392505050565b610efb806100936000396000f3fe6080604052600436106100fe5760003560e01c806380cb1a6e11610095578063b8c876b111610064578063b8c876b1146102b8578063d73792a9146102e5578063eaf98d23146102fb578063f4325d6714610310578063fc0c546a1461032657600080fd5b806380cb1a6e1461021e57806398d5fdca1461023e5780639c8f9f2314610253578063a9059cbb1461028857600080fd5b80631b3d2cb3116100d15780631b3d2cb314610182578063469048401461019557806351c6590a146101d557806370a08231146101e857600080fd5b8063100af2031461010357806315770f921461012c57806315d6dae9146101425780631618e13014610162575b600080fd5b34801561010f57600080fd5b5061011960025481565b6040519081526020015b60405180910390f35b34801561013857600080fd5b5061011960035481565b34801561014e57600080fd5b5061011961015d366004610d62565b610346565b34801561016e57600080fd5b5061011961017d366004610d7b565b6103b4565b610119610190366004610d62565b610627565b3480156101a157600080fd5b506101bd73227d5f29bab4cec30f511169886b86faef61c6bc81565b6040516001600160a01b039091168152602001610123565b6101196101e3366004610d62565b61085d565b3480156101f457600080fd5b50610119610203366004610db9565b6001600160a01b031660009081526004602052604090205490565b34801561022a57600080fd5b50610119610239366004610d62565b610a4a565b34801561024a57600080fd5b50610119610ab1565b34801561025f57600080fd5b5061027361026e366004610d62565b610aea565b60408051928352602083019190915201610123565b34801561029457600080fd5b506102a86102a3366004610dd4565b610cb2565b6040519015158152602001610123565b3480156102c457600080fd5b506101196102d3366004610db9565b60046020526000908152604090205481565b3480156102f157600080fd5b506101196103e881565b34801561030757600080fd5b50610119600481565b34801561031c57600080fd5b5061011960015481565b34801561033257600080fd5b506000546101bd906001600160a01b031681565b60008115806103555750600254155b1561036257506000919050565b60006103e8610372600485610e14565b61037c9190610e2b565b6103869084610e4d565b9050806002546103969190610e60565b6001546103a39083610e14565b6103ad9190610e2b565b9392505050565b60008083116104015760405162461bcd60e51b8152602060048201526014602482015273125b9d985b1a59081d1bdad95b88185b5bdd5b9d60621b60448201526064015b60405180910390fd5b6000546040516323b872dd60e01b8152336004820152306024820152604481018590526001600160a01b03909116906323b872dd906064016020604051808303816000875af1158015610458573d6000803e3d6000fd5b505050506040513d601f19601f8201168201806040525081019061047c9190610e73565b5060008360015461048d9190610e60565b60025461049a9086610e14565b6104a49190610e2b565b905060006103e86104b6600484610e14565b6104c09190610e2b565b90506104cc8183610e4d565b9250838310156105125760405162461bcd60e51b81526020600482015260116024820152700a6d8d2e0e0c2ceca40e8dede40d0d2ced607b1b60448201526064016103f8565b6002548311156105345760405162461bcd60e51b81526004016103f890610e95565b84600160008282546105469190610e60565b92505081905550816002600082825461055f9190610e4d565b909155505060405173227d5f29bab4cec30f511169886b86faef61c6bc9082156108fc029083906000818181858888f193505050501580156105a5573d6000803e3d6000fd5b50604051339084156108fc029085906000818181858888f193505050501580156105d3573d6000803e3d6000fd5b50604080516000808252602082018890528183018690526060820152905133917f49926bbebe8474393f434dfa4f78694c0923efa07d19f2284518bfabd06eb737919081900360800190a250505b92915050565b600080341161066d5760405162461bcd60e51b8152602060048201526012602482015271125b9d985b1a590811551208185b5bdd5b9d60721b60448201526064016103f8565b60006103e861067d600434610e14565b6106879190610e2b565b905060006106958234610e4d565b9050806002546106a59190610e60565b6001546106b29083610e14565b6106bc9190610e2b565b9250838310156107025760405162461bcd60e51b81526020600482015260116024820152700a6d8d2e0e0c2ceca40e8dede40d0d2ced607b1b60448201526064016103f8565b6001548311156107245760405162461bcd60e51b81526004016103f890610e95565b80600260008282546107369190610e60565b92505081905550826001600082825461074f9190610e4d565b909155505060405173227d5f29bab4cec30f511169886b86faef61c6bc9083156108fc029084906000818181858888f19350505050158015610795573d6000803e3d6000fd5b5060005460405163a9059cbb60e01b8152336004820152602481018590526001600160a01b039091169063a9059cbb906044016020604051808303816000875af11580156107e7573d6000803e3d6000fd5b505050506040513d601f19601f8201168201806040525081019061080b9190610e73565b50604080513481526000602082018190528183015260608101859052905133917f49926bbebe8474393f434dfa4f78694c0923efa07d19f2284518bfabd06eb737919081900360800190a25050919050565b6000803411801561086e5750600082115b6108ac5760405162461bcd60e51b815260206004820152600f60248201526e496e76616c696420616d6f756e747360881b60448201526064016103f8565b6003546000036108c757503460028190556001829055610949565b6000600254600354346108da9190610e14565b6108e49190610e2b565b90506000600154600354856108f99190610e14565b6109039190610e2b565b90508082106109125780610914565b815b925034600260008282546109289190610e60565b9250508190555083600160008282546109419190610e60565b909155505050505b6000546040516323b872dd60e01b8152336004820152306024820152604481018490526001600160a01b03909116906323b872dd906064016020604051808303816000875af11580156109a0573d6000803e3d6000fd5b505050506040513d601f19601f820116820180604052508101906109c49190610e73565b5033600090815260046020526040812080548392906109e4908490610e60565b9250508190555080600360008282546109fd9190610e60565b9091555050604080513481526020810184905290810182905233907f64b83944e79c3ce8d4c297411de637c3e102d064677aac0c163976ebdcd6f50e9060600160405180910390a2919050565b6000811580610a595750600154155b15610a6657506000919050565b600082600154610a769190610e60565b600254610a839085610e14565b610a8d9190610e2b565b90506103e8610a9d600483610e14565b610aa79190610e2b565b6103ad9082610e4d565b6000600154600003610ac35750600090565b600154600254610adb90670de0b6b3a7640000610e14565b610ae59190610e2b565b905090565b336000908152600460205260408120548190831115610b1b5760405162461bcd60e51b81526004016103f890610e95565b600354600254610b2b9085610e14565b610b359190610e2b565b915060035460015484610b489190610e14565b610b529190610e2b565b33600090815260046020526040812080549293508592909190610b76908490610e4d565b925050819055508260036000828254610b8f9190610e4d565b925050819055508160026000828254610ba89190610e4d565b925050819055508060016000828254610bc19190610e4d565b909155505060005460405163a9059cbb60e01b8152336004820152602481018390526001600160a01b039091169063a9059cbb906044016020604051808303816000875af1158015610c17573d6000803e3d6000fd5b505050506040513d601f19601f82011682018060405250810190610c3b9190610e73565b50604051339083156108fc029084906000818181858888f19350505050158015610c69573d6000803e3d6000fd5b50604080518381526020810183905290810184905233907f1dc8bb69df2b8e91fbdcbfcf93d951b3f0000f085a95fe3f7946d6161439245d9060600160405180910390a2915091565b33600090815260046020526040812054821115610d085760405162461bcd60e51b8152602060048201526014602482015273496e73756666696369656e742062616c616e636560601b60448201526064016103f8565b3360009081526004602052604081208054849290610d27908490610e4d565b90915550506001600160a01b03831660009081526004602052604081208054849290610d54908490610e60565b909155506001949350505050565b600060208284031215610d7457600080fd5b5035919050565b60008060408385031215610d8e57600080fd5b50508035926020909101359150565b80356001600160a01b0381168114610db457600080fd5b919050565b600060208284031215610dcb57600080fd5b6103ad82610d9d565b60008060408385031215610de757600080fd5b610df083610d9d565b946020939093013593505050565b634e487b7160e01b600052601160045260246000fd5b808202811582820484141761062157610621610dfe565b600082610e4857634e487b7160e01b600052601260045260246000fd5b500490565b8181038181111561062157610621610dfe565b8082018082111561062157610621610dfe565b600060208284031215610e8557600080fd5b815180151581146103ad57600080fd5b602080825260169082015275496e73756666696369656e74206c697175696469747960501b60408201526060019056fea2646970667358221220d6033eb473dec0da27f4719d489ca849d95dbda887018825023f12a6544a3ea564736f6c63430008140033",
  "linkReferences": {},
  "deployedLinkReferences": {}
}