{
  "_format": "hh-sol-artifact-1",
  "contractName": "TokenLocker",
  "sourceName": "src/contracts/TokenLocker.sol",
  "abi": [
    {
      "inputs": [
        {
          "internalType": "address",
          "name": "_mcFunFactory",
          "type": "address"
        }
      ],
      "stateMutability": "nonpayable",
      "type": "constructor"
    },
    {
      "inputs": [],
      "name": "NotMcFunToken",
      "type": "error"
    },
    {
      "anonymous": false,
      "inputs": [
        {
          "indexed": true,
          "internalType": "uint256",
          "name": "lockId",
          "type": "uint256"
        },
        {
          "indexed": true,
          "internalType": "address",
          "name": "owner",
          "type": "address"
        },
        {
          "indexed": true,
          "internalType": "address",
          "name": "tokenAddress",
          "type": "address"
        },
        {
          "indexed": false,
          "internalType": "uint256",
          "name": "amount",
          "type": "uint256"
        },
        {
          "indexed": false,
          "internalType": "uint256",
          "name": "unlockTime",
          "type": "uint256"
        }
      ],
      "name": "TokensLocked",
      "type": "event"
    },
    {
      "anonymous": false,
      "inputs": [
        {
          "indexed": true,
          "internalType": "uint256",
          "name": "lockId",
          "type": "uint256"
        },
        {
          "indexed": true,
          "internalType": "address",
          "name": "owner",
          "type": "address"
        },
        {
          "indexed": true,
          "internalType": "address",
          "name": "tokenAddress",
          "type": "address"
        },
        {
          "indexed": false,
          "internalType": "uint256",
          "name": "amount",
          "type": "uint256"
        }
      ],
      "name": "TokensUnlocked",
      "type": "event"
    },
    {
      "inputs": [
        {
          "internalType": "uint256",
          "name": "lockId",
          "type": "uint256"
        }
      ],
      "name": "getLock",
      "outputs": [
        {
          "internalType": "address",
          "name": "owner",
          "type": "address"
        },
        {
          "internalType": "address",
          "name": "tokenAddress",
          "type": "address"
        },
        {
          "internalType": "uint256",
          "name": "amount",
          "type": "uint256"
        },
        {
          "internalType": "uint256",
          "name": "unlockTime",
          "type": "uint256"
        },
        {
          "internalType": "bool",
          "name": "withdrawn",
          "type": "bool"
        }
      ],
      "stateMutability": "view",
      "type": "function"
    },
    {
      "inputs": [
        {
          "internalType": "uint256",
          "name": "lockId",
          "type": "uint256"
        }
      ],
      "name": "getTimeUntilUnlock",
      "outputs": [
        {
          "internalType": "uint256",
          "name": "",
          "type": "uint256"
        }
      ],
      "stateMutability": "view",
      "type": "function"
    },
    {
      "inputs": [
        {
          "internalType": "address",
          "name": "tokenAddress",
          "type": "address"
        }
      ],
      "name": "isMcFunToken",
      "outputs": [
        {
          "internalType": "bool",
          "name": "",
          "type": "bool"
        }
      ],
      "stateMutability": "view",
      "type": "function"
    },
    {
      "inputs": [
        {
          "internalType": "address",
          "name": "tokenAddress",
          "type": "address"
        },
        {
          "internalType": "uint256",
          "name": "amount",
          "type": "uint256"
        },
        {
          "internalType": "uint256",
          "name": "durationDays",
          "type": "uint256"
        }
      ],
      "name": "lockTokens",
      "outputs": [
        {
          "internalType": "uint256",
          "name": "",
          "type": "uint256"
        }
      ],
      "stateMutability": "nonpayable",
      "type": "function"
    },
    {
      "inputs": [
        {
          "internalType": "uint256",
          "name": "",
          "type": "uint256"
        }
      ],
      "name": "locks",
      "outputs": [
        {
          "internalType": "address",
          "name": "owner",
          "type": "address"
        },
        {
          "internalType": "address",
          "name": "tokenAddress",
          "type": "address"
        },
        {
          "internalType": "uint256",
          "name": "amount",
          "type": "uint256"
        },
        {
          "internalType": "uint256",
          "name": "unlockTime",
          "type": "uint256"
        },
        {
          "internalType": "bool",
          "name": "withdrawn",
          "type": "bool"
        }
      ],
      "stateMutability": "view",
      "type": "function"
    },
    {
      "inputs": [],
      "name": "mcFunFactory",
      "outputs": [
        {
          "internalType": "address",
          "name": "",
          "type": "address"
        }
      ],
      "stateMutability": "view",
      "type": "function"
    },
    {
      "inputs": [],
      "name": "nextLockId",
      "outputs": [
        {
          "internalType": "uint256",
          "name": "",
          "type": "uint256"
        }
      ],
      "stateMutability": "view",
      "type": "function"
    },
    {
      "inputs": [
        {
          "internalType": "uint256",
          "name": "lockId",
          "type": "uint256"
        }
      ],
      "name": "unlockTokens",
      "outputs": [],
      "stateMutability": "nonpayable",
      "type": "function"
    }
  ],
  "bytecode": "0x60a060405234801561001057600080fd5b50604051610b3a380380610b3a83398101604081905261002f9161009a565b6001600160a01b0381166100895760405162461bcd60e51b815260206004820152601760248201527f496e76616c696420666163746f72792061646472657373000000000000000000604482015260640160405180910390fd5b6001600160a01b03166080526100ca565b6000602082840312156100ac57600080fd5b81516001600160a01b03811681146100c357600080fd5b9392505050565b608051610a486100f26000396000818160920152818161025f01526106860152610a486000f3fe608060405234801561001057600080fd5b50600436106100885760003560e01c80637c4053251161005b5780637c4053251461011e578063a25983e514610133578063d68f4dd114610146578063f4dadc61146101ef57600080fd5b80630b7e76761461008d5780630c641c94146100d15780632f6fe5f7146100f45780636518a0b314610115575b600080fd5b6100b47f000000000000000000000000000000000000000000000000000000000000000081565b6040516001600160a01b0390911681526020015b60405180910390f35b6100e46100df3660046108f6565b61023b565b60405190151581526020016100c8565b610107610102366004610913565b6102dc565b6040519081526020016100c8565b61010760015481565b61013161012c366004610913565b61035d565b005b61010761014136600461092c565b610574565b6101ba610154366004610913565b60009081526020818152604091829020825160a08101845281546001600160a01b039081168083526001840154909116938201849052600283015494820185905260038301546060830181905260049093015460ff161515608090920182905294929392565b604080516001600160a01b0396871681529590941660208601529284019190915260608301521515608082015260a0016100c8565b6101ba6101fd366004610913565b600060208190529081526040902080546001820154600283015460038401546004909401546001600160a01b03938416949390921692909160ff1685565b604051630984250b60e21b81526001600160a01b03828116600483015260009182917f00000000000000000000000000000000000000000000000000000000000000001690632610942c90602401602060405180830381865afa1580156102a6573d6000803e3d6000fd5b505050506040513d601f19601f820116820180604052508101906102ca9190610961565b6001600160a01b031615159392505050565b600081815260208181526040808320815160a08101835281546001600160a01b0390811682526001830154169381019390935260028101549183019190915260038101546060830181905260049091015460ff161515608083015242106103465750600092915050565b4281606001516103569190610994565b9392505050565b600081815260208190526040902080546001600160a01b031633146103ba5760405162461bcd60e51b815260206004820152600e60248201526d2737ba103637b1b59037bbb732b960911b60448201526064015b60405180910390fd5b600481015460ff16156104035760405162461bcd60e51b815260206004820152601160248201527020b63932b0b23c903bb4ba34323930bbb760791b60448201526064016103b1565b80600301544210156104575760405162461bcd60e51b815260206004820152601760248201527f4c6f636b20706572696f64206e6f74206578706972656400000000000000000060448201526064016103b1565b6004818101805460ff19166001908117909155820154600283015460405163a9059cbb60e01b8152339381019390935260248301526001600160a01b031690819063a9059cbb906044016020604051808303816000875af11580156104c0573d6000803e3d6000fd5b505050506040513d601f19601f820116820180604052508101906104e491906109ad565b6105225760405162461bcd60e51b815260206004820152600f60248201526e151c985b9cd9995c8819985a5b1959608a1b60448201526064016103b1565b600182015460028301546040519081526001600160a01b0390911690339085907f19193c14e304bcaafa1323889b15c70abcee51dc8cce9b0a4f21040ed456a4af9060200160405180910390a4505050565b60006001600160a01b0384166105c45760405162461bcd60e51b8152602060048201526015602482015274496e76616c696420746f6b656e206164647265737360581b60448201526064016103b1565b600083116106145760405162461bcd60e51b815260206004820152601d60248201527f416d6f756e74206d7573742062652067726561746572207468616e203000000060448201526064016103b1565b600082116106645760405162461bcd60e51b815260206004820152601f60248201527f4475726174696f6e206d757374206265206174206c656173742031206461790060448201526064016103b1565b604051630984250b60e21b81526001600160a01b0385811660048301526000917f000000000000000000000000000000000000000000000000000000000000000090911690632610942c90602401602060405180830381865afa1580156106cf573d6000803e3d6000fd5b505050506040513d601f19601f820116820180604052508101906106f39190610961565b90506001600160a01b03811661071c57604051630655e39560e01b815260040160405180910390fd5b6040516323b872dd60e01b81523360048201523060248201526044810185905285906001600160a01b038216906323b872dd906064016020604051808303816000875af1158015610771573d6000803e3d6000fd5b505050506040513d601f19601f8201168201806040525081019061079591906109ad565b6107d35760405162461bcd60e51b815260206004820152600f60248201526e151c985b9cd9995c8819985a5b1959608a1b60448201526064016103b1565b60018054600091826107e4836109cf565b90915550905060006107f986620151806109e8565b61080390426109ff565b6040805160a081018252338082526001600160a01b038c811660208085018281528587018f8152606087018981526000608089018181528d8252818652908a9020985189546001600160a01b0319908116918916919091178a55935160018a01805490951697169690961790925551600287015551600386015591516004909401805460ff19169415159490941790935583518c81529081018590529394509092909185917fdd17148ffeb69e95dbd8fee5b9a79df1fad7408e496cd1cdec4adf522527e90d910160405180910390a4509695505050505050565b6001600160a01b03811681146108f357600080fd5b50565b60006020828403121561090857600080fd5b8135610356816108de565b60006020828403121561092557600080fd5b5035919050565b60008060006060848603121561094157600080fd5b833561094c816108de565b95602085013595506040909401359392505050565b60006020828403121561097357600080fd5b8151610356816108de565b634e487b7160e01b600052601160045260246000fd5b818103818111156109a7576109a761097e565b92915050565b6000602082840312156109bf57600080fd5b8151801515811461035657600080fd5b6000600182016109e1576109e161097e565b5060010190565b80820281158282048414176109a7576109a761097e565b808201808211156109a7576109a761097e56fea26469706673582212208898eebf8d3e3c343183ff99668410316af5c72d4f2ad4e17a4eb71661d96c3d64736f6c63430008140033",
  "linkReferences": {},
  "deployedLinkReferences": {}
}