{
  "_format": "hh-sol-artifact-1",
  "contractName": "TokenLocker",
  "sourceName": "src/contracts/TokenLocker.sol",
  "abi": [
    {
      "anonymous": false,
      "inputs": [
        {
          "indexed": true,
          "internalType": "uint256",
          "name": "lockId",
          "type": "uint256"
        },
        {
          "indexed": true,
          "internalType": "address",
          "name": "owner",
          "type": "address"
        },
        {
          "indexed": true,
          "internalType": "address",
          "name": "tokenAddress",
          "type": "address"
        },
        {
          "indexed": false,
          "internalType": "uint256",
          "name": "amount",
          "type": "uint256"
        },
        {
          "indexed": false,
          "internalType": "uint256",
          "name": "unlockTime",
          "type": "uint256"
        }
      ],
      "name": "TokensLocked",
      "type": "event"
    },
    {
      "anonymous": false,
      "inputs": [
        {
          "indexed": true,
          "internalType": "uint256",
          "name": "lockId",
          "type": "uint256"
        },
        {
          "indexed": true,
          "internalType": "address",
          "name": "owner",
          "type": "address"
        },
        {
          "indexed": true,
          "internalType": "address",
          "name": "tokenAddress",
          "type": "address"
        },
        {
          "indexed": false,
          "internalType": "uint256",
          "name": "amount",
          "type": "uint256"
        }
      ],
      "name": "TokensUnlocked",
      "type": "event"
    },
    {
      "inputs": [
        {
          "internalType": "uint256",
          "name": "lockId",
          "type": "uint256"
        }
      ],
      "name": "getLock",
      "outputs": [
        {
          "internalType": "address",
          "name": "owner",
          "type": "address"
        },
        {
          "internalType": "address",
          "name": "tokenAddress",
          "type": "address"
        },
        {
          "internalType": "uint256",
          "name": "amount",
          "type": "uint256"
        },
        {
          "internalType": "uint256",
          "name": "unlockTime",
          "type": "uint256"
        },
        {
          "internalType": "bool",
          "name": "withdrawn",
          "type": "bool"
        }
      ],
      "stateMutability": "view",
      "type": "function"
    },
    {
      "inputs": [
        {
          "internalType": "uint256",
          "name": "lockId",
          "type": "uint256"
        }
      ],
      "name": "getTimeUntilUnlock",
      "outputs": [
        {
          "internalType": "uint256",
          "name": "",
          "type": "uint256"
        }
      ],
      "stateMutability": "view",
      "type": "function"
    },
    {
      "inputs": [
        {
          "internalType": "address",
          "name": "tokenAddress",
          "type": "address"
        },
        {
          "internalType": "uint256",
          "name": "amount",
          "type": "uint256"
        },
        {
          "internalType": "uint256",
          "name": "durationDays",
          "type": "uint256"
        }
      ],
      "name": "lockTokens",
      "outputs": [
        {
          "internalType": "uint256",
          "name": "",
          "type": "uint256"
        }
      ],
      "stateMutability": "nonpayable",
      "type": "function"
    },
    {
      "inputs": [
        {
          "internalType": "uint256",
          "name": "",
          "type": "uint256"
        }
      ],
      "name": "locks",
      "outputs": [
        {
          "internalType": "address",
          "name": "owner",
          "type": "address"
        },
        {
          "internalType": "address",
          "name": "tokenAddress",
          "type": "address"
        },
        {
          "internalType": "uint256",
          "name": "amount",
          "type": "uint256"
        },
        {
          "internalType": "uint256",
          "name": "unlockTime",
          "type": "uint256"
        },
        {
          "internalType": "bool",
          "name": "withdrawn",
          "type": "bool"
        }
      ],
      "stateMutability": "view",
      "type": "function"
    },
    {
      "inputs": [],
      "name": "nextLockId",
      "outputs": [
        {
          "internalType": "uint256",
          "name": "",
          "type": "uint256"
        }
      ],
      "stateMutability": "view",
      "type": "function"
    },
    {
      "inputs": [
        {
          "internalType": "uint256",
          "name": "lockId",
          "type": "uint256"
        }
      ],
      "name": "unlockTokens",
      "outputs": [],
      "stateMutability": "nonpayable",
      "type": "function"
    }
  ],
  "bytecode": "0x608060405234801561001057600080fd5b50610820806100206000396000f3fe608060405234801561001057600080fd5b50600436106100625760003560e01c80632f6fe5f7146100675780636518a0b31461008d5780637c40532514610096578063a25983e5146100ab578063d68f4dd1146100be578063f4dadc6114610167575b600080fd5b61007a6100753660046106fc565b6101b3565b6040519081526020015b60405180910390f35b61007a60015481565b6100a96100a43660046106fc565b610234565b005b61007a6100b9366004610715565b61044b565b6101326100cc3660046106fc565b60009081526020818152604091829020825160a08101845281546001600160a01b039081168083526001840154909116938201849052600283015494820185905260038301546060830181905260049093015460ff161515608090920182905294929392565b604080516001600160a01b0396871681529590941660208601529284019190915260608301521515608082015260a001610084565b6101326101753660046106fc565b600060208190529081526040902080546001820154600283015460038401546004909401546001600160a01b03938416949390921692909160ff1685565b600081815260208181526040808320815160a08101835281546001600160a01b0390811682526001830154169381019390935260028101549183019190915260038101546060830181905260049091015460ff1615156080830152421061021d5750600092915050565b42816060015161022d919061076c565b9392505050565b600081815260208190526040902080546001600160a01b031633146102915760405162461bcd60e51b815260206004820152600e60248201526d2737ba103637b1b59037bbb732b960911b60448201526064015b60405180910390fd5b600481015460ff16156102da5760405162461bcd60e51b815260206004820152601160248201527020b63932b0b23c903bb4ba34323930bbb760791b6044820152606401610288565b806003015442101561032e5760405162461bcd60e51b815260206004820152601760248201527f4c6f636b20706572696f64206e6f7420657870697265640000000000000000006044820152606401610288565b6004818101805460ff19166001908117909155820154600283015460405163a9059cbb60e01b8152339381019390935260248301526001600160a01b031690819063a9059cbb906044016020604051808303816000875af1158015610397573d6000803e3d6000fd5b505050506040513d601f19601f820116820180604052508101906103bb9190610785565b6103f95760405162461bcd60e51b815260206004820152600f60248201526e151c985b9cd9995c8819985a5b1959608a1b6044820152606401610288565b600182015460028301546040519081526001600160a01b0390911690339085907f19193c14e304bcaafa1323889b15c70abcee51dc8cce9b0a4f21040ed456a4af9060200160405180910390a4505050565b60006001600160a01b03841661049b5760405162461bcd60e51b8152602060048201526015602482015274496e76616c696420746f6b656e206164647265737360581b6044820152606401610288565b600083116104eb5760405162461bcd60e51b815260206004820152601d60248201527f416d6f756e74206d7573742062652067726561746572207468616e20300000006044820152606401610288565b6000821161053b5760405162461bcd60e51b815260206004820152601f60248201527f4475726174696f6e206d757374206265206174206c65617374203120646179006044820152606401610288565b6040516323b872dd60e01b81523360048201523060248201526044810184905284906001600160a01b038216906323b872dd906064016020604051808303816000875af1158015610590573d6000803e3d6000fd5b505050506040513d601f19601f820116820180604052508101906105b49190610785565b6105f25760405162461bcd60e51b815260206004820152600f60248201526e151c985b9cd9995c8819985a5b1959608a1b6044820152606401610288565b6001805460009182610603836107a7565b909155509050600061061885620151806107c0565b61062290426107d7565b6040805160a081018252338082526001600160a01b038b811660208085018281528587018e8152606087018981526000608089018181528d8252818652908a9020985189546001600160a01b0319908116918916919091178a55935160018a01805490951697169690961790925551600287015551600386015591516004909401805460ff19169415159490941790935583518b81529081018590529394509092909185917fdd17148ffeb69e95dbd8fee5b9a79df1fad7408e496cd1cdec4adf522527e90d910160405180910390a45095945050505050565b60006020828403121561070e57600080fd5b5035919050565b60008060006060848603121561072a57600080fd5b83356001600160a01b038116811461074157600080fd5b95602085013595506040909401359392505050565b634e487b7160e01b600052601160045260246000fd5b8181038181111561077f5761077f610756565b92915050565b60006020828403121561079757600080fd5b8151801515811461022d57600080fd5b6000600182016107b9576107b9610756565b5060010190565b808202811582820484141761077f5761077f610756565b8082018082111561077f5761077f61075656fea2646970667358221220705d3d5b3829747b3c047353d7c5a33e01b39902bf947d8e55e0f87afa9d01ab64736f6c63430008140033",
  "linkReferences": {},
  "deployedLinkReferences": {}
}