{
  "_format": "hh-sol-artifact-1",
  "contractName": "McFunAMM",
  "sourceName": "src/contracts/McFunFactory.sol",
  "abi": [
    {
      "inputs": [
        {
          "internalType": "address",
          "name": "_token",
          "type": "address"
        }
      ],
      "stateMutability": "nonpayable",
      "type": "constructor"
    },
    {
      "inputs": [],
      "name": "InsufficientLiquidity",
      "type": "error"
    },
    {
      "inputs": [],
      "name": "ReentrancyGuard",
      "type": "error"
    },
    {
      "inputs": [],
      "name": "SlippageExceeded",
      "type": "error"
    },
    {
      "inputs": [],
      "name": "ZeroAddress",
      "type": "error"
    },
    {
      "inputs": [],
      "name": "ZeroAmount",
      "type": "error"
    },
    {
      "anonymous": false,
      "inputs": [
        {
          "indexed": true,
          "internalType": "address",
          "name": "provider",
          "type": "address"
        },
        {
          "indexed": false,
          "internalType": "uint256",
          "name": "ethAmount",
          "type": "uint256"
        },
        {
          "indexed": false,
          "internalType": "uint256",
          "name": "tokenAmount",
          "type": "uint256"
        },
        {
          "indexed": false,
          "internalType": "uint256",
          "name": "liquidityMinted",
          "type": "uint256"
        }
      ],
      "name": "LiquidityAdded",
      "type": "event"
    },
    {
      "anonymous": false,
      "inputs": [
        {
          "indexed": true,
          "internalType": "address",
          "name": "provider",
          "type": "address"
        },
        {
          "indexed": false,
          "internalType": "uint256",
          "name": "ethAmount",
          "type": "uint256"
        },
        {
          "indexed": false,
          "internalType": "uint256",
          "name": "tokenAmount",
          "type": "uint256"
        },
        {
          "indexed": false,
          "internalType": "uint256",
          "name": "liquidityBurned",
          "type": "uint256"
        }
      ],
      "name": "LiquidityRemoved",
      "type": "event"
    },
    {
      "anonymous": false,
      "inputs": [
        {
          "indexed": true,
          "internalType": "address",
          "name": "user",
          "type": "address"
        },
        {
          "indexed": false,
          "internalType": "uint256",
          "name": "ethIn",
          "type": "uint256"
        },
        {
          "indexed": false,
          "internalType": "uint256",
          "name": "tokenIn",
          "type": "uint256"
        },
        {
          "indexed": false,
          "internalType": "uint256",
          "name": "ethOut",
          "type": "uint256"
        },
        {
          "indexed": false,
          "internalType": "uint256",
          "name": "tokenOut",
          "type": "uint256"
        }
      ],
      "name": "Swap",
      "type": "event"
    },
    {
      "inputs": [],
      "name": "FEE_DENOMINATOR",
      "outputs": [
        {
          "internalType": "uint256",
          "name": "",
          "type": "uint256"
        }
      ],
      "stateMutability": "view",
      "type": "function"
    },
    {
      "inputs": [],
      "name": "FEE_PERCENT",
      "outputs": [
        {
          "internalType": "uint256",
          "name": "",
          "type": "uint256"
        }
      ],
      "stateMutability": "view",
      "type": "function"
    },
    {
      "inputs": [
        {
          "internalType": "uint256",
          "name": "tokenAmount",
          "type": "uint256"
        }
      ],
      "name": "addLiquidity",
      "outputs": [
        {
          "internalType": "uint256",
          "name": "liquidityMinted",
          "type": "uint256"
        }
      ],
      "stateMutability": "payable",
      "type": "function"
    },
    {
      "inputs": [
        {
          "internalType": "address",
          "name": "account",
          "type": "address"
        }
      ],
      "name": "balanceOf",
      "outputs": [
        {
          "internalType": "uint256",
          "name": "",
          "type": "uint256"
        }
      ],
      "stateMutability": "view",
      "type": "function"
    },
    {
      "inputs": [],
      "name": "feeRecipient",
      "outputs": [
        {
          "internalType": "address",
          "name": "",
          "type": "address"
        }
      ],
      "stateMutability": "view",
      "type": "function"
    },
    {
      "inputs": [
        {
          "internalType": "uint256",
          "name": "tokenIn",
          "type": "uint256"
        }
      ],
      "name": "getETHOut",
      "outputs": [
        {
          "internalType": "uint256",
          "name": "",
          "type": "uint256"
        }
      ],
      "stateMutability": "view",
      "type": "function"
    },
    {
      "inputs": [],
      "name": "getPrice",
      "outputs": [
        {
          "internalType": "uint256",
          "name": "",
          "type": "uint256"
        }
      ],
      "stateMutability": "view",
      "type": "function"
    },
    {
      "inputs": [
        {
          "internalType": "uint256",
          "name": "ethIn",
          "type": "uint256"
        }
      ],
      "name": "getTokenOut",
      "outputs": [
        {
          "internalType": "uint256",
          "name": "",
          "type": "uint256"
        }
      ],
      "stateMutability": "view",
      "type": "function"
    },
    {
      "inputs": [
        {
          "internalType": "address",
          "name": "",
          "type": "address"
        }
      ],
      "name": "liquidity",
      "outputs": [
        {
          "internalType": "uint256",
          "name": "",
          "type": "uint256"
        }
      ],
      "stateMutability": "view",
      "type": "function"
    },
    {
      "inputs": [
        {
          "internalType": "uint256",
          "name": "liquidityAmount",
          "type": "uint256"
        }
      ],
      "name": "removeLiquidity",
      "outputs": [
        {
          "internalType": "uint256",
          "name": "ethAmount",
          "type": "uint256"
        },
        {
          "internalType": "uint256",
          "name": "tokenAmount",
          "type": "uint256"
        }
      ],
      "stateMutability": "nonpayable",
      "type": "function"
    },
    {
      "inputs": [],
      "name": "reserveETH",
      "outputs": [
        {
          "internalType": "uint256",
          "name": "",
          "type": "uint256"
        }
      ],
      "stateMutability": "view",
      "type": "function"
    },
    {
      "inputs": [],
      "name": "reserveToken",
      "outputs": [
        {
          "internalType": "uint256",
          "name": "",
          "type": "uint256"
        }
      ],
      "stateMutability": "view",
      "type": "function"
    },
    {
      "inputs": [
        {
          "internalType": "uint256",
          "name": "minTokenOut",
          "type": "uint256"
        }
      ],
      "name": "swapETHForToken",
      "outputs": [
        {
          "internalType": "uint256",
          "name": "tokenOut",
          "type": "uint256"
        }
      ],
      "stateMutability": "payable",
      "type": "function"
    },
    {
      "inputs": [
        {
          "internalType": "uint256",
          "name": "tokenIn",
          "type": "uint256"
        },
        {
          "internalType": "uint256",
          "name": "minETHOut",
          "type": "uint256"
        }
      ],
      "name": "swapTokenForETH",
      "outputs": [
        {
          "internalType": "uint256",
          "name": "ethOut",
          "type": "uint256"
        }
      ],
      "stateMutability": "nonpayable",
      "type": "function"
    },
    {
      "inputs": [],
      "name": "token",
      "outputs": [
        {
          "internalType": "address",
          "name": "",
          "type": "address"
        }
      ],
      "stateMutability": "view",
      "type": "function"
    },
    {
      "inputs": [],
      "name": "totalLiquidity",
      "outputs": [
        {
          "internalType": "uint256",
          "name": "",
          "type": "uint256"
        }
      ],
      "stateMutability": "view",
      "type": "function"
    },
    {
      "inputs": [
        {
          "internalType": "address",
          "name": "to",
          "type": "address"
        },
        {
          "internalType": "uint256",
          "name": "value",
          "type": "uint256"
        }
      ],
      "name": "transfer",
      "outputs": [
        {
          "internalType": "bool",
          "name": "",
          "type": "bool"
        }
      ],
      "stateMutability": "nonpayable",
      "type": "function"
    }
  ],
  "bytecode": "0x6080604052600160055534801561001557600080fd5b5060405161100e38038061100e83398101604081905261003491610080565b6001600160a01b03811661005b5760405163d92e233d60e01b815260040160405180910390fd5b600080546001600160a01b0319166001600160a01b03929092169190911790556100b0565b60006020828403121561009257600080fd5b81516001600160a01b03811681146100a957600080fd5b9392505050565b610f4f806100bf6000396000f3fe6080604052600436106100fe5760003560e01c806380cb1a6e11610095578063b8c876b111610064578063b8c876b1146102b8578063d73792a9146102e5578063eaf98d23146102fb578063f4325d6714610310578063fc0c546a1461032657600080fd5b806380cb1a6e1461021e57806398d5fdca1461023e5780639c8f9f2314610253578063a9059cbb1461028857600080fd5b80631b3d2cb3116100d15780631b3d2cb314610182578063469048401461019557806351c6590a146101d557806370a08231146101e857600080fd5b8063100af2031461010357806315770f921461012c57806315d6dae9146101425780631618e13014610162575b600080fd5b34801561010f57600080fd5b5061011960025481565b6040519081526020015b60405180910390f35b34801561013857600080fd5b5061011960035481565b34801561014e57600080fd5b5061011961015d366004610de6565b610346565b34801561016e57600080fd5b5061011961017d366004610dff565b6103b4565b610119610190366004610de6565b610635565b3480156101a157600080fd5b506101bd73227d5f29bab4cec30f511169886b86faef61c6bc81565b6040516001600160a01b039091168152602001610123565b6101196101e3366004610de6565b610880565b3480156101f457600080fd5b50610119610203366004610e3d565b6001600160a01b031660009081526004602052604090205490565b34801561022a57600080fd5b50610119610239366004610de6565b610a76565b34801561024a57600080fd5b50610119610add565b34801561025f57600080fd5b5061027361026e366004610de6565b610b16565b60408051928352602083019190915201610123565b34801561029457600080fd5b506102a86102a3366004610e58565b610d31565b6040519015158152602001610123565b3480156102c457600080fd5b506101196102d3366004610e3d565b60046020526000908152604090205481565b3480156102f157600080fd5b506101196103e881565b34801561030757600080fd5b50610119600481565b34801561031c57600080fd5b5061011960015481565b34801561033257600080fd5b506000546101bd906001600160a01b031681565b60008115806103555750600254155b1561036257506000919050565b60006103e8610372600485610e98565b61037c9190610eaf565b6103869084610ed1565b9050806002546103969190610ee4565b6001546103a39083610e98565b6103ad9190610eaf565b9392505050565b60006005546001146103d9576040516345f5ce8b60e11b815260040160405180910390fd5b6002600555600083900361040057604051631f2a200560e01b815260040160405180910390fd5b600154158061040f5750600254155b1561042d5760405163bb55fd2760e01b815260040160405180910390fd5b6000546040516323b872dd60e01b8152336004820152306024820152604481018590526001600160a01b03909116906323b872dd906064016020604051808303816000875af1158015610484573d6000803e3d6000fd5b505050506040513d601f19601f820116820180604052508101906104a89190610ef7565b506000836001546104b99190610ee4565b6002546104c69086610e98565b6104d09190610eaf565b905060006103e86104e2600484610e98565b6104ec9190610eaf565b90506104f88183610ed1565b92508383101561051b57604051638199f5f360e01b815260040160405180910390fd5b60025483111561053e5760405163bb55fd2760e01b815260040160405180910390fd5b84600160008282546105509190610ee4565b9250508190555081600260008282546105699190610ed1565b909155505060405173227d5f29bab4cec30f511169886b86faef61c6bc9082156108fc029083906000818181858888f193505050501580156105af573d6000803e3d6000fd5b50604051339084156108fc029085906000818181858888f193505050501580156105dd573d6000803e3d6000fd5b50604080516000808252602082018890528183018690526060820152905133917f49926bbebe8474393f434dfa4f78694c0923efa07d19f2284518bfabd06eb737919081900360800190a25050600160055592915050565b600060055460011461065a576040516345f5ce8b60e11b815260040160405180910390fd5b60026005553460000361068057604051631f2a200560e01b815260040160405180910390fd5b600154158061068f5750600254155b156106ad5760405163bb55fd2760e01b815260040160405180910390fd5b60006103e86106bd600434610e98565b6106c79190610eaf565b905060006106d58234610ed1565b9050806002546106e59190610ee4565b6001546106f29083610e98565b6106fc9190610eaf565b92508383101561071f57604051638199f5f360e01b815260040160405180910390fd5b6001548311156107425760405163bb55fd2760e01b815260040160405180910390fd5b80600260008282546107549190610ee4565b92505081905550826001600082825461076d9190610ed1565b909155505060405173227d5f29bab4cec30f511169886b86faef61c6bc9083156108fc029084906000818181858888f193505050501580156107b3573d6000803e3d6000fd5b5060005460405163a9059cbb60e01b8152336004820152602481018590526001600160a01b039091169063a9059cbb906044016020604051808303816000875af1158015610805573d6000803e3d6000fd5b505050506040513d601f19601f820116820180604052508101906108299190610ef7565b50604080513481526000602082018190528183015260608101859052905133917f49926bbebe8474393f434dfa4f78694c0923efa07d19f2284518bfabd06eb737919081900360800190a250506001600555919050565b60006005546001146108a5576040516345f5ce8b60e11b815260040160405180910390fd5b60026005553415806108b5575081155b156108d357604051631f2a200560e01b815260040160405180910390fd5b6003546000036108ee57503460028190556001829055610970565b6000600254600354346109019190610e98565b61090b9190610eaf565b90506000600154600354856109209190610e98565b61092a9190610eaf565b9050808210610939578061093b565b815b9250346002600082825461094f9190610ee4565b9250508190555083600160008282546109689190610ee4565b909155505050505b6000546040516323b872dd60e01b8152336004820152306024820152604481018490526001600160a01b03909116906323b872dd906064016020604051808303816000875af11580156109c7573d6000803e3d6000fd5b505050506040513d601f19601f820116820180604052508101906109eb9190610ef7565b503360009081526004602052604081208054839290610a0b908490610ee4565b925050819055508060036000828254610a249190610ee4565b9091555050604080513481526020810184905290810182905233907f64b83944e79c3ce8d4c297411de637c3e102d064677aac0c163976ebdcd6f50e9060600160405180910390a26001600555919050565b6000811580610a855750600154155b15610a9257506000919050565b600082600154610aa29190610ee4565b600254610aaf9085610e98565b610ab99190610eaf565b90506103e8610ac9600483610e98565b610ad39190610eaf565b6103ad9082610ed1565b6000600154600003610aef5750600090565b600154600254610b0790670de0b6b3a7640000610e98565b610b119190610eaf565b905090565b600080600554600114610b3c576040516345f5ce8b60e11b815260040160405180910390fd5b60026005556000839003610b6357604051631f2a200560e01b815260040160405180910390fd5b33600090815260046020526040902054831115610b935760405163bb55fd2760e01b815260040160405180910390fd5b600354600254610ba39085610e98565b610bad9190610eaf565b915060035460015484610bc09190610e98565b610bca9190610eaf565b33600090815260046020526040812080549293508592909190610bee908490610ed1565b925050819055508260036000828254610c079190610ed1565b925050819055508160026000828254610c209190610ed1565b925050819055508060016000828254610c399190610ed1565b909155505060005460405163a9059cbb60e01b8152336004820152602481018390526001600160a01b039091169063a9059cbb906044016020604051808303816000875af1158015610c8f573d6000803e3d6000fd5b505050506040513d601f19601f82011682018060405250810190610cb39190610ef7565b50604051339083156108fc029084906000818181858888f19350505050158015610ce1573d6000803e3d6000fd5b50604080518381526020810183905290810184905233907f1dc8bb69df2b8e91fbdcbfcf93d951b3f0000f085a95fe3f7946d6161439245d9060600160405180910390a260016005559092909150565b60006001600160a01b038316610d5a5760405163d92e233d60e01b815260040160405180910390fd5b33600090815260046020526040902054821115610d8a5760405163bb55fd2760e01b815260040160405180910390fd5b3360009081526004602052604081208054849290610da9908490610ed1565b90915550506001600160a01b03831660009081526004602052604081208054849290610dd6908490610ee4565b9091555060019150505b92915050565b600060208284031215610df857600080fd5b5035919050565b60008060408385031215610e1257600080fd5b50508035926020909101359150565b80356001600160a01b0381168114610e3857600080fd5b919050565b600060208284031215610e4f57600080fd5b6103ad82610e21565b60008060408385031215610e6b57600080fd5b610e7483610e21565b946020939093013593505050565b634e487b7160e01b600052601160045260246000fd5b8082028115828204841417610de057610de0610e82565b600082610ecc57634e487b7160e01b600052601260045260246000fd5b500490565b81810381811115610de057610de0610e82565b80820180821115610de057610de0610e82565b600060208284031215610f0957600080fd5b815180151581146103ad57600080fdfea2646970667358221220dce46bd7b173f9c4c3007cf704430e3c0ce74ef22daf58f8c7a370387519219b64736f6c63430008140033",
  "linkReferences": {},
  "deployedLinkReferences": {}
}