{
  "_format": "hh-sol-artifact-1",
  "contractName": "McFunFactory",
  "sourceName": "src/contracts/McFunFactory.sol",
  "abi": [
    {
      "inputs": [],
      "name": "AMMCreationFailed",
      "type": "error"
    },
    {
      "inputs": [],
      "name": "InvalidETHAmount",
      "type": "error"
    },
    {
      "inputs": [],
      "name": "InvalidLiquidityPercent",
      "type": "error"
    },
    {
      "inputs": [],
      "name": "InvalidNameOrSymbol",
      "type": "error"
    },
    {
      "inputs": [],
      "name": "ReentrancyGuard",
      "type": "error"
    },
    {
      "inputs": [],
      "name": "TokenCreationFailed",
      "type": "error"
    },
    {
      "anonymous": false,
      "inputs": [
        {
          "indexed": true,
          "internalType": "address",
          "name": "tokenAddress",
          "type": "address"
        },
        {
          "indexed": true,
          "internalType": "address",
          "name": "ammAddress",
          "type": "address"
        },
        {
          "indexed": false,
          "internalType": "string",
          "name": "name",
          "type": "string"
        },
        {
          "indexed": false,
          "internalType": "string",
          "name": "symbol",
          "type": "string"
        },
        {
          "indexed": true,
          "internalType": "address",
          "name": "creator",
          "type": "address"
        },
        {
          "indexed": false,
          "internalType": "uint256",
          "name": "liquidityPercent",
          "type": "uint256"
        },
        {
          "indexed": false,
          "internalType": "uint256",
          "name": "initialLiquidityETH",
          "type": "uint256"
        }
      ],
      "name": "TokenLaunched",
      "type": "event"
    },
    {
      "inputs": [],
      "name": "DEAD_ADDRESS",
      "outputs": [
        {
          "internalType": "address",
          "name": "",
          "type": "address"
        }
      ],
      "stateMutability": "view",
      "type": "function"
    },
    {
      "inputs": [],
      "name": "MAX_NAME_LENGTH",
      "outputs": [
        {
          "internalType": "uint256",
          "name": "",
          "type": "uint256"
        }
      ],
      "stateMutability": "view",
      "type": "function"
    },
    {
      "inputs": [],
      "name": "MAX_SYMBOL_LENGTH",
      "outputs": [
        {
          "internalType": "uint256",
          "name": "",
          "type": "uint256"
        }
      ],
      "stateMutability": "view",
      "type": "function"
    },
    {
      "inputs": [],
      "name": "MIN_LIQUIDITY_ETH",
      "outputs": [
        {
          "internalType": "uint256",
          "name": "",
          "type": "uint256"
        }
      ],
      "stateMutability": "view",
      "type": "function"
    },
    {
      "inputs": [],
      "name": "MIN_LIQUIDITY_PERCENT",
      "outputs": [
        {
          "internalType": "uint256",
          "name": "",
          "type": "uint256"
        }
      ],
      "stateMutability": "view",
      "type": "function"
    },
    {
      "inputs": [],
      "name": "TOTAL_SUPPLY",
      "outputs": [
        {
          "internalType": "uint256",
          "name": "",
          "type": "uint256"
        }
      ],
      "stateMutability": "view",
      "type": "function"
    },
    {
      "inputs": [
        {
          "internalType": "string",
          "name": "name",
          "type": "string"
        },
        {
          "internalType": "string",
          "name": "symbol",
          "type": "string"
        },
        {
          "internalType": "uint256",
          "name": "liquidityPercent",
          "type": "uint256"
        }
      ],
      "name": "createToken",
      "outputs": [
        {
          "internalType": "address",
          "name": "tokenAddress",
          "type": "address"
        },
        {
          "internalType": "address",
          "name": "ammAddress",
          "type": "address"
        }
      ],
      "stateMutability": "payable",
      "type": "function"
    },
    {
      "inputs": [
        {
          "internalType": "uint256",
          "name": "index",
          "type": "uint256"
        }
      ],
      "name": "getToken",
      "outputs": [
        {
          "components": [
            {
              "internalType": "address",
              "name": "tokenAddress",
              "type": "address"
            },
            {
              "internalType": "address",
              "name": "ammAddress",
              "type": "address"
            },
            {
              "internalType": "string",
              "name": "name",
              "type": "string"
            },
            {
              "internalType": "string",
              "name": "symbol",
              "type": "string"
            },
            {
              "internalType": "address",
              "name": "creator",
              "type": "address"
            },
            {
              "internalType": "uint256",
              "name": "timestamp",
              "type": "uint256"
            },
            {
              "internalType": "uint256",
              "name": "initialLiquidityETH",
              "type": "uint256"
            },
            {
              "internalType": "uint256",
              "name": "liquidityPercent",
              "type": "uint256"
            }
          ],
          "internalType": "struct McFunFactory.TokenInfo",
          "name": "",
          "type": "tuple"
        }
      ],
      "stateMutability": "view",
      "type": "function"
    },
    {
      "inputs": [],
      "name": "getTokenCount",
      "outputs": [
        {
          "internalType": "uint256",
          "name": "",
          "type": "uint256"
        }
      ],
      "stateMutability": "view",
      "type": "function"
    },
    {
      "inputs": [
        {
          "internalType": "address",
          "name": "",
          "type": "address"
        }
      ],
      "name": "tokenToAMM",
      "outputs": [
        {
          "internalType": "address",
          "name": "",
          "type": "address"
        }
      ],
      "stateMutability": "view",
      "type": "function"
    },
    {
      "inputs": [
        {
          "internalType": "uint256",
          "name": "",
          "type": "uint256"
        }
      ],
      "name": "tokens",
      "outputs": [
        {
          "internalType": "address",
          "name": "tokenAddress",
          "type": "address"
        },
        {
          "internalType": "address",
          "name": "ammAddress",
          "type": "address"
        },
        {
          "internalType": "string",
          "name": "name",
          "type": "string"
        },
        {
          "internalType": "string",
          "name": "symbol",
          "type": "string"
        },
        {
          "internalType": "address",
          "name": "creator",
          "type": "address"
        },
        {
          "internalType": "uint256",
          "name": "timestamp",
          "type": "uint256"
        },
        {
          "internalType": "uint256",
          "name": "initialLiquidityETH",
          "type": "uint256"
        },
        {
          "internalType": "uint256",
          "name": "liquidityPercent",
          "type": "uint256"
        }
      ],
      "stateMutability": "view",
      "type": "function"
    }
  ],
  "bytecode": "0x6080604052600160025534801561001557600080fd5b50612f8b806100256000396000f3fe608060405260043610620000a95760003560e01c806378a89567116200006c57806378a8956714620001bd5780638607498514620001d4578063902d55a514620001eb578063c342381e146200020b578063e3d891711462000222578063e4b50cb8146200023957600080fd5b80632610942c14620000ae5780634e6fd6c414620001055780634f64b2be146200011d5780635b06053014620001585780635d2301101462000190575b600080fd5b348015620000bb57600080fd5b50620000e8620000cd36600462000cd7565b6001602052600090815260409020546001600160a01b031681565b6040516001600160a01b0390911681526020015b60405180910390f35b3480156200011257600080fd5b50620000e861dead81565b3480156200012a57600080fd5b50620001426200013c36600462000d09565b6200026d565b604051620000fc98979695949392919062000d77565b6200016f6200016936600462000e8f565b620003fb565b604080516001600160a01b03938416815292909116602083015201620000fc565b3480156200019d57600080fd5b50620001ae67016345785d8a000081565b604051908152602001620000fc565b348015620001ca57600080fd5b50600054620001ae565b348015620001e157600080fd5b50620001ae601481565b348015620001f857600080fd5b50620001ae69d3c21bcecceda100000081565b3480156200021857600080fd5b50620001ae603281565b3480156200022f57600080fd5b50620001ae600781565b3480156200024657600080fd5b506200025e6200025836600462000d09565b62000a4c565b604051620000fc919062000f03565b600081815481106200027e57600080fd5b60009182526020909120600890910201805460018201546002830180546001600160a01b039384169550929091169291620002b99062000fb8565b80601f0160208091040260200160405190810160405280929190818152602001828054620002e79062000fb8565b8015620003385780601f106200030c5761010080835404028352916020019162000338565b820191906000526020600020905b8154815290600101906020018083116200031a57829003601f168201915b5050505050908060030180546200034f9062000fb8565b80601f01602080910402602001604051908101604052809291908181526020018280546200037d9062000fb8565b8015620003ce5780601f10620003a257610100808354040283529160200191620003ce565b820191906000526020600020905b815481529060010190602001808311620003b057829003601f168201915b5050505060048301546005840154600685015460079095015493946001600160a01b039092169390925088565b60008060025460011462000422576040516345f5ce8b60e11b815260040160405180910390fd5b6002805567016345785d8a0000341015620004505760405163090ac0d760e21b815260040160405180910390fd5b6032831080620004605750606483115b156200047f576040516351424f0b60e11b815260040160405180910390fd5b845115806200048d57508351155b15620004ac57604051632d903dc960e21b815260040160405180910390fd5b601485511180620004be575060078451115b15620004dd57604051632d903dc960e21b815260040160405180910390fd5b600060405180602001620004f19062000cbb565b601f1982820381018352601f90910116604081905262000518908890889060200162000ff4565b60408051601f198184030181529082905262000538929160200162001026565b60405160208183030381529060405290508051602082016000f092506001600160a01b0383166200057c57604051633291986160e11b815260040160405180910390fd5b600060405180602001620005909062000cc9565b601f1982820381018352601f9091011660408181526001600160a01b03871660208301520160408051601f1981840301815290829052620005d5929160200162001026565b60405160208183030381529060405290508051602082016000f092506001600160a01b0383166200061957604051639d63651f60e01b815260040160405180910390fd5b60006064620006338769d3c21bcecceda10000006200106f565b6200063f91906200108f565b90506000620006598269d3c21bcecceda1000000620010b2565b90508460016000886001600160a01b03166001600160a01b0316815260200190815260200160002060006101000a8154816001600160a01b0302191690836001600160a01b031602179055506000604051806101000160405280886001600160a01b03168152602001876001600160a01b031681526020018b81526020018a8152602001336001600160a01b0316815260200142815260200134815260200189815250908060018154018082558091505060019003906000526020600020906008020160009091909190915060008201518160000160006101000a8154816001600160a01b0302191690836001600160a01b0316021790555060208201518160010160006101000a8154816001600160a01b0302191690836001600160a01b0316021790555060408201518160020190816200079691906200111b565b5060608201516003820190620007ad90826200111b565b506080820151600482810180546001600160a01b0319166001600160a01b0393841617905560a0840151600584015560c0840151600684015560e09093015160079092019190915560405163a9059cbb60e01b815233928101929092526024820183905287169063a9059cbb906044016020604051808303816000875af11580156200083d573d6000803e3d6000fd5b505050506040513d601f19601f82011682018060405250810190620008639190620011e8565b620008b55760405162461bcd60e51b815260206004820152601760248201527f43726561746f72207472616e73666572206661696c656400000000000000000060448201526064015b60405180910390fd5b60405163095ea7b360e01b81526001600160a01b0386811660048301526024820184905287169063095ea7b3906044016020604051808303816000875af115801562000905573d6000803e3d6000fd5b505050506040513d601f19601f820116820180604052508101906200092b9190620011e8565b6200096b5760405162461bcd60e51b815260206004820152600f60248201526e105c1c1c9bdd985b0819985a5b1959608a1b6044820152606401620008ac565b6040516328e32c8560e11b8152600481018390526001600160a01b038616906351c6590a90349060240160206040518083038185885af1158015620009b4573d6000803e3d6000fd5b50505050506040513d601f19601f82011682018060405250810190620009db91906200120c565b50336001600160a01b0316856001600160a01b0316876001600160a01b03167fd5056a4f9a1b7dcdc3883feaba86e2c813a1b60814ab674f4f2c53120731b39f8c8c8c3460405162000a31949392919062001226565b60405180910390a45050505060016002559094909350915050565b62000ab060405180610100016040528060006001600160a01b0316815260200160006001600160a01b03168152602001606081526020016060815260200160006001600160a01b031681526020016000815260200160008152602001600081525090565b600054821062000af95760405162461bcd60e51b8152602060048201526013602482015272496e646578206f7574206f6620626f756e647360681b6044820152606401620008ac565b6000828154811062000b0f5762000b0f62001263565b60009182526020918290206040805161010081018252600890930290910180546001600160a01b039081168452600182015416938301939093526002830180549293929184019162000b619062000fb8565b80601f016020809104026020016040519081016040528092919081815260200182805462000b8f9062000fb8565b801562000be05780601f1062000bb45761010080835404028352916020019162000be0565b820191906000526020600020905b81548152906001019060200180831162000bc257829003601f168201915b5050505050815260200160038201805462000bfb9062000fb8565b80601f016020809104026020016040519081016040528092919081815260200182805462000c299062000fb8565b801562000c7a5780601f1062000c4e5761010080835404028352916020019162000c7a565b820191906000526020600020905b81548152906001019060200180831162000c5c57829003601f168201915b505050918352505060048201546001600160a01b03166020820152600582015460408201526006820154606082015260079091015460809091015292915050565b610b9b806200127a83390190565b6111418062001e1583390190565b60006020828403121562000cea57600080fd5b81356001600160a01b038116811462000d0257600080fd5b9392505050565b60006020828403121562000d1c57600080fd5b5035919050565b60005b8381101562000d4057818101518382015260200162000d26565b50506000910152565b6000815180845262000d6381602086016020860162000d23565b601f01601f19169290920160200192915050565b6001600160a01b03898116825288811660208301526101006040830181905260009162000da78483018b62000d49565b9150838203606085015262000dbd828a62000d49565b97166080840152505060a081019390935260c083019190915260e090910152949350505050565b634e487b7160e01b600052604160045260246000fd5b600082601f83011262000e0c57600080fd5b813567ffffffffffffffff8082111562000e2a5762000e2a62000de4565b604051601f8301601f19908116603f0116810190828211818310171562000e555762000e5562000de4565b8160405283815286602085880101111562000e6f57600080fd5b836020870160208301376000602085830101528094505050505092915050565b60008060006060848603121562000ea557600080fd5b833567ffffffffffffffff8082111562000ebe57600080fd5b62000ecc8783880162000dfa565b9450602086013591508082111562000ee357600080fd5b5062000ef28682870162000dfa565b925050604084013590509250925092565b602080825282516001600160a01b03168282015282015160009062000f3360408401826001600160a01b03169052565b50604083015161010080606085015262000f5261012085018362000d49565b91506060850151601f1985840301608086015262000f71838262000d49565b925050608085015162000f8f60a08601826001600160a01b03169052565b5060a085015160c085015260c085015160e085015260e085015181850152508091505092915050565b600181811c9082168062000fcd57607f821691505b60208210810362000fee57634e487b7160e01b600052602260045260246000fd5b50919050565b60408152600062001009604083018562000d49565b82810360208401526200101d818562000d49565b95945050505050565b600083516200103a81846020880162000d23565b8351908301906200105081836020880162000d23565b01949350505050565b634e487b7160e01b600052601160045260246000fd5b808202811582820484141762001089576200108962001059565b92915050565b600082620010ad57634e487b7160e01b600052601260045260246000fd5b500490565b8181038181111562001089576200108962001059565b601f8211156200111657600081815260208120601f850160051c81016020861015620010f15750805b601f850160051c820191505b818110156200111257828155600101620010fd565b5050505b505050565b815167ffffffffffffffff81111562001138576200113862000de4565b620011508162001149845462000fb8565b84620010c8565b602080601f8311600181146200118857600084156200116f5750858301515b600019600386901b1c1916600185901b17855562001112565b600085815260208120601f198616915b82811015620011b95788860151825594840194600190910190840162001198565b5085821015620011d85787850151600019600388901b60f8161c191681555b5050505050600190811b01905550565b600060208284031215620011fb57600080fd5b8151801515811462000d0257600080fd5b6000602082840312156200121f57600080fd5b5051919050565b6080815260006200123b608083018762000d49565b82810360208401526200124f818762000d49565b604084019590955250506060015292915050565b634e487b7160e01b600052603260045260246000fdfe60806040523480156200001157600080fd5b5060405162000b9b38038062000b9b833981016040819052620000349162000189565b600062000042838262000282565b50600162000051828262000282565b50620000606012600a62000463565b6200006f90620f42406200047b565b600281905533600081815260036020908152604080832085905551938452919290917fddf252ad1be2c89b69c2b068fc378daa952ba7f163c4a11628f55a4df523b3ef910160405180910390a3505062000495565b634e487b7160e01b600052604160045260246000fd5b600082601f830112620000ec57600080fd5b81516001600160401b0380821115620001095762000109620000c4565b604051601f8301601f19908116603f01168101908282118183101715620001345762000134620000c4565b816040528381526020925086838588010111156200015157600080fd5b600091505b8382101562000175578582018301518183018401529082019062000156565b600093810190920192909252949350505050565b600080604083850312156200019d57600080fd5b82516001600160401b0380821115620001b557600080fd5b620001c386838701620000da565b93506020850151915080821115620001da57600080fd5b50620001e985828601620000da565b9150509250929050565b600181811c908216806200020857607f821691505b6020821081036200022957634e487b7160e01b600052602260045260246000fd5b50919050565b601f8211156200027d57600081815260208120601f850160051c81016020861015620002585750805b601f850160051c820191505b81811015620002795782815560010162000264565b5050505b505050565b81516001600160401b038111156200029e576200029e620000c4565b620002b681620002af8454620001f3565b846200022f565b602080601f831160018114620002ee5760008415620002d55750858301515b600019600386901b1c1916600185901b17855562000279565b600085815260208120601f198616915b828110156200031f57888601518255948401946001909101908401620002fe565b50858210156200033e5787850151600019600388901b60f8161c191681555b5050505050600190811b01905550565b634e487b7160e01b600052601160045260246000fd5b600181815b80851115620003a55781600019048211156200038957620003896200034e565b808516156200039757918102915b93841c939080029062000369565b509250929050565b600082620003be575060016200045d565b81620003cd575060006200045d565b8160018114620003e65760028114620003f15762000411565b60019150506200045d565b60ff8411156200040557620004056200034e565b50506001821b6200045d565b5060208310610133831016604e8410600b841016171562000436575081810a6200045d565b62000442838362000364565b80600019048211156200045957620004596200034e565b0290505b92915050565b60006200047460ff841683620003ad565b9392505050565b80820281158282048414176200045d576200045d6200034e565b6106f680620004a56000396000f3fe608060405234801561001057600080fd5b50600436106100935760003560e01c8063313ce56711610066578063313ce5671461010357806370a082311461011d57806395d89b411461013d578063a9059cbb14610145578063dd62ed3e1461015857600080fd5b806306fdde0314610098578063095ea7b3146100b657806318160ddd146100d957806323b872dd146100f0575b600080fd5b6100a0610183565b6040516100ad9190610525565b60405180910390f35b6100c96100c436600461058f565b610211565b60405190151581526020016100ad565b6100e260025481565b6040519081526020016100ad565b6100c96100fe3660046105b9565b6102a0565b61010b601281565b60405160ff90911681526020016100ad565b6100e261012b3660046105f5565b60036020526000908152604090205481565b6100a0610431565b6100c961015336600461058f565b61043e565b6100e2610166366004610617565b600460209081526000928352604080842090915290825290205481565b600080546101909061064a565b80601f01602080910402602001604051908101604052809291908181526020018280546101bc9061064a565b80156102095780601f106101de57610100808354040283529160200191610209565b820191906000526020600020905b8154815290600101906020018083116101ec57829003601f168201915b505050505081565b60006001600160a01b03831661023a5760405163d92e233d60e01b815260040160405180910390fd5b3360008181526004602090815260408083206001600160a01b03881680855290835292819020869055518581529192917f8c5be1e5ebec7d5bd14f71427d1e84f3dd0314c0f7b2291e5b200ac8c7c3b92591015b60405180910390a35060015b92915050565b60006001600160a01b0383166102c95760405163d92e233d60e01b815260040160405180910390fd5b6001600160a01b03841660009081526003602052604090205482111561030257604051631e9acf1760e31b815260040160405180910390fd5b6001600160a01b0384166000908152600460209081526040808320338452909152902054821115610346576040516313be252b60e01b815260040160405180910390fd5b6001600160a01b0384166000908152600360205260408120805484929061036e90849061069a565b90915550506001600160a01b0383166000908152600360205260408120805484929061039b9084906106ad565b90915550506001600160a01b0384166000908152600460209081526040808320338452909152812080548492906103d390849061069a565b92505081905550826001600160a01b0316846001600160a01b03167fddf252ad1be2c89b69c2b068fc378daa952ba7f163c4a11628f55a4df523b3ef8460405161041f91815260200190565b60405180910390a35060019392505050565b600180546101909061064a565b60006001600160a01b0383166104675760405163d92e233d60e01b815260040160405180910390fd5b3360009081526003602052604090205482111561049757604051631e9acf1760e31b815260040160405180910390fd5b33600090815260036020526040812080548492906104b690849061069a565b90915550506001600160a01b038316600090815260036020526040812080548492906104e39084906106ad565b90915550506040518281526001600160a01b0384169033907fddf252ad1be2c89b69c2b068fc378daa952ba7f163c4a11628f55a4df523b3ef9060200161028e565b600060208083528351808285015260005b8181101561055257858101830151858201604001528201610536565b506000604082860101526040601f19601f8301168501019250505092915050565b80356001600160a01b038116811461058a57600080fd5b919050565b600080604083850312156105a257600080fd5b6105ab83610573565b946020939093013593505050565b6000806000606084860312156105ce57600080fd5b6105d784610573565b92506105e560208501610573565b9150604084013590509250925092565b60006020828403121561060757600080fd5b61061082610573565b9392505050565b6000806040838503121561062a57600080fd5b61063383610573565b915061064160208401610573565b90509250929050565b600181811c9082168061065e57607f821691505b60208210810361067e57634e487b7160e01b600052602260045260246000fd5b50919050565b634e487b7160e01b600052601160045260246000fd5b8181038181111561029a5761029a610684565b8082018082111561029a5761029a61068456fea2646970667358221220e900c5157e4a7c02f44c95139adb67f7f78aeee5723017de5b2f492869aad7e264736f6c6343000814003360a0604052600160065534801561001557600080fd5b5060405161114138038061114183398101604081905261003491610084565b6001600160a01b03811661005b5760405163d92e233d60e01b815260040160405180910390fd5b33608052600080546001600160a01b0319166001600160a01b03929092169190911790556100b4565b60006020828403121561009657600080fd5b81516001600160a01b03811681146100ad57600080fd5b9392505050565b60805161106b6100d6600039600081816102c80152610990015261106b6000f3fe6080604052600436106101095760003560e01c806398d5fdca11610095578063c45a015511610064578063c45a0155146102b6578063d73792a9146102a0578063eaf98d23146102ea578063f4325d67146102ff578063fc0c546a1461031557600080fd5b806398d5fdca146102295780639c8f9f231461023e578063b8c876b114610273578063ba9a7a56146102a057600080fd5b80631b3d2cb3116100dc5780631b3d2cb31461018d57806346904840146101a05780634e6fd6c4146101e057806351c6590a146101f657806380cb1a6e1461020957600080fd5b8063100af2031461010e57806315770f921461013757806315d6dae91461014d5780631618e1301461016d575b600080fd5b34801561011a57600080fd5b5061012460025481565b6040519081526020015b60405180910390f35b34801561014357600080fd5b5061012460035481565b34801561015957600080fd5b50610124610168366004610f34565b610335565b34801561017957600080fd5b50610124610188366004610f4d565b6103a3565b61012461019b366004610f34565b6106b8565b3480156101ac57600080fd5b506101c873227d5f29bab4cec30f511169886b86faef61c6bc81565b6040516001600160a01b03909116815260200161012e565b3480156101ec57600080fd5b506101c861dead81565b610124610204366004610f34565b61095b565b34801561021557600080fd5b50610124610224366004610f34565b610bd8565b34801561023557600080fd5b50610124610c3f565b34801561024a57600080fd5b5061025e610259366004610f34565b610c78565b6040805192835260208301919091520161012e565b34801561027f57600080fd5b5061012461028e366004610f6f565b60056020526000908152604090205481565b3480156102ac57600080fd5b506101246103e881565b3480156102c257600080fd5b506101c87f000000000000000000000000000000000000000000000000000000000000000081565b3480156102f657600080fd5b50610124600481565b34801561030b57600080fd5b5061012460015481565b34801561032157600080fd5b506000546101c8906001600160a01b031681565b60008115806103445750600254155b1561035157506000919050565b60006103e8610361600485610fae565b61036b9190610fcb565b6103759084610fed565b9050806002546103859190611000565b6001546103929083610fae565b61039c9190610fcb565b9392505050565b60006006546001146103c85760405163c5f2be5160e01b815260040160405180910390fd5b600260065560008390036103ef57604051631f2a200560e01b815260040160405180910390fd5b60015415806103fe5750600254155b1561041c5760405163bb55fd2760e01b815260040160405180910390fd5b60008360015461042c9190611000565b6002546104399086610fae565b6104439190610fcb565b905060006103e8610455600484610fae565b61045f9190610fcb565b905061046b8183610fed565b92508383101561048e57604051638199f5f360e01b815260040160405180910390fd5b6002548311156104b15760405163bb55fd2760e01b815260040160405180910390fd5b84600160008282546104c39190611000565b9250508190555081600260008282546104dc9190610fed565b90915550506000546040516323b872dd60e01b8152336004820152306024820152604481018790526001600160a01b03909116906323b872dd906064016020604051808303816000875af1158015610538573d6000803e3d6000fd5b505050506040513d601f19601f8201168201806040525081019061055c9190611013565b610579576040516312171d8360e31b815260040160405180910390fd5b60405160009073227d5f29bab4cec30f511169886b86faef61c6bc9083908381818185875af1925050503d80600081146105cf576040519150601f19603f3d011682016040523d82523d6000602084013e6105d4565b606091505b50509050806105f6576040516312171d8360e31b815260040160405180910390fd5b604051600090339086908381818185875af1925050503d8060008114610638576040519150601f19603f3d011682016040523d82523d6000602084013e61063d565b606091505b505090508061065f576040516312171d8360e31b815260040160405180910390fd5b604080516000808252602082018a90528183018890526060820152905133917f49926bbebe8474393f434dfa4f78694c0923efa07d19f2284518bfabd06eb737919081900360800190a250505050600160065592915050565b60006006546001146106dd5760405163c5f2be5160e01b815260040160405180910390fd5b60026006553460000361070357604051631f2a200560e01b815260040160405180910390fd5b60015415806107125750600254155b156107305760405163bb55fd2760e01b815260040160405180910390fd5b60006103e8610740600434610fae565b61074a9190610fcb565b905060006107588234610fed565b9050806002546107689190611000565b6001546107759083610fae565b61077f9190610fcb565b9250838310156107a257604051638199f5f360e01b815260040160405180910390fd5b6001548311156107c55760405163bb55fd2760e01b815260040160405180910390fd5b80600260008282546107d79190611000565b9250508190555082600160008282546107f09190610fed565b909155505060405160009073227d5f29bab4cec30f511169886b86faef61c6bc9084908381818185875af1925050503d806000811461084b576040519150601f19603f3d011682016040523d82523d6000602084013e610850565b606091505b5050905080610872576040516312171d8360e31b815260040160405180910390fd5b60005460405163a9059cbb60e01b8152336004820152602481018690526001600160a01b039091169063a9059cbb906044016020604051808303816000875af11580156108c3573d6000803e3d6000fd5b505050506040513d601f19601f820116820180604052508101906108e79190611013565b610904576040516312171d8360e31b815260040160405180910390fd5b604080513481526000602082018190528183015260608101869052905133917f49926bbebe8474393f434dfa4f78694c0923efa07d19f2284518bfabd06eb737919081900360800190a25050506001600655919050565b60006006546001146109805760405163c5f2be5160e01b815260040160405180910390fd5b6002600655336001600160a01b037f000000000000000000000000000000000000000000000000000000000000000016146109ce57604051630636a15760e11b815260040160405180910390fd5b60045460ff16156109f2576040516319f4db0f60e31b815260040160405180910390fd5b3415806109fd575081155b15610a1b57604051631f2a200560e01b815260040160405180910390fd5b506004805460ff19166001179055346103e88111610a4c57604051631f2c4df760e11b815260040160405180910390fd5b3460025560018290556000805260056020526103e87f05b8ccbb9d4d8fb16ea74ce3c29a41f1b461fbdaff4714a0d9a8eb05499746bc8190556003819055610a949082610fed565b6000546040516323b872dd60e01b8152336004820152306024820152604481018590529192506001600160a01b0316906323b872dd906064016020604051808303816000875af1158015610aec573d6000803e3d6000fd5b505050506040513d601f19601f82011682018060405250810190610b109190611013565b610b2d576040516312171d8360e31b815260040160405180910390fd5b61dead600090815260056020527f7d509c07f0d4edcc2dd1b53aae68677132eb562dcba78e36381b63ccaf66e6ba8054839290610b6b908490611000565b925050819055508060036000828254610b849190611000565b9091555050604080513481526020810184905290810182905261dead907f64b83944e79c3ce8d4c297411de637c3e102d064677aac0c163976ebdcd6f50e9060600160405180910390a26001600655919050565b6000811580610be75750600154155b15610bf457506000919050565b600082600154610c049190611000565b600254610c119085610fae565b610c1b9190610fcb565b90506103e8610c2b600483610fae565b610c359190610fcb565b61039c9082610fed565b6000600154600003610c515750600090565b600154600254610c6990670de0b6b3a7640000610fae565b610c739190610fcb565b905090565b600080600654600114610c9e5760405163c5f2be5160e01b815260040160405180910390fd5b60026006556000839003610cc557604051631f2a200560e01b815260040160405180910390fd5b33600090815260056020526040902054831115610cf55760405163bb55fd2760e01b815260040160405180910390fd5b600354600003610d185760405163bb55fd2760e01b815260040160405180910390fd5b600354600254610d289085610fae565b610d329190610fcb565b915060035460015484610d459190610fae565b610d4f9190610fcb565b9050811580610d5c575080155b15610d7a57604051631f2c4df760e11b815260040160405180910390fd5b3360009081526005602052604081208054859290610d99908490610fed565b925050819055508260036000828254610db29190610fed565b925050819055508160026000828254610dcb9190610fed565b925050819055508060016000828254610de49190610fed565b909155505060005460405163a9059cbb60e01b8152336004820152602481018390526001600160a01b039091169063a9059cbb906044016020604051808303816000875af1158015610e3a573d6000803e3d6000fd5b505050506040513d601f19601f82011682018060405250810190610e5e9190611013565b610e7b576040516312171d8360e31b815260040160405180910390fd5b604051600090339084908381818185875af1925050503d8060008114610ebd576040519150601f19603f3d011682016040523d82523d6000602084013e610ec2565b606091505b5050905080610ee4576040516312171d8360e31b815260040160405180910390fd5b604080518481526020810184905290810185905233907f1dc8bb69df2b8e91fbdcbfcf93d951b3f0000f085a95fe3f7946d6161439245d9060600160405180910390a25060016006559092909150565b600060208284031215610f4657600080fd5b5035919050565b60008060408385031215610f6057600080fd5b50508035926020909101359150565b600060208284031215610f8157600080fd5b81356001600160a01b038116811461039c57600080fd5b634e487b7160e01b600052601160045260246000fd5b8082028115828204841417610fc557610fc5610f98565b92915050565b600082610fe857634e487b7160e01b600052601260045260246000fd5b500490565b81810381811115610fc557610fc5610f98565b80820180821115610fc557610fc5610f98565b60006020828403121561102557600080fd5b8151801515811461039c57600080fdfea26469706673582212208e49a24238746d80882ed52aa229d3f1c807452328042a9c2b1957081e9eec4064736f6c63430008140033a2646970667358221220faf990c0bb356485d85e9d46c34d22e9eea50584218a525e48bf57abe1be231f64736f6c63430008140033",
  "linkReferences": {},
  "deployedLinkReferences": {}
}