{
  "_format": "hh-sol-artifact-1",
  "contractName": "McFunFactory",
  "sourceName": "src/contracts/McFunFactory.sol",
  "abi": [
    {
      "inputs": [],
      "name": "AMMCreationFailed",
      "type": "error"
    },
    {
      "inputs": [],
      "name": "InvalidETHAmount",
      "type": "error"
    },
    {
      "inputs": [],
      "name": "InvalidLiquidityPercent",
      "type": "error"
    },
    {
      "inputs": [],
      "name": "InvalidNameOrSymbol",
      "type": "error"
    },
    {
      "inputs": [],
      "name": "ReentrancyGuard",
      "type": "error"
    },
    {
      "inputs": [],
      "name": "TokenCreationFailed",
      "type": "error"
    },
    {
      "anonymous": false,
      "inputs": [
        {
          "indexed": true,
          "internalType": "address",
          "name": "tokenAddress",
          "type": "address"
        },
        {
          "indexed": true,
          "internalType": "address",
          "name": "ammAddress",
          "type": "address"
        },
        {
          "indexed": false,
          "internalType": "string",
          "name": "name",
          "type": "string"
        },
        {
          "indexed": false,
          "internalType": "string",
          "name": "symbol",
          "type": "string"
        },
        {
          "indexed": true,
          "internalType": "address",
          "name": "creator",
          "type": "address"
        },
        {
          "indexed": false,
          "internalType": "uint256",
          "name": "liquidityPercent",
          "type": "uint256"
        },
        {
          "indexed": false,
          "internalType": "uint256",
          "name": "initialLiquidityETH",
          "type": "uint256"
        }
      ],
      "name": "TokenLaunched",
      "type": "event"
    },
    {
      "inputs": [],
      "name": "DEAD_ADDRESS",
      "outputs": [
        {
          "internalType": "address",
          "name": "",
          "type": "address"
        }
      ],
      "stateMutability": "view",
      "type": "function"
    },
    {
      "inputs": [],
      "name": "MIN_LIQUIDITY_ETH",
      "outputs": [
        {
          "internalType": "uint256",
          "name": "",
          "type": "uint256"
        }
      ],
      "stateMutability": "view",
      "type": "function"
    },
    {
      "inputs": [],
      "name": "MIN_LIQUIDITY_PERCENT",
      "outputs": [
        {
          "internalType": "uint256",
          "name": "",
          "type": "uint256"
        }
      ],
      "stateMutability": "view",
      "type": "function"
    },
    {
      "inputs": [],
      "name": "TOTAL_SUPPLY",
      "outputs": [
        {
          "internalType": "uint256",
          "name": "",
          "type": "uint256"
        }
      ],
      "stateMutability": "view",
      "type": "function"
    },
    {
      "inputs": [
        {
          "internalType": "string",
          "name": "name",
          "type": "string"
        },
        {
          "internalType": "string",
          "name": "symbol",
          "type": "string"
        },
        {
          "internalType": "uint256",
          "name": "liquidityPercent",
          "type": "uint256"
        }
      ],
      "name": "createToken",
      "outputs": [
        {
          "internalType": "address",
          "name": "tokenAddress",
          "type": "address"
        },
        {
          "internalType": "address",
          "name": "ammAddress",
          "type": "address"
        }
      ],
      "stateMutability": "payable",
      "type": "function"
    },
    {
      "inputs": [
        {
          "internalType": "uint256",
          "name": "index",
          "type": "uint256"
        }
      ],
      "name": "getToken",
      "outputs": [
        {
          "components": [
            {
              "internalType": "address",
              "name": "tokenAddress",
              "type": "address"
            },
            {
              "internalType": "address",
              "name": "ammAddress",
              "type": "address"
            },
            {
              "internalType": "string",
              "name": "name",
              "type": "string"
            },
            {
              "internalType": "string",
              "name": "symbol",
              "type": "string"
            },
            {
              "internalType": "address",
              "name": "creator",
              "type": "address"
            },
            {
              "internalType": "uint256",
              "name": "timestamp",
              "type": "uint256"
            },
            {
              "internalType": "uint256",
              "name": "initialLiquidityETH",
              "type": "uint256"
            },
            {
              "internalType": "uint256",
              "name": "liquidityPercent",
              "type": "uint256"
            }
          ],
          "internalType": "struct McFunFactory.TokenInfo",
          "name": "",
          "type": "tuple"
        }
      ],
      "stateMutability": "view",
      "type": "function"
    },
    {
      "inputs": [],
      "name": "getTokenCount",
      "outputs": [
        {
          "internalType": "uint256",
          "name": "",
          "type": "uint256"
        }
      ],
      "stateMutability": "view",
      "type": "function"
    },
    {
      "inputs": [
        {
          "internalType": "address",
          "name": "",
          "type": "address"
        }
      ],
      "name": "tokenToAMM",
      "outputs": [
        {
          "internalType": "address",
          "name": "",
          "type": "address"
        }
      ],
      "stateMutability": "view",
      "type": "function"
    },
    {
      "inputs": [
        {
          "internalType": "uint256",
          "name": "",
          "type": "uint256"
        }
      ],
      "name": "tokens",
      "outputs": [
        {
          "internalType": "address",
          "name": "tokenAddress",
          "type": "address"
        },
        {
          "internalType": "address",
          "name": "ammAddress",
          "type": "address"
        },
        {
          "internalType": "string",
          "name": "name",
          "type": "string"
        },
        {
          "internalType": "string",
          "name": "symbol",
          "type": "string"
        },
        {
          "internalType": "address",
          "name": "creator",
          "type": "address"
        },
        {
          "internalType": "uint256",
          "name": "timestamp",
          "type": "uint256"
        },
        {
          "internalType": "uint256",
          "name": "initialLiquidityETH",
          "type": "uint256"
        },
        {
          "internalType": "uint256",
          "name": "liquidityPercent",
          "type": "uint256"
        }
      ],
      "stateMutability": "view",
      "type": "function"
    }
  ],
  "bytecode": "0x6080604052600160025534801561001557600080fd5b50612f35806100256000396000f3fe608060405260043610620000915760003560e01c80635d23011011620000605780635d230110146200017857806378a8956714620001a5578063902d55a514620001bc578063c342381e14620001dc578063e4b50cb814620001f357600080fd5b80632610942c14620000965780634e6fd6c414620000ed5780634f64b2be14620001055780635b0605301462000140575b600080fd5b348015620000a357600080fd5b50620000d0620000b536600462000cc3565b6001602052600090815260409020546001600160a01b031681565b6040516001600160a01b0390911681526020015b60405180910390f35b348015620000fa57600080fd5b50620000d061dead81565b3480156200011257600080fd5b506200012a6200012436600462000cf5565b62000227565b604051620000e498979695949392919062000d63565b620001576200015136600462000e7b565b620003b5565b604080516001600160a01b03938416815292909116602083015201620000e4565b3480156200018557600080fd5b506200019667016345785d8a000081565b604051908152602001620000e4565b348015620001b257600080fd5b5060005462000196565b348015620001c957600080fd5b506200019669d3c21bcecceda100000081565b348015620001e957600080fd5b5062000196603281565b3480156200020057600080fd5b50620002186200021236600462000cf5565b62000a35565b604051620000e4919062000eef565b600081815481106200023857600080fd5b60009182526020909120600890910201805460018201546002830180546001600160a01b039384169550929091169291620002739062000fa4565b80601f0160208091040260200160405190810160405280929190818152602001828054620002a19062000fa4565b8015620002f25780601f10620002c657610100808354040283529160200191620002f2565b820191906000526020600020905b815481529060010190602001808311620002d457829003601f168201915b505050505090806003018054620003099062000fa4565b80601f0160208091040260200160405190810160405280929190818152602001828054620003379062000fa4565b8015620003885780601f106200035c5761010080835404028352916020019162000388565b820191906000526020600020905b8154815290600101906020018083116200036a57829003601f168201915b5050505060048301546005840154600685015460079095015493946001600160a01b039092169390925088565b600080600254600114620003dc576040516345f5ce8b60e11b815260040160405180910390fd5b6002805567016345785d8a00003410156200040a5760405163090ac0d760e21b815260040160405180910390fd5b60328310806200041a5750606483115b1562000439576040516351424f0b60e11b815260040160405180910390fd5b845115806200044757508351155b156200046657604051632d903dc960e21b815260040160405180910390fd5b6000604051806020016200047a9062000ca7565b601f1982820381018352601f909101166040819052620004a1908890889060200162000fe0565b60408051601f1981840301815290829052620004c1929160200162001012565b60405160208183030381529060405290508051602082016000f092506001600160a01b0383166200050557604051633291986160e11b815260040160405180910390fd5b600060405180602001620005199062000cb5565b601f1982820381018352601f9091011660408181526001600160a01b03871660208301520160408051601f19818403018152908290526200055e929160200162001012565b60405160208183030381529060405290508051602082016000f092506001600160a01b038316620005a257604051639d63651f60e01b815260040160405180910390fd5b60006064620005bc8769d3c21bcecceda10000006200105b565b620005c891906200107b565b90506000620005e28269d3c21bcecceda10000006200109e565b90508460016000886001600160a01b03166001600160a01b0316815260200190815260200160002060006101000a8154816001600160a01b0302191690836001600160a01b031602179055506000604051806101000160405280886001600160a01b03168152602001876001600160a01b031681526020018b81526020018a8152602001336001600160a01b0316815260200142815260200134815260200189815250908060018154018082558091505060019003906000526020600020906008020160009091909190915060008201518160000160006101000a8154816001600160a01b0302191690836001600160a01b0316021790555060208201518160010160006101000a8154816001600160a01b0302191690836001600160a01b0316021790555060408201518160020190816200071f919062001107565b506060820151600382019062000736908262001107565b506080820151600482810180546001600160a01b0319166001600160a01b0393841617905560a0840151600584015560c0840151600684015560e09093015160079092019190915560405163a9059cbb60e01b815233928101929092526024820183905287169063a9059cbb906044016020604051808303816000875af1158015620007c6573d6000803e3d6000fd5b505050506040513d601f19601f82011682018060405250810190620007ec9190620011d4565b5060405163095ea7b360e01b81526001600160a01b0386811660048301526024820184905287169063095ea7b3906044016020604051808303816000875af11580156200083d573d6000803e3d6000fd5b505050506040513d601f19601f82011682018060405250810190620008639190620011d4565b506040516328e32c8560e11b8152600481018390526001600160a01b038616906351c6590a90349060240160206040518083038185885af1158015620008ad573d6000803e3d6000fd5b50505050506040513d601f19601f82011682018060405250810190620008d49190620011f8565b506040516370a0823160e01b81523060048201526000906001600160a01b038716906370a0823190602401602060405180830381865afa1580156200091d573d6000803e3d6000fd5b505050506040513d601f19601f82011682018060405250810190620009439190620011f8565b90508015620009c45760405163a9059cbb60e01b815261dead6004820152602481018290526001600160a01b0387169063a9059cbb906044016020604051808303816000875af11580156200099c573d6000803e3d6000fd5b505050506040513d601f19601f82011682018060405250810190620009c29190620011d4565b505b336001600160a01b0316866001600160a01b0316886001600160a01b03167fd5056a4f9a1b7dcdc3883feaba86e2c813a1b60814ab674f4f2c53120731b39f8d8d8d3460405162000a19949392919062001212565b60405180910390a4505050505060016002559094909350915050565b62000a9960405180610100016040528060006001600160a01b0316815260200160006001600160a01b03168152602001606081526020016060815260200160006001600160a01b031681526020016000815260200160008152602001600081525090565b600054821062000ae55760405162461bcd60e51b8152602060048201526013602482015272496e646578206f7574206f6620626f756e647360681b604482015260640160405180910390fd5b6000828154811062000afb5762000afb6200124f565b60009182526020918290206040805161010081018252600890930290910180546001600160a01b039081168452600182015416938301939093526002830180549293929184019162000b4d9062000fa4565b80601f016020809104026020016040519081016040528092919081815260200182805462000b7b9062000fa4565b801562000bcc5780601f1062000ba05761010080835404028352916020019162000bcc565b820191906000526020600020905b81548152906001019060200180831162000bae57829003601f168201915b5050505050815260200160038201805462000be79062000fa4565b80601f016020809104026020016040519081016040528092919081815260200182805462000c159062000fa4565b801562000c665780601f1062000c3a5761010080835404028352916020019162000c66565b820191906000526020600020905b81548152906001019060200180831162000c4857829003601f168201915b505050918352505060048201546001600160a01b03166020820152600582015460408201526006820154606082015260079091015460809091015292915050565b610b9b806200126683390190565b6110ff8062001e0183390190565b60006020828403121562000cd657600080fd5b81356001600160a01b038116811462000cee57600080fd5b9392505050565b60006020828403121562000d0857600080fd5b5035919050565b60005b8381101562000d2c57818101518382015260200162000d12565b50506000910152565b6000815180845262000d4f81602086016020860162000d0f565b601f01601f19169290920160200192915050565b6001600160a01b03898116825288811660208301526101006040830181905260009162000d938483018b62000d35565b9150838203606085015262000da9828a62000d35565b97166080840152505060a081019390935260c083019190915260e090910152949350505050565b634e487b7160e01b600052604160045260246000fd5b600082601f83011262000df857600080fd5b813567ffffffffffffffff8082111562000e165762000e1662000dd0565b604051601f8301601f19908116603f0116810190828211818310171562000e415762000e4162000dd0565b8160405283815286602085880101111562000e5b57600080fd5b836020870160208301376000602085830101528094505050505092915050565b60008060006060848603121562000e9157600080fd5b833567ffffffffffffffff8082111562000eaa57600080fd5b62000eb88783880162000de6565b9450602086013591508082111562000ecf57600080fd5b5062000ede8682870162000de6565b925050604084013590509250925092565b602080825282516001600160a01b03168282015282015160009062000f1f60408401826001600160a01b03169052565b50604083015161010080606085015262000f3e61012085018362000d35565b91506060850151601f1985840301608086015262000f5d838262000d35565b925050608085015162000f7b60a08601826001600160a01b03169052565b5060a085015160c085015260c085015160e085015260e085015181850152508091505092915050565b600181811c9082168062000fb957607f821691505b60208210810362000fda57634e487b7160e01b600052602260045260246000fd5b50919050565b60408152600062000ff5604083018562000d35565b828103602084015262001009818562000d35565b95945050505050565b600083516200102681846020880162000d0f565b8351908301906200103c81836020880162000d0f565b01949350505050565b634e487b7160e01b600052601160045260246000fd5b808202811582820484141762001075576200107562001045565b92915050565b6000826200109957634e487b7160e01b600052601260045260246000fd5b500490565b8181038181111562001075576200107562001045565b601f8211156200110257600081815260208120601f850160051c81016020861015620010dd5750805b601f850160051c820191505b81811015620010fe57828155600101620010e9565b5050505b505050565b815167ffffffffffffffff81111562001124576200112462000dd0565b6200113c8162001135845462000fa4565b84620010b4565b602080601f8311600181146200117457600084156200115b5750858301515b600019600386901b1c1916600185901b178555620010fe565b600085815260208120601f198616915b82811015620011a55788860151825594840194600190910190840162001184565b5085821015620011c45787850151600019600388901b60f8161c191681555b5050505050600190811b01905550565b600060208284031215620011e757600080fd5b8151801515811462000cee57600080fd5b6000602082840312156200120b57600080fd5b5051919050565b60808152600062001227608083018762000d35565b82810360208401526200123b818762000d35565b604084019590955250506060015292915050565b634e487b7160e01b600052603260045260246000fdfe60806040523480156200001157600080fd5b5060405162000b9b38038062000b9b833981016040819052620000349162000189565b600062000042838262000282565b50600162000051828262000282565b50620000606012600a62000463565b6200006f90620f42406200047b565b600281905533600081815260036020908152604080832085905551938452919290917fddf252ad1be2c89b69c2b068fc378daa952ba7f163c4a11628f55a4df523b3ef910160405180910390a3505062000495565b634e487b7160e01b600052604160045260246000fd5b600082601f830112620000ec57600080fd5b81516001600160401b0380821115620001095762000109620000c4565b604051601f8301601f19908116603f01168101908282118183101715620001345762000134620000c4565b816040528381526020925086838588010111156200015157600080fd5b600091505b8382101562000175578582018301518183018401529082019062000156565b600093810190920192909252949350505050565b600080604083850312156200019d57600080fd5b82516001600160401b0380821115620001b557600080fd5b620001c386838701620000da565b93506020850151915080821115620001da57600080fd5b50620001e985828601620000da565b9150509250929050565b600181811c908216806200020857607f821691505b6020821081036200022957634e487b7160e01b600052602260045260246000fd5b50919050565b601f8211156200027d57600081815260208120601f850160051c81016020861015620002585750805b601f850160051c820191505b81811015620002795782815560010162000264565b5050505b505050565b81516001600160401b038111156200029e576200029e620000c4565b620002b681620002af8454620001f3565b846200022f565b602080601f831160018114620002ee5760008415620002d55750858301515b600019600386901b1c1916600185901b17855562000279565b600085815260208120601f198616915b828110156200031f57888601518255948401946001909101908401620002fe565b50858210156200033e5787850151600019600388901b60f8161c191681555b5050505050600190811b01905550565b634e487b7160e01b600052601160045260246000fd5b600181815b80851115620003a55781600019048211156200038957620003896200034e565b808516156200039757918102915b93841c939080029062000369565b509250929050565b600082620003be575060016200045d565b81620003cd575060006200045d565b8160018114620003e65760028114620003f15762000411565b60019150506200045d565b60ff8411156200040557620004056200034e565b50506001821b6200045d565b5060208310610133831016604e8410600b841016171562000436575081810a6200045d565b62000442838362000364565b80600019048211156200045957620004596200034e565b0290505b92915050565b60006200047460ff841683620003ad565b9392505050565b80820281158282048414176200045d576200045d6200034e565b6106f680620004a56000396000f3fe608060405234801561001057600080fd5b50600436106100935760003560e01c8063313ce56711610066578063313ce5671461010357806370a082311461011d57806395d89b411461013d578063a9059cbb14610145578063dd62ed3e1461015857600080fd5b806306fdde0314610098578063095ea7b3146100b657806318160ddd146100d957806323b872dd146100f0575b600080fd5b6100a0610183565b6040516100ad9190610525565b60405180910390f35b6100c96100c436600461058f565b610211565b60405190151581526020016100ad565b6100e260025481565b6040519081526020016100ad565b6100c96100fe3660046105b9565b6102a0565b61010b601281565b60405160ff90911681526020016100ad565b6100e261012b3660046105f5565b60036020526000908152604090205481565b6100a0610431565b6100c961015336600461058f565b61043e565b6100e2610166366004610617565b600460209081526000928352604080842090915290825290205481565b600080546101909061064a565b80601f01602080910402602001604051908101604052809291908181526020018280546101bc9061064a565b80156102095780601f106101de57610100808354040283529160200191610209565b820191906000526020600020905b8154815290600101906020018083116101ec57829003601f168201915b505050505081565b60006001600160a01b03831661023a5760405163d92e233d60e01b815260040160405180910390fd5b3360008181526004602090815260408083206001600160a01b03881680855290835292819020869055518581529192917f8c5be1e5ebec7d5bd14f71427d1e84f3dd0314c0f7b2291e5b200ac8c7c3b92591015b60405180910390a35060015b92915050565b60006001600160a01b0383166102c95760405163d92e233d60e01b815260040160405180910390fd5b6001600160a01b03841660009081526003602052604090205482111561030257604051631e9acf1760e31b815260040160405180910390fd5b6001600160a01b0384166000908152600460209081526040808320338452909152902054821115610346576040516313be252b60e01b815260040160405180910390fd5b6001600160a01b0384166000908152600360205260408120805484929061036e90849061069a565b90915550506001600160a01b0383166000908152600360205260408120805484929061039b9084906106ad565b90915550506001600160a01b0384166000908152600460209081526040808320338452909152812080548492906103d390849061069a565b92505081905550826001600160a01b0316846001600160a01b03167fddf252ad1be2c89b69c2b068fc378daa952ba7f163c4a11628f55a4df523b3ef8460405161041f91815260200190565b60405180910390a35060019392505050565b600180546101909061064a565b60006001600160a01b0383166104675760405163d92e233d60e01b815260040160405180910390fd5b3360009081526003602052604090205482111561049757604051631e9acf1760e31b815260040160405180910390fd5b33600090815260036020526040812080548492906104b690849061069a565b90915550506001600160a01b038316600090815260036020526040812080548492906104e39084906106ad565b90915550506040518281526001600160a01b0384169033907fddf252ad1be2c89b69c2b068fc378daa952ba7f163c4a11628f55a4df523b3ef9060200161028e565b600060208083528351808285015260005b8181101561055257858101830151858201604001528201610536565b506000604082860101526040601f19601f8301168501019250505092915050565b80356001600160a01b038116811461058a57600080fd5b919050565b600080604083850312156105a257600080fd5b6105ab83610573565b946020939093013593505050565b6000806000606084860312156105ce57600080fd5b6105d784610573565b92506105e560208501610573565b9150604084013590509250925092565b60006020828403121561060757600080fd5b61061082610573565b9392505050565b6000806040838503121561062a57600080fd5b61063383610573565b915061064160208401610573565b90509250929050565b600181811c9082168061065e57607f821691505b60208210810361067e57634e487b7160e01b600052602260045260246000fd5b50919050565b634e487b7160e01b600052601160045260246000fd5b8181038181111561029a5761029a610684565b8082018082111561029a5761029a61068456fea26469706673582212204ad92ef302c7136c721226fe68334bd5571af80a5b127cbf7765c1f6c2e80f7e64736f6c6343000814003360a0604052600160065534801561001557600080fd5b506040516110ff3803806110ff83398101604081905261003491610084565b6001600160a01b03811661005b5760405163d92e233d60e01b815260040160405180910390fd5b33608052600080546001600160a01b0319166001600160a01b03929092169190911790556100b4565b60006020828403121561009657600080fd5b81516001600160a01b03811681146100ad57600080fd5b9392505050565b6080516110296100d6600039600081816102a7015261096f01526110296000f3fe6080604052600436106100fe5760003560e01c806398d5fdca11610095578063c45a015511610064578063c45a015514610295578063d73792a91461027f578063eaf98d23146102c9578063f4325d67146102de578063fc0c546a146102f457600080fd5b806398d5fdca146102085780639c8f9f231461021d578063b8c876b114610252578063ba9a7a561461027f57600080fd5b80631b3d2cb3116100d15780631b3d2cb314610182578063469048401461019557806351c6590a146101d557806380cb1a6e146101e857600080fd5b8063100af2031461010357806315770f921461012c57806315d6dae9146101425780631618e13014610162575b600080fd5b34801561010f57600080fd5b5061011960025481565b6040519081526020015b60405180910390f35b34801561013857600080fd5b5061011960035481565b34801561014e57600080fd5b5061011961015d366004610ef2565b610314565b34801561016e57600080fd5b5061011961017d366004610f0b565b610382565b610119610190366004610ef2565b610697565b3480156101a157600080fd5b506101bd73227d5f29bab4cec30f511169886b86faef61c6bc81565b6040516001600160a01b039091168152602001610123565b6101196101e3366004610ef2565b61093a565b3480156101f457600080fd5b50610119610203366004610ef2565b610b96565b34801561021457600080fd5b50610119610bfd565b34801561022957600080fd5b5061023d610238366004610ef2565b610c36565b60408051928352602083019190915201610123565b34801561025e57600080fd5b5061011961026d366004610f2d565b60056020526000908152604090205481565b34801561028b57600080fd5b506101196103e881565b3480156102a157600080fd5b506101bd7f000000000000000000000000000000000000000000000000000000000000000081565b3480156102d557600080fd5b50610119600481565b3480156102ea57600080fd5b5061011960015481565b34801561030057600080fd5b506000546101bd906001600160a01b031681565b60008115806103235750600254155b1561033057506000919050565b60006103e8610340600485610f6c565b61034a9190610f89565b6103549084610fab565b9050806002546103649190610fbe565b6001546103719083610f6c565b61037b9190610f89565b9392505050565b60006006546001146103a75760405163c5f2be5160e01b815260040160405180910390fd5b600260065560008390036103ce57604051631f2a200560e01b815260040160405180910390fd5b60015415806103dd5750600254155b156103fb5760405163bb55fd2760e01b815260040160405180910390fd5b60008360015461040b9190610fbe565b6002546104189086610f6c565b6104229190610f89565b905060006103e8610434600484610f6c565b61043e9190610f89565b905061044a8183610fab565b92508383101561046d57604051638199f5f360e01b815260040160405180910390fd5b6002548311156104905760405163bb55fd2760e01b815260040160405180910390fd5b84600160008282546104a29190610fbe565b9250508190555081600260008282546104bb9190610fab565b90915550506000546040516323b872dd60e01b8152336004820152306024820152604481018790526001600160a01b03909116906323b872dd906064016020604051808303816000875af1158015610517573d6000803e3d6000fd5b505050506040513d601f19601f8201168201806040525081019061053b9190610fd1565b610558576040516312171d8360e31b815260040160405180910390fd5b60405160009073227d5f29bab4cec30f511169886b86faef61c6bc9083908381818185875af1925050503d80600081146105ae576040519150601f19603f3d011682016040523d82523d6000602084013e6105b3565b606091505b50509050806105d5576040516312171d8360e31b815260040160405180910390fd5b604051600090339086908381818185875af1925050503d8060008114610617576040519150601f19603f3d011682016040523d82523d6000602084013e61061c565b606091505b505090508061063e576040516312171d8360e31b815260040160405180910390fd5b604080516000808252602082018a90528183018890526060820152905133917f49926bbebe8474393f434dfa4f78694c0923efa07d19f2284518bfabd06eb737919081900360800190a250505050600160065592915050565b60006006546001146106bc5760405163c5f2be5160e01b815260040160405180910390fd5b6002600655346000036106e257604051631f2a200560e01b815260040160405180910390fd5b60015415806106f15750600254155b1561070f5760405163bb55fd2760e01b815260040160405180910390fd5b60006103e861071f600434610f6c565b6107299190610f89565b905060006107378234610fab565b9050806002546107479190610fbe565b6001546107549083610f6c565b61075e9190610f89565b92508383101561078157604051638199f5f360e01b815260040160405180910390fd5b6001548311156107a45760405163bb55fd2760e01b815260040160405180910390fd5b80600260008282546107b69190610fbe565b9250508190555082600160008282546107cf9190610fab565b909155505060405160009073227d5f29bab4cec30f511169886b86faef61c6bc9084908381818185875af1925050503d806000811461082a576040519150601f19603f3d011682016040523d82523d6000602084013e61082f565b606091505b5050905080610851576040516312171d8360e31b815260040160405180910390fd5b60005460405163a9059cbb60e01b8152336004820152602481018690526001600160a01b039091169063a9059cbb906044016020604051808303816000875af11580156108a2573d6000803e3d6000fd5b505050506040513d601f19601f820116820180604052508101906108c69190610fd1565b6108e3576040516312171d8360e31b815260040160405180910390fd5b604080513481526000602082018190528183015260608101869052905133917f49926bbebe8474393f434dfa4f78694c0923efa07d19f2284518bfabd06eb737919081900360800190a25050506001600655919050565b600060065460011461095f5760405163c5f2be5160e01b815260040160405180910390fd5b6002600655336001600160a01b037f000000000000000000000000000000000000000000000000000000000000000016146109ad57604051630636a15760e11b815260040160405180910390fd5b60045460ff16156109d1576040516319f4db0f60e31b815260040160405180910390fd5b3415806109dc575081155b156109fa57604051631f2a200560e01b815260040160405180910390fd5b506004805460ff19166001179055346103e88111610a2b57604051631f2c4df760e11b815260040160405180910390fd5b3460025560018290556000805260056020526103e87f05b8ccbb9d4d8fb16ea74ce3c29a41f1b461fbdaff4714a0d9a8eb05499746bc8190556003819055610a739082610fab565b6000546040516323b872dd60e01b8152336004820152306024820152604481018590529192506001600160a01b0316906323b872dd906064016020604051808303816000875af1158015610acb573d6000803e3d6000fd5b505050506040513d601f19601f82011682018060405250810190610aef9190610fd1565b610b0c576040516312171d8360e31b815260040160405180910390fd5b3360009081526005602052604081208054839290610b2b908490610fbe565b925050819055508060036000828254610b449190610fbe565b9091555050604080513481526020810184905290810182905233907f64b83944e79c3ce8d4c297411de637c3e102d064677aac0c163976ebdcd6f50e9060600160405180910390a26001600655919050565b6000811580610ba55750600154155b15610bb257506000919050565b600082600154610bc29190610fbe565b600254610bcf9085610f6c565b610bd99190610f89565b90506103e8610be9600483610f6c565b610bf39190610f89565b61037b9082610fab565b6000600154600003610c0f5750600090565b600154600254610c2790670de0b6b3a7640000610f6c565b610c319190610f89565b905090565b600080600654600114610c5c5760405163c5f2be5160e01b815260040160405180910390fd5b60026006556000839003610c8357604051631f2a200560e01b815260040160405180910390fd5b33600090815260056020526040902054831115610cb35760405163bb55fd2760e01b815260040160405180910390fd5b600354600003610cd65760405163bb55fd2760e01b815260040160405180910390fd5b600354600254610ce69085610f6c565b610cf09190610f89565b915060035460015484610d039190610f6c565b610d0d9190610f89565b9050811580610d1a575080155b15610d3857604051631f2c4df760e11b815260040160405180910390fd5b3360009081526005602052604081208054859290610d57908490610fab565b925050819055508260036000828254610d709190610fab565b925050819055508160026000828254610d899190610fab565b925050819055508060016000828254610da29190610fab565b909155505060005460405163a9059cbb60e01b8152336004820152602481018390526001600160a01b039091169063a9059cbb906044016020604051808303816000875af1158015610df8573d6000803e3d6000fd5b505050506040513d601f19601f82011682018060405250810190610e1c9190610fd1565b610e39576040516312171d8360e31b815260040160405180910390fd5b604051600090339084908381818185875af1925050503d8060008114610e7b576040519150601f19603f3d011682016040523d82523d6000602084013e610e80565b606091505b5050905080610ea2576040516312171d8360e31b815260040160405180910390fd5b604080518481526020810184905290810185905233907f1dc8bb69df2b8e91fbdcbfcf93d951b3f0000f085a95fe3f7946d6161439245d9060600160405180910390a25060016006559092909150565b600060208284031215610f0457600080fd5b5035919050565b60008060408385031215610f1e57600080fd5b50508035926020909101359150565b600060208284031215610f3f57600080fd5b81356001600160a01b038116811461037b57600080fd5b634e487b7160e01b600052601160045260246000fd5b8082028115828204841417610f8357610f83610f56565b92915050565b600082610fa657634e487b7160e01b600052601260045260246000fd5b500490565b81810381811115610f8357610f83610f56565b80820180821115610f8357610f83610f56565b600060208284031215610fe357600080fd5b8151801515811461037b57600080fdfea26469706673582212205da9b87f71a55ed5bd8126d785e8d284291a9dcd7994331ccb44319ec70051e064736f6c63430008140033a2646970667358221220a589720713132a74a479817cdab0055a43701a732d21c547db2aaeed9a33cb0564736f6c63430008140033",
  "linkReferences": {},
  "deployedLinkReferences": {}
}