{
  "_format": "hh-sol-artifact-1",
  "contractName": "JammAMM",
  "sourceName": "src/contracts/JammAMM.sol",
  "abi": [
    {
      "inputs": [
        {
          "internalType": "address",
          "name": "_token",
          "type": "address"
        }
      ],
      "stateMutability": "nonpayable",
      "type": "constructor"
    },
    {
      "inputs": [],
      "name": "InsufficientLiquidity",
      "type": "error"
    },
    {
      "inputs": [],
      "name": "InvalidLiquidityAmount",
      "type": "error"
    },
    {
      "inputs": [],
      "name": "ReentrancyDetected",
      "type": "error"
    },
    {
      "inputs": [],
      "name": "SlippageExceeded",
      "type": "error"
    },
    {
      "inputs": [],
      "name": "TransferFailed",
      "type": "error"
    },
    {
      "inputs": [],
      "name": "ZeroAddress",
      "type": "error"
    },
    {
      "inputs": [],
      "name": "ZeroAmount",
      "type": "error"
    },
    {
      "anonymous": false,
      "inputs": [
        {
          "indexed": true,
          "internalType": "address",
          "name": "provider",
          "type": "address"
        },
        {
          "indexed": false,
          "internalType": "uint256",
          "name": "ethAmount",
          "type": "uint256"
        },
        {
          "indexed": false,
          "internalType": "uint256",
          "name": "tokenAmount",
          "type": "uint256"
        },
        {
          "indexed": false,
          "internalType": "uint256",
          "name": "liquidityMinted",
          "type": "uint256"
        }
      ],
      "name": "LiquidityAdded",
      "type": "event"
    },
    {
      "anonymous": false,
      "inputs": [
        {
          "indexed": true,
          "internalType": "address",
          "name": "provider",
          "type": "address"
        },
        {
          "indexed": false,
          "internalType": "uint256",
          "name": "ethAmount",
          "type": "uint256"
        },
        {
          "indexed": false,
          "internalType": "uint256",
          "name": "tokenAmount",
          "type": "uint256"
        },
        {
          "indexed": false,
          "internalType": "uint256",
          "name": "liquidityBurned",
          "type": "uint256"
        }
      ],
      "name": "LiquidityRemoved",
      "type": "event"
    },
    {
      "anonymous": false,
      "inputs": [
        {
          "indexed": true,
          "internalType": "address",
          "name": "user",
          "type": "address"
        },
        {
          "indexed": false,
          "internalType": "uint256",
          "name": "ethIn",
          "type": "uint256"
        },
        {
          "indexed": false,
          "internalType": "uint256",
          "name": "tokenIn",
          "type": "uint256"
        },
        {
          "indexed": false,
          "internalType": "uint256",
          "name": "ethOut",
          "type": "uint256"
        },
        {
          "indexed": false,
          "internalType": "uint256",
          "name": "tokenOut",
          "type": "uint256"
        }
      ],
      "name": "Swap",
      "type": "event"
    },
    {
      "inputs": [],
      "name": "DEAD_ADDRESS",
      "outputs": [
        {
          "internalType": "address",
          "name": "",
          "type": "address"
        }
      ],
      "stateMutability": "view",
      "type": "function"
    },
    {
      "inputs": [],
      "name": "FEE_DENOMINATOR",
      "outputs": [
        {
          "internalType": "uint256",
          "name": "",
          "type": "uint256"
        }
      ],
      "stateMutability": "view",
      "type": "function"
    },
    {
      "inputs": [],
      "name": "FEE_PERCENT",
      "outputs": [
        {
          "internalType": "uint256",
          "name": "",
          "type": "uint256"
        }
      ],
      "stateMutability": "view",
      "type": "function"
    },
    {
      "inputs": [],
      "name": "MINIMUM_LIQUIDITY",
      "outputs": [
        {
          "internalType": "uint256",
          "name": "",
          "type": "uint256"
        }
      ],
      "stateMutability": "view",
      "type": "function"
    },
    {
      "inputs": [
        {
          "internalType": "uint256",
          "name": "tokenAmount",
          "type": "uint256"
        }
      ],
      "name": "addLiquidity",
      "outputs": [
        {
          "internalType": "uint256",
          "name": "liquidityMinted",
          "type": "uint256"
        }
      ],
      "stateMutability": "payable",
      "type": "function"
    },
    {
      "inputs": [],
      "name": "feeRecipient",
      "outputs": [
        {
          "internalType": "address",
          "name": "",
          "type": "address"
        }
      ],
      "stateMutability": "view",
      "type": "function"
    },
    {
      "inputs": [
        {
          "internalType": "uint256",
          "name": "tokenIn",
          "type": "uint256"
        }
      ],
      "name": "getETHOut",
      "outputs": [
        {
          "internalType": "uint256",
          "name": "",
          "type": "uint256"
        }
      ],
      "stateMutability": "view",
      "type": "function"
    },
    {
      "inputs": [],
      "name": "getPrice",
      "outputs": [
        {
          "internalType": "uint256",
          "name": "",
          "type": "uint256"
        }
      ],
      "stateMutability": "view",
      "type": "function"
    },
    {
      "inputs": [
        {
          "internalType": "uint256",
          "name": "ethIn",
          "type": "uint256"
        }
      ],
      "name": "getTokenOut",
      "outputs": [
        {
          "internalType": "uint256",
          "name": "",
          "type": "uint256"
        }
      ],
      "stateMutability": "view",
      "type": "function"
    },
    {
      "inputs": [
        {
          "internalType": "address",
          "name": "",
          "type": "address"
        }
      ],
      "name": "liquidity",
      "outputs": [
        {
          "internalType": "uint256",
          "name": "",
          "type": "uint256"
        }
      ],
      "stateMutability": "view",
      "type": "function"
    },
    {
      "inputs": [
        {
          "internalType": "uint256",
          "name": "liquidityAmount",
          "type": "uint256"
        }
      ],
      "name": "removeLiquidity",
      "outputs": [
        {
          "internalType": "uint256",
          "name": "ethAmount",
          "type": "uint256"
        },
        {
          "internalType": "uint256",
          "name": "tokenAmount",
          "type": "uint256"
        }
      ],
      "stateMutability": "nonpayable",
      "type": "function"
    },
    {
      "inputs": [],
      "name": "reserveETH",
      "outputs": [
        {
          "internalType": "uint256",
          "name": "",
          "type": "uint256"
        }
      ],
      "stateMutability": "view",
      "type": "function"
    },
    {
      "inputs": [],
      "name": "reserveToken",
      "outputs": [
        {
          "internalType": "uint256",
          "name": "",
          "type": "uint256"
        }
      ],
      "stateMutability": "view",
      "type": "function"
    },
    {
      "inputs": [
        {
          "internalType": "uint256",
          "name": "minTokenOut",
          "type": "uint256"
        }
      ],
      "name": "swapETHForToken",
      "outputs": [
        {
          "internalType": "uint256",
          "name": "tokenOut",
          "type": "uint256"
        }
      ],
      "stateMutability": "payable",
      "type": "function"
    },
    {
      "inputs": [
        {
          "internalType": "uint256",
          "name": "tokenIn",
          "type": "uint256"
        },
        {
          "internalType": "uint256",
          "name": "minETHOut",
          "type": "uint256"
        }
      ],
      "name": "swapTokenForETH",
      "outputs": [
        {
          "internalType": "uint256",
          "name": "ethOut",
          "type": "uint256"
        }
      ],
      "stateMutability": "nonpayable",
      "type": "function"
    },
    {
      "inputs": [],
      "name": "token",
      "outputs": [
        {
          "internalType": "address",
          "name": "",
          "type": "address"
        }
      ],
      "stateMutability": "view",
      "type": "function"
    },
    {
      "inputs": [],
      "name": "totalLiquidity",
      "outputs": [
        {
          "internalType": "uint256",
          "name": "",
          "type": "uint256"
        }
      ],
      "stateMutability": "view",
      "type": "function"
    }
  ],
  "bytecode": "0x6080604052600160055534801561001557600080fd5b5060405161113238038061113283398101604081905261003491610080565b6001600160a01b03811661005b5760405163d92e233d60e01b815260040160405180910390fd5b600080546001600160a01b0319166001600160a01b03929092169190911790556100b0565b60006020828403121561009257600080fd5b81516001600160a01b03811681146100a957600080fd5b9392505050565b611073806100bf6000396000f3fe6080604052600436106100fe5760003560e01c806380cb1a6e11610095578063ba9a7a5611610064578063ba9a7a5614610295578063d73792a914610295578063eaf98d23146102ab578063f4325d67146102c0578063fc0c546a146102d657600080fd5b806380cb1a6e146101fe57806398d5fdca1461021e5780639c8f9f2314610233578063b8c876b11461026857600080fd5b80631b3d2cb3116100d15780631b3d2cb31461018257806346904840146101955780634e6fd6c4146101d557806351c6590a146101eb57600080fd5b8063100af2031461010357806315770f921461012c57806315d6dae9146101425780631618e13014610162575b600080fd5b34801561010f57600080fd5b5061011960025481565b6040519081526020015b60405180910390f35b34801561013857600080fd5b5061011960035481565b34801561014e57600080fd5b5061011961015d366004610f3c565b6102f6565b34801561016e57600080fd5b5061011961017d366004610f55565b610364565b610119610190366004610f3c565b610679565b3480156101a157600080fd5b506101bd73227d5f29bab4cec30f511169886b86faef61c6bc81565b6040516001600160a01b039091168152602001610123565b3480156101e157600080fd5b506101bd61dead81565b6101196101f9366004610f3c565b61091c565b34801561020a57600080fd5b50610119610219366004610f3c565b610be0565b34801561022a57600080fd5b50610119610c47565b34801561023f57600080fd5b5061025361024e366004610f3c565b610c80565b60408051928352602083019190915201610123565b34801561027457600080fd5b50610119610283366004610f77565b60046020526000908152604090205481565b3480156102a157600080fd5b506101196103e881565b3480156102b757600080fd5b50610119600481565b3480156102cc57600080fd5b5061011960015481565b3480156102e257600080fd5b506000546101bd906001600160a01b031681565b60008115806103055750600254155b1561031257506000919050565b60006103e8610322600485610fb6565b61032c9190610fd3565b6103369084610ff5565b9050806002546103469190611008565b6001546103539083610fb6565b61035d9190610fd3565b9392505050565b60006005546001146103895760405163c5f2be5160e01b815260040160405180910390fd5b600260055560008390036103b057604051631f2a200560e01b815260040160405180910390fd5b60015415806103bf5750600254155b156103dd5760405163bb55fd2760e01b815260040160405180910390fd5b6000836001546103ed9190611008565b6002546103fa9086610fb6565b6104049190610fd3565b905060006103e8610416600484610fb6565b6104209190610fd3565b905061042c8183610ff5565b92508383101561044f57604051638199f5f360e01b815260040160405180910390fd5b6002548311156104725760405163bb55fd2760e01b815260040160405180910390fd5b84600160008282546104849190611008565b92505081905550816002600082825461049d9190610ff5565b90915550506000546040516323b872dd60e01b8152336004820152306024820152604481018790526001600160a01b03909116906323b872dd906064016020604051808303816000875af11580156104f9573d6000803e3d6000fd5b505050506040513d601f19601f8201168201806040525081019061051d919061101b565b61053a576040516312171d8360e31b815260040160405180910390fd5b60405160009073227d5f29bab4cec30f511169886b86faef61c6bc9083908381818185875af1925050503d8060008114610590576040519150601f19603f3d011682016040523d82523d6000602084013e610595565b606091505b50509050806105b7576040516312171d8360e31b815260040160405180910390fd5b604051600090339086908381818185875af1925050503d80600081146105f9576040519150601f19603f3d011682016040523d82523d6000602084013e6105fe565b606091505b5050905080610620576040516312171d8360e31b815260040160405180910390fd5b604080516000808252602082018a90528183018890526060820152905133917f49926bbebe8474393f434dfa4f78694c0923efa07d19f2284518bfabd06eb737919081900360800190a250505050600160055592915050565b600060055460011461069e5760405163c5f2be5160e01b815260040160405180910390fd5b6002600555346000036106c457604051631f2a200560e01b815260040160405180910390fd5b60015415806106d35750600254155b156106f15760405163bb55fd2760e01b815260040160405180910390fd5b60006103e8610701600434610fb6565b61070b9190610fd3565b905060006107198234610ff5565b9050806002546107299190611008565b6001546107369083610fb6565b6107409190610fd3565b92508383101561076357604051638199f5f360e01b815260040160405180910390fd5b6001548311156107865760405163bb55fd2760e01b815260040160405180910390fd5b80600260008282546107989190611008565b9250508190555082600160008282546107b19190610ff5565b909155505060405160009073227d5f29bab4cec30f511169886b86faef61c6bc9084908381818185875af1925050503d806000811461080c576040519150601f19603f3d011682016040523d82523d6000602084013e610811565b606091505b5050905080610833576040516312171d8360e31b815260040160405180910390fd5b60005460405163a9059cbb60e01b8152336004820152602481018690526001600160a01b039091169063a9059cbb906044016020604051808303816000875af1158015610884573d6000803e3d6000fd5b505050506040513d601f19601f820116820180604052508101906108a8919061101b565b6108c5576040516312171d8360e31b815260040160405180910390fd5b604080513481526000602082018190528183015260608101869052905133917f49926bbebe8474393f434dfa4f78694c0923efa07d19f2284518bfabd06eb737919081900360800190a25050506001600555919050565b60006005546001146109415760405163c5f2be5160e01b815260040160405180910390fd5b6002600555341580610951575081155b1561096f57604051631f2a200560e01b815260040160405180910390fd5b6003546000036109ec5750346103e8811161099d57604051631f2c4df760e11b815260040160405180910390fd5b3460025560018290556000805260046020526103e87f17ef568e3e12ab5b9c7254a8d58478811de00f9e6eb34345acd53bf8fd09d3ec81905560038190556109e59082610ff5565b9050610a8f565b6000600254600354346109ff9190610fb6565b610a099190610fd3565b9050600060015460035485610a1e9190610fb6565b610a289190610fd3565b9050808210610a375780610a39565b815b925082600003610a5c57604051631f2c4df760e11b815260040160405180910390fd5b3460026000828254610a6e9190611008565b925050819055508360016000828254610a879190611008565b909155505050505b6000546040516323b872dd60e01b8152336004820152306024820152604481018490526001600160a01b03909116906323b872dd906064016020604051808303816000875af1158015610ae6573d6000803e3d6000fd5b505050506040513d601f19601f82011682018060405250810190610b0a919061101b565b610b27576040516312171d8360e31b815260040160405180910390fd5b60006103e860035414610b3a5733610b3e565b61dead5b6001600160a01b038116600090815260046020526040812080549293508492909190610b6b908490611008565b925050819055508160036000828254610b849190611008565b909155505060408051348152602081018590529081018390526001600160a01b038216907f64b83944e79c3ce8d4c297411de637c3e102d064677aac0c163976ebdcd6f50e9060600160405180910390a2506001600555919050565b6000811580610bef5750600154155b15610bfc57506000919050565b600082600154610c0c9190611008565b600254610c199085610fb6565b610c239190610fd3565b90506103e8610c33600483610fb6565b610c3d9190610fd3565b61035d9082610ff5565b6000600154600003610c595750600090565b600154600254610c7190670de0b6b3a7640000610fb6565b610c7b9190610fd3565b905090565b600080600554600114610ca65760405163c5f2be5160e01b815260040160405180910390fd5b60026005556000839003610ccd57604051631f2a200560e01b815260040160405180910390fd5b33600090815260046020526040902054831115610cfd5760405163bb55fd2760e01b815260040160405180910390fd5b600354600003610d205760405163bb55fd2760e01b815260040160405180910390fd5b600354600254610d309085610fb6565b610d3a9190610fd3565b915060035460015484610d4d9190610fb6565b610d579190610fd3565b9050811580610d64575080155b15610d8257604051631f2c4df760e11b815260040160405180910390fd5b3360009081526004602052604081208054859290610da1908490610ff5565b925050819055508260036000828254610dba9190610ff5565b925050819055508160026000828254610dd39190610ff5565b925050819055508060016000828254610dec9190610ff5565b909155505060005460405163a9059cbb60e01b8152336004820152602481018390526001600160a01b039091169063a9059cbb906044016020604051808303816000875af1158015610e42573d6000803e3d6000fd5b505050506040513d601f19601f82011682018060405250810190610e66919061101b565b610e83576040516312171d8360e31b815260040160405180910390fd5b604051600090339084908381818185875af1925050503d8060008114610ec5576040519150601f19603f3d011682016040523d82523d6000602084013e610eca565b606091505b5050905080610eec576040516312171d8360e31b815260040160405180910390fd5b604080518481526020810184905290810185905233907f1dc8bb69df2b8e91fbdcbfcf93d951b3f0000f085a95fe3f7946d6161439245d9060600160405180910390a25060016005559092909150565b600060208284031215610f4e57600080fd5b5035919050565b60008060408385031215610f6857600080fd5b50508035926020909101359150565b600060208284031215610f8957600080fd5b81356001600160a01b038116811461035d57600080fd5b634e487b7160e01b600052601160045260246000fd5b8082028115828204841417610fcd57610fcd610fa0565b92915050565b600082610ff057634e487b7160e01b600052601260045260246000fd5b500490565b81810381811115610fcd57610fcd610fa0565b80820180821115610fcd57610fcd610fa0565b60006020828403121561102d57600080fd5b8151801515811461035d57600080fdfea2646970667358221220a6a4caf8a1a9fc1b4c86869cc693f98a3859aafb60ec4abf6243a58227b3ecb764736f6c63430008140033",
  "linkReferences": {},
  "deployedLinkReferences": {}
}